:020000040800F2
:10600000081000207974000821E9000825E900083B
:10601000C74A030829E9000831E90008C74A03080C
:10602000C74A0308C74A0308C74A0308C74A030800
:1060300035E90008F8860408C74A0308C74A030878
:10604000BD780008C74A0308C74A0308C74A0308BF
:10605000C74A0308C74A0308C74A0308C74A0308D0
:10606000C74A03082D7100081D710008C74A0308BC
:10607000C74A0308C74A0308C74A0308C74A0308B0
:10608000C74A0308C74A0308C74A0308C74A0308A0
:10609000C74A0308A5800008C74A0308C74A03087F
:1060A000C74A0308497C0008217C0008C74A030846
:1060B000C74A03087DFC010829070208B3DF03086B
:1060C000AFDF0308B9FE0108C9DF0308B7DF030823
:1060D000F9060208BBDF030869070208D5070208B2
:1060E000C74A0308C74A0308C74A0308C74A030840
:1060F0000D830308C74A0308C74A0308C74A0308B1
:10610000C74A0308C74A0308C74A0308C74A03081F
:10611000C74A0308C74A0308C74A0308C74A03080F
:10612000C74A0308C74A0308C74A0308C74A0308FF
:10613000C74A0308C74A0308C74A0308C74A0308EF
:10614000C74A0308C74A0308C74A0308AF3504080B
:1061500051EB0108C74A03089FDF0308A5DF0308C6
:10616000C74A0308C74A0308C74A0308C74A0308BF
:10617000194A5AB3194BDB6913F0040F29D110B433
:106180000AE003EA00048C4210D0013AB2B1134B8A
:10619000DB6913F0040F14D110F0010FF1D1104C92
:1061A0001C40002CEDD06FF001000CE00C4A1A40AE
:1061B0000AB9002007E06FF0010004E06FF0020070
:1061C00001E04FF0FF305DF8044B70476FF00200C4
:1061D00070474FF0FF3070478096980000000350E2
:1061E000020001000D4BDB6913F4803F12D170B542
:1061F0000A4B03F580560124F46003F500552C6426
:106200004FF480721A6100212046FFF7B1FF346419
:10621000EC6070BD6FF00100704700BF00000350DC
:1062200010B5124B4FF480329A6603F51C33DC69CB
:10623000144041F67132DA6303F580520121D160D6
:10624000586102221A6100212120FFF791FF40B11D
:10625000074B0122DA601CB1A3F500530022DA6378
:1062600010BD00212120FFF783FFF1E700900050CF
:106270000020035038B51A4B5861DB6913F0040F46
:106280002AD10C4654F8041B154B9961151F06E0E2
:10629000214651F8042B124B9A61043D0C465DB126
:1062A00008210846FFF764FF03460028F0D00C4A97
:1062B00004211161184638BD094B04221A610021DE
:1062C0002120FFF755FF03460028F3D100212120AC
:1062D000FFF74EFF0346EDE74FF0FF33EAE700BF5D
:1062E000000003502DE9F0410F46164605461A4BB3
:1062F0004FF480329A6603F51C33DA6902F4803871
:1063000041F67132DA6303F580530122DA6000232B
:1063100002E025442744361B8EB105F5005424F4D1
:10632000FF5424F01F04641BB44228BF34462246A5
:1063300039462846FFF79EFF03460028E9D0074A62
:106340000121D160B8F1000F03D0A2F50052002165
:10635000D1631846BDE8F081009000500020035042
:106360002DE9F04F2DED028B93B082460C469346FB
:106370001D4657EC106B8DED080B32463B46304600
:1063800039462DF0A3FC002800F009814FF0FF32C0
:10639000B14B304639462DF0C1FC002840F0FF805B
:1063A0004FF0FF326FF48013304639462DF098FCE1
:1063B000002840F0F48000220023DDE90867304621
:1063C00039462DF08DFC002840F0FC809DED087BC7
:1063D0008DED067B209B13F48063119301D106237E
:1063E0001E93DDE906010246C1F30A50C1F313030F
:1063F000904643F07F5949F44019A0F2FF302DF048
:1064000093F983A3D3E900232DF0F8F982A3D3E90C
:1064100000232DF03DF806460F4600228F4B4046E4
:1064200049462DF033F87EA3D3E900232DF0E6F999
:1064300002460B46304639462DF02AF82DF078FCFE
:1064400006462DF071F98046894677A3D3E90023EB
:106450002DF0D4F90022824B2DF01AF82DF068FCB3
:10646000074673A3D3E90023404649462DF0C6F9F9
:106470008046894638462DF057F96FA3D3E90023AB
:106480002DF0BCF902460B46404649462CF0FEFF73
:106490008046894602460B462DF0B0F9CDE90C0145
:1064A00007F2FF3700210022CDE90A123B050B93CA
:1064B00000230A9342464B46404649462CF0E8FFEB
:1064C000CDE90E0142464B4600204FF080412CF0B2
:1064D000DDFF804689460022624BDDE90C012DF08C
:1064E000B7FA0022604B2CF0D3FF02460B46DDE9E1
:1064F0000C012DF0ADFA00225C4B2CF0C9FF0246D6
:106500000B46DDE90C012DF0A3FA02460B4640468E
:1065100049462CF0BDFF02460B46DDE90E012DF089
:1065200097FA0022524B2CF0B3FFDDE90A232DF03D
:1065300065F98046894649EC188BDDE906232DF084
:10654000EDFB40B1013E0022474B404649462DF04D
:106550007FFA41EC180B06F16303C62B3BD80427E6
:10656000209B13F4006F40D035A3D3E90023DDE96D
:106570000689404649462DF0C7FB00283BD032A390
:10658000D3E90023404649462DF0AAFB002832D02B
:106590001E9BB34221DD9E1B731E1E931FE0209B9A
:1065A00002931F9B01931E9B00939DED080B2B46AE
:1065B0005A462146504600F0CBF813B0BDEC028B92
:1065C000BDE8F08F9FED227B8DED067B069607F1EF
:1065D00000430793FEE60527C2E700231E93209B96
:1065E00043F48063209300273E461F9B9F4241D285
:1065F000A3EB070840E01E9B002BF6D0119B002B5D
:10660000F3D01E9B013B1E93EFE700BFAFF300806A
:10661000FB799F501344D33FB3C8608B288AC63F91
:1066200061436F63A787D23F71A379094F930A40F3
:106630001655B5BBB16B0240EF39FAFE422EE63F6C
:106640002D431CEBE2361A3F0000000080842E41EF
:106650000000000000000000FFFFEF7F0000F83F97
:106660000000E03F00002C400000244000001840E3
:106670000000F03F4FF00008209B13F0020902D009
:106680000FB14FF000083EB153EC182BDDE90601C5
:106690002DF0DEF9CDE9060100220023DDE9080135
:1066A0002DF01EFB00283BD1209B23F400630293B6
:1066B000CDF804801E9B00939DED060B2B465A4699
:1066C0002146504600F044F8002F3FF476AF209B5F
:1066D00013F0200F2CD04FF0450C00F101082B4691
:1066E000024621466046D04786EAE672A2EBE67291
:1066F00005230593013F0497002303930A23029384
:10670000F30F019300922B4642462146504636F045
:106710006DFFB9F1000F3FF450AF02461F9F10E02C
:10672000DDE90601024601F10043CDE90623BBE79E
:106730004FF0650CD1E7561C2B4621462020D04750
:106740003246A2EB0B03BB42F5D3104635E700BF40
:106750002DE9F04F2DED028B93B0059008919246F4
:106760009B4659EC108B1E9D42464B46404649467F
:106770002DF0ACFA002840D04FF0FF326FF48013B8
:10678000404649462DF0ACFA002845D14FF0FF3283
:10679000B14B404649462DF0C1FA00284BD1AAA37F
:1067A000D3E90023404649462DF0B8FA00285AD1D3
:1067B000A7A3D3E90023404649462DF091FA0028CB
:1067C00051D100220023404649462DF089FA002885
:1067D00057D100230993209B13F4806F5CD00024D1
:1067E0001F2C5BD8092D59D904F148036B44302282
:1067F00003F8202C013D0134F2E7209B03931F9BFB
:10680000029303230193954B00935B4652460899EC
:10681000059836F011FE10E1209B03931F9B029315
:10682000042301938E4B00935B46524608990598CA
:1068300036F002FE01E1209B13F004030FD0894AD9
:106840007BB10423209903911F9902910193009237
:106850005B4652460899059836F0EEFDEDE0824A17
:10686000EEE70323EEE7209B02931F9B0193009525
:1068700049EC108B5B46524608990598FFF770FD6E
:10688000DBE042464B46002000212CF0FFFD804615
:106890008946012309939EE70625A0E7404649461D
:1068A0002DF046FA06462CF03FFF02460B464046C6
:1068B00049462CF0EBFD6D4B03EBC50393ED008BCC
:1068C00053EC182B2CF09AFF02460B46CDE9062319
:1068D0002DF056FA07462CF017FF02460B46DDE96D
:1068E00006012CF0D3FD02460B46CDE9062300221B
:1068F0005F4B2DF013FA50B3013738462CF004FFEC
:1069000002460B4651EC180B2DF0F4F908B1013694
:10691000002755BB30462CF007FF02460B46404689
:1069200049462CF0B3FD804689460022504B2DF09D
:10693000D7F938B100224E4B404649462DF0EEF9CA
:10694000002842D016F0010F3FD001363DE0002272
:10695000474BDDE906012DF0C3F90028D9D117B165
:1069600017F0010FD5D00137D3E71F2C17D8013D01
:10697000404BA3FB0723DB08194603EB8303A7EB7C
:106980004303621C303304F148000DEB000404F8AB
:10699000203C092F02D90F461446E6E714461F2C67
:1069A0000AD86B1E45B104F148026A44302102F84E
:1069B000201C1D460134F2E71F2C06D804F14803C1
:1069C0006B442E2203F8202C01341F2C17D82A4A9E
:1069D00082FB0632F317C3EBA2031A4603EB8303D1
:1069E000A6EB4303611C303304F148000DEB0004B7
:1069F00004F8203C16460AB10C46E6E70C46209BFC
:106A000003F00303012B39D01F2C09D8099B002B5D
:106A100051D004F148036B442D2203F8202C01349B
:106A2000209B03931F9B029301940AAB00935B4648
:106A300052460899059836F0FFFC13B0BDEC028B66
:106A4000BDE8F08FAFF300800000000065CDCD41C0
:106A50000000000065CDCDC1FFFFEF7F1CE1040801
:106A600020E1040810E1040818E1040828E1040802
:106A70000000E03FCDCCCCCC676666661F9BB3B10F
:106A8000099B1BB9209B13F00C0F12D01F9B013BDD
:106A90001F93194606E004F148036B44302203F8C3
:106AA000202C01348C42AFD21F2CF4D9ACE71F99B3
:106AB000F8E71F99F6E7209B13F0040F07D004F1C5
:106AC00048036B442B2203F8202C0134A8E7209BB9
:106AD00013F0080FA4D004F148036B44202203F8FC
:106AE000202C01349CE700BF70B58EB02C22002111
:106AF00003A83AF08BF864234FF002320893CDE9F3
:106B000005230B2301218DF83430534B8DF81010E1
:106B10001B88D80700F1988008463BF09DFA0A22AE
:106B20004E4B4F491A704FF428734E48ADF812304F
:106B300019F00EFF4C4C206020B94FF416714B48F1
:106B40003AF010FA0521206837F0EDFA20B14FF441
:106B50001A7146483AF006FA206800F0F7FA444BFA
:106B60002068196836F052FE0C253BF0A9FE6843F8
:106B700009903BF0A5FE68430DEB050107902068E6
:106B800014F00AF820B140F27D2138483AF0EAF9D1
:106B900025681CF025FD00220146284636F0A6FE99
:106BA00020B140F27F2131483AF0DCF940F2035342
:106BB000304D314E2B80052396F90000AB707F28B5
:106BC00001D11AF05DFA3378EB703BF079FE00EBFF
:106BD00080008000A8803BF073FE0023C0004FF0CF
:106BE000FF31E880AB604FF0FF3019A3D3E90023F9
:106BF0003BF084FB2149206836F035FE206802A96D
:106C000037F045FB20B14FF42E7118483AF0AAF93D
:106C1000042220680DEB020136F0CDFD042804D0DB
:106C200040F2BB2111483AF09DF901A9012035F04D
:106C30002CF807F0B9FE01201AF0BEFE2FF0CDFEB1
:106C40001AF0E4FE1AF0B4F90EB070BDAFF3008094
:106C50000A0020FF4203000090400020FE41002077
:106C60008120040848470020543D00203C210508AD
:106C700088450020483D0020664A0020F520040891
:106C80000348044B834202D0034B03B118477047BB
:106C9000984A0020984A002000000000064B07494F
:106CA000C91A891048BF0131491003D0044B0BB1F8
:106CB00001481847704700BF984A0020984A0020B2
:106CC0000000000010B5064C237843B9FFF7D8FF49
:106CD000044B13B10448AFF300800123237010BDAF
:106CE00076410020000000000425050808B5054B8A
:106CF0001BB105490548AFF30080BDE80840FFF728
:106D0000CDBF00BF0000000040140020042505088E
:106D1000A3F5803A704700BF174B002B08BF134BF9
:106D20009D46FFF7F5FF00218B460F461348144A96
:106D3000121A39F06BFF0E4B002B00D098470D4B09
:106D4000002B00D098470020002104000D000D48C2
:106D5000002802D00C48AFF300802DF083FB200008
:106D600029002DF0B5FB2DF0BBF900BF0000080095
:106D700000000000000000000810002008100020A3
:106D800058420020000000000000000008B533F069
:106D9000F9F8022800D008BDFF21064832F046F875
:106DA00001200BF08FFB0346034A012104200BF066
:106DB00021FBF0E7581400208839040800B585B09D
:106DC00033F0E0F8022804D00CF02AFC05B05DF89E
:106DD00004FB022300930DF10E0300220321012086
:106DE00033F038FCBDF80E304BB107482DF069FF89
:106DF0004FF47A62FF21054832F009F8E6E70248CD
:106E00002DF055FFE2E700BF6076040878140020FB
:106E100008B5162802D0152804D008BD05482DF065
:106E20004BFFFAE703482DF042FFFF21024831F003
:106E3000F6FFF2E7607604085814002030B583B0FE
:106E4000094DFF2400942346084A002128460AF0F1
:106E50007FFF074907480AF0F5FF2146284631F031
:106E6000DEFF03B030BD00BF78140020BD6D000808
:106E70008D6D00085814002008B50346024A012110
:106E800004200BF0B7FA08BDAC390408062900D07D
:106E90007047002AFCD1402BFAD100B585B0012300
:106EA00000930DF10F0333F0D5FB28B99DF80F3097
:106EB0002BB105482DF0FBFE05B05DF804FB024840
:106EC0002DF0FAFEF8E700BF6076040800B585B043
:106ED000094B1868094B1860094B0A4A13600A4AA3
:106EE00001920A4A12680292039301A930F054FDFC
:106EF00005B05DF804FB00BF00450020E022002043
:106F0000F4440020DC220020B4750408541700204B
:106F100008B5024B186830F053FD08BD004500204D
:106F200038B506F07BFD0446064D2B68D3F8B00259
:106F300006F068FD286830F05DFD204606F062FD31
:106F400038BD00BF0045002000B583B001A803F0A4
:106F5000DFFD9DF80530012B02D003B05DF804FB86
:106F60009DF80430002BF8D10A4B596E03F580537D
:106F70004FF480125A66084A536B23F0E05343F0F3
:106F80004063536311F4801FE7D1044B4FF4801228
:106F90005A66E2E7008000500040005A00A000500E
:106FA0000023062073B1704754B224B9013353B1A2
:106FB0005DF8044B70470228F8D008680A49086059
:106FC0001046F3E710B4094A52F823100A7A022A4D
:106FD000EAD9032AEAD1441EE4B2012CE6D90868B2
:106FE000014908601046E1E75417002004450020DD
:106FF00010B596B0214C0DF13C0CA646BEE80F0032
:10700000ACE80F009EE807008CE8070000230A9315
:107010000B930C930D930E93194A0A9229220B920B
:1070200008228DF831204FF0090E8DF833E008AAC0
:107030001C3494E8030082E803000DF1080C02936D
:10704000039304930593069307938CE803008DF84C
:1070500010E00A238DF811300A4B05938023069324
:1070600001238DF81D30084B00930AAB0FAA61462F
:10707000064806F069FF16B010BD00BF3C76040854
:1070800000C0055058170020D817002044180020D1
:1070900010B50C46831EDBB2012B0BD9A31EDBB24D
:1070A000012B13D9F4B9154B18680368E3B106F046
:1070B00015FF19E00129F1D8114B1B6CC3F3002314
:1070C00004220821002003F095FBEBE70128E9D812
:1070D0000B4B1B6CC3F3002300220821104603F066
:1070E00089FBDFE7012C00D910BD044B1868036849
:1070F000002BF9D031F011FBF6E700BF1845002056
:1071000000C0035008B50349034807F057FFFFF7D5
:107110006FFF08BD1C4500206818002008B5024814
:1071200031F074FB08BD00BF4418002008B50248C8
:1071300031F06CFB08BD00BF4418002008B5024BBD
:107140001A6A1868904708BD4418002038B50446EC
:107150002DF019FA054618B10220034B1D7038BDF9
:10716000204613F047FDF8E77741002008B50248B4
:107170002DF098FD08BD00BF6076040800B585B00D
:107180000346084A92E8030002908DF80C1002AA08
:10719000009200220521012009F026FF05B05DF8CC
:1071A00004FB00BF7876040800B585B00346084AA2
:1071B00092E8030002908DF80C1002AA009242227D
:1071C0000521012009F010FF05B05DF804FB00BFA8
:1071D0008076040800B585B00346084A92E80300AB
:1071E00002908DF80C1002AA009240220521012085
:1071F00009F0FAFE05B05DF804FB00BF78760408DC
:1072000000B585B00346064A039203AA0092012204
:107210000821104609F0E8FE05B05DF804FB00BF48
:107220000101212100B585B00346064A039203AA55
:10723000009200220821012009F0D6FE05B05DF879
:1072400004FB00BF0102212100B585B00346084AB6
:107250001268ADF80C20120C8DF80E2003AA0092D3
:1072600042220621012009F0BFFE05B05DF804FBB3
:107270008876040800B585B00346084A1268ADF860
:107280000C20120C8DF80E2003AA00920522114644
:10729000012009F0A9FE05B05DF804FB8C76040816
:1072A00000B585B00346084A92E8030002908DF8C5
:1072B0000C1002AA009202220821012009F094FE7B
:1072C00005B05DF804FB00BF9076040800B585B0FA
:1072D0000346084A1268ADF80C20120C8DF80E20F7
:1072E00003AA009206220821012009F07DFE05B0C4
:1072F0005DF804FB9876040808B50A4601492DF0AC
:10730000D5FA08BDF086040808B50A4601492DF0F3
:10731000CDFA08BDE886040808B50A4601492DF0F3
:10732000C5FA08BDE086040808B50A4601492DF0F3
:10733000BDFA08BDD886040808B50A4601492DF0F3
:10734000B5FA08BDD086040808B50A4601492DF0F3
:10735000ADFA08BDC886040808B50A4601492DF0F3
:10736000A5FA08BDC086040808B50A4601492DF0F3
:107370009DFA08BDB886040808B50A4601492DF0F3
:1073800095FA08BDB086040808B50A4601492DF0F3
:107390008DFA08BDA486040808B50A4601492DF0F7
:1073A00085FA08BD9C86040808B50A4601492DF0F7
:1073B0007DFA08BD9086040808B50A4601492DF0FB
:1073C00075FA08BD8C86040808B50A4601492DF0F7
:1073D0006DFA08BD8886040808B50A4601492DF0F3
:1073E00065FA08BD8086040808B50A4601492DF0F3
:1073F0005DFA08BD7886040808B50A4601492DF0F3
:1074000055FA08BD7086040808B50A4601492DF0F2
:107410004DFA08BD6486040808B50A4601492DF0F6
:1074200045FA08BD5C86040808B50A4601492DF0F6
:107430003DFA08BD5486040808B50A4601492DF0F6
:1074400035FA08BD4886040808B50A4601492DF0FA
:107450002DFA08BD4086040808B50448044A121AEB
:10746000921004492DF030FB08BD00BF7061000888
:1074700060630008F842002008B500F02FF8FFF71D
:10748000EBFF124A0AE01068516850F8230041F8F7
:107490002300013391688B42F5D30C320C4B9A4296
:1074A00001D20023F6E70B4A08E01168002041F8FA
:1074B0002300013351688B42F7D30832064B9A42BE
:1074C00001D20023F6E7FFF727FC00BF0C250508D3
:1074D00018250508182505081825050870B5134B4B
:1074E000134A9A60D3F8882042F47002C3F88820C7
:1074F000104A4FF4804191660F4D05F500544FF04E
:10750000FF3222660D4A62660222C3F8D020BFF322
:107510004F8FBFF36F8F002006F04AFA4FF44036CA
:10752000E660002030F0FEFE2E6170BD00ED00E050
:10753000006000080090005000800044F7FF370012
:10754000014B1860704700BF4845002008B5064B46
:107550001860064B1B6F03F00703032B00D008BD18
:1075600039F0B4FBFBE700BF50450020008000501D
:107570000D4B1B68B3F1FF3F06D04FF4801202FAA7
:1075800003F30A4A13667047094B1B785BB9094B32
:107590004FF400725A6603F5A6235B681BB9034BD0
:1075A0004FF480121A667047544500200090004442
:1075B0007841002000900050084B1B68B3F1FF3F5A
:1075C0000AD1074B1B783BB9064B5B6813F0010FE0
:1075D00002D0024B00221A60704700BF54450020C1
:1075E0007841002000C005504FF000639B6A03F112
:1075F0007842B2F5C04F07D21A680B4B9A4207D0B7
:10760000002303708360704700230370836070471A
:10761000012303704FF000639A6A926842609B6A8C
:107620009B698360704700BF07B0CD5E4C4B1B78F1
:10763000002B69D110B582B004460023019300935A
:1076400000285FD0464B01221A703BF07DFD454B70
:10765000186016F07DF9444B1B78002B58D0434B33
:107660005A6E62619A6EA26103F580524FF48043B4
:1076700093663F4B5968E1613E499960196E2160FC
:10768000596E6160D3F87011A160196CE160596C9A
:1076900021613949086C1864496C596401215166AB
:1076A0001B6E13F4005F44D0344BDB6813F0010F02
:1076B000FAD1FFF75DFF324B04221A664FF40072D5
:1076C0001A662DF02EFAB0F1FF3F38D12C4C08236A
:1076D00023664FF4805323664FF0006323664FF414
:1076E00000236366694601A82DF0F8F9019B236623
:1076F000009B63661C4B1B7823B1224A11682166EC
:107700005268626602B010BD154B02221A707047B3
:1077100001F0ECFD0028A2D108231A4A1A491B489F
:10772000006801F02FFB002899D10F4B01221A703D
:1077300095E7174BDB6813F0010FFAD1B9E72DF08D
:10774000F0F940F201139842C0D00D4B4FF40052B3
:107750001A664FF480421A660422C3F87021B5E716
:1077600079410020901800207A41002000800050CC
:107770000080004455CEAC0000C00054000004401E
:107780000090004494180020007108007845002003
:1077900000000450214B1B78012B03D01F4B01220A
:1077A0001A70704710B5044638B32DF0BAF9B0F12D
:1077B000FF3F23D122681A4B1A6662685A66A26894
:1077C000C3F87021E2681A6422695A64E36913F00D
:1077D000010F02D0124B00229A60FFF7EDFE6269A2
:1077E000104B5A66A2699A6616F0BAF80E4B1868E2
:1077F0003BF0A5FC094B00221A7010BD2DF091F949
:1078000040F201139842D5D0084B01225A66084B2A
:10781000DB6813F0010FFAD1CCE700BF79410020FB
:10782000008000440080005090180020009000402C
:107830000000044070B54FF000639B6A03F178428A
:10784000B2F5C04F2BD21A68184B9A422BD1184B65
:107850001B781BB1022B01D0002422E0154D2846D5
:10786000FFF7E4FE002006F0A3F8134C04F50053E4
:107870004FF48036DE60002030F054FD04F5805473
:1078800026614FF000639B6ADB69984704462846EF
:10789000FFF780FF2CB9064B01221A7001E04FF46C
:1078A0008174204670BD4FF48174FAE707B0CD5E55
:1078B0007841002070180020008000442B4B1B787A
:1078C00003B9FEE700B583B00023009301930823BA
:1078D0006A4627492748006801F054FA48BB264BFE
:1078E000D3F840311F2B1BD9234BD3F84031203B19
:1078F00001229A40019B1343019308236A461C49C5
:107900001C48006801F0F6F91C4B40F20B221A806B
:107910004FF20F025A8030F0FDFC03B05DF804FB1B
:10792000154BD3F8403101229A40009B134300933A
:10793000E3E72D28E8D1104BD3F840311F2B0ED9A7
:107940000D4BD3F84021203A0123934001930823A3
:107950006A4607490748006801F0CCF9D4E7064BAE
:10796000D3F84021012393400093F0E779410020B0
:1079700000710800784500200080004400000020CD
:10798000BFF34F8F0549CA6802F4E062044B13430A
:10799000CB60BFF34F8F00BFFDE700BF00ED00E0FD
:1079A0000400FA05F0B18446F1B110B409E004F125
:1079B00020000FE02033C01A18D1BCB10CF1010C2B
:1079C00001319CF800400B4B1B5D03F00303012BBE
:1079D000EDD020460B78074AD25C02F00302012A60
:1079E000E9D1E7E701207047012070475DF8044BBB
:1079F000704700BF0124050810B504460FE00123BD
:107A0000834024EA03040F2814D800EB40020E4BF5
:107A100003EB82035A6812B19968C0B2904794B1DF
:107A2000234600201F28EAD813F0010FE7D10130C8
:107A30005B08F7E7103800EB40039B00B033024AC5
:107A400013440433E6E710BD9C18002008B50D4828
:107A500030F041FC192005F09BFF28B91A2005F0F1
:107A600097FF40B9002008BD192005F0A1FF19209B
:107A700030F058FCF2E71A2005F09AFF1A2030F097
:107A800051FCEFE7EC8F04082DE9F04170B30C4690
:107A9000174605460F292BD803784BB1022B20D06F
:107AA000032B21D0012B01D0002303E03F2301E071
:107AB00040F2FF336A78D34013F0010F1AD00F4B16
:107AC000D3F81063C6B93BF03FFB80463A462146E7
:107AD000284603F0FBF840463BF031FB3046BDE85A
:107AE000F08140F2FF33E5E73F23E3E72226F5E7A5
:107AF0002126F3E72126F1E70226EFE700C0035035
:107B000040B310B5044603784BB1022B1DD0032BB4
:107B10001ED0012B01D0002303E03F2301E040F2FF
:107B2000FF336278D34013F0010F15D03BF00CFB0C
:107B3000237862780121914003EB43031B01074A3C
:107B4000D1503BF0FCFA002010BD40F2FF33E8E7D3
:107B50003F23E6E7222070472120F5E740D003507D
:107B600040B310B5044603784BB1022B1DD0032B54
:107B70001ED0012B01D0002303E03F2301E040F29F
:107B8000FF336278D34013F0010F15D03BF0DCFADD
:107B9000237862780121914003EB43031B01074ADC
:107BA000D1503BF0CCFA002010BD40F2FF33E8E7A3
:107BB0003F23E6E7222070472120F5E740E003500D
:107BC00040B310B5044603784BB1022B1DD0032BF4
:107BD0001ED0012B01D0002303E03F2301E040F23F
:107BE000FF336278D34013F0010F15D03BF0ACFAAD
:107BF000237862780121914003EB43031B01074A7C
:107C0000D1503BF09CFA002010BD40F2FF33E8E772
:107C10003F23E6E7222070472120F5E740F003509C
:107C200008B5084BD3F82404D3F82024104000F002
:107C3000553020F0502003F50053C3F82004FFF71F
:107C4000DBFE08BD00C0035008B5084BD3F8240480
:107C5000D3F82024104000F0AA3020F0A02003F533
:107C60000053C3F82004FFF7C7FE08BD00C003504F
:107C700010B582B004460A4830F02DFB23788DF809
:107C8000043063788DF80530A278B2FA82F2520996
:107C900004210DEB0100FFF7F7FE002002B010BD3C
:107CA000EC8F0408F0B585B00C4694469DF834106E
:107CB000664A1278002A00F0BD800546BCF1070F25
:107CC00000F2BA800A9A002A00F0B8800B9A002AC3
:107CD00000F0B6800E9AB2F5006F00F3B380012871
:107CE0005BD05B4A02EB0C12127B002A00F0AC80E6
:107CF00000220092019202920392564A02EB4C1E1D
:107D0000002C4FD14FEA4C1600209051CEF80400C1
:107D1000CEF80800CEF80C009EF8020040F01000EB
:107D20008EF802009EF8030040F030008EF8030049
:107D300021B9C1B241F003018EF8031000930E9BEC
:107D4000013B444A4FEA4C1002EB4C11165A63F3C4
:107D50000E1616520A9B8B600B9B4B60CB789DF8DE
:107D60003C2062F38303CB70012D36D0109B002B97
:107D700056D0374A4FEA0C1102EB0C1310985050B2
:107D8000119A5A6000249C605D7372466946604691
:107D900002F0D4FD204605B0F0BD0C9A002AA0D117
:107DA0002D48F8E72B4F4FEA4C1607EB4C120020FA
:107DB000B85150609060D060907840F010009070A2
:107DC000D07840F00300D0700029B7D107EB4C12F7
:107DD000C1B241F03001D170B0E70E460A7B42F0EB
:107DE00001020A73D2B242F002020A73CA68042185
:107DF00061F39F02F26006F1100796E80F0087E832
:107E00000F00F2696FF0030161F39F02F2610C9BB6
:107E10007361012CAAD10B9AB2610C9A7260A5E72A
:107E2000002DA6D10B4B03EB4C139A786FF3041281
:107E30009A709EE70948AEE70748ACE70648AAE70C
:107E40000548A8E70448A6E70548A4E77B410020C9
:107E5000041B0020041A0020018000F0028000F0C2
:107E6000078000F0134B1B78FBB110B50446F0B14E
:107E70003BF06AF90023072B13D80F4A02EB0312D9
:107E8000127B0AB10133F6E723600B4A190102EBBA
:107E9000031301241C73002454503BF050F9204676
:107EA00002E03BF04CF9054810BD05487047054815
:107EB000FAE700BF7B410020041B0020048000F093
:107EC000028000F0018000F038B53BF03DF9044637
:107ED0000023072B06DC0C4A02EB0312127B12B9BB
:107EE0000133F6E7002222B120463BF028F907488B
:107EF00038BD02F0CFFC0025054B1D7020463BF03D
:107F00001EF92846F4E700BF041B0020058000F09E
:107F10007B4100200F4B1B78BBB110B504460728EE
:107F200015D83BF011F90C4B03EB04131B7B1BB969
:107F30003BF005F909480BE0074B03EB0413002461
:107F40001C733BF0FCF8204602E0054870470548EA
:107F500010BD00BF7B410020041B0020068000F004
:107F6000028000F0018000F000B583B0134B1B6865
:107F7000019300238DF804303BF0E6F8104B1B789A
:107F800033B90F4B01221A703BF0D9F8002309E0F6
:107F90003BF0D5F80B480EE00B4A02EB0312002130
:107FA00011730133072BF7DD08238DF8073001A883
:107FB00002F094FC002003B05DF804FB488704083D
:107FC0007B410020038000F0041B002010B5104C02
:107FD0002478BCB1072817DC0E4C04EB0014247B7A
:107FE000A4B10C4C4FEA001E04EB001C44F80E3008
:107FF000029BCCF804300024CCF8084002F09EFC30
:10800000204610BD0448FCE70448FAE70448F8E7B6
:108010007B410020041B0020028000F0018000F062
:10802000078000F008B50A4B1B785BB107280BD816
:10803000084B03EB00131B7B43B1002102F040FC13
:10804000002008BD0448FCE70448FAE70448F8E7C4
:108050007B410020041B0020028000F0018000F022
:10806000078000F008B50A4B1B785BB107280BD8D6
:10807000084B03EB00131B7B43B1012102F020FCF2
:10808000002008BD0448FCE70448FAE70448F8E784
:108090007B410020041B0020028000F0018000F0E2
:1080A000078000F0F8B5194B1F6D5B6D1F4002D4BF
:1080B0000125002402E0FEE701346D00072C24D8DE
:1080C0003D42F9D0124B1D652301124AD358002BB3
:1080D000F2D002EB0416B1680131B160726820463B
:1080E000984780F00100C0B2737B012BE4D10028D7
:1080F000E2D0094B03EB44131A7B6FF341021A736E
:108100001A7F6FF341021A77D6E7F8BD00000450DA
:1081100000200450041B0020041A00202DE9F04F19
:1081200089B005460E4614469846C36B5B6901222A
:1081300007A960689847EB6B5B69012206A9304686
:10814000984707A82DF0D0FF48B10027A77567759D
:108150004FF0FF33A360384609B0BDE8F08F074603
:1081600006A82DF0D1FF0123A375237E033304EB72
:10817000C3035E6000221A816368B3422AD0236879
:10818000834201D00023A37506A82DF0E2FF237DD2
:10819000984201D00023A37506A82DF0B9FF8146AF
:1081A00007A82DF0B5FF814501D00023A37506A8CF
:1081B0002DF0B6FF814607A82DF0B2FF814501D012
:1081C0000023A375237D043BDBB2022B0BD80023D5
:1081D000A375C0E7206006A82DF0BBFF20754FF007
:1081E000FF33A360EEE706A82DF092FF80B1EB6BA2
:1081F0005B69022204A93046984704A82DF09BFF32
:108200000346207D032867D8DFE800F0605A070D99
:1082100006A82DF090FF0346F3E7237E033304EB1B
:10822000C303CC221A812DF0A4FF129B187094F87E
:10823000189006A82DF05FFF09F1030904EBC909A6
:1082400089F80A00237E033304EBC303B3F808A0C4
:1082500093F80AB006A82DF05BFF814606A82DF022
:108260005FFF0390B9F1000F3CD0EB6B5B6902221A
:1082700004A93046984704A82DF019FF6075637D66
:1082800003B9A375A37DA3B1BAF1000F11D0039B6D
:10829000F1186B6C5B4286EA01021A4201D000239E
:1082A000A3756B6C5A1E0A409B1A9A4501D900238C
:1082B000A375A37D8BB3BBF1000F18D1E77D2DE033
:1082C000227E033204EBC2021381ACE7227E03322A
:1082D00004EBC2021381A6E7227E033204EBC20242
:1082E0001381A0E706A82DF0CBFE6075C7E7012239
:1082F000E275627E42B9BBF1010F01D01F460DE06D
:1083000001216176174609E0BBF1010F37D0BBF1BF
:10831000030F03D10122A27600E01F4653B117B12B
:10832000BBF1010F06D95346039A314628462DF07A
:1083300051F8A060A37D13B1236953442361237EC8
:10834000114A127893421CD201332376B8F1000F00
:1083500013D0A37D8BB1E37D7BB177B9BBF1030F64
:108360000BD0A168B1F1FF3F07D0129B009301230E
:1083700022462846FFF7D2FEA075A77DEBE61746FA
:10838000CCE70023A375E1E76C8704082DE9F04FE3
:1083900089B005460F4692469B4600238DF80B3068
:1083A0004FF0FF31104600F0BDFFB7F5801F1DD321
:1083B0000023009317F1020F07D0009B002B40F021
:1083C0009E802B7C002B00F08C80EB6AB3F1FF3F8A
:1083D0002CD02A689B1A6A6CB3FBF2F917F10208D9
:1083E00018BF4FF00108002301935DE00DF10A0270
:1083F000394605F1080000F0E5FE0146B0F1FF3F07
:1084000011D0504600F08EFF0DF10B0301225146B2
:1084100028462DF05EF800900028CBD09DF80B3058
:108420008BF80030C6E700230093C3E7696A28464B
:108430002CF0F1FE8146D1E70123019337E09DF84E
:108440000B308BF80030324B1A683249504638F006
:1084500001FC00942F4B9968B1F1FF3F1BD06B6C6E
:108460005B4281EA06021A4215D12A4C204600F0EE
:1084700059FF0DF10B034246214628462DF029F8FD
:1084800004460028E6D017F1020FD8D0214B1B6814
:10849000BB42DFD1D3E7494628462CF0BCFE8146DB
:1084A000019BCBB9009BBBB96B6A4B45C4D02C6810
:1084B0006B6C03FB0944EB6B5B69052203A9204647
:1084C000984703A82DF0ECFE2DF011FF20462DF06B
:1084D0001AFF06460146BFE7009BA3B1B7F5801F10
:1084E00003D3009B8BB100200AE09BF80030DAF840
:1084F0000420394605F1080000F082FEF1E7002073
:1085000009B0BDE8F08F2D20FAE72D20F8E700BF75
:1085100068870408F821002070B582B004464FF047
:10852000FF33C3620DF107031A4A6FF00101FFF731
:108530002DFF20BB174B9B68E362E56A2946204666
:108540002CF05AFC2063E8B1294620462CF032FF7B
:108550000546A36AAB421BD0294620462CF04CFCB2
:108560000646236B03442363294620462CF022FF52
:108570000546002EEDD100232363E062E9E7A36AFC
:10858000E362DAE7E16A20462CF014FFE062DBE701
:1085900002B070BD2422002030B583B01C46032AEF
:1085A00014BF002201221B7E9A4202D0012003B098
:1085B00030BD0D46096823689942F7D36368994234
:1085C000F4D80DF10703114AFFF7E0FE0028EDD1C2
:1085D0000E4B5A686B689A42E8D19DF80730032B1E
:1085E00014BF00230123227E9342DFD1636901334C
:1085F00063612369E2689342D8D2A268296842F88D
:108600002310236901332361D0E700BF2422002017
:108610002DE9F04182B004460E4690461F46816A1D
:1086200006E01A4B9968B1F1FF3F1FD0012E23D00D
:10863000E06A884217D0B1F1FF3F14D0134D2846AD
:1086400000F070FE0DF107030122294620462CF0B0
:1086500040FF0028E5D03B469DF8072029462046EC
:10866000C0470028DDD102B0BDE8F081596820463E
:108670002CF0A0FE0146D9E7044B5A68636C5B42BC
:108680004A401A42D4D04FF0FF31D1E7CC2100202C
:1086900010B50446083000F05BFD0023024A19467D
:1086A0002046FFF7B5FF10BDC154030838B5044696
:1086B000037C0BBB02461349083000F0EBFD616AF6
:1086C00020462CF0CAFD421C616A20462CF01BFD9E
:1086D000054620B9236B626C1344143B2363A16AE3
:1086E00020462CF067FEA0622368C01A636CB0FBC2
:1086F000F3F06062284638BD0023034A0121FFF7EA
:1087000087FFDCE75958030827580308F0B589B0FC
:1087100080B30F4616461D46044690F834301BB908
:108720000025284609B0F0BD01212CF0C1FC0195BF
:108730000E9B0293039704960023059306939DF8DE
:108740003C308DF81C30237C5BB901AA0A4904F146
:10875000080000F09FFD5EB9069D20462CF04AFF00
:10876000DFE701AB054A00212046FFF751FFF2E7A2
:10877000059DF2E70025D4E77550030899850008A8
:10878000F0B58BB004460D46406AE36B5B69052289
:1087900005A92668676C07FB0060984705A82DF0BF
:1087A0007FFD012836D00094002301938DF80850F6
:1087B000039301238DF81030A16AE36A99420FD028
:1087C000237CBBB96A46144904F1080000F062FD3D
:1087D000019B13B99DF810309BB901980BB0F0BD07
:1087E00020462CF0E7FDE062236B626C9B1A143389
:1087F0002363EDE76B46094A01212046FFF708FF96
:10880000E6E7626A2368616C01FB0231E06B2DF0E0
:10881000F9FCE2E70020E1E77D8A0008FD89000815
:108820002DE9F04F89B004468A4691461D46002343
:1088300007930969026BCB1D406C1438B3FBF0F34E
:10884000013301EBC301914200F2A4804E4674E073
:108850000490BB4605961EE04FF000092368616C4A
:1088600001FB0631E06B2DF0B9FC20462CF02AFC10
:1088700020462CF0C6FD2063B9F1000F76D0DAF85F
:108880001020D31D616C1439B3FBF1F3013302EBFB
:10889000C30290423AD32368ABEB0309606CB9FB87
:1088A000F0F909FB00302DF02EFD8046E16A2046EC
:1088B0002CF080FDA36A83422CD0E062364B9A688C
:1088C000616C4B1E1340226B5B1A13442363ABEBAA
:1088D00008072368079EF61AB6FBF1F6B145BBD12F
:1088E00097B1E36B9B69BA08414698478146E36AB2
:1088F0003B44E362236BA8EB0B084344236304F17E
:10890000080000F025FCA9E7B946A7E7DDF810B09C
:10891000059E02E0DDF810B0059EBBF1000F29D0E6
:10892000DAF81000226BC31D616C1439B3FBF1F34C
:10893000013300EBC30082421CD3E76ADFF85880A2
:108940003946404600F0EEFC07AB029301950096D5
:108950003B464246514620462DF077F88346002894
:108960007FF476AFD8F80830E362D6E7DDF810B0D0
:10897000059ED2E75F461FB1384609B0BDE8F08FCB
:108980002B46054A5268DAF8001004F1080000F09E
:1089900037FCF1E71C27EFE7F82100202DE9F84329
:1089A0001D469DF820704369AB4220D3044688469B
:1089B00091462CF00DFF032F06D0266B294620464A
:1089C0002CF0FAF9864214D30B4E4FF0FF313046AB
:1089D00000F0A8FCC6F800803561C6F80C903B4654
:1089E000002231462046FFF71BFFBDE8F8836220D6
:1089F000FBE71C20F9E700BF24220020F0B583B07C
:108A00001C46032A05D1237A012B33D0012003B061
:108A1000F0BD06460F4615460DF10703164A0968D4
:108A2000FFF7B4FC60600028EDD19DF80730032B00
:108A3000E9D0114B5A687B689A42E4D1237A012B22
:108A400008D13B69E26813447269934202D900235A
:108A50002374D8E7E3683A6913440833E3602B468C
:108A6000012239463046FFF7DBFE60600028CAD09D
:108A70000020CCE7207CCAE724220020F0B583B098
:108A8000089C2668032A05D1237A012B4DD00120AA
:108A900003B0F0BD15460DF10703254A3046FFF738
:108AA00075FC60600028EFD12168214B5A688B6A01
:108AB000486CC0F1000C5A4012EA0C0FE4D1227A43
:108AC000012A19D00F68DB1BB3FBF0F3CA6AD21B73
:108AD000B2FBF0F29A4219D0E36815490A691344CF
:108AE0000833E3602B4601222068FFF799FE60609F
:108AF0000028C9D00020CBE70D4A1269E7683A4444
:108B00007769BA42DED900232374BDE7726CF16A3B
:108B1000531E0B40316B9B1A0B4433632668B16ABA
:108B200030462CF047FCF062D6E7207CB0E700BF6F
:108B300024220020F8B56D4B1E6800221A60002820
:108B400000F0B4800D46044690F8343013B30A6840
:108B500003689A4240F0AC804A6843689A4240F009
:108B6000AA808A6883689A4240F0A780CA68C3686E
:108B70009A4240F0A4800A6943699A4240F0A18079
:108B80008A69C36B9A4201D05D2592E04B6983618B
:108B900000258EE0876B5022002138F037F8A7635C
:108BA0002B6823606B6863602B6963616B69A361E9
:108BB000EA68A96804F1080000F0DCFAAB69E36335
:108BC0009B6804F14000984730B9636C23B1626838
:108BD000B2FBF3F2E26101E00023E36194F8433079
:108BE000002B70D0656C002D6FD0E369002B6ED028
:108BF0002368B3FBF5F205FB1233002B69D16768DC
:108C0000B7FBF5F305FB1373002B64D120462CF062
:108C1000E3F8A369034404339F425ED36369B3F569
:108C2000805F5CD8CB2B5CD9B5F5805F5BD303212B
:108C300020462CF03DFAE36B1B686168206898477A
:108C40000546E36BDB6802209847EDB1636C143B8B
:108C50005DB9266A03FB06F620462CF0BDF8A36931
:108C6000034404339E4200D25A25B5FA85F35B09CA
:108C700084F834301BB11E4A13680133136085B188
:108C800020462CF0B7FC14E0314620462CF035FC91
:108C900005466428DAD1314620462CF02EFC0546E4
:108CA000D4E7616820682DF094F9E9E7212500E018
:108CB0005D252846F8BD5D25FBE75D25F9E75D25C7
:108CC000F7E75D25F5E72125F3E75B25F1E75B2570
:108CD000EFE75925EDE75925EBE75A25E9E75F2549
:108CE000E7E75F25E5E75B25E3E700BF881B00209A
:108CF000841B00202DE9F04184B000283AD00C46B6
:108D000090461F46054690F83430ABB3B1F5801F4E
:108D100034D202212CF0CCF90DF10F03184A214670
:108D20002846FFF733FB18B99DF80F30012B0FD001
:108D3000012300933B46424621462846FFF72EFE7C
:108D4000064628462CF056FC304604B0BDE8F081BB
:108D50000B4B1B69BB42EBD101230193084B0093E2
:108D60003B460022414628462CF04CFC0646002893
:108D7000E7D0DDE72126E7E71126E5E72926E3E747
:108D800050220020F0B585B0A8B30C4617461E4609
:108D9000054690F8343083B3B1F5801F2FD20121FE
:108DA0002CF086F90DF10F03164A21462846FFF7ED
:108DB000EDFA044630B99DF80F30012B08D0022B94
:108DC00017D02D2428462CF015FC204605B0F0BD08
:108DD0000C4B1B69B34201D06324F3E700220192DC
:108DE000084B00933346394628462CF00BFC0446CA
:108DF000E8E76024E6E72124E7E71124E5E72924F2
:108E0000E3E700BF50220020F0B585B0002838D03D
:108E10000C4617461E46054690F834309BB3B1F514
:108E2000801F32D201212CF043F90DF10F03184AB3
:108E300021462846FFF7AAFA044630B99DF80F30BC
:108E4000012B08D0022B1AD02D2428462CF0D2FB5F
:108E5000204605B0F0BD0E4B1A690A9BF3189A42E2
:108E600001D26324F1E700230193094B00930A9B8D
:108E70003246394628462CF0C5FB0446E5E7602417
:108E8000E3E72124E4E71124E2E72924E0E700BF37
:108E90005022002070B586B00392C0B30C46054640
:108EA00090F83430ABB3B1F5801F34D202212CF0EE
:108EB000FFF80DF11703194A21462846FFF766FA15
:108EC000064638B99DF81730032B03D0022B10D07B
:108ED000612608E002230093CC2303AA21462846FA
:108EE000FFF75CFD064628462CF084FB304606B0B2
:108EF00070BD0A4928462CF06CFD039A8242F2D0DC
:108F00000346064928462CF095FF0646EBE7212646
:108F1000ECE71126EAE72926E8E700BF5022002007
:108F200070B582B058B30C461646054690F83430FA
:108F30003BB3B1F5801F26D201212CF0B9F80DF119
:108F40000703124A21462846FFF720FA044668B96B
:108F50009DF80730032B10D0022B01D0612406E0CE
:108F60000A4928462CF035FD306000E02D242846C3
:108F70002CF040FB204602B070BD2D24F7E72124E1
:108F8000F8E71124F6E72924F4E700BF5022002077
:108F9000F0B583B0A0B30C461646054690F83430C1
:108FA00083B3B1F5801F2FD202212CF081F80DF18F
:108FB0000703164A21462846FFF7E8F9B8B99DF895
:108FC0000730032B1AD0022B01D0612410E00F4C84
:108FD000214628462CF0FDFC0346471C3A46214614
:108FE00028462CF027FF044616B1376000E02D24F8
:108FF00028462CF0FFFA204603B0F0BD2D24F7E7F9
:109000002124F8E71124F6E72924F4E75022002070
:10901000F0B583B01C460023236070B30E4617469C
:10902000054690F8343053B3B1F5801F29D20121A1
:109030002CF03EF80DF10703134A31462846FFF79E
:10904000A5F9064680B99DF80730032B13D0022BF3
:1090500005D000233B600C4B1B69236005E0012316
:109060003B600423236000E02D2628462CF0C2FA42
:10907000304603B0F0BD2D26F7E72126F8E711268C
:10908000F6E72926F4E700BF5022002030B585B06E
:1090900048B30C46054690F8343033B3B1F5801F21
:1090A00025D202212CF004F80DF10F03114A2146BC
:1090B0002846FFF76BF978B99DF80F30032B01D1E3
:1090C0002D240AE00323009300231A462146284654
:1090D000FFF764FC044600E02D2428462CF08AFAB1
:1090E000204605B030BD2124FAE71124F8E72924F1
:1090F000F6E700BF50220020036853F83100C0F3A8
:1091000013007047036853F83100C0F307507047ED
:10911000036803EBC1035868704700BF006850F84C
:1091200031301B0D1B05134340F83130704700BF31
:10913000006850F83130C3F3130343EA025340F898
:1091400031307047036803EBC1035A60704700BFBA
:10915000002309E002684FF0FF3142F83310026843
:1091600002EBC3025160013342689A42F2D80023F5
:109170000372704708B501604260FFF7E9FF08BD60
:10918000002342689A421BD910B403E001334268BD
:109190009A4212D904684FEAC30C54F83320B2F152
:1091A000FF3FF3D0C2F313029142EFD14FF0FF32F1
:1091B00044F80C20036863445A605DF8044B704720
:1091C000704700BF10B5002300E0013344689C42A3
:1091D00012D904684FEAC30E54F83340B4F1FF3F8C
:1091E000F3D0C4F3130C6145EFD1C4F307541470EA
:1091F00003687344586801E04FF0FF3010BD00BFB2
:109200002DE9F047456806467DB30F4691469846DE
:109210000024D0F800A05AF83430013305D021469C
:109220003046FFF769FFB84210D00134A542F2D1B1
:10923000002402E00134A54214D05AF8343001333E
:10924000F8D13A4621463046FFF768FF42462146AC
:109250003046FFF76DFF4A4621463046BDE8F047ED
:10926000FFF770BFB8F1030F03D101233372BDE8DC
:10927000F087002402E00134A542F6D021463046B2
:10928000FFF740FF0328F6D13A4621463046FFF764
:1092900045FFDBE72DE9F0439146426883B00AB30E
:1092A0000546884600242B6853F83430013316D025
:1092B00021462846FFF720FF214607462846FFF7AC
:1092C00021FF214606462846FFF722FF394603467E
:1092D00032462846CDF80090C04718B16A6801347C
:1092E0009442E0D303B0BDE8F08300BF08B5034B60
:1092F0001968034B1868FFF71DFC08BD584500208E
:109300007845002008B539F012FF014B186008BD00
:109310007C22002008B5024B186839F003FF08BD15
:109320007C22002038B504460D46094B1A680021FE
:1093300037F06CFC4FF0FF32226065600023A375AC
:109340002361A260E3756376A376237638BD00BF00
:10935000688704082DE9F04186B006460D46174699
:10936000984658682CF013FF4403A4B298F80330D1
:109370001B0303F480531C4498F80230DB0203F40F
:1093800000631C44B8F80030C3F30A031C441B4BB1
:109390000193002138462CF004FF02900121384649
:1093A0002CF0FFFE03904FF0FF3304936FEA044468
:1093B0006FEA14440594B369012205A905F1100070
:1093C00098470446B369012203A905F108009847AC
:1093D000074600B92746B369012202A9281D98470C
:1093E000044600B93C46B369012201A928469847C2
:1093F00000B9204606B0BDE8F08100BF01009AB276
:1094000038B505460C46164BD3F8283103F0070350
:10941000013B052B20D8DFE803F003131B0F0B17CC
:1094200037F02EFC052305B1286004B1236038BD58
:1094300037F026FC0623F6E737F06CFC0723F2E74B
:1094400037F05EFC0323EEE737F05AFC0423EAE72B
:1094500037F052FC0223E6E700231846E3E700BF9B
:109460000080005030B583B005460C4600230193C0
:10947000154BD3F8203203F00703042B21D8DFE883
:1094800003F0030B11161B0001230DB1019A2A6092
:1094900004B1236003B030BD002101A8FFF7B0FF85
:1094A0001223F2E737F036FC01900723EDE739F09D
:1094B00033FE01900A23E8E737F076FC0190092398
:1094C000E3E70023E1E700BF00800050024B4FF4C8
:1094D00080321A67704700BF00900050204B9842BE
:1094E00036D009D91F4B984236D01F4B984222D113
:1094F0001E4BD3F8D0007047A3F5B703A3F558630C
:10950000984221D006D91A4B984212D1174BD3F862
:10951000BC007047174B984202D0174B984203D1BA
:10952000124BD3F8A0007047144B9842F8D000209B
:10953000704700207047124B984203D10B4BD3F871
:10954000C800704700207047084BD3F8B800704738
:10955000064BD3F8C0007047044BD3F8CC007047DB
:10956000C0EA21010048E801005A62020080E00FD1
:109570000024F40080841E0000093D0040420F00DA
:1095800080BA8C0138B505460C460F4BD3F88030B5
:1095900003F00303022B0ED0032B10D0012B06D0B7
:1095A0000023184605B1286004B1236038BD37F0A8
:1095B0006DFB0E23F6E737F0ADFB0723F2E737F03C
:1095C0005FFB0623EEE700BF0080005038B505467C
:1095D0000C46104BD3F8000100F00300032815D807
:1095E000DFE800F002080C10012305B1286004B187
:1095F000236038BD37F084FB0323F6E737F0D4FB54
:109600000923F2E737F082FB0823EEE70023184630
:10961000EBE700BF0080005038B505460C46174BFD
:10962000D3F8200100F00700062823D8DFE800F077
:10963000040A0E16121A1E00012305B1286004B197
:10964000236038BD37F01CFB0523F6E737F058FBE5
:109650000323F2E737F05EFB0723EEE737F04CFB1E
:109660000223EAE737F00CFB0623E6E737F048FB76
:109670000423E2E700231846DFE700BF0080005024
:1096800038B505460C46104BD3F8400100F00300F6
:10969000032815D8DFE800F002080C10012305B1FB
:1096A000286004B1236038BD39F036FD0A23F6E79F
:1096B00037F07AFB0923F2E739F031FD0C23EEE7AE
:1096C00000231846EBE700BF0080005030B583B0A0
:1096D00005460C4600230193144BD3F8603203F087
:1096E0000703013B032B1FD8DFE803F0020E191418
:1096F000002101A8FFF790FF10230DB1019A2A6005
:1097000004B1236003B030BD002101A8FFF7B8FF0A
:109710001123F2E737F0FEFA01900723EDE737F067
:10972000EBFA01900223E8E70023E6E7008000500F
:1097300030B583B005460C4600230193144BD3F893
:10974000943203F00703013B032B1FD8DFE803F03B
:10975000020E1914002101A8FFF75EFF10230DB1BE
:10976000019A2A6004B1236003B030BD002101A832
:10977000FFF786FF1123F2E737F0CCFA01900723B9
:10978000EDE737F0B9FA01900223E8E70023E6E7B6
:109790000080005030B583B005460C46002301938D
:1097A0000C4BD3F8703203F00303012B09D0022BCA
:1097B0000DD115230DB1019A2A6004B1236003B0C5
:1097C00030BD002101A8FFF75BFF1123F2E7002362
:1097D000F0E700BF0080005038B505460C46104B3E
:1097E000D3F8600100F00300032815D8DFE800F08B
:1097F00002080C10012305B1286004B1236038BDB4
:1098000039F08AFC0A23F6E737F0CEFA0923F2E7AB
:1098100039F085FC0C23EEE700231846EBE700BF88
:1098200000800050324B984252D029D8314B984298
:1098300048D009D9304B984247D0304B98421DD17F
:109840002F4BD3F8800070472E4B984237D005D964
:109850002D4B984210D12A4B186F70472B4B9842D2
:1098600002D02B4B984202D1254B986D7047294B63
:109870009842F9D0002070470020704700207047C0
:10988000254B98422CD00CD9244B98422CD003F570
:10989000740303F5105398420FD1194BD3F8980075
:1098A00070471F4B984217D01E4B984203D1144B60
:1098B000D3F88C0070470020704700207047104B91
:1098C000586E70470E4B586F70470D4B986F70472E
:1098D0000B4BD3F884007047094BD3F888007047CE
:1098E000074BD3F890007047054BD3F894007047AE
:1098F0000048E8010024F400C0EA210180BA8C018C
:109900000080E00FC0CF6A00405DC60080841E006A
:1099100000093D0040420F00007E56030090D00336
:1099200080D54302006CDC0270B582B006460D465D
:1099300000230193104BD3F8804104F00304022C60
:1099400016D0032C0FD0012C07D000240EB1019BA0
:10995000336005B12C6002B070BD002101A8FFF793
:109960005BFE1024F2E737F0D5F901900724EDE70C
:1099700037F0C2F90190E9E70080005038B505469C
:109980000C46104BD3F8400200F00300032815D812
:10999000DFE800F002080C10012305B1286004B1D3
:1099A000236038BD39F0B8FB0A23F6E737F0FCF93D
:1099B0000923F2E739F0B3FB0C23EEE70023184646
:1099C000EBE700BF0080005038B505460C46134B4E
:1099D000D3F8000200F0070004281BD8DFE800F0ED
:1099E00003090D111500012305B1286004B123609E
:1099F00038BD39F091FB0A23F6E737F0D5F9092392
:109A0000F2E739F08CFB0C23EEE737F05FF9800AC0
:109A10000F23E9E700231846E6E700BF0080005067
:109A200038B505460C46134BD3F8080200F0070082
:109A300004281BD8DFE800F003090D1115000123ED
:109A400005B1286004B1236038BD39F065FB0A23F5
:109A5000F6E737F0A9F90923F2E739F060FB0C23A8
:109A6000EEE737F033F9800A0F23E9E700231846C1
:109A7000E6E700BF00800050B0F5207F20D00ED870
:109A8000B0F5007F16D020D810B1B0F5C07F04D15A
:109A90000F4B186FC0F3033018E0002016E0B0F54C
:109AA000607F05D10A4BD3F88000C0F301100DE0B0
:109AB00000200BE0064BD3F89000C0F3046005E0F3
:109AC000034B186FC0F3802000E000200130704786
:109AD0000080005038B505460C46174B4FF48032D5
:109AE0009A660020FFF7C8FF05FB00F0134BDA6908
:109AF00002F4803241F67131D9635B6823F440137C
:109B00006CB90F49884207D800210B430B494B60C1
:109B10000AB10022CA6338BD4FF48011F5E7002C6A
:109B200007DD0849884201D80021EEE74FF4801193
:109B3000EBE74FF44011E8E70090005000000350BD
:109B4000005A6202002D3101430905D0012B0DD0CE
:109B5000022B0DD0002200E0002200F01F0049B1CE
:109B600002F580520123834013607047034AF4E7F3
:109B7000034AF2E702F50052F4E700BF64800050A8
:109B80006880005008B580202CF032FC034B9842CE
:109B900003D8034B4FF480321A6708BD005A6202A3
:109BA00000A0005000B583B000230193B0F5807F82
:109BB00000F04A8118D9B0F5F06F00F04A8140F208
:109BC000DB80B0F5206F00F0538140F20481B0F5E6
:109BD000406F00F04881B0F5486F40F00C8101A95A
:109BE0000020FFF7A5FDDFE0802800F2DD802428BB
:109BF000C0F0DA8024385C2800F2D68001A353F844
:109C000020F000BF3F9E00083F9E00083F9E0008D6
:109C10003F9E00083F9E0008A99D0008359E000851
:109C2000A99D0008CD9D00085D9E0008A99D000823
:109C3000A99D0008A99D0008A99D0008A99D0008EC
:109C4000A99D0008A99D0008A99D0008A99D0008DC
:109C5000A99D0008A99D0008A99D0008A99D0008CC
:109C6000A99D0008A99D0008539E00088D9D00082D
:109C7000A99D0008A99D0008A99D0008A99D0008AC
:109C8000A99D0008A99D0008A99D0008A99D00089C
:109C9000A99D0008A99D0008A99D0008A99D00088C
:109CA000A99D0008A99D00083F9E0008A99D0008E5
:109CB000A99D0008A99D0008ED9D0008A99D000828
:109CC000A99D0008719E0008FD9D0008BD9D00082B
:109CD000679E0008A99D0008A99D0008A99D00088D
:109CE000A99D0008A99D0008DF9B0008A99D000808
:109CF000A99D0008A99D0008A99D0008A99D00082C
:109D0000A99D0008A99D0008A99D0008A99D00081B
:109D1000A99D0008A99D0008A99D0008A99D00080B
:109D2000A99D0008A99D0008A99D0008A99D0008FB
:109D3000A99D0008A99D0008A99D0008A99D0008EB
:109D4000A99D0008A99D0008A99D0008A99D0008DB
:109D5000A99D0008A99D0008A99D0008A99D0008CB
:109D6000A99D0008A99D0008A99D0008A99D0008BB
:109D7000A99D0008079E0008B0F5B06F5AD00AD917
:109D8000B0F5D06F6AD0B0F5E06F1CD101A900200A
:109D9000FFF7F4FD08E0B0F5607F04D101A90020D1
:109DA000FFF7F0FB00E003D2019803B05DF804FB7D
:109DB000B0F5806F43D0B0F5A06FF5D101A90020B8
:109DC000FFF750FBF0E7B0F5C06FEDD101A900201F
:109DD000FFF756FCE8E7B0F5086F04D101A90020B1
:109DE000FFF7F4FBE0E7B0F5106FDDD101A900202B
:109DF000FFF716FED8E7B0F5286FD5D101A90020EE
:109E0000FFF7C8FCD0E71D4B1B6F03F00703013BB6
:109E1000032BC9D8DFE803F00B02050805230193E3
:109E2000C2E703230193BFE708230193BCE70223A2
:109E30000193B9E701A90020FFF776FDB4E701A976
:109E40000020FFF7E9FBAFE701A900202CF0ABFAF7
:109E5000AAE701A90020FFF7BFFCA5E701A90020A0
:109E6000FFF7B2FDA0E701A90020FFF7C9FA9BE7C1
:109E700001A90020FFF72AFC96E700BF00800050F0
:109E8000094B596E03F580534FF480325A66074AE6
:109E9000536A23F00103536211F4803F03D1044B52
:109EA0004FF480325A6670470080005000C007505F
:109EB00000A0005010B504468020FFF773FE032871
:109EC00000F0AE805D4B4FF480125A665C4B45F655
:109ED0000E02C3F8802003F580524FF0A06191621A
:109EE00003F500534FF480329A62554B9B6D13F487
:109EF000803FFAD1524B9B6D13F0804FFAD122680C
:109F000063681B0543EA0263227B43EA0243627BE8
:109F100043EA0233A27B43EA8213E27B1343484ABB
:109F20001361936903F00043216943EA8163616926
:109F300043EA0163217E43EA0143617E43EA012350
:109F4000A17E0B439361136A23F00F03E269002A99
:109F500046D111460B43E17E43EA81031A43384B55
:109F60001A62E369002B3DD1354A916A354B0B40AB
:109F700094F8201043EA411394F8211043EA0113A6
:109F800094F8241043EAC10343F4803393622C4BCA
:109F90009A6D2D4B9343FAD1294A02F580514FF027
:109FA00080738B62136923F47003A06843EA005343
:109FB00013614FF000438B6194F822301BB9234B9F
:109FC0004FF080729A6294F8233013BB1F4B4FF40A
:109FD00080329A621A4B9B6D13F0804FFAD118E0D1
:109FE0000821B7E7022B1CD0154A916A154B0B408C
:109FF00094F8201043EA411394F8221043EA0163D5
:10A0000094F8241043EAC10394F8231043EA01436F
:10A01000936294F825301BB1094B0D4AC3F8802098
:10A0200010BD074B00221A619A614FF408524FF499
:10A030007F4108482CF0A9F9D6E700BF00900050F6
:10A040000040005AC7FFFEFE030001000060005AF6
:10A05000F1A7FFFF3440005A014B93F9000070470D
:10A06000364A002010B443784F2B28BF4F231A469E
:10A070001C4B4FF40001596603F5B8334FF4D1512E
:10A08000596203F5805102244C6003F5005301210D
:10A090005960154B1B6913F4803FFAD1037842EAEB
:10A0A0000323114A5361416883681B0143EA01237A
:10A0B000017B43EA4103417B0B439360817BC37B7C
:10A0C0001B0143EA4113017C43EA4103417C0B43FA
:10A0D0005360837C1BB113466FF4D1525A625DF812
:10A0E000044B70470090005000000250014B188054
:10A0F000704700BFF6490020014B1880704700BF31
:10A10000F449002008B51B4B4FF480025A6603F552
:10A11000D83302225A60184B9B6813F4803FFAD15F
:10A12000012806D0144B00225A62134B00225A60B9
:10A1300008BD36F0E5FD114B984212D003F512230D
:10A1400003F5F863984210D000EB8001490A400AF9
:10A150000B4AB2FBF0F2084BD9621A6301225A6231
:10A16000E3E745F67A120749F5E745F61A0206498C
:10A17000F1E700BF009000500040025000F049029B
:10A1800064666666D8B80500BBCF0500B0F5207FD1
:10A190005DD02DD8B0F5007F4ED061D810B1B0F5AC
:10A1A000C07F24D110B54C1E2CF01BF92CF0FBFA0B
:10A1B000FFF78CF92B4A136F23F4704343EA0433FF
:10A1C000136736F083FD284BD3F8843013F0100F5B
:10A1D000F9D1254BD3F88410C1F38111C1F10201EB
:10A1E0002CF0D6FA00F058F8FFF7CCFC10BD704701
:10A1F000B0F5607F1FD11D4BD3F8FC2012F08072A8
:10A2000006D01846D3F8FC3023F08073C0F8FC3039
:10A2100001391448D0F8803023F0300343EA0113A9
:10A22000C0F88030E2B1114AD2F8FC3043F08073BC
:10A23000C2F8FC307047704701390A4AD2F89030B2
:10A2400023F0F85343EA0163C2F8903070470139B4
:10A25000044A136F23F4806343EA81231367704732
:10A26000704700BF008000500040005000ED00E04B
:10A2700008B50121022000F047F94FF42070FFF7E4
:10A28000FBFB044B18702CF0ACF82CF08CFAFFF7A9
:10A290001DF908BD7C41002008B54FF4C0702CF0BA
:10A2A000A7F8054B984205D902214FF42070FFF71B
:10A2B0006DFF08BD0121F8E780F0FA0210B50446F1
:10A2C00036F004FD0F4BD3F8843013F0100FF9D1A2
:10A2D0000C4BD3F88410C1F38111C1F102012CF0B1
:10A2E00057FA0121002000F055F924B1FFF7D4FFFF
:10A2F000FFF748FC10BD044B19784FF42070FFF7AE
:10A3000045FFF5E7004000507C41002070B5044651
:10A31000FFF788FA0546364B4FF4C0225A6603F51C
:10A3200098335B68012B29D08020FFF73BFC052880
:10A330002DD025F040752F4B9C422FD02E4B9C42A8
:10A340002FD036F09DFC064684422DD82B4BDB687F
:10A3500013F0060FFAD1294B9A689D609B686B40F9
:10A3600013F4F81F25D0254B9A6034468020FFF760
:10A3700019FC052821D0B44235D970BD204B0122EB
:10A380005A60204B5B6813F0020FFAD1CCE72CF037
:10A3900028F82CF008FAFFF799F8CAE745F000759D
:10A3A000CFE745F08075CCE70121204600F0F2F8B8
:10A3B000CCE72046FDF7C4F8D8E736F087FC124B0F
:10A3C000D3F8843013F0100FF9D10F4BD3F8841069
:10A3D000C1F38111C1F102012CF0DAF9FFF75CFF42
:10A3E000FFF7D0FBC7E70121002000F0D3F8C4E756
:10A3F0000090005040420F0080841E000000015079
:10A4000000E0015000C001500040005010B504466B
:10A41000FFF764F80A4B4FF400225A6620F04070B0
:10A42000084A944206D0084A944206D04FF0B442FB
:10A43000906010BD40F00070F8E740F08070F5E7E4
:10A440000090005040420F0080841E00044A536F69
:10A4500023F44073417843EA01235367704700BFF8
:10A460000040005010B504460D4A136943F0040340
:10A47000136137F0B3F82CF09DF90A4B5B6E13F0C3
:10A48000806F03D0084B094AC3F8202430BF2CF05A
:10A4900092F904F03BFF04B110BD36F017FCFBE766
:10A4A00000ED00E00080005000E003500000FF0FCE
:10A4B00010B504460B4A136943F0040313610A4BB9
:10A4C0005B6E13F0806F03D0084B094AC3F8202459
:10A4D00037F084F830BF04F019FF04B110BD36F036
:10A4E000F5FBFBE700ED00E00080005000E00350CA
:10A4F0000000FF0F034AD36E23F0300301790B43B2
:10A50000D366704700400050F8B50446204BD3F89E
:10A51000843013F0100FF9D11D4BD3F88430C3F3FE
:10A5200081139C422DD036F0B1FB0646012C11D090
:10A5300038F0FDFD0546164F07F500534FF0007249
:10A540005A6620462CF03AF9621E4FF4806393401D
:10A550003B6706E001212CF01BF9E9E70C4BD3F82F
:10A5600084300B4B5B6E13F0007F05D1084BD3F8A2
:10A57000843013F0200FF1D0284638F0D3FD022CA0
:10A5800000D0F8BD002130462CF002F9F9E700BFF9
:10A590000040005010B50C46034650B1094A1278ED
:10A5A00012B1094A934208D921460220FFF7ACFFB5
:10A5B00010BD36F06BFB0346F0E721460120FFF7A4
:10A5C000A3FFF5E780220020005A620208B5027856
:10A5D000034B1A7001210020FFF7DCFF08BD00BF0C
:10A5E0008022002038B52F4B4FF000425A6603F509
:10A5F0000B235C6C04F001044AF6CD321A64E8B90E
:10A60000294B5B6B13F00103FAD1274A556815F00B
:10A61000010539D002F50052012151601A46224944
:10A62000096B11F0010F04D120498A4201D801328F
:10A63000F5E71E498A422FD81D4625E000231A4A15
:10A64000126B12F0080F04D0184A934201D801335C
:10A65000F5E7164A934221D8134B03F50052202107
:10A66000916203F5805301225A60002300E0013318
:10A670000D4A926A12F0200F02D10C4A9342F6D989
:10A680000A4A93420CD8002514B1074B084A1A64B1
:10A6900033F088F8284638BD0725F5E70725F3E7A6
:10A6A0000725F1E700900050004009503F420F009D
:10A6B0003254FFFF10B51A4B4FF000425A6603F5B3
:10A6C0000B235C6C04F001044AF6CD321A64437823
:10A6D0005B0043F00103134AD363134B5B6B13F02E
:10A6E0000B0FFAD1104A536823F4F873817843EAC8
:10A6F00001135360C178437943EA012393600179E0
:10A70000837943EA012313610078FFF76BFF14B1EB
:10A71000054B064A1A6433F045F8012010BD00BF0E
:10A720000090005000400050004009503254FFFF9C
:10A7300010B50F2800D90F20124B5C6E03F5805323
:10A740004FF000425A6603F50B235A6C02F00102E7
:10A750004AF6CD3119640C4B5B6B13F0800FFAD1C4
:10A7600009490B6A23F00F0303430B620AB1074A3E
:10A770000A64002C03DB064B4FF000425A6633F0AC
:10A7800011F810BD00800050004009503254FFFF06
:10A7900000A0005010B5134B5C6E03F580534FF0D2
:10A7A00000425A6603F50B235A6C02F001024AF686
:10A7B000CD3119640C4B5B6B13F0800FFAD10A4951
:10A7C0000B6A23F4F85343EA00230B620AB1074AE9
:10A7D0000A64002C03DB064B4FF000425A6632F04D
:10A7E000E1FF10BD00800050004009503254FFFFCF
:10A7F00000A00050F8B504460D461E4617463AB173
:10A80000FBB101228A4000EB400109011D4B5A5067
:10A81000072D1ED8A90004EB44031B0107FA01F21F
:10A820000F2000FA01F1184818442BF0C8FF3FB977
:10A83000FEB10122AA4004EB44042401114B1A5139
:10A84000F8BD01228A4000EB400109010F4B5A502C
:10A85000DEE7A5F108039B0004EB440C4FEA0C1C57
:10A8600007FA03F20F219940094860442BF0A7FF33
:10A87000DDE70122AA4004EB44042401034B1A51F2
:10A88000DEE700BF40D0035034C0035040E0035027
:10A890003CC0035010B515202DF040FD074B00249F
:10A8A0005C65FF229A625C6021462020FFF74CF92C
:10A8B00021462120FFF748F910BD00BF00000450D9
:10A8C00029B9044A012303FA00F010607047024AD4
:10A8D000F8E700BF401004504020045010B5044673
:10A8E00001212020FFF730F901212120FFF72CF969
:10A8F000114B01225A60227812069A606178A27880
:10A9000042EA01429A61FF229A6200229A631A6423
:10A910004FF000425A6503F500534FF0FF321A65BD
:10A92000152003F045F8E17815202DF0FFFC1520E7
:10A930002DF0F8FC10BD00BF0000045070B50C46AF
:10A94000C3B201259D40234901F500531D658300D5
:10A9500003F1A04303F5882326685E60637B00EB68
:10A96000400C01EB0C1CCCF8603094F80AE0E37A60
:10A970001B0543EA0E4394F80CE043EA4E53CCF82F
:10A980005C3022F00302CCF8702038F0DDFB124B73
:10A990005D65237A1BB10F4A136C2B431364637AF2
:10A9A0001BB10C4A936B2B4393632379A27942EA40
:10A9B0000342084B03F500518A6194F805C0E2791F
:10A9C00042EA0C4203F58054A2614D639D6438F065
:10A9D000B6FB70BD000004500010045010B5C0B2AA
:10A9E0000124844038F0B0FB044B5A6D22EA040283
:10A9F0005A659C6238F0A3FB10BD00BF00000450F4
:10AA000010B5C0B20124844038F09EFB084BDB6ACD
:10AA1000234205D1064B5B6B9C4306D0002400E02B
:10AA2000002438F08CFB204610BD0124F9E700BF5C
:10AA30000000045070B50446C3B201259D4038F0B3
:10AA400083FB084B5E6B04EB440403EB04135C6E66
:10AA500038F075FB354203D1C4F30A10013070BDE4
:10AA60000020FCE700000450064B4FF480329A6649
:10AA700003F51C3341F67132DA6303F5005301220A
:10AA8000DA60704700900050074B41F67132DA638C
:10AA900003F500520121D1600022DA63A3F51833D7
:10AAA0004FF480329A6670470000035070B5044638
:10AAB000C2F3062602F0070241B942EA062242F436
:10AAC00040220634094B43F8242070BD114630461D
:10AAD0002BF0B3FE054630462BF07FFE45EA0025FD
:10AAE0001634024B43F82450EFE700BF00800350B8
:10AAF000054B1868B0F1FF3F04D1044BD3F8940024
:10AB0000014B1860704700BF7C450020004000509A
:10AB1000074B4FF480325A6603F5E6239B69C3F373
:10AB20008512827003F03F0242701B0B0370704766
:10AB300000900050034B9B680A3303F01F03012071
:10AB4000984070470080E00F064B984204D0C36DD8
:10AB500043F08003C3657047A3F51033C3F8C811F1
:10AB6000F5E700BF00C0055070B5054616461C4607
:10AB70000846D1B1402C21D01CD80CB3202C13D1C5
:10AB8000082306FB03F2530803EB4013B3FBF2F375
:10AB9000203B0C4A02EAC303AA6822F06002AA60C2
:10ABA000AA681443AC60EB6170BD4FF420702BF0C9
:10ABB0001FFCDFE7602CF7D10423E2E70623E0E780
:10ABC0001023DEE7F8FF7F0000F5805301225A6072
:10ABD00040F6AA63436100238360C36541F2050226
:10ABE000C2600361C361C36400F500520749916408
:10ABF0008365074B984204D000F500500123436061
:10AC00007047002303654365F6E700BFFFFF0100BF
:10AC100000C0055038B505460C46FFF7D5FF05F5D1
:10AC2000805301225A60A37C1BB1AB6843F0804380
:10AC3000AB60E37C002B34D1637B228A1343E2892F
:10AC40001343EB60237BA26861682846FFF78CFF03
:10AC5000637D1BB1AB6843F48033AB60A37D1BB154
:10AC6000AB6843F40043AB60E37D1B0703F0E043B4
:10AC7000227E120502F4E0021343AB65637E023BC1
:10AC8000DBB2012B12D90F4B0222C3F82027637EBF
:10AC9000012B10D0032B0ED005F500530422DA65EA
:10ACA0000DE0217D2846FFF74FFFC5E7064B022246
:10ACB000C3F82027EBE705F580530422DA652378F3
:10ACC0006B6138BD00E0035000D0035070B50446FE
:10ACD0000D461646037841782C4AD2F810236A1E96
:10ACE0000E2A09D8DFE802F00A0A0A0A0A0A0A0A42
:10ACF0000A0A0A0A0A0A0A00002200E02A463DB1AE
:10AD000016B30120884003EB43031B012049C850C0
:10AD10006178072920D82378890003EB43031B01BE
:10AD20008A400F2000FA01F11A4818442BF045FE22
:10AD30004DB906B3237862780121914003EB4303B8
:10AD40001B01134AD15070BD0120884003EB43031F
:10AD50001B011149C850DBE723780839890003EB50
:10AD600043031B018A400F2000FA01F10B481844ED
:10AD70002BF023FEDCE7237862780121914003EB7E
:10AD800043031B01044AD150DDE700BF00C003505C
:10AD900040D0035034C0035040E003503CC0035047
:10ADA000074B9B6813F0020FFAD1054B5B6813F059
:10ADB000020FF5D1024BDB69002BF1D1704700BFC8
:10ADC00000800A50064B5B6813F0010F03D0044B60
:10ADD000DB69002BF6D1024B02221A61704700BFDB
:10ADE00000800A5008B5FFF7DBFF034B03F58051E5
:10ADF00001224A601A6108BD00800A5008B5054B5F
:10AE00005B68012B00D008BDFFF7DCFF024B01227D
:10AE10005A60F8E700800A5000A00A5010B50446B6
:10AE2000FFF7BEFF084B5B68012B05D0237843B1C9
:10AE30000122054BDA6010BDFFF7E0FFFFF7B0FF1E
:10AE4000F4E70022F5E700BF00800A50D8B90B787C
:10AE5000D3B101234A6812B1127843EAC2034A7897
:10AE6000A2B1022213438A6812B1127843EA821314
:10AE70008A786AB104221343CA6812B1127843EA8D
:10AE80004223044A936470470023E3E70022E9E782
:10AE90000022F0E700800A5038B5044632F0C7FCC3
:10AEA000864640B9054DA446BCE80F000FC59CE896
:10AEB000030085E80300704638BD00BF84220020EF
:10AEC00047F6FF739A427FD002297FD870B5414B75
:10AED00013F801E0BEF1010F01D9002070BD3E4B17
:10AEE00003EBCE0191F802C0604613F83E30012B0F
:10AEF00026D0394B03EBCE035C68002C68D0B4F944
:10AF00000030934204DBB4F90230934200DC134674
:10AF1000A288FF2A2CD000212826C8221D46D21A3A
:10AF200092FBF6F20A4412B22B4B03EBCE0393F8DA
:10AF300001E0964501DD002A2FDA0EF1FF322CE008
:10AF4000CB78A3EB0C0300249C420ED2191BA3EB7D
:10AF50005101214800EBCE00406830F911009042C9
:10AF600001DC0C46F0E74B1EEEE76344D8B2B5E7D0
:10AF7000B4F90620B4F908600121CFE75C33174922
:10AF8000A1FB03139B09013212B2164696450FDD51
:10AF900004EBC201898899420AD304EBC2018B6891
:10AFA000B1F9061001FB0533002BE7DA0023E5E7D2
:10AFB000013E04EBC604A2889A4200D31A466245B9
:10AFC00000D31046C0B289E7FF20704700207047C9
:10AFD000002083E77087040884220020D34D62108C
:10AFE00002296FD83A4B5B5C012B6DD8394911F8B7
:10AFF000331001292AD010B4364901EBC3014C6843
:10B00000002C63D0201D334901EBC30189789142A4
:10B0100034D2304901EBC301C978914233D92D496B
:10B0200001EBC30393F801C00CF1FF3C5FFA8CFC09
:10B03000A388FF2B2AD00023634529D2591C30F85E
:10B040003110914224D30133DBB2F5E7214901EB02
:10B05000C301C978914200D20A461E4800EBC300E2
:10B060008078121AD2B2091A8A4200DD00221949E8
:10B0700001EBC3035B6833F912007047B4F90200B7
:10B080005DF8044B7047B4F90000F9E70123D3E7FA
:10B090004FF47A7101FB02F200EBC3004368D31A4C
:10B0A000B0F9022002EBD27103EB610393FBF2F3E0
:10B0B000B4F900009842E3DBB4F902009842DFDC07
:10B0C00018B2DDE704487047034870470248D7E7E5
:10B0D00070870408842200200080FFFF08B5034821
:10B0E000FFF7DAFE012032F0A8FB08BD74870408E0
:10B0F00086B0002301930293039304930593024BBC
:10B10000029306B0704700BF006A1800002852D0B2
:10B11000F0B58FB00C461D46064600294DD0149B55
:10B12000002B4CD0159B002B4BD015F00F0F4AD1A4
:10B1300062B9264B336000237360B360F36101A9E9
:10B1400020462BF0ABFD18B10FB0F0BD204BF1E75E
:10B150000199304638F01DF82946304638F019F884
:10B160000BA9204600F056FB0028EDD10BA9304674
:10B170002BF082FF08A920462BF09FFE0028E3D188
:10B1800008A930462BF078FF149B059301270697FA
:10B1900045F00055079505A930462BF06DFF159B2E
:10B1A00002930397049502A930462BF06FFF3046B7
:10B1B00037F0D0FFC8E7212070472120C4E72120C5
:10B1C000C2E72120C0E72120BEE700BF0001000444
:10B1D000000101042DE9F04F99B003910593DDF8CA
:10B1E0008890239EDDF89080DDF894A0002800F080
:10B1F000BC8017468346002900F0BD803AB1B8F103
:10B20000000F00F0BB80BAF1000F00F0BA80B9F176
:10B21000000F00F0B980002E00F0B980059B002BD4
:10B2200000F09D801C68002302931D46BD4280F003
:10B23000988054B118F80530325D53400AF8053053
:10B24000013404F00F040135F0E77B1B04930F2B4E
:10B2500070D9504BCBF800300023CBF80430CBF83A
:10B260000830CBF81C3015A903982BF017FD02907D
:10B2700000287CD11599584637F08BFF049B23F0AA
:10B280000F0204921146584637F083FF06A903982F
:10B2900000F0C0FA0290002869D106A958462BF0A8
:10B2A000EBFE09A903982BF008FE029000285ED15E
:10B2B00009A958462BF0E0FECDF8309001230D93FC
:10B2C000354B0E9308EB05030F9301201090049A61
:10B2D00042F00051029111910CA958462BF0CCFE7E
:10B2E0000FA958462BF0C8FE0AEB05031293012064
:10B2F000139002991491CDF854901690264B179301
:10B3000012A958462BF0C2FE15A958462BF0BEFED6
:10B31000584637F01FFF049A1544029050B126E0BA
:10B3200018F80530325D53400AF80530013404F056
:10B330000F040135BD423FF479AF002CF0D10196E6
:10B34000CDF800901023002203995846FFF7DEFE47
:10B35000029060B949460F202BF0ADFBE0E70024D6
:10B3600061E7059B1BB11C6001E021230293029859
:10B3700019B0BDE8F08F21230293F8E7212302934F
:10B38000F5E721230293F2E721230293EFE721233C
:10B390000293ECE703030004100000202DE9F041C4
:10B3A00096B0229F002800F0B2800D4614461E463B
:10B3B0008046002900F0AF801FB1219B002B00F0D8
:10B3C000AC80002E00F0AB801E9B1BB11D9B002BA0
:10B3D00000F0A7803CB11F9B002B00F0A480209BB5
:10B3E000002B00F0A2801C9B5FFA83FCCCF10F0CB9
:10B3F0005FFA8CFCBCF1030F07D84FEACC0C012399
:10B4000003FA0CF3A34240F29280022F00F09180E5
:10B41000102F00F2908017F0010F40F08E801C9BDF
:10B42000073B062B00F28B80209B1A19464B9A4251
:10B4300000F28780454BC8F800300023C8F804307C
:10B44000C8F80830C8F81C30694628462BF026FC9E
:10B4500000285DD10099404637F09BFEB9B21C9B95
:10B4600041EA0341404637F094FE1E99404637F0CA
:10B4700090FE2146404637F08CFE13A9284600F086
:10B48000C9F9002844D113A940462BF0F5FD10A9B5
:10B4900028462BF012FD00283AD110A940462BF087
:10B4A000EBFD1F9B0D9301250E9544F000540F9466
:10B4B0001D9B0A930B951E9B43F000530C9307961C
:10B4C00008951C9B43F00053099307A940462BF0B5
:10B4D000D3FD0AA940462BF0CFFD0DA940462BF025
:10B4E000CBFD209B049305950694219B0193029527
:10B4F00047F00057039704A940462BF0C7FD01A968
:10B5000040462BF0C3FD404637F024FE00E02120EA
:10B5100016B0BDE8F0812120FAE72120F8E72120CC
:10B52000F6E72120F4E72120F2E72120F0E72120AF
:10B53000EEE72120ECE72120EAE72120E8E72120BF
:10B54000E6E72120E4E700BF000004200000050436
:10B550002DE9F04397B0249F002800F0BB800D46F2
:10B5600014461E468046002900F0BA80239B002B1B
:10B5700000F0B980002E00F0B980209B1BB11F9B0A
:10B58000002B00F0B6803CB1219B002B00F0B48072
:10B59000229B002B00F0B3801E9BDAB2C2F10F0297
:10B5A000D2B2032A05D8D20001239340A34240F22D
:10B5B000A980022F00F0A980002F00F0A980102F91
:10B5C00000F2A98017F0010F40F0A8801E9B073BF6
:10B5D000062B00F2A680229B1A19554B9A4200F2C4
:10B5E000A380544BC8F800300023C8F80430C8F8D2
:10B5F0000830C8F81C30694628462BF04FFB8146BE
:10B60000002869D10099404637F0C3FDB9B21E9BAE
:10B6100041EA0341404637F0BCFD2099404637F0EF
:10B62000B8FD2146404637F0B4FD13A9284600F086
:10B63000F1F8814600284FD113A940462BF01CFD9C
:10B6400010A928462BF039FC8146002844D110A9C6
:10B6500040462BF011FD219B0D9301250E9544F0E2
:10B660000059CDF83C901F9B0A930B95209B43F00B
:10B6700000530C93079608951E9B43F000530993C3
:10B6800007A940462BF0F8FC0AA940462BF0F4FC31
:10B690000DA940462BF0F0FC229B04930595CDF8B4
:10B6A000189004A940462BF0F1FC239B01930295CE
:10B6B00047F00057039701A940462BF0DDFC4046B8
:10B6C00037F048FD814638B122460021229835F0F6
:10B6D0009DFA01E04FF02109484617B0BDE8F0831C
:10B6E0004FF02109F8E74FF02109F5E74FF0210964
:10B6F000F2E74FF02109EFE74FF02109ECE74FF0B7
:10B700002109E9E74FF02109E6E74FF02109E3E7D6
:10B710004FF02109E0E74FF02109DDE74FF0210963
:10B72000DAE74FF02109D7E74FF02109D4E700BF4E
:10B7300000000420000006042DE9F04385B000233A
:10B74000039300285FD00D46144607460AB100292E
:10B750005BD004F0030634F0030804D12EBB30465E
:10B7600005B0BDE8F0834FF0E0633B6000237B60F1
:10B77000BB60FB6100950123019348F000530293E5
:10B78000694638462BF082FC4146384637F001FDC9
:10B79000384637F0DFFC81460028DFD042460021E2
:10B7A000284635F033FA4E46D9E74FF0E0633B6068
:10B7B00000237B60BB60FB6103AB0093012301931B
:10B7C000134B0293694638462BF060FC042138463F
:10B7D00037F0DFFC384637F0BDFC074608B90346B2
:10B7E0000DE022460021284635F010FA3E46B6E725
:10B7F000D900039ACA4003EB08016A540133B342EB
:10B80000F6D33E46ABE72126A9E72126A7E700BFEE
:10B8100004000020C0B1C9B101234B60C368013BE3
:10B82000012B04D94FF000538B60002070478369CF
:10B8300023B10B60064B8B6000207047054B0B60FB
:10B84000034B8B60002070472120704721207047F8
:10B8500008000020CC8D040800F01F020123934053
:10B86000A0F50620A0F550604009074951F82020B6
:10B870001A4341F82020054951F8202022EA03020A
:10B8800041F82020704700BFBC2200209C220020ED
:10B8900000F01F0CA0F50620A0F5506040090F49EC
:10B8A00051F82030012202FA0CF2134341F8203003
:10B8B00000231A4604E00A4951F823100A440133D0
:10B8C000072BF8D902B17047072A05D8034B00218E
:10B8D00043F822100132F7E7704700BF9C22002096
:10B8E000BC22002000F01F0CA0F50620A0F550603F
:10B8F0004009054951F82030012202FA0CF2534068
:10B9000041F82030704700BFBC2200202DE9F041F3
:10B91000A2B040242246002112A835F077F9224631
:10B92000002102A835F072F9214F23E0DFF88C8066
:10B9300029E022AB03EB840353F8400CFFF78CFFA4
:10B940000134AC42F5D3CDF800803B46102202A969
:10B95000184800682AF0BEFA0546002407E022AB2A
:10B9600003EB840353F8800CFFF792FF0134AC42E1
:10B97000F5D33746104B9F4213D807F110060F4BF3
:10B980009E42D3D8B04608F1FF38CDF800803B4640
:10B99000102212A9074800682AF092FA05460024EE
:10B9A000CFE7074B01221A7022B0BDE8F08100BF3B
:10B9B000006D080078450020FF7008000071080045
:10B9C0007D4100202DE9F04184B006460D461C461D
:10B9D00017460AB1002313600CB100232360102323
:10B9E000009300232A46314611480068FDF70CFAFF
:10B9F0008046C8B90FB110233B602A680D4B9A42AC
:10BA000010D18FB184B1234603AA3146084800689B
:10BA1000FDF7FEFA20B923683A689B1A236003E019
:10BA2000804601E0DFF81080404604B0BDE8F081B8
:10BA300078450020105D175EFFDF00F02DE9F0472C
:10BA40008046894617461E462BF04CFBC4B204F5CF
:10BA5000062404F55064464B1B7813B10025AA4612
:10BA600041E0FDF743FC002870D1FFF74FFFF5E7F9
:10BA7000BAF1000F00D1A246A4F50624A4F6FF44B3
:10BA8000E4B204F5062404F550642BE00A9B1C6024
:10BA9000002048E0099B089A31462046FFF792FFB4
:10BAA000344B984208D0632806D060B1324B98429C
:10BAB00009D06FF0910036E02146304B1868FDF751
:10BAC000E5FA002848D1B268F3684B4508BF424503
:10BAD0002BD0A4F50624A4F6FF44E4B204F5062412
