:020000040800F2
:10000000081000207101000829210008372200088B
:100010002921000829210008292100082921000898
:100020002921000829210008EC27000829210008BF
:10003000292100089C2700082921000829210008FF
:100040002921000829210008292100082921000868
:100050002921000829210008292100082921000858
:100060002921000829210008292100082921000848
:100070002921000829210008292100082921000838
:100080002921000829210008292100082921000828
:100090002921000829210008292100082921000818
:1000A00029210008E11B0008C11B000829210008C4
:1000B00029210008292100082921000829210008F8
:1000C00029210008292100082921000829210008E8
:1000D00029210008292100082921000829210008D8
:1000E00029210008292100082921000829210008C8
:1000F00029210008292100082921000829210008B8
:1001000029210008292100082921000829210008A7
:100110002921000829210008292100082921000897
:100120002921000829210008292100082921000887
:100130002921000829210008292100082921000877
:100140002921000829210008292100082921000867
:100150002921000829210008292100082921000857
:100160002921000829210008292100082921000847
:1001700008B50B4B83F30A880A4B07A1D1E90001AC
:10018000C3E9000100F07EF800F090FB00F054F8A5
:1001900000F066F800F030FBA5EDF5FEA5EDF5FEEC
:1001A00008000020081000200348044B834202D0BE
:1001B000034B03B1184770477C1400207C140020C7
:1001C00000000000064B0749C91A891048BF0131D9
:1001D000491003D0044B0BB101481847704700BFCA
:1001E0007C1400207C1400200000000010B5064C98
:1001F000237843B9FFF7D8FF044B13B10448AFF39A
:1002000000800123237010BD9A110020000000001F
:100210003829000808B5054B1BB105490548AFF35F
:100220000080BDE80840FFF7CDBF00BF0000000020
:100230001010002038290008064B0748DA1C121A53
:10024000C11E22F00302994288BF0022034902F036
:1002500012BA00BF7C1400201C140020442900089E
:10026000064B0748DA1C121AC11E22F003029942FB
:1002700088BF0022002102F0F6B900BF1C14002044
:1002800010100020044B054A9A60D3F8882042F4ED
:100290007002C3F88820704700ED00E000000008FD
:1002A00030B5174BADF50F7D01AC0FCB84E80F00D7
:1002B0002C22002105A802F0D6F96825FF234FF46F
:1002C0009472002144A88DF8153002F0CCF92A462A
:1002D000002110A802F0C7F92A4600212AA802F03E
:1002E000C2F920232AAA10A944A800F08DFE2246B4
:1002F00044A905A800F034F80DF50F7D30BD00BF0E
:100300007827000800B5C3B000F052FBB0F5027FBB
:100310000DD14FF484720021684602F0A4F9A023A5
:100320008DF803300D4B6846019301F003FF4FF445
:1003300084720021684602F096F9A0238DF80330FC
:1003400004238DF8043001F053FFCDF80700684610
:1003500001F0F0FE43B05DF804FB00BF020001466F
:10036000F0B5ADF5097D04460E46174600214FF461
:10037000847246A802F077F920238DF81B310223FE
:100380008DF81C314FF48472002104A802F06BF93F
:100390004FF47A7500F0A0FC0028FBD001230095F3
:1003A000194603AA0DF1130000F0BAFC9DF81330B2
:1003B000202BEFD101230321009503AA05A800F00B
:1003C000AFFC0028DED1039B032BDBD19DF814503A
:1003D00075B140F6B8332946009303AA01230DF105
:1003E000170000F09DFC0028CCD1039B9D42C9D191
:1003F0009DF81530002B54D19DF81650022D0DD0CC
:10040000032D1FD0012DBDD18DF81E518DF81F3148
:100410008DF8203146A801F08DFEB3E72146304625
:100420009DF81730009706AA00F028FE8DF81E519F
:1004300028B141F20703984214BF46200020ADF8CE
:100440001F01E7E7A3788DF81E5143B3E378002B33
:100450000CBF4623002346A8ADF81F3101F06AFE09
:10046000A378002B8ED0E378002B8BD023785A070B
:1004700006D5A06A01F0C1FE10B1184800F04CF991
:1004800023789B077FF57EAF656801F0B1FE85425A
:100490007FF678AF616A114800F0F4F872E74623FE
:1004A000D9E7012B7FF46EAF9DF81630012B02D0F7
:1004B0001F2B7FF467AFA37833B1E37823B940F201
:1004C000032001F02AFF5DE79DF81730012B0CBFD8
:1004D00040F2022040F20120F3E700BF0080000854
:1004E00037B500F1006303F500430193104B0D464F
:1004F000984214461AD8019A0E4B9A4216D2019A83
:100500009B1AA34212D348B94FF000639B6A0A4A70
:100510005969914202D9186900F050FA22462946D9
:10052000019803B0BDE8304001F015BE03B030BD06
:10053000FF7FFFF700E01708008000087FB56FF02D
:10054000006200F178419142034619D26D460D4A8E
:1005500002F110062C4610685168083203C4B242FA
:100560002546F7D15A1E04A90F3311F8014D12F890
:10057000010F844204D19A42F7D1012004B070BD2A
:100580000020FBE788270008F0B50368044603F164
:100590006043B3F5802F9FB033D84FF000639B6A60
:1005A00042681E6996422CD8344B9A4229D8456B32
:1005B00006F14002AA425ED89D425CD82846FFF769
:1005C000BDFF002857D0284601F0F8FD80B16B69C7
:1005D00073B1022B0ED1AB69C4F1040119444FF081
:1005E000FF32204601F09AF8254BC31A5842584171
:1005F0001FB0F0BD40F2046328460293FFF79EFF50
:1006000008B90020F4E74FF000635F6B3846FFF74E
:1006100095FF0028F5D0A6F150039F42F1D8284657
:1006200003A901F0D2FD0028EBD0039DAE42E8D82B
:10063000AC42E6D8114B9D42E3D804A801F032F950
:1006400021462A1B04A801F022FF04A801F021FF83
:1006500001F038F9044601F053F923460090294689
:1006600005F1200204A801F09DF802900298B0FA6A
:1006700080F04009BCE70120BAE700BF000018087D
:10068000E320BBDE70B54FF0FF3290B005460C465C
:1006900001F044F81C4B984232D14FF480621B4B5E
:1006A00000219A6601A81C2201F0DDFF184B2946A3
:1006B0006846043C009302F028F82146684602F0A0
:1006C00024F8684602F02AF801F03CFD0646B8B965
:1006D00040F2022000F04AF91C22314609A801F03C
:1006E000C2FF0C4B294608A8089302F00EF808A890
:1006F000214602F00AF808A802F010F801F022FDE5
:10070000002010B070BD00BFE320BBDE00900040B1
:1007100001000543010006434FF4806230B50446F2
:10072000154B91B09A6600211C2201A801F09BFF95
:10073000124B21466846009301F0E7FF684601F03E
:10074000EDFF01F0FFFC054698B940F2022000F0F1
:100750000DF91C22294609A801F085FF084B08A8BD
:100760002146089301F0D1FF08A801F0D7FF01F05E
:10077000E9FC002011B030BD0090004000000243B1
:10078000000003434FF4806210B50F4B8CB0044659
:100790009A6600211C2205A801F065FF0B4B01940D
:1007A0000493012302930A4B01A904A8039301F0C7
:1007B0001FFF04A801F0B2FF01F0C4FCB0FA80F002
:1007C00040090CB010BD00BF00900040000008437D
:1007D00004000020004870470080000840B139B193
:1007E00000230B60034B03600B6843F400230B6092
:1007F000704700BF0C12000813B501A801F01CFBE4
:100800009DF80530012B14D19DF804308BB94FF4BD
:100810008012234B2349586E03F580535A664B6B65
:10082000C00223F0E05343F040634B635CBF1E4BB8
:100830005A664FF04023D3F88420110606D44FF4B3
:1008400000621A67D3F88420D206FBD401F0E5FCDD
:1008500000F076F801F069FC01F069FC18B14FF482
:10086000017001F05AFDFFF71BFD044601F061FC29
:1008700034B940F2012001F050FD4FF4017009E05D
:1008800040F203739C42F4D0A4F20574012CF4D816
:1008900040F2032001F041FD002002B010BD00BF76
:1008A000008000400040004A00A00040012307B53E
:1008B0008DF806308DF807304FF04023D3F8943090
:1008C0005A060AD500F05EF8A0F2022080B207288E
:1008D00003D8C923C340DB0702D400F0BDFA20B11E
:1008E00000238DF806308DF80730134B5B68013319
:1008F00008D14FF4027000F039F800238DF806306B
:100900008DF807309DF807305BB10B48FFF73CFED0
:100910008DF806009DF806301BB94FF4027000F008
:1009200025F89DF8063023B10348044B986001F088
:1009300078FC03B05DF804FB0060000800ED00E007
:100940004CF23C32014B5A80704700BF000000203F
:100950004AF6C030044B5B8823F00F039BB21B1A8E
:1009600058425841704700BF00000020044A08B5B3
:100970001080FFF7EDFF10B94FF20F03538008BD51
:10098000000000204FF20F01084B5A888A4201D123
:10099000188870473AB91B8840F20220012B18BF13
:1009A0004FF4007070474FF4007070470000002053
:1009B000014B1888704700BF000000204FF48032C0
:1009C00008B5044B9A6601F09FF9B0FA80F040092F
:1009D00008BD00BF00900040072BF8B506460F4643
:1009E00014461D4601D90020F8BD0121202001F048
:1009F00007F90121212001F003F98CB144EA060333
:100A00009B07F0D14FF48032064B31469A66284658
:100A100023463A4601F0A0F9B0FA80F04009E3E736
:100A20000120E1E7009000401FB510220E4B5A66EE
:100A300000F0C8F94FF47A23B0FBF3F00B4B0F2210
:100A4000186000210DF1010001F00DFE01238DF869
:100A5000003040F2FF3369460548ADF8023001F03E
:100A60004EFD05B05DF804FB00900040281000200A
:100A70000080044030B50D4D0D4A2D68536A15FBBA
:100A800000F515FA83F09CB280B2A0422CBF00247E
:100A90000124084B1880084B1C7011B1536A834223
:100AA000FCD1012305494B61936130BD2810002022
:100AB00000800440981100209B11002000A00440F9
:100AC000094B0A4A5869127800F001000AB108B9C6
:100AD000704738B9586A064B1B88984234BF0020CB
:100AE0000120704701207047008004409B110020C6
:100AF000981100202DE9F047DFF83891464BD9F8DE
:100B00000020464F02F13C01996002F124037B6210
:100B10007B604FF08063DFF820A101260AF5805842
:100B2000C8F864304FF40073C8F8643002F580539D
:100B30005E6040F6AA630024536141F20503384D1C
:100B4000384802F500519460D465D3601461D461D3
:100B5000D4648864C5F82047C5F83847C5F83047DD
:100B6000C5F82847C5F82C47D3609368936000F018
:100B700029F9DAF870300821C3F380233344B0FB3D
:100B8000F3F24FF4E11302F5E1425201B2FBF3F24A
:100B9000254B203A03EAC203D9F800202046D3614E
:100BA0003346042201F046F83346324609212046F6
:100BB00001F040F81423C5F820374FF40023C5F89E
:100BC00038374FF410230522C5F83037D9F80030F4
:100BD0004FF0F0515A6103234FF48020134AC8F8B4
:100BE0006430566091601249546294631464546591
:100BF000486002301466D46517678860A1F500511B
:100C0000C2F89040C2F88C404B630223966402F510
:100C100080521361BDE8F0875C1400201C14002092
:100C200000C00340FFFF0100F8FF7F000000044008
:100C3000004004406C14002000800040084B586BBA
:100C400010F0020006D002229A6203F50053012040
:100C50005A637047DB6A9B07FBD40222014BF6E71D
:100C6000000004400020044070B54E1E7E2E044655
:100C7000154622D8FFF7E2FF10B32046124B21445D
:100C800010F8012B884203F8012BF9D10F4B1A8879
:100C900066F30E121A800E4AC2F8A0300223936443
:100CA0000DB9002070BDFFF7C9FF0028FBD0094B2C
:100CB0001A6893699B06FCD5F3E741F20310F1E74C
:100CC00041F20620EEE700BF9C1100205C140020DA
:100CD000000004406C1400200E4A0F4B106840F2D4
:100CE0000112DB6E934205D190B10023C0F5007074
:100CF0001844704740F2022293420EBF4FF48073B3
:100D0000064A9B1A984202D0F0D2181A7047002067
:100D1000704700BF2C100020000004401C1200206F
:100D20002DE9F843089D04460E461746F3B9FFF730
:100D3000D3FFB04228BF304600214FF001084FF0EA
:100D400002091D4A054604EB000C1368DFF870E049
:100D50001A4864451CD101B1136007B13D6041F2EE
:100D60000420AE4298BF0020BDE8F8832DB1FFF704
:100D70005BFE00212846FFF77DFEFFF7ADFFB04286
:100D8000D5D2002DF9D0FFF79BFE0028F5D0CEE795
:100D90001EF803100133B3F5007F04F8011B04D1E2
:100DA0000023C0F810900121D3E7B3F5807F08BF7E
:100DB000C0F81080F7E700BF2C100020001004409E
:100DC0001C12002030B51C4B87B001AA03F110059E
:100DD000144618685968083303C4AB422246F7D159
:100DE0001B782370154B1B6F03F00703032B1FD0D9
:100DF0004FF48022124B5A66124A9368C3F304439D
:100E0000102B17D818336B440F4913F8143C4B437D
:100E10000E498B4203D19268C2F30162D340074A64
:100E2000106FC0F303300130B3FBF0F007B030BDFA
:100E3000074BF4E7074BF2E7342800080080004036
:100E4000009000400000014040420F0000093D00BA
:100E500000F04902C0EA21014FF08062164B13B541
:100E60005A66052101230422002000F0E3FE00233E
:100E70000093009B632B19DD012302220521002032
:100E800000F0D8FE00230193019BB3F5FA7F10DB3D
:100E900000220A4B10465C6C0521012300F0CAFEBB
:100EA0006FEA541000F0010002B010BD009B013346
:100EB000DEE7019B0133E6E70090004000C00340FD
:100EC00030B5024600230C25054905FB03F46018E4
:100ED0000C59944203D001330C2BF6D1002030BDC5
:100EE00048280008F0B50023082787B0CDE9013372
:100EF00015463B46009704AA044601F036FA41F233
:100F000003039842064623D194F8433053B13A463E
:100F1000E06C04A901F0BBFA04AA3B461146A06CA0
:100F200001F0A4FA059A049B6A6094F843202B60B0
:100F300052B9094A934207D0084A934204D0082282
:100F4000E06C04A901F0A3FA6B68236500236365D4
:100F5000304607B0F0BD00BFF70A0AF7FC0404FCF6
:100F60002DE9F04799465B6804460F469046002BF2
:100F70003FD08B0740D14FF000639B6A006E1B6926
:100F800081181D1DA9421BD31C33984218D2A842B8
:100F9000024638BF2A46994294BFC2EB010AC2EB0F
:100FA000030A101A3E18C5F1680010443146524633
:100FB000204401F060FB5246FF21304601F053FB14
:100FC000226E0F4B9A420BD80E4902EB0800884262
:100FD00006D39B1AFA58C4F880204FF0FF32FA501B
:100FE000D9E9003542463946206EA847236E43446E
:100FF00023660020BDE8F08741F20200FAE700BF57
:1010000004800008088000082DE9F04100254FF019
:10101000FF3704468846164603F0200380F8423026
:101020001822FF21C0E91855A0F8405080F843501D
:10103000A0F8445080F84650C0F88870683001F03D
:1010400012FB88222946C4E91286C4F88070C4F8CD
:10105000847004F1900001F006FB074BC4F8207186
:10106000C4E9463584F8245116B1304600F01AFC24
:101070000020BDE8F08100BF000101012DE9F04F23
:10108000A5B09946CDE91123002304460E464FF042
:1010900001082E9D1393139978E094F846300C2B99
:1010A00070D8062B4BD908FA03F212F4286F40F0DF
:1010B0000F8212F4885F40F0BA810A2B66D1DFF804
:1010C000BCA3636D072B00F228814FF0080B382377
:1010D00016AA2046CDE90188CDF800B011A901F08B
:1010E00044F941F203030A900A9A9A4200F03F81C0
:1010F0000A9B5BE0A3F10E02052A00F29482DFE86E
:1011000012F006030600F50036023602040300273B
:10111000636D0F2B00F28A80102314AA00932046DF
:101120004023CDE9018711A901F01FF941F2030322
:101130000890089A9A4200F0CB80089B36E0013B69
:10114000052B27D8DFE813F074006E000600C401F9
:10115000DC007B010127636D072B00F2DE80082392
:1011600014AA009320464023CDE9017711A901F08C
:10117000FCF841F203030B900B9A9A4200F0218194
:101180000B9B13E0A3F10D02062AB3D9494584D382
:10119000002065E014AA204611A9FFF7A3FE41F242
:1011A00003020590059B934208D0059B049341F2EE
:1011B0000303049A9A423FF46EAF50E0159A1499D3
:1011C000226500226265AB4A914240F0078102220B
:1011D00084F84620EAE7082314AA00932046402317
:1011E000CDE9018711A901F0C0F841F2030306908F
:1011F000069A9A4201D0069BD8E7149B03F07F43DE
:10120000B3F1407F05D0132384F8463041F209033F
:10121000CCE7159BD90706D594F8423043F001037B
:1012200084F842300027636D072BD4D9012303E1F2
:10123000204614AA11A9FFF755FE41F203030790B7
:10124000079F9F420FD0079F41F203030497049A20
:101250009A423FF420AF049B0BB10023F370049833
:1012600025B0BDE8F08F1498FFF72AFE28B91323A4
:1012700041F2080784F84630E6E7437994F82421E0
:101280009A4205D9132341F20E0784F84630DBE772
:10129000026879498A4205D00289D20748BF0133E2
:1012A00084F8243194F84230D9070DD5028994F896
:1012B0004330920706D53BB1132341F2010784F86E
:1012C0004630C1E7002BF7D0037984F84630BBE7FE
:1012D000D4F848A000F032FB80230221CDE90003BE
:1012E00015AA0123504600F031FA11E7226D0123BF
:1012F000A265002284F84330E26584F84630CAE6ED
:1013000000213C2215A81491012701F0ACF9D4E981
:101310001432934204D884F8467041F2030345E73F
:10132000009314AA40232046CDE9017711A901F0CA
:101330001CF841F203030990099A9A4201D0099BD3
:1013400034E70DF1500C06F108030DF1680E62460A
:1013500003CA724518605960944603F10803F6D138
:1013600010681860337843F001033370CFE73378A7
:1013700043F004033370179BB36273785F071CD587
:101380000020236DCDF850A0C4F8843094F8453087
:10139000606643F0020384F84530EF686FB10422C1
:1013A0002B6814A9B847606E2B685A46EF6816A9D7
:1013B0000830B847636E103363660B2384F84630F9
:1013C0007FE6337843F002033370149B7360236D20
:1013D000083B7362159BB3F1006F05D0132384F8AB
:1013E000463041F20103E1E6042384F8463094F8E4
:1013F000453043F0010384F8453000236366AAE6D4
:10140000042314AA009320464023CDE9017711A9B3
:1014100000F0ABFF41F203030C900C9A9A4201D00A
:101420000C9BC3E6226D149B042A01D92366012775
:10143000636D032BE4D9092384F846306DE700235C
:101440006366072359E79F4252D89F4228BF1F4631
:10145000402314AA2046CDE90188009711A900F085
:1014600084FF41F203030D900D9A9A4211D00D9B17
:101470009CE600BFEB17A603F90707F9EB17A65E7A
:10148000402F28BF40279F4228BF1F4627F0030751
:10149000DEE794F846B0BBF1070F2FD0042FC7F159
:1014A000040A88BF4FF0000A14AB5246FF21D81936
:1014B00001F0D9F8BBF1090FBA442DD12B465246A1
:1014C000204614A9FFF74CFD0D900D9B002BCED1AB
:1014D000D4E914739F427FF6A9AEFF1ADDE91232F8
:1014E0009B1A94F84020032F1344ACD9032BC7D880
:1014F000204611A900F018FF002357E6D5F808A0F0
:10150000BAF1000FCAD02B683A46606E14A9D047D2
:10151000636E3B446366DBE7BBF1040F1DD1737858
:101520009807D5D5EB68002BD2D0626E042A0BD871
:101530000AEB0203062B07D915AB9B1A1A68C4F8ED
:1015400084204FF0FF321A60EF682B685246606EBD
:1015500014A9B847636E5344DCE7BBF10B0FB7D156
:1015600073785907B4D5EF68002FEED1B0E74FF08C
:1015700000618A6A496B1269503A91423FF631AF75
:10158000112B0FD194F81831002B7FF44FAE41F29C
:1015900006030E930E9A9A4202D1132384F8463022
:1015A0000E9B03E694F84430002B7FF43FAECDE968
:1015B0000133402314AA0093204611A900F0D5FE60
:1015C00041F203030E900E9A9A42E9D1E06C00F0CA
:1015D00060FF94F81831A3B104F1B4030093E06CF8
:1015E00004F194031CAA14A900F0DCF80E900E9BE1
:1015F000A3B10023F370132384F8463041F20603AD
:10160000D4E5D4F84CA000F05DF9074600F078F975
:101610003B4600901CAA504614A9E5E70123F3704D
:1016200084F8443002E600234FF00408CDE901338A
:1016300014AA40232046CDF8008011A900F095FEA1
:1016400041F203030F900F9A9A4202D00F9B04932A
:1016500005E6D4F888202F4B9A4205D0132384F84E
:10166000463041F20503F2E70123F37094F8453068
:10167000DA0707D5EF682FB1424640462B6804F1E0
:101680008401B84794F845309B0707D5EF682FB120
:1016900004222B68104604F18401B847236E6BB313
:1016A0006F685FB34FF0FF3304F1800804224146B6
:1016B00010A8109300F0C7FF20B1042241462B6808
:1016C0001548B84704F168090422494610A800F0FB
:1016D000BAFF98B14FF000639B6A1422D3F81080D0
:1016E00004F16C0108F10800D5E90037B847D5E9E5
:1016F00000370422494608EB0200B8470123B370C3
:101700000E2384F846300023A1E70023F37041F252
:101710000700A5E5E320BBDE0480000830B50824FF
:10172000094B00255C66012403F5FE235C6001443F
:101730009D601A61DC60884201D1586A30BD10F8A2
:10174000012B1A62F7E700BF009000402DE9F0413D
:1017500016464FF480621D46114B00F120080446E6
:101760009A6640460F4600F04DFFDDE906124046FE
:1017700000F04CFF002384F8587063643368C4F8A9
:1017800059307368C4F85D30B368C4F861302B0C0D
:101790006DBA84F86530A4F86650BDE8F08100BFEA
:1017A000009000402DE9F04315464FF480621C463E
:1017B000364B99B0DDF880900E4607469A660028B1
:1017C00061D000295FD0002D5DD0002C58D0304B67
:1017D000304AB9F1000F14BF984690461C220021F0
:1017E00011A800F040FF2C4B414610A8109300F0C8
:1017F0008CFF202110A800F088FF0122274B0194C4
:1018000002920393CDF810900592069354B1B9F16A
:10181000000F07D001A910A800F0E0FE04A910A84D
:1018200000F0DCFE079701271C4C07A910A80897B9
:10183000099400F0D3FE0AA910A80A960B970C94FD
:101840000D950E970F9400F0C9FE0DA910A800F099
:10185000C5FE10A800F062FF114B00934FF09843B3
:101860005A6CD202FCD55B6D40F2046003F4702325
:101870000093009B002B08BF002019B0BDE8F08347
:10188000DFF81080AAE740F20160F6E70090004020
:101890001F2400801F24FC8400000106200000207B
:1018A000785634124FF4806210B50446044B9A66A1
:1018B00000F0F2FD2046BDE81040002100F0F0BD30
:1018C000009000404FF4806200B50B4B9BB09A66CD
:1018D0000021242201A800F0C6FE402300210AAA0C
:1018E00001A800F0C5FA20F010000128034818BF35
:1018F00000201BB05DF804FB009000404CE317088B
:101900004FF4806200B50B4B9BB09A6600212422F5
:1019100001A800F0A8FE402300210AAA01A800F0B7
:10192000A7FA20F010000128034818BF00201BB0C0
:101930005DF804FB009000406CE317080048704716
:1019400086E217082DE9F3471446DDE90A920D46B1
:101950001F4600284DD14CB313683F2B2AD851683D
:1019600051B32549002F14BFB846884603F03F06FF
:101970001B19136022BF536801335360FEB93F2C1B
:101980000ED9A3092A46009341463B46002000F0A9
:1019900083F824F03F031D4404F03F0434B10026D3
:1019A0002246294609EB060000F065FE002002B041
:1019B000BDE8F087B846D9E7DFF83C80D6E7C6F146
:1019C000400A5445ECD32946524609EB060000F084
:1019D00052FE0123264400934A463B4641460020DE
:1019E000A6F1400400F058F83F2C5544D6D9B8462B
:1019F000C7E70248DBE700BF1829000880AFFFFFF8
:101A00002DE9F0411746146886B01E46E3008DF8B4
:101A10000F3063098DF80E30630B8DF80D30630DB8
:101A20008DF80C3053680546DA0002EB54728DF8DD
:101A30000B2004F03F045A09372C8DF80A204FEA96
:101A400053324FEA53538DF80920884694BFC4F1AE
:101A50003802C4F17802CDE900178DF808300D493D
:101A600003460020FFF76EFF08222B460020CDE939
:101A700000870DEB0201FFF765FF284605F1200303
:101A800050F8042B984246F8042BF9D1002006B0F8
:101A9000BDE8F081D8280008F0B517464FF4806201
:101AA0001D46254B93B00E469A660446202200211F
:101AB0000AA800F0D8FD01204FF0005201970290D3
:101AC0000392049605900692079508900992002CBF
:101AD0002FD1189C194BA40121460AA80A9300F0A3
:101AE00014FE039B04A91C430394069B0AA843F01D
:101AF00020030693099B43F02003099300F06EFD39
:101B000001A90AA800F06AFD07A90AA800F070FD63
:101B10000AA800F003FE4FF098435A6CD202FCD59D
:101B20005B6D13F4702F14BF6FF06F00002013B0C3
:101B3000F0BD6FF07100FAE700900040000401036F
:101B4000BFF34F8F0549064BCA6802F4E0621343A6
:101B5000CB60BFF34F8F00BFFDE700BF00ED00E09B
:101B60000400FA052DE9F04104460C254FF0010868
:101B7000124E0CB314F001000BD0002024F001042D
:101B800005FB00625768002FF3D09168C0B2B847D8
:101B9000EFE72246013020284FEA520201D0D30756
:101BA000F8D508FA00F20F2824EA0204E8D9103820
:101BB00005FB0062B432E5E7BDE8F081301000209B
:101BC00008B500F04BF9054B00F0553020F05020DF
:101BD000C3F82004BDE80840FFF7C4BF00E003409D
:101BE00008B500F03BF9054B00F0AA3020F0A0202A
:101BF000C3F82004BDE80840FFF7B4BF00E003408D
:101C0000430905D0012B0CD0022B084B18BF002331
:101C100000F01F0039B103F58053012282401A60A1
:101C20007047034BF4E703F50053F6E76880004084
:101C3000648000402DE9F04105460F461E4690465F
:101C40004AB101233022194C8B4002FB004436B3C9
:101C500004F5825423600F21072F05EB450388BF4D
:101C6000A7F108044FEA0313114895BFBC00A40074
:101C700004330C3308FA04F2A140184400F029FCA4
:101C8000B8F1000F09D101233021084ABB4001FB04
:101C900005223EB102F582521360BDE8F08104F5E1
:101CA0000154D7E702F50152F6E700BF00C0034038
:101CB00030C00340F0B5114A114C124E00F001053E
:101CC000E3695F0713D40DB9334213D103EA000768
:101CD0008F4207D10B4A1A40002A0CBF00206FF038
:101CE0000100F0BD013AEBD16FF00200F9E74FF0CF
:101CF000FF30F6E76FF00100F3E700BF8096980031
:101D000000000340020001004FF4803238B50E4B52
:101D10000E4C9A66E56941F6713315400122E36382
:101D20000B4B0021DA600223606121202361FFF761
:101D3000C1FF10B92120FFF7BDFF0122054BDA607A
:101D40000DB10023E36338BD009000400000034064
:101D500000100340002003402DE9F04F01274FF40D
:101D6000302530268400DFF8C0C004F1402404F59B
:101D70008024CCF80470656000244FF48035DFF8CF
:101D8000ACE0DFF8AC9006FB00E6F465346634673F
:101D9000234CDFF8A0A0A56641F6713504F51C348C
:101DA000D4F81C80E563E56807FA00F03D43E56080
:101DB0004BB9E26818F4803F22F00102E26029D1B9
:101DC0000020BDE8F08F01F5005505EA09056D1A00
:101DD0009D4228BF1D466161D4F81CB0AF081BF0BE
:101DE000040F19D1013F3F0147F060577766B26693
:101DF000C6F86CA0CCF82400DEF834703842FBD072
:101E0000084F294478630427CCF828002A44276126
:101E10005B1BCDE7E363D3E74FF0FF30D1E700BFB3
:101E200000900040002004400010044000000440E6
:101E300000E0FFFF180003404FF48032064B5A6663
:101E400003F5E6239B69C3F38512827003F03F021A
:101E50001B0B42700370704700900040034BD3F897
:101E60002424D3F820041040704700BF00C0034072
:101E70001FB5044660B35AB3402B29D1930727D12D
:101E8000042925D8DFE801F0031A24221E004FF4AC
:101E9000807310490B4323600023C4E90133E361DD
:101EA0000123019202930C4B204601A9039300F0F9
:101EB0009FFB204600F0FEFB04B010BD4FF4007302
:101EC0000449E7E705494FF48063E3E70149FAE78E
:101ED0002120F1E7010008FF40000020000008FF7A
:101EE0002DE9F041012905460E4690461F4692B065
:101EF0004AD8046824F04003802B02D0B4F5807FD8
:101F000045D11C2200210BA800F0ADFB234A244B35
:101F10000121012E08BF13460A932B1D0193E408EB
:101F2000204B44F0005402910AA80394CDF810808D
:101F3000059106930797089101A9099300F04EFBBC
:101F400004A90AA800F04AFB07A90AA800F050FB60
:101F500029680AA8C90800F0D8FB10210AA800F0D7
:101F6000D4FB00F095FBA8B90AA800F0D7FB4FF00E
:101F700098435A6CD202FCD55C6D00F093FB04F4DC
:101F8000702012B0BDE8F0816FF02000F9E76FF02B
:101F90007100F6E74FF0FF30F3E700BF00010004E7
:101FA00000010104100000202DE9F04F074689468A
:101FB0009846164699B082B115683B6823F04002F6
:101FC000802A03D0B3F5807F40F0A68000244C45E2
:101FD00005D306B1356000207BE01546EDE75DB125
:101FE000239B229A1B5D525D01355340249A05F0D4
:101FF0000F0513550134EAE7A9EB040ABAF10F0FF4
:102000000BD8239B03EB040A249B1C44239B03EB68
:10201000090BDA4560D14C46D9E71C22294611A8A4
:1020200000F021FB3E4B3A6810933B1D01930123C6
:10203000D20842F00052029303923A4ACDF810803F
:1020400005930692CDF81C8008930992239A24994F
:1020500022442AF00F0A0A9221444AF000520B93BC
:1020600010A80C920D9101A90E930F9200F0B6FAF0
:1020700004A910A800F0B2FA0AA910A800F0AEFA5C
:102080000DA910A800F0B4FA07A910A800F0B0FA42
:10209000396810A8C90800F038FB514610A800F0B4
:1020A00034FB00F0F5FA90B910A800F037FB4FF0C0
:1020B00098435A6CD202FCD5586D544400F4702BEE
:1020C00000F0F0FABBF1000F9BD0584601E04FF052
:1020D000FF3019B0BDE8F08F55B1229A1AF8013BD4
:1020E000525D0135534004F8013B05F00F0590E7C0
:1020F000424601213846229BFFF7F2FE0028E8D134
:1021000008F1100212F8013D0133DBB21370002B0D
:10211000E3D19045F6D1E0E76FF01F00D9E700BFAB
:102120000303000410000020FEE700F009B8FEF7EA
:10213000E9B870470179012204310330FEF794BDFC
:10214000FEF7D8BC4FF098435A6CD202FCD5586DBC
:1021500000F470207047C0F30C032DE9F0410546F0
:102160000F4616460BB9FEF729FC05F5005424F47A
:10217000FF5424F01F0405EB0608A04507D832469B
:1021800039462846BDE8F0410223FEF725BC20462B
:10219000FEF714FC04F50054EFE770B44FF000654F
:1021A000AD6A03462E69864206D86C6913449C4288
:1021B00002D370BCFFF7CFBF70BC7047036913F048
:1021C000FE0F0CBF01200020704738B504460D46B5
:1021D000FEF7B4F938B16369012B07D12046FFF748
:1021E000EDFF10B1A46901202C6038BD0020FCE790
:1021F0004FF000639B6A986870474FF0FF3313B548
:10220000044601A80193FEF7BDFA20B1019BA34249
:102210002CBF0020012002B010BD0020704700201C
:10222000704703461846016881F3088881F30988DE
:1022300040688746FEE74FF4017000F06EB8B1F5D4
:102240000D7F10B504460FD34FF40D72002100F03E
:102250000AFA04F5DE7204F5AA7104F12C000023D9
:10226000BDE81040FEF7D0BE40F2052010BD13B50A
:102270000446009101462C30FEF700FFC4F83002FE
:1022800018B141F20703984204D1A37823B1E07852
:1022900000F2022002B010BD40F20120FAE72DE961
:1022A000F04387B00DF1080904460E461746002199
:1022B000102248461D46DDF8388000F0D4F9002190
:1022C0001C22C8F80010284600F0CDF932463B46E3
:1022D0002146CDF8009004F12C00FEF7CFFE2378C4
:1022E0009A0744BF6268C8F80020DB0709D504F1EB
:1022F000080304F1240253F8041B934245F8041B1D
:10230000F9D1237840F20640002B18BF002007B017
:10231000BDE8F0834FF40D70704708B5FEF726FB5B
:10232000BDE8084000F08DB970B5D1E90152AA426C
:1023300005D290F840302B449B1A402B10D9002036
:1023400012E00A6890F84040D65C90F841200133D2
:10235000224402F03F02013486548B6080F84040F2
:102360008B689D42EDD8012070BD2DE9F84390F8AF
:1023700040C017469E46D1E90123089DD21A624407
:10238000954204460E469DF824909DF828800AD96F
:10239000FFF7CAFF002867D1132341F2020084F837
:1023A0004630BDE8F883754555D8002394F84020A1
:1023B0000AB19D4235D1D6E90121914201D29D4217
:1023C00041D89D424DD129463846D4F88820FFF7A0
:1023D000A5F9C4F88800B9F1000F04D02A4639469F
:1023E000E06C00F054F894F84330B8F1000F06D0D8
:1023F0008BB12B463A463946A06C00F037F894F87A
:10240000433043B1E36DA26D2B449342E36524BF97
:10241000002384F84330636D41F203002B4463656D
:10242000BFE794F84120A25CFA5494F841200133AC
:10243000013202F03F0284F8412094F84020013A32
:1024400084F84020B2E73268525CFA54B268013333
:102450000132B260AFE741F20100132384F8463045
:102460009FE741F20200F8E700209AE71FB50C460B
:10247000194600F14803CDE90142009300F14402FE
:1024800000F158032030FFF78FFD04B010BD00F0BD
:102490000CB8014600F016B86822002100F0E3B83D
:1024A00003460020C3E90000704707B500F1280388
:1024B0000190009300F108030020FFF743FA03B0F6
:1024C0005DF804FB02460B4600F128010830FFF7D7
:1024D00097BA70B5054614460E4600F012F92B68FF
:1024E0005C4034405C402C60BDE8704000F004B9B2
:1024F000036BDA0702D503695B06F9D4704710B5A0
:10250000FFF7F6FF0122044600F500531A63236B20
:102510009B07FCD40B794A881B0243EA82438A7AE0
:1025200013434A7843EA8213CA7A43EAC2130A7B06
:1025300043EA42134A7B43EA02138A7B43EAC2031B
:10254000CA7B43EAC2238A7943EA0243CA7943EA4F
:1025500042430122636004F580531A630A780AB982
:102560000223E360002363624B79087A1B01497AF6
:1025700043EA80030B43A3600AB10123E36010BD6B
:10258000B0F5802F22D010D8B0F5003F20D007D86A
:1025900018B3B0F5803F08BF482018BF012070472E
:1025A000B0F5403F08BF2C20F7E7B0F5302F11D031
:1025B00007D8B0F5E02F0FD0B0F5202F08BF1020BE
:1025C000EBE7B0F57F0F08BF0620E6E74B2070472A
:1025D0002A2070471120704721207047436813B9A3
:1025E000416070475B685A68012AFBD159607047A7
:1025F000836813B9816070475B685A68012AFBD110
:10260000596070472422002100F02DB870B515469E
:102610000E4624220021044600F025F825F0400350
:10262000802B02D0B5F5807F08D12046314640F896
:10263000045BEA0800F01FF8002070BD6FF01F0077
:10264000FBE7FFF77DBA0139024410B5904201D192
:10265000002005E0037811F8014FA34201D0181BB8
:1026600010BD0130F2E702440346934200D17047A7
:1026700003F8011BF9E70A44431E914200D1704759
:1026800010B511F8014B914203F8014FF9D110BD7B
:102690004FF48062024B9A66BFF34F8F0020704761
:1026A000009000404FF48062014B00209A66704712
:1026B00000A0004008B5C0B14FF480620C4B9A6690
:1026C000BFF34F8F00F02AF84FF098435A6CD202B4
:1026D000FCD54FF48062586D064B10F470209A665A
:1026E00004D0BDE80840FFF74BBF212008BD00BF64
:1026F0000090004000A0004010B962B6BFF36F8F99
:102700007047EFF3108072B67047C369032B9FBF09
:1027100000EB83020133D160C3617047C369042BAE
:1027200014D84FF09842116CC902FCD504339B00B9
:1027300013650168103B11604168116050F8081F73
:1027400011604FF098420344984200D1704750F80E
:10275000041F1160F8E70000000000000000000006
:10276000F8B500BFF8BC08BC9E467047F8B500BF7E
:10277000F8BC08BC9E467047000000009B21000882
:1027800000000000E1040008B814B6F1E0CFF3AD9A
:10279000B7DD25C9FA79B7130000000013B779FA3D
:1027A000C925DDB7ADF3CFE0F1B614B801020000E2
:1027B00000000000A4290000400000000100000308
:1027C0000000000000000000000000000000000009
:1027D00000000000000000000000000000000000F9
:1027E00000000000000000000000000007B0CD5E07
:1027F0000200000001000003A8290000006000089A
:1028000000001808F00410001B2200081F22000816
:10281000890500083F2200086F2200080000000020
:102820009F2200081523000800000000DD070008B3
:10283000D50700080400000700000D1013001A203F
:102840002630384050000000EB17A60302010000BC
:1028500003000000FA0606FA0F040000030000005F
:10286000F40A0AF40505000001000000EB17A65E5B
:102870000A06000001000000F50909F50307000041
:1028800001000000F60808F606080000000000003D
:10289000FE0101FE0808000000000000FD0303FD2A
:1028A0000C08000000000000F90707F910090000FB
:1028B00002000000F30B0BF3110A000003000000FC
:1028C000F70A0AF7120B000003000000FC0404FCE6
:1028D0000D0C00000300000080000000000000005C
:1028E00000000000000000000000000000000000E8
:1028F00000000000000000000000000000000000D8
:1029000000000000000000000000000000000000C7
:1029100000000000000000006A09E667BB67AE85A2
:102920003C6EF372A54FF53A510E527F9B05688CB1
:082930001F83D9AB5BE0CD1958
:0C293800442900081C14002018000000B6
:10294400F00F1003000000001C1200201300000010
:102954000900000000010000020200001300000052
:10296400F00F1003000000001C13002013000000EF
:10297400090000000002000001010000D3FFFFFF76
:10298400F07F10309C1100200000000000000000C7
:1029940000C005402900000015020008ED010008F0
:04000005080001717D
:00000001FF
