:020000040800F2
:106000000812002015B00308833A0A08C9300808AE
:1060100095680A08833A0A08833A0A08833A0A0804
:10602000833A0A08833A0A08833A0A08E19A0C0874
:10603000833A0A0874200E08719A0C0845EA0C0885
:10604000FDB30308833A0A08833A0A08833A0A0828
:10605000833A0A08833A0A08833A0A08833A0A0804
:10606000833A0A08833A0A08833A0A083D970008E7
:10607000833A0A08833A0A08833A0A08833A0A08E4
:10608000833A0A08833A0A08833A0A08833A0A08D4
:10609000833A0A081DBD0308833A0A08833A0A08AE
:1060A000833A0A0805BA0308E5B90308833A0A08DF
:1060B000833A0A085D9B070809A6070899780C0827
:1060C00095780C08999D0708AF780C089D780C0806
:1060D000D9A50708A1780C0849A60708B5A607089E
:1060E000833A0A08833A0A08833A0A08833A0A0874
:1060F000AB650A08833A0A08833A0A08833A0A0811
:10610000833A0A08833A0A08833A0A08833A0A0853
:10611000833A0A08833A0A08833A0A08833A0A0843
:10612000833A0A08833A0A08833A0A08833A0A0833
:10613000833A0A08833A0A08833A0A08833A0A0823
:10614000833A0A088D010408833A0A0899E90C0881
:10615000717F0708833A0A087B780C0881780C085D
:10616000833A0A08833A0A08833A0A08833A0A08F3
:10617000F0B5114A114C124E00F00105E3695F07BA
:1061800013D40DB9334213D103EA00078F4207D16C
:106190000B4A1A40002A0CBF00206FF00100F0BD2E
:1061A000013AEBD16FF00200F9E74FF0FF30F6E76C
:1061B0006FF00100F3E700BF8096980000000350E5
:1061C0000200010070B50B4BD96911F480310DD17B
:1061D00001244FF48072084E084DF46020462C6470
:1061E0001A61FFF7C5FF3464EC6070BD6FF0010009
:1061F000FBE700BF000003500010035000200350D5
:106200004FF4803238B50E4B0E4C9A66E56941F674
:10621000713315400122E3630B4B0021DA60022346
:10622000606121202361FFF7A3FF10B92120FFF750
:106230009FFF0122054BDA600DB10023E36338BDF7
:106240000090005000000350001003500020035045
:1062500070B5134C6061E3695B071ED40E4656F8B7
:10626000043B8D18A361AE420BD1042300212120F1
:106270002361FFF77DFF58B9BDE870402120FFF78B
:1062800077BF08210846FFF773FF10B1042323618D
:1062900070BD56F8043BA361E5E74FF0FF30F7E728
:1062A000000003502DE9F84315464FF48032184B97
:1062B00089469A6603F51C33DF690646174041F6A6
:1062C0007132DA63012203F58053DFF84C80DA6023
:1062D00055B9284601220F4BDA601FB10022A3F501
:1062E0000053DA63BDE8F88306F5005404EA0804B5
:1062F000A41BAC4228BF2C46494622463046FFF735
:10630000A7FF0028E6D12644A1442D1BE0E700BFEB
:10631000009000500020035000E0FFFF000000004C
:10632000000000000000000000000000000000006D
:106330002DE9F04F2DED028B884204460D46904624
:106340001E4697B00AD1034601211D202E4A17B0E0
:10635000BDEC028BBDE8F04F97F0C1B89FED288BE4
:106360000DF10C092A21484605AF1BF099FD99E86B
:10637000030087E80300DFF894A0DFF894B0BDF8CD
:106380001620BDF814309A4204D117B0BDEC028B30
:10639000BDE8F08F38461BF05FFD0AAB814696E8FA
:1063A000030083E8030009AB08938DF824408DF8BF
:1063B00025508DF82680CDF81CA006F029FD00237D
:1063C0000E938DF840308DF851302A23ADF830907F
:1063D0004FF001090D930CAA6B4607A98DED128BA6
:1063E0008DF8509080F020F8034620B15A46494677
:1063F0001D2097F074F838468EF062F9BFE700BFB1
:1064000000000000000000003C5A0D08485B0D0829
:106410007C5A0D08000000002DE9F0472DED028B9D
:106420009FED2B8B9CB00DF108082A21054604AC8A
:10643000404616461F461BF033FD98E8030084E8EB
:106440000300DFF89480DFF89490BDF81220BDF8C7
:1064500010309A4204D11CB0BDEC028BBDE8F0872D
:1064600020461BF0F9FC26A931F8083B0DF1380C49
:106470008246ADF830300FC98CE80F0008AB0793A7
:10648000CDE90A670895CDF8188006F0C1FC002315
:106490002A228DF858308DF869300223ADF848A0D3
:1064A0004FF0010ACDE9132306A96B4612AA8DED20
:1064B000188B8DF868A07FF0B7FF034620B14A46DD
:1064C00051461D2097F00BF820468EF0F9F8BCE7F6
:1064D0000000000000000000705B0D08D35A0D089A
:1064E0002DE9F04F2DED028B083085B00F46914617
:1064F000DDF8508096F0D5FE0446002800F09A8022
:106500006E4600259FED4E8B4FF0010B41F2A45AD1
:1065100010AB0FCB86E80F004B4BC4E9025523604C
:10652000C4E90455C4E906552C336360474B04F1B4
:10653000480C0FCB84ED0E8BC4E90C5584F8205029
:1065400084F840508CE80F00414B84F858B0A4F810
:106550005AA0E56584ED188BA36604F17C03C4E9B9
:106560001F333C4B1022C4F890302946C4E91B5518
:10657000C4E9255584F87450C4F88450C4F89C507C
:1065800004F1A000C3F0BFF884ED2E8B84F8B0B006
:10659000A4F8B2A0C4F8B45004F1C00097F0BCFB5A
:1065A0004AF6C873C82284ED368B84ED388BC4E973
:1065B0003A2304F58273C4E93E55C4E94133A4F893
:1065C000CC5084F8CE50A4F8D05084F80051C4F8D0
:1065D0000C513B68A3607B68E360BB682361FB6888
:1065E00063613B69A3617B69E3613B7E84F8203092
:1065F00033B104F1240307F11C0207CA83E8070042
:1066000038467EF024F9A8B9B9F1000F12D0B8F1DC
:10661000000F0FD003CE3378C4F8309084F84030A8
:10662000012384F8F830231DA063E163C4F8888057
:10663000C4F89C30204605B0BDEC028BBDE8F08F5D
:10664000000000000000000024200D08586A01200E
:1066500068150E0814200D082DE9F04F2DED028B62
:1066600000240025CBB09946CDE92E450023CDE985
:106670003045CDE934454FF6FF74DFF898A2064661
:1066800088461746CDE90C338DF8C8303393CDF8E2
:10669000D8A04894A2B3054600F53474A54206D1AB
:1066A0000B2420464BB0BDEC028BBDE8F08F284692
:1066B00080F09DF808B19035F0E79FED8F8BBDF825
:1066C0005C318DF8C880ADF820318D4B4FF4C87126
:1066D0000E93002309A8CDE909330F93CDF870A0DC
:1066E0000B9388F05EFA099C14BB0B240BA87DF079
:1066F0008AFF0AA87DF087FF09A87DF084FFD0E714
:106700008FF0F2FF044608B9AC24CAE706F53475E9
:1067100028467CF0F8FEB4F882308DF8C880ADF8D9
:10672000203121460CA894ED028B8FF04AFFCCE774
:106730004FF4C8710AA888F034FADDF828A0BAF13D
:10674000000FD2D04FF4C8710BA888F02AFA0B9A28
:10675000002ACAD04FF4C8734146CDE913323046FF
:1067600010AA1094CDE9113A159390F01DF8044643
:106770000028BBD14146304612AA8FF0F7FF0446ED
:106780000028B3D14146304614AA8FF0CCFF04460E
:106790000028ABD110A916A888F0F9F912A918A8F9
:1067A00088F0F5F914A91AA888F0F1F936AB079327
:1067B00030AB05930DF1B80A34ABCDE903A30DF16D
:1067C000700B0EAB8DED008BCDF818B002931AAAAA
:1067D00018A916A81FF064FB0446002886D10BA850
:1067E0007DF011FF0AA87DF00EFF09A87DF00BFFD8
:1067F000B9F1000F13D1D6F8640300285ED0036806
:106800009B6898470346D6F86403002B4ED0036874
:106810005A4641465B699847044688B141E7D9F832
:10682000003048465B699847594690F08DFA08B9A0
:10683000C52436E79DF85831CDF8CC908DF822313B
:106840009DF860315146B3FA83F328465B098DF811
:10685000233190F0FDF9044600287FF422AF28464A
:106860000CA98FF0F3FE06F55D7495F881303FB307
:1068700002211120234A96F032FED5E900122B693D
:10688000CDE9012100936B69022111201E4A96F087
:1068900026FE20460F9921F0BDFA034630BB96F83C
:1068A0008233013386F882330024FAE603684146D6
:1068B000DB6898470028C3D11024F2E60324F0E6F1
:1068C000D5E900121120CDE9002102210F4A96F0EE
:1068D00006FE20460F9921F09DFA03460028E3D0DA
:1068E000012111200A4A96F0FAFDDDE7012111206D
:1068F000074A96F0F4FDD2E7000000000000000017
:106900001C9D0D08489C0D08689C0D08AB9C0D084B
:10691000E09C0D08FCE70D082DE9F0478AB00DF169
:106920000D0301931523064600934FF48072002354
:1069300008460C4695F0D0FBE8B996F89230012253
:1069400000932046002395F04EFBA0B996F89330B3
:10695000022200932046002395F045FB58B90DF123
:106960000E0301931623032200932046002395F083
:10697000B3FB054610B10AB0BDE8F0874FF010092F
:1069800006F1C8070DF11808102200214046C2F098
:10699000BAFE0DF10F03019315234FF4807200939B
:1069A0002046002395F098FB0028E4D196F8932028
:1069B000EBB29A4251D917ED0C7BC44637F828AC9C
:1069C000A7F12603A7F1160E624618685968083326
:1069D00003C273459446F7D18DED007B042200235A
:1069E000204695F0DBFA0028C5D105220023204679
:1069F000CDF800A095F0F7FA0028BCD140464946F2
:106A000006228DE8030000232046CDE9048995F095
:106A100036FC0028AFD120469DF90F1095F091FB70
:106A2000013530370028A6D1032DADD120469DF980
:106A30000E1095F086FB00289DD1B6F88A3007220B
:106A400000932046002395F0CEFA002893D12046EB
:106A50009DF90D1095F075FB8DE782469FED027B49
:106A6000BAE700BFAFF300800000000000000000A4
:106A7000054B18680368D96901A3D3E900230847C7
:106A800000E0373B015D0300589C0220000000003D
:106A90002DE9F84F402200212948C2F034FE30226F
:106AA00000212848C2F02FFE00209FED237B264BBB
:106AB000264E274ADFF888B0DFF8ACA0DFF8AC90AC
:106AC000DFF8AC80DFF8ACE01E4FA3F1180C2425F2
:106AD000002145430BEB401443E9054A0CEB050448
:106AE00043E9039843F8181C43F804EC217721622A
:106AF000182404FB007442F8144C164C42F8181C7D
:106B000042F8104C144CA6EC027B42F80C4C134C8F
:106B100043F8241B42F8084C114C42F8044C114C29
:106B20002C442177216242F8241B08B1BDE8F88F7C
:106B30000120CCE7AFF3008000000000000000005F
:106B400030B8012000B80120D0B7012000E70020B4
:106B500088B70120C54E0408DF690A08FD690A08E4
:106B6000336A0A0870B70120ED4E0408016A0A086A
:106B7000C7690A08056A0A082DE9F043022089B0AE
:106B8000C4F03EFA00B9FEE76D4E336803B9FEE784
:106B90001020C4F035FA33686A4C9B880DF10B0164
:106BA0008DF80B30012320681A46C0F08EF89DF84E
:106BB0000B203168023A0023096892B22068C0F0C5
:106BC00084F83368604993F829208DF81420002256
:106BD000CDE906121B681D7815F020051FD020682E
:106BE000BFF013FE002874D02068BFF00EFE74F0D2
:106BF00099FA02460B464EA1D1E9000174F036FC29
:106C000080460798894674F08DFA02460B46404646
:106C1000494674F04BF974F099FD012507902068FE
:106C2000BFF001FE9DF80B30002855D0981DC00024
:106C300074F088FA40A3D3E9002374F0EDFA80469B
:106C400020688946BFF0EFFD74F06CFA02460B46EF
:106C50004046494674F00AFC80460798894674F01D
:106C600061FA02460B464046494674F01FF974F03B
:106C70006DFD07902020C4F0C3F948B10021012226
:106C8000206869F06DFE002148F22000C4F0A4F9EC
:106C9000336805AF5A6962BB1020C4F0B1F900B384
:106CA000079B326803F5FA73117E0793274B99709F
:106CB00027490978D970917900972A462068BFF052
:106CC000D3FB78B34FF48050C4F08EFAA2F0CEF923
:106CD00028E00798C030A0E70798063300EB431080
:106CE000C7E731683B462A4689792068BFF0A6FB92
:106CF000E7E7196917480A440021ADF810109621FA
:106D000081809979CDE90007A2F59B7203922068F2
:106D10002A4603ABBFF0B3FB0028D3D101214020AA
:106D2000C4F05AF909B0BDE8F08300BFAFF30080AA
:106D30000000000060E366410000000080842E41F6
:106D400060B90120BCB8012020A10700DC9C022012
:106D500039A40220D09C0220F7B50120C4F050F9DC
:106D60000446002840F0B5805D4D5E4B5E4EC5E99F
:106D7000003005F11003AB6041F60B233060B380A7
:106D80003FF0F4F9594B1B6ADB0700D4FEE72146BC
:106D9000284669F02DFD044600B9FEE76BF0FAF8CD
:106DA00000B1FEE7204652496AF034FC00B1FEE72C
:106DB00002212046BFF00AFD00B1FEE720464D4902
:106DC0006AF0D0FE00B1FEE701212046C0F03FF995
:106DD00000B1FEE701212046C0F04FF9074600B19F
:106DE000FEE701463C224448C2F08DFC80233A462F
:106DF000204605F11401BFF07EFF802800D0FEE799
:106E00003E4D0120BFF015FB33A3D3E900232C60D6
:106E10002046CDE900234FF0FF324FF0FF33BFF0A3
:106E200095FD014600B1FEE72F483EF071FC0121BF
:106E30000846C4F0D1F801212868BFF0E7FB0446FA
:106E400000B1FEE72E4B2F4A988018602E4B1A6037
:106E5000FF2298802D4B83F828202D4A98801A60B5
:106E60002C4A6FF06300DA6045F0FAFD33790B2BA2
:106E700011D873790A2B0ED9274B1E6039F010F9FF
:106E800020463FF065F9082228681146BFF078FDDA
:106E9000044608B1FEE7FEE73FF052F91F4B102110
:106EA0001F481C70A2F041FA00B9FEE71D491C48BA
:106EB000A2F04DFA00B9FEE710218C201A4A9FF08B
:106EC00084FC00B1FEE7194803B0BDE8F040A8F02B
:106ED00083BE03B0F0BD00BF0AE020FFE203000064
:106EE000CCB80120ADB20C08C4B801200080E00F7E
:106EF0000700110064400E087CB80120BCB80120D6
:106F000080E700209C8E022050E7002020E7002030
:106F10001C8E022010E70020C0B801201E8F022026
:106F200074B90120D9E90C0864B90120DC2C0D08E2
:106F30002DE9F3411E461C4B044683424FF00003EB
:106F40008B4115460AD216A3D3E9002374F06EFCD8
:106F50001649144602462846ABF0D6FA144B4EF6B4
:106F60006021B4FBF3F203FB1244B4FBF1F34FF4E2
:106F70007A7801FB1344B4FBF8F728460D490097D3
:106F8000ABF0C2FA46B1284608FB17420A4902B0E4
:106F9000BDE8F041ABF0B8BA02B0BDE8F08100BF87
:106FA000005C260500000000FF5B260528880E080F
:106FB00080EE360053A00D082E880E080000000059
:106FC000002370B5424C05468AB0E36318B10088CF
:106FD000236065F021F965F08FFA3E48BFF0B2FBFF
:106FE0003D4E3E4B304633603D4B736060F07EFC5F
:106FF0000021304669F0FCFB33A3D3E90023A062F3
:10700000C4E90623BDF03BF8D4E906231943104335
:10701000C4E90601CDE900014FF0FF334FF0FF3224
:10702000A06ABFF093FC02224FF0FF31A06ABFF0CC
:10703000A7FC012064F074FE4FF40073002229497C
:10704000A06ABFF058FEB0F5007F39D1002394222A
:10705000079309933C23CDE90332059396230693C6
:107060005023A06A03A908936AF056F835B3287C28
:1070700065F054FA0546F0B9A06AC0F046F865F02C
:10708000DBFA64F02FFE20B14FF48070002162F033
:1070900073FE64F037FE20B14FF40060002162F00F
:1070A0006BFEBDF0B4F80120BFF0C3F90E4A0F49E2
:1070B000A06ABCF0D8FF28460AB070BDFF20D7E711
:1070C0000725F8E7AFF300800DD50155200000003B
:1070D00010420120690345ECCCCE012059BB0608C3
:1070E000DCCE0120CCCC01200F400C084F400C0816
:1070F0000348044B834202D0034B03B11847704747
:10710000B0A50220B0A5022000000000064B0749F0
:10711000C91A891048BF0131491003D0044B0BB183
:1071200001481847704700BFB0A50220B0A5022053
:107130000000000010B5064C237843B9FFF7D8FFD4
:10714000044B13B10448AFF300800123237010BD3A
:1071500084DC01200000000028E30E0808B5054B80
:107160001BB105490548AFF30080BDE80840FFF7B3
:10717000CDBF00BF00000000D047012028E30E086B
:10718000A3F5803A704700BF174B002B08BF134B85
:107190009D46FFF7F5FF00218B460F461348144A22
:1071A000121AC2F0B0FA0E4B002B00D098470D4BCC
:1071B000002B00D098470020002104000D000D484E
:1071C000002802D00C48C2F00EF877F0F3F9200046
:1071D0002900B9F039FC76F0E3F900BF000008009F
:1071E000000000000000000008120020081200202B
:1071F00020970220E7910C080000000007B501A8C5
:1072000038F0C0FC9DF80530012B14D19DF80430F6
:107210008BB94FF48012124B1249586E03F580530C
:107220005A664B6B23F0E05343F040634B63C30259
:107230005CBF0D4B5A663CF06FFC9FF0B2F93CF01E
:1072400017FB9FF0A2F99FF0AEF934F099F8C4F063
:107250004FFB36F0C9F903B05DF804EB3DF0DCB943
:10726000008000500040005A00A00050064B1B68F0
:107270001A7A022A04D812B11B68044A13607047B4
:10728000032AF9D0704700BF00990220E847012087
:10729000002201210148A0F026B800BF0499022075
:1072A00001489CF04EBD00BF98F00C0818B1034B8C
:1072B0001860002070472520704700BFEC47012070
:1072C00010B5054C0549206836F052FD2068BDE830
:1072D0001040FFF7EBBF00BF3C9A0220109902203C
:1072E00070B58B6806460D4614468CB0ABB1022BC8
:1072F00035D00023812277F0B6FBD5E9012391B286
:10730000120C01929AB20291009201211D201A4A98
:107310001B0C96F0E4F80CB070BD19461C2205A8B1
:10732000C2F0F1F9214605A878F032F8044638B9E0
:107330002946304605AA0BF0FBFE0028EBD1044697
:10734000294630460023852277F08DFB2346022113
:107350001D200A4A0CB0BDE8704096F0C0B8114636
:1073600005A878F04EF804460028E9D129463046B1
:1073700005AA0BF06DFFE0E7B0F00C08E4F00C0894
:1073800070B50D46AB6806460A2B114688B037D952
:10739000403B0C2B15D9002381222946304677F03B
:1073A00062FBD5E9012391B2120C01929AB20291CB
:1073B000009201211D20B54A1B0C96F090F808B0F0
:1073C00070BD0C2BE7D801A252F823F07F7500089E
:1073D000A5750008CD750008F3750008197600083A
:1073E00097730008977300084376000897730008A6
:1073F0009773000897730008637600089576000875
:107400005A1E0023092A06D8DFE802F02431405230
:107410005F6E7D8B9AA905A80593ADF818307AF0B8
:107420001BFB044638B92946304605AA0CF02AFC55
:107430000028C4D10446294630460023852277F02F
:1074400012FB234602211D20914A08B0BDE870407E
:1074500096F045B805A805937AF037FB0446002856
:10746000E9D12946304605AA0CF07CFCE0E705A8E6
:1074700005938DF818307AF05DFB04460028DAD1C8
:107480002946304605AA0CF02DFCD1E705A88DF859
:107490001430ADF81630ADF818307AF083FB04469E
:1074A0000028C8D12946304605AA0CF0B3FBBFE737
:1074B00005A805937AF03CFB04460028BBD1294679
:1074C000304605AA0CF03EFCB2E705A805938DF8FE
:1074D00018307AF065FB04460028ACD129463046C6
:1074E00005AA0CF037FCA3E705A80593ADF8183002
:1074F0007AF08BFB044600289DD12946304605AA28
:107500000CF090FB94E705A8CDE905337AF0B3FBC6
:10751000044600288FD12946304605AA0CF04EFCBF
:1075200086E705A80593ADF818307AF0D7FB044636
:10753000002880D12946304605AA0CF047FC77E7A1
:1075400005A8CDE905337AF0F9FB044600287FF45D
:1075500072AF2946304605AA0CF040FC68E705A842
:107560000593ADF818307AF01FFC044600287FF42C
:1075700062AF2946304605AA0CF0B0FD58E700235B
:1075800005A8ADF814308DF8163006937AF03CFC5F
:10759000044600287FF44FAF2946304605AA0CF078
:1075A00089FB45E7002305A88DF81430ADF81630A7
:1075B000ADF818307AF05EFC044600287FF43BAF4B
:1075C0002946304605AA0CF0E3FB31E7002305A865
:1075D0008DF81430ADF8163006937AF07EFC044630
:1075E00000287FF428AF2946304605AA0CF092FB0C
:1075F0001EE7002305A8ADF814308DF81630069369
:107600007AF0A1FC044600287FF415AF29463046E5
:1076100005AA0CF01FFB0BE7002305A8ADF81430FA
:107620008DF816300693ADF81C307AF0C2FC044693
:1076300000287FF400AF2946304605AA0CF036FE3C
:10764000F6E6002305A8ADF814307AF00DFD0446E7
:1076500000287FF4F0AE2946304605AA0CF0C4F9A4
:10766000E6E6002305A88DF81430ADF81630069331
:10767000ADF81C307AF01DFD044600287FF4DBAE27
:107680002946304605AA0CF031FDD1E6B0F00C08D1
:10769000E4F00C08002305A8CDE906338DF814307A
:1076A000ADF816307AF040FD044600287FF4C3AEF2
:1076B0002946304605AA0CF021FDB9E670B58B6865
:1076C0000646022B0D4614468AB026D0042B36D02F
:1076D000002B41D10022ADF810300023214604A830
:1076E000CDE9062377F093FD044638B929463046A4
:1076F00004AA0DF031FA002840D10446294630464C
:107700000023852277F0AFF9234602211D201C4A71
:107710000AB0BDE8704095F0E2BE1822002104A82E
:10772000C1F0F1FF214604A878F0ADFE0446002820
:10773000E4D12946304604AA0DF0DCF8DBE7114617
:1077400004A877F08DFD04460028D7D1294630469D
:1077500004AA0DF051F9CEE70023812277F083F9D6
:10776000D5E9012391B2120C01929AB202910092D2
:1077700001211D20034A1B0C95F0B1FE0AB070BD1B
:10778000E4F00C08B0F00C0870B58B6806460D46A6
:1077900088B0ABB1012B36D00023812277F063F99A
:1077A000D5E9012391B2120C01929AB20291009292
:1077B00001211D201A4A1B0C95F091FE08B070BDE6
:1077C00000200021CDE90601114604A8CDE90433CB
:1077D00077F049FD044638B92946304604AA85F0B9
:1077E0009DFD0028EAD10446294630460023852223
:1077F00077F039F9234602211D200A4A08B0BDE876
:10780000704095F06CBE114604A877F055FD044613
:107810000028E9D12946304604AA0DF09FFAE0E796
:10782000B0F00C08E4F00C0870B58B6806460D4605
:1078300014469CB0042B53D8DFE803F003255235DF
:1078400045006022002104A8C1F05DFF214604A884
:1078500079F0D4FD044638B92946304604AA0DF023
:10786000B1FD00284ED1044629463046002385222A
:1078700077F0F9F8234602211D20234A1CB0BDE809
:10788000704095F02CBE0023214604A8ADF81030BE
:1078900077F039FE04460028E6D12946304604AA8E
:1078A0000DF076FEDDE70023214604A8ADF8103088
:1078B00077F02BFE04460028D6D12946304604AA8C
:1078C0000DF0C2FECDE7214604A877F020FE044665
:1078D0000028C9D12946304604AA0DF0E3FEC0E7CE
:1078E0000023812277F0BFF8D5E9012391B2120C71
:1078F00001929AB20291009201211D20034A1B0CB1
:1079000095F0EDFD1CB070BDE4F00C08B0F00C0873
:1079100070B58B6806460D46144694B0052B7CD88E
:10792000DFE803F00325354C5C690023214604A8F9
:10793000CDE90533ADF8103077F0EBF9044638B9EE
:107940002946304604AA0EF075F9002877D104467E
:10795000294630460023852277F085F82346022108
:107960001D20384A14B0BDE8704095F0B8BD002322
:10797000214604A8ADF8103077F0CDF90446002870
:10798000E6D12946304604AA0EF07AF9DDE704A8CC
:1079900093F0A6FC002204A811468DF8482093F02D
:1079A000E2FC214604A879F0FFF904460028CFD173
:1079B0002946304604AA0EF091FAC6E70023214674
:1079C00004A8ADF8103077F0A8F904460028BFD11C
:1079D0002946304604AA0EF0C5FAB6E7214604A8A7
:1079E00077F09DF904460028B2D12946304604AA12
:1079F0000EF00CFBA9E70023214604A8CDE90533CE
:107A0000ADF8103077F09FF904460028A0D1294640
:107A1000304604AA85F095FE97E70023812277F08F
:107A200022F8D5E9012391B2120C01929AB2029187
:107A3000009201211D20044A1B0C95F050FD14B04A
:107A400070BD00BFE4F00C08B0F00C0870B58B6896
:107A500006460D4686B0ABB1402B32D000238122C2
:107A600077F001F8D5E9012391B2120C01929AB294
:107A70000291009201211D201A4A1B0C95F02FFD46
:107A800006B070BD114605A8ADF8143077F0DEF8E9
:107A9000044638B92946304605AA85F0ABFE0028D1
:107AA000EED10446294630460023852276F0DBFFDE
:107AB000234602211D200C4A06B0BDE8704095F017
:107AC0000EBD0023114605A8ADF8143077F0E0F89C
:107AD00004460028E6D12946304605AA0EF060FB90
:107AE000DDE700BFB0F00C08E4F00C0870B50D46FF
:107AF000AB680646114686B0072B00F29380DFE89C
:107B000003F00425354453637382002304A88DF8E1
:107B10001030059379F076F9044640B9294630468D
:107B200004AA85F0E5FF002840F08F80044629462E
:107B300030460023852276F096FF234602211D2041
:107B4000434A06B0BDE8704095F0C9BC002304A8C4
:107B500004938DF8143079F08AF904460028E6D1B0
:107B60002946304604AA0EF0EFFEDCE7002304A805
:107B7000CDE9043379F0BAF904460028D7D1294673
:107B8000304604AA0FF0ACF9CDE7002304A8ADF805
:107B9000103079F0F0F904460028C8D12946304663
:107BA00004AA0FF0D1FBBEE7002304A88DF8103023
:107BB000059379F05AF904460028B8D12946304691
:107BC00004AA0FF03FF9AEE7002304A804938DF850
:107BD000143079F089F904460028A8D129463046A6
:107BE00004AA0EF0F7FE9EE7002304A8CDE90433B3
:107BF00079F0BFF90446002899D12946304604AAF5
:107C00000FF0BAF98FE7002304A8ADF8103079F02F
:107C1000D7F9044600288AD12946304604AA0FF035
:107C2000B5FB80E700238122294676F01CFFD5E9C9
:107C3000012391B2120C01929AB202910092012199
:107C40001D20044A1B0C95F04AFC06B070BD00BF15
:107C5000E4F00C08B0F00C0870B58B6806460C46D2
:107C60008CB033BB00200021CDE90401114604A8EB
:107C7000ADF818308DF81A308DF81C30ADF828307A
:107C800078F037FA054628B92146304604AA14F0A0
:107C90008FF800BB214630460023852276F0E3FEB4
:107CA0002B4602211D200D4A0CB0BDE8704095F016
:107CB00016BC0023812276F0D6FED4E9012391B2CE
:107CC000120C01929AB20291009201211D20044AE5
:107CD0001B0C95F004FC0CB070BD00BFE4F00C0868
:107CE000B0F00C0870B50D46AB680646402B114647
:107CF00086B065D01AD8012B4AD0022B54D05BB382
:107D0000002381222946304676F0ADFED5E90123D5
:107D100091B2120C01929AB20291009201211D209F
:107D2000354A1B0C95F0DBFB06B070BD412B56D0DD
:107D3000422BE5D1002304A88DF81030ADF81230A5
:107D4000ADF8143077F03FF8044690B92946304634
:107D500004AA10F07DFD09E004A876F0F6FF0446C1
:107D600038B92946304604AA10F04AFD0028DBD174
:107D70000446294630460023852276F074FE2346C9
:107D800002211D201D4A06B0BDE8704095F0A7BB3A
:107D900004A876F0DDFF04460028EAD129463046E3
:107DA00004AA10F035FDE1E704A876F0D4FF0446FC
:107DB0000028DED12946304604AA10F031FDD5E76F
:107DC000002304A8ADF8103076F0C8FF0446002860
:107DD000CFD12946304604AA10F02AFDC6E704A8F0
:107DE00076F0EEFF04460028C3D12946304604AAA7
:107DF00010F026FDBAE700BFB0F00C08E4F00C0864
:107E00002DE970430D46AB680646114690B00B2B2A
:107E100000F2A280DFE803F006A026A035A04661AC
:107E2000A0728190002304A8CDE9043377F0ECFA26
:107E3000044640B92946304604AA11F093FC0028B4
:107E400040F09D800446294630460023852276F086
:107E50000AFE234602211D204A4A10B0BDE87043A5
:107E600095F03DBB002304A88DF8103077F0CEFAD2
:107E700004460028E7D12946304604AA11F04AFBFF
:107E8000DDE7002304A8CDE904338DF8183078F03D
:107E9000AAF804460028D6D12946304604AA11F093
:107EA0004BFDCCE700234FF000084FF0000904A879
:107EB000CDE90433CDE90933CDE90C898DF81830CB
:107EC000ADF8383078F0C7F904460028BBD1294610
:107ED000304604AA11F034F9B1E7002304A8CDE933
:107EE00004338DF8183078F0B4F904460028AAD18C
:107EF0002946304604AA11F009F8A0E7002304A897
:107F0000CDE9043377F0ACFA044600289BD129462A
:107F1000304604AA10F076FF91E7002304A88DF8FC
:107F2000103077F0BFFA044600288CD1294630463D
:107F300004AA10F0EFFE82E7002304A8CDE9043381
:107F400077F0B2FA044600287FF47DAF2946304628
:107F500004AA11F08DF872E700238122294676F0F9
:107F600082FDD5E9012391B2120C01929AB20291DD
:107F7000009201211D20044A1B0C95F0B0FA10B0AC
:107F8000BDE87083E4F00C08B0F00C0870B58B68A5
:107F900006460C4686B0D3B9114605A877F0D3F94A
:107FA000054628B92146304605AA16F0DDF900BB82
:107FB000214630460023852276F055FD2B460221CE
:107FC0001D200D4A06B0BDE8704095F088BA002328
:107FD000812276F048FDD4E9012391B2120C01927E
:107FE0009AB20291009201211D20044A1B0C95F0C7
:107FF00076FA06B070BD00BFE4F00C08B0F00C08D3
:1080000037B5436804463F2B154659D82F2B13D854
:10801000082B4BD8022B37D89AB2009201211D2091
:10802000554A1B0C95F05BFA0023C32221462846D3
:1080300076F019FD03B030BDA3F130020F2AEBD862
:1080400001A050F822F000BFE78000081980000866
:1080500019800008F780000819800008678100086F
:10806000198000081980000819800008198000088C
:108070001980000819800008D780000819800008BE
:108080005781000807810008DA1E052AC4D801A01C
:1080900050F822F027810008178100081980000895
:1080A0004781000819800008378100082A2BB3D1C6
:1080B0000A460146284603B0BDE83040FFF7CCBD74
:1080C000B3F5407FA8D10A460146284603B0BDE873
:1080D0003040FFF755B90A462846214603B0BDE8AF
:1080E0003040FFF7FDB80A462846214603B0BDE8F8
:1080F0003040FFF7E3BA0A462846214603B0BDE800
:108100003040FFF741BB0A462846214603B0BDE890
:108110003040FFF789BB0A462846214603B0BDE838
:108120003040FFF7F5BB0A462846214603B0BDE8BC
:108130003040FFF78BBC0A462846214603B0BDE815
:108140003040FFF7D3BC0A462846214603B0BDE8BD
:108150003040FFF7C7BD0A462846214603B0BDE8B8
:108160003040FFF74DBE0A462846214603B0BDE821
:108170003040FFF70BBF00BF0DF10C0840F2534336
:10818000984230D009D8992815D040F2011398426E
:1081900014D03C280AD00020704740F20E53984279
:1081A00023D0144B9842F6D1122918E002298CBF33
:1081B000002001207047481E0628F8E72929EAD840
:1081C000192903D8012909D8012070474FF2091352
:1081D000A1F11A00C34003F001007047032914BF46
:1081E0000020012070470129E1E70029ECD0881E1A
:1081F0000128DCE705FCF1FF08B5154B4FF4E472EC
:1082000000211846C1F07FFA09220346026142614B
:108210001048114A98614FF48061DA6100221962B6
:108220009A625A62DA62C3F8F0000C48C3F8F400AC
:10823000C3F8F8100A49C3F80021C3F8FC20C3F8BA
:10824000042111F8010D98540132102AF9D108BD0A
:108250005048012029F10C0885E0012085DC01202F
:1082600042F10C082DE9F84FDFF88880824698F833
:1082700000308946532B164601D0FFF7BDFF182763
:1082800007FB0A87D7F80051D7F8FCB05D452FD916
:10829000D7F8F840D7F8F410641BB44228BF34462E
:1082A000484629442246C1F0D9FAD7F8F830254487
:1082B000AB4208BF0025A144361BABEB050B5E4566
:1082C00028BF5E465EB1182303FB0A83D3F8F4107F
:1082D000324629444846C1F0C1FA3444354424B1F9
:1082E000182303FB0A88C8F800512046BDE8F88F20
:1082F0000024E2E750480120F8B5182700FB077575
:10830000124B0E461D4407FB0033DB6A1446012B5B
:108310000AD0022B14D023B928467AF0A7FD844254
:1083200008D900242046F8BD28467AF09FFD8442F3
:1083300028BF04462246314628467AF0A0FDF1E7E0
:108340002846BDE8F8407AF0B5BD00BF504801208E
:10835000F8B50B4B04461B780D46532B164601D03F
:10836000FFF74AFFEFF311874FF0200181F31188E7
:10837000324629462046FFF7BFFF87F31188F8BD34
:10838000504801202DE9F041164C1E462378054641
:10839000532B8846174601D0FFF72EFF082D1DD816
:1083A000EFF3118C4FF0200181F3118865B1182093
:1083B00005FB000344F80380E2180023576000FB2C
:1083C0000542166293625362182303FB0544069B21
:1083D000E3628CF311880020BDE8F0814FF0FF309C
:1083E000FAE700BF504801202DE9F843174E1F4619
:1083F00033780546532B8946904601D0FFF7FCFEA3
:10840000082D1FD8EFF311824FF0200181F311885E
:108410006DB11824002304FB0564C4F8F090C4F87F
:10842000F480C4F8F870C4F80031C4F8FC301823A4
:1084300003FB0566089BC6F8043182F3118800200F
:10844000BDE8F8834FF0FF30FAE700BF5048012045
:10845000024B1B780BB100230373704786E40120A5
:1084600002211D20014A95F03AB800BF43F10C08E3
:1084700002211D20014A95F032B800BF53F10C08CB
:1084800008B5044A02211D2095F029F8FF22024B6D
:108490001A7008BD62F10C0833A4022070B5294D92
:1084A000037D04462B70837D23B103212120264ABE
:1084B00095F015F82B78FE2B22D0FF2B30D00B2B0C
:1084C00037D80B2B35D8DFE803F0061206343434E6
:1084D00034343434341295F0CAFC036841F28831E4
:1084E0005D692346194AAC46BDE87040604795F087
:1084F000BEFC036842F210715D69144A2346F2E73C
:1085000095F0B5FC036822465B6A1049984795F0E0
:10851000AEFC03684FF47A715D690C4A2346E2E7CA
:1085200095F0A5FC03682246BDE870405B6A0749E8
:108530001847FF232B700221BDE870401D20044A1C
:1085400094F0CDBF33A402207CF10C088184000894
:10855000AFF10C0848F2020210B5038893421BD811
:10856000B3F5004F1FD990F90830012B03D090F9D3
:108570000930012B17D102210B4A212094F0AFFFC3
:1085800095F075FC036840F6B8315C69074AA4466B
:10859000BDE810400023604748F20402934202D134
:1085A000027A034B1A7010BDC4F10C08432F08085F
:1085B00086E4012008B525F007FE25F037FE0A48BD
:1085C00029F0ACFE084829F0A3FE00224FF46171A7
:1085D00006488BF04BFC30B1BDE80840012121205A
:1085E000034A94F07CBF08BDD0CD002070A20020CB
:1085F000ECF10C0810B50A200C46104A1021C3F00B
:10860000A9FD0F4B186040B9212001210D4A94F0BB
:1086100066FF40F201707AF064FD20460A4A08497C
:10862000C3F004FA40B921200121084A94F057FF11
:1086300040F202707AF055FD002010BDC4F40C0821
:10864000484B01201AF20C08A0F40C083DF20C086B
:1086500010B5054B054C1870204696F004FF2046D7
:10866000BDE8104096F057BF86E40120D0CD002031
:1086700008B50C4895F097FF58B10B4896F0F3FEFB
:10868000094896F048FF094828F056FB054895F040
:1086900093FF074B186818B1BDE8084000F0F6B921
:1086A00008BD00BF80B00020D0CD00204075012063
:1086B000284A012008B5094B1868C3F043FB013074
:1086C0000AD121200121064A94F009FFBDE80840A3
:1086D00040F206707AF005BD08BD00BF504B012086
:1086E00057F20C084FF47A7108B50A4B8002B0FBC0
:1086F000F1F11868C3F000FB50B121200121064AB6
:1087000094F0EDFEBDE8084040F205707AF0E9BC57
:1087100008BD00BF504B01206FF20C0808B5074A96
:1087200040F6B8330221212094F0D9FE40F6B8304B
:10873000FFF7D8FF0122024B1A7008BD88F20C081F
:1087400085E4012008B5FFF7B5FF064B1A7842B162
:1087500000221A700221BDE808402120024A94F04C
:10876000BEBE08BD85E40120C7F20C0808B5094B60
:108770000A211868C3F0C0FA50B121200121064A2D
:1087800094F0ADFEBDE8084040F205707AF0A9BC57
:1087900008BD00BF4C4B0120E8F20C0808B5094B9E
:1087A0000146186858B100231822C3F019FD40B1E2
:1087B000054A0121BDE80840212094F090BE034AFB
:1087C000F7E708BD484B012000F30C082DF30C0817
:1087D0001FB50123ADF80030044B019068460393A8
:1087E000FFF7DCFF05B05DF804FB00BF1D88000843
:1087F000CB68084603B1184702212120014A94F0B2
:108800006EBE00BF4EF30C0800220249024826F05B
:10881000B5BA00BF3D8A000880B000200388012B54
:1088200006D1044B1B780BB9FFF778BFFFF7ECBFFD
:10883000704700BF85E4012000220249024826F06B
:108840009DBA00BFB585000880B0002010B5A4B067
:1088500003AB0193812301AC02935EF0EFF8214654
:108860005EF0A4FD28B994E8030017F01DFF24B0C2
:1088700010BD01212120024A94F031FEF7E700BF2C
:108880007EF30C0800230246194610B50446224820
:10889000C3F0ECF9214B186040B921200121204A96
:1088A00094F01DFE40F204707AF01BFC0023224677
:1088B00001211C48C3F0DAF91B4B186040B9212094
:1088C00001211A4A94F00BFE40F204707AF009FC80
:1088D00002212120164B174A94F001FE0221164A6C
:1088E0000123212094F0FBFD24F028FD03685B6F39
:1088F00098470120FFF7AAFF00221049104895F081
:1089000013FE104896F0F9FD0F4B104918701048EF
:108910008DF08BFF10BD00BFD1870008504B0120A8
:1089200096F30C08732F08084C4B0120B0F30C0889
:10893000B12D0D08CAF30C08EEF30C08558500089C
:1089400080B00020D0CD002086E401201C4A012008
:10895000089C002010B50379012B05D1BDE810401B
:1089600040F6B830FFF7BEBE134B1C781CB1BDE813
:108970001040FFF7E7BEFFF79DFE2046FFF766FFBA
:108980000E4B1C78A4B90E4895F008FE22464FF411
:1089900061710C488BF06AFA0446094895F00CFEA8
:1089A0004CB10121084A2120BDE8104094F097BD48
:1089B0000221064AF7E710BD85E4012086E4012084
:1089C00080B0002070A20020ECF10C080BF40C0821
:1089D0007FB5114B002401930223104E104D0093DC
:1089E0000121104B3046CDE902440F4A0DF012FC34
:1089F0002A4630460D49BEF0B3FF2A460C480D4BBF
:108A00000D4903603033C0E90244436004B0BDE85F
:108A10007040BEF0A5BF00BF9D8400082C4A012015
:108A2000FC980220718400086184000849620108F2
:108A3000184A012054F40C083D2F080810B50121F4
:108A4000094896F02EFF20B15DF0F8FF0121B8F043
:108A500050F8064826F0E0F824F070FCBDE810401D
:108A600003681B6F184700BFBC77012080B000204F
:108A700010B50446017C044829F0E2FF637C83F0D2
:108A80000103637410BD00BFBC77012073B5836818
:108A90000446E3B1C368D3B10E4B684619680B684E
:108AA0001B699847D4E90223DDE90065617C002950
:108AB00018BF1346D4E900125B1842F10002B3421A
:108AC000AA4104D22046FFF7D3FFC4E9006502B0F3
:108AD00070BD00BF589C022038B500230022C0E9B9
:108AE0000233002304460D46C0E90023027C0248FD
:108AF00029F096FF657438BDBC770120014896F0D7
:108B0000FDBD00BFD0CD0020014896F0F9BD00BFEB
:108B1000D0CD0020044A08B5836802602432426048
:108B20000BB1C0F059FB08BD2CF60C08A0F10400F5
:108B3000F0E700BF10B50446054B036044334360C3
:108B400016F0F6FB2046FFF7E5FF204610BD00BFFC
:108B500014690D08A0F10400ECE700BF1F2008B560
:108B600002210A4A94F0BBFC094829F0D1FB60B904
:108B70000121074829F016F838B91F200221054ABB
:108B800094F0ADFC024896F0B7FD08BDDCF40C088B
:108B9000D0CD0020FAF40C080B480C4B10B5036044
:108BA00000230B4C0B492246C0E90133C360037418
:108BB00043610383BEF0D4FE2246BDE8104006495F
:108BC0000648BEF0CDBE00BF604B0120E4EA0D08B0
:108BD000FC980220FD110308B72F0808849A022090
:108BE0007FB5044602211F20754A94F078FC234685
:108BF00002211F20734A94F072FC734D02211F2042
:108C00006F4A94F06CFC02211F20704A94F067FCBC
:108C10002B784BB9284626F089F900280CBF012390
:108C200000232B7040F0BD802146694828F07EF873
:108C30005DF004FF0446B7F044FF002840F0B18027
:108C4000201D24F0FDFA04F1080024F083FA2046E8
:108C5000B7F04CFF5F4A604B0221002818BF134653
:108C60001F205E4A94F03BFCFFF778FF002840F09D
:108C700098805B4895F092FC5A4CD4E8AF3FDA07F5
:108C80000BD420469EF0C0FA38B1574A574958488D
:108C9000BEF066FE20469EF0BCFA564CD4E8AF3FCC
:108CA000DB070FD420469EF0AFFA58B15049524826
:108CB00016F0A2FB4C4A51494F48BEF051FE2046E7
:108CC0009EF0A7FA4E4D4F4C4B4B2846E36328F0DD
:108CD0009FFAE36865631BB94B4B4C4AE3605A60EB
:108CE000A36BF3B94A4DE6686B68002B41D105F1DF
:108CF00014007AF086F905F11C007AF082F9EB682D
:108D000003B92B7295F82430424823F0050385F807
:108D100024307AF076F900236E602B7285F82430C7
:108D2000A563E36B0BB93C4BE3633C4D3C4B2846DE
:108D3000E16823628FF06EF8236A28462B618EF07B
:108D400025FAB0B9E268E5619AB1364B364D5A6002
:108D5000236102F0C1FB354B02216062344A2120BD
:108D6000A36294F0BCFB2846E16807F051FF00B90C
:108D70006561002303932F4B2F4801932F4B0293E0
:108D800096F06FFB01ABE3622D4B03901D492D481C
:108D9000236018F01FFA0446114895F00DFC14B139
:108DA000204604B070BD284825F028FD0C4826F068
:108DB0009FF804460028F3D100F0CEF8F0E700BF9A
:108DC00024F50C0857F50C0878B0002063F50C0862
:108DD0004075012013F50C081BF50C0873F50C0801
:108DE00080B00020584B0120FC980220B92F0808C1
:108DF000409A0220544B012008120020358B0008B5
:108E0000604B0120449A0220589B0220B98C02201A
:108E10004869012054690120B8720020DC660120F5
:108E2000389B0220D4660120986601203C9B0220DA
:108E300085F50C08FD8A0008D0CD0020098B0008BC
:108E4000184A012050760020B5F50C0810B51748D7
:108E5000FFF7C6FE08B17AF044F9154B1548D3F870
:108E6000841494F0E5FF134824F0DAF9124895F0E1
:108E700095FB5DF0E3FD00B10C301CF021FE0E48C7
:108E800095F09AFB1F2002210C4A94F028FB0C4815
:108E90005DF0E8FA08B17AF024F90A4C2068C2F0D3
:108EA00019FE08B1C0F098F9206010BDDAF50C0881
:108EB00050A60020849A022080B00020E7F50C081C
:108EC0000CCA01205C4B012010B5C5F0ACFA044679
:108ED00000210120C1F072FA2046C5F09FFA114826
:108EE00096F0E1FC0021104A1048C2F09FFD104CA2
:108EF000022120600F4A1F2094F0F1FA23680BB979
:108F0000C0F06AF9074896F0E2FC22F0C1FD1F208C
:108F10000221094A94F0E3FABDE81040AC207AF04F
:108F2000E0B800BFBC77012068F60C084D8E000841
:108F30005C4B0120F9F50C080CF60C08014821F0F7
:108F4000C1BD00BFAC6A0120024B01211868C2F00C
:108F5000E7BD00BF7C4B012010B50A4821F00CFD95
:108F6000044608B1C0F038F901F034FA01F07AFA99
:108F70002146054A0548C2F059FD054B18600028F6
:108F8000F0D010BDAC6A012094F60C083D8F0008AB
:108F90007C4B012010B5044601210C20064A94F0B8
:108FA0009EFA0023E068A36020B1BDE8104003688A
:108FB0009B68184710BD00BFB8F60C08A0F104006C
:108FC000E8E700BF10B50A4CD4E8AF3FDB070DD48B
:108FD00020469EF019F948B10648074B074A084950
:108FE0000360BEF0BDFC20469EF013F9014810BDA1
:108FF000304C0120344C012090CD0D08FC9802200B
:109000003130080810B504460B4B036064334360ED
:1090100000F50E7030F09AFC636A23B1002204F16F
:109020001C0062629847236923B1002204F1080002
:1090300022619847204610BD04560D08A0F1040097
:10904000E0E700BF10B50446034B40F8343B7AF02C
:1090500005F8204610BD00BFB84F0D0837B5C068F1
:109060000D46144638B901210C200E4A94F037FA07
:10907000002003B030BD1A682146019200221A6018
:1090800001AA11F065F801A879F0E8FFA38823B9D7
:10909000E38813B92378402BEAD02B8943F04003AF
:1090A0002B81E5E7CBF60C08A0F10400D6E700BF62
:1090B000F0B505460C46152003211A4A85B094F0F8
:1090C0000EFAAF6817B9032005B0F0BD0023ADF864
:1090D00008302389267B23B96389022B1ED1142EE5
:1090E00002D00123ADF8083060682FF045FE6368B8
:1090F0003246039302AB0093A168384603AB22F0DB
:109100009BFF044603A879F0A9FF2CB1A86818B109
:1091100094F01BFB0023AB602046D5E7002BE0D189
:10912000402EDDE7FEF60C0873B5164811F000FA84
:109130001549164AD1F88434154E164D5360A1F5E1
:10914000405133460F48009511F0EAFA124B336153
:1091500028F042FB044602460A49304612F0F4FA6F
:109160002946204628F062F940B10C4825F046FB1C
:109170006D210B4B0B4A0C4874F0ECF96C6002B09B
:1091800070BD00BF3816002050A60020AC9A022007
:109190008C9A022058150020805101000FF70C080E
:1091A0002BF70C0840F70C085EF70C0870B500248C
:1091B0003248334B334E03606433436000F108039D
:1091C000C0E90233304BC0E90440836100F11C0365
:1091D000C0E907332D4BC0E90940C0E90B342C4BE3
:1091E000C0E90D444364203383640523C0E920446F
:1091F000C0E92244C0E9644480F83C40046480F83B
:10920000744080F89841C0F89C4180F8A04180F8F3
:10921000B84180F8D04180F8E841C0F81C321D4BBD
:1092200032461D491D4DC0F83832C0E98F4480F8E0
:109230000042C0F8184280F8204280F84442BEF054
:109240008FFB324616491748BEF08AFB3246164954
:109250001648BEF085FB2846154B6C6040F8103B65
:109260002C7229F087FCC5E93444C5E936443246FE
:109270002846BDE870400F49BEF072BB381600208A
:1092800004560D08FC98022021B3010831A60108FC
:10929000E0F70C0868150E08059000085815002026
:1092A00045300808AC9A0220473008088C9A022002
:1092B000B84F0D08459000082DE9F04F0446D0E95D
:1092C0000098D0E90276364A87B0936A0121059367
:1092D0000369D2F82CB0D2F834A0956B019343699E
:1092E000304A029383690393C3690020049394F086
:1092F000F6F801210020059B2B4A94F0F0F85B461C
:1093000001210020294A94F0EAF853460121002067
:10931000274A94F0E4F82B4601210020254A94F0D6
:10932000DEF82B4601210020224A94F0D8F823468B
:1093300001210020204A94F0D2F84B460121002060
:109340001E4A94F0CCF84346012100201C4A94F0B8
:10935000C6F83B46012100201A4A94F0C0F8334673
:1093600001210020184A94F0BAF801210020019B45
:10937000164A94F0B4F801210020029B144A94F09C
:10938000AEF801210020039B124A94F0A8F80121B5
:109390000020049B104A94F0A2F8C5F0FEFCFEE702
:1093A00000ED00E018F80C0823F80C0837F80C085A
:1093B0004BF80C085FF80C0873F80C0887F80C08D9
:1093C0009BF80C08AFF80C08C3F80C08D7F80C0889
:1093D000EBF80C08FFF80C0813F90C08012108B58C
:1093E0000020054B054A94F07AF8C5F0D6FC0449F4
:1093F000044874F089FDFEE727F90C089D630E0808
:109400004AF90C0861F90C0800240D4600B59BB020
:109410006022214602A80194C0F075F92B46642110
:10942000084A01A874F082FD01212046064A01ABDA
:1094300094F055F8C5F0B1FC0449054874F064FD9A
:10944000FEE700BF7AF90C089D630E084AF90C0884
:1094500061F90C08034B0360034B0B604FF4A073DE
:1094600013607047E8610120E85C0120034B036052
:10947000034B0B604FF4806313607047385C01202E
:10948000384C012000240D4600B59BB060222146D7
:1094900002A80194C0F037F92B466421054A01A8BF
:1094A00074F044FD01212046034A01AB94F017F803
:1094B000BFF092FE8DF90C089D630E080021044652
:1094C00000B589B01A2201A80091C0F01CF923460A
:1094D000074A1E21684674F029FD6946054825F0B3
:1094E0008DF9684679F0EFFDC3F056FEBFF074FECB
:1094F0009DF90C08B3F90C08024B01211868C2F061
:109500000FBB00BFA86301200D4BD9889A8889B290
:1095100092B2914211D0D9889A8889B292B291427E
:109520003DBF9A88D8881B89D8882DBF9B8813FA9D
:1095300080F0801AC01A80B270470020704700BFC8
:1095400098620120F8B50E46074608B9BFF044FE00
:10955000154D2C898C42F9D3FFF7D6FF201A80B223
:1095600086421BD8EB88E888E41AA4B2A6422B688E
:1095700015D92246394613FA80F0C0F06FF92868F1
:10958000321B3919C0F06AF9EB8816FA83F12B897E
:10959000B1FBF3F203FB121189B2E980F8BD324648
:1095A000394613FA80F0EDE79862012000232DE997
:1095B000F0411A4EC2B01A4FADF806314FF0FF33EA
:1095C0000022306801A9C2F045FE04460028F5D10A
:1095D000BDF80681C4F027FF012105460846C0F00A
:1095E000EDFE2846C4F01AFF0E4B424601A938682A
:1095F00034F072FD4FF0FF3221460120C2F0DAFA5A
:10960000C4F011FF054621460120C0F0D7FE2846D0
:10961000C4F004FF23462246D3E700BFF4620120D2
:109620003C9A0220F99400082DE9F843DFF85080B5
:109630001E46B8F800901546A3EB09070D4BFFB284
:109640001C89FFF761FF241AA4B2A74207D8394644
:1096500005EB0900FFF776FF0023A8F80030064865
:1096600032462946054B006834F084FCBDE8F843D7
:10967000FFF76ABC986201203C9A022029960008F4
:10968000ECD9012070B5204E3468002C3BD14FF44A
:1096900082711E4A7D20C2F05DFD1D4D1D4A28606D
:1096A00021461D48C2F0C2F91C4B1D4A9C801A601D
:1096B0004FF4807230601A81DC8008B9BFF08CFDF5
:1096C0002B68002BFAD0174C8022174B17492068C3
:1096D00034F050FC8022144B1549206834F04AFCC9
:1096E0000B203AF077FA0B203AF030FA1422114BA3
:1096F0000521DA640422A3F580531A650E48BDE8FB
:1097000070409BF03ABA70BDA8630120D0F90C08F4
:10971000F4620120F0F90C08AD9500089862012070
:1097200027FD01203C9A0220299600089B810220F7
:109730001B8102200020015B0000015B08B5FFF7E0
:1097400003FC0421034B03F500521165D164DB6C6B
:1097500008BD00BF0000015B70B50C460546C2B0F5
:1097600018B94FF0FF3042B070BD4B1EB3F5817F8A
:10977000F7D20B4E33680BB9FFF784FF2246294618
:1097800001A8C0F06BF84FF0FF331822306801A930
:10979000ADF80641C2F024FD0028E2D120B2E2E794
:1097A000F462012030B50C46C3B0014618B94FF041
:1097B000FF3043B030BD631EFF2BF8D801AD224609
:1097C0002846C0F04BF8084B08481B8818222B533A
:1097D000A31CADF80631294600230068C2F000FD45
:1097E0000028E4D120B2E4E701BF0D08F4620120B3
:1097F0000422F0B52D4B0C46074685B01A650028AB
:1098000050D000294ED0FFF77FFEA04219D2C4F0FD
:109810001DFE05462648274E03AB01A9006802AA93
:109820009BF0E1F8338802998B4207D20198C91A5C
:10983000184489B2FFF786FE029B33802846C4F0A5
:1098400000FE1D4D2E89B44201D9BFF0C5FCFFF7C3
:109850005BFE844202D3FFF757FE0446AB88A9881B
:10986000F61AB6B2A6422B6817D2324613FA81F125
:109870003846BFF0F3FF2968A21BB819BFF0EEFF0E
:10988000AB882A8914FA83F3B3FBF2F102FB11339C
:109890009BB2AB8020B205B0F0BD2246384613FA29
:1098A00081F1EBE74FF0FF30F5E700BF0010015BFF
:1098B0003C9A0220ECD9012098620120012903BFC3
:1098C000034B00201B78A62008BF1370704700BF11
:1098D0003B820220022938B514461D460FD12022B2
:1098E00000210848BFF00FFF3CB1202D2A46214639
:1098F00028BF20220348BFF0B1FF002038BDA620BA
:10990000FCE700BF1B820220104608B56AB163B1B4
:1099100002290CD1202B28BF20231A46029B05497F
:109920001A60BFF09BFF002008BD2F20FCE7A62097
:10993000FAE700BF1B820220012905D102B112788B
:10994000024B00201A707047A62070473B8202200D
:109950002DE9F0431D46002389B0074608460E4610
:109960001446CDE9053325F05FFB18B9D82009B0BE
:10997000BDE8F083304605A925F040FC0028F6D16B
:10998000204625F051FB0028F0D0204606A925F0FE
:1099900035FC0028EBD1DDE90586079007A91248C0
:1099A00025F02CFC0446D8B9079B18EB030902D11B
:1099B0000EB1BFF011FC009302213B461F20CDE900
:1099C00001860A4A93F08BFD6B689E420AD83246A4
:1099D00049462868BFF042FF6B689E42E9D86E6036
:1099E0002046C4E71924FBE7217208004CFA0C0852
:1099F000014825F087BD00BF00720800002307B5AD
:109A00000348019301AB25F045FC03B05DF804FB6E
:109A100000720800014825F02DBD00BF0C7208003F
:109A200010B506480C4625F0C1FB40F201239842D0
:109A300002BF4FF6F1732380002010BD0C720800A6
:109A4000014825F05FBD00BF0D72080073B5002608
:109A500001AB0C480C461546019625F01BFC40F264
:109A60000123984208D14CB1062D09D92046294638
:109A7000054A79F05FFB304602B070BD0B20FBE772
:109A80001920F9E70D7208006AFA0C08014825F060
:109A9000F1BC00BF0B72080010B506480C4625F05B
:109AA00085FB40F20123984202BF48F20503238060
:109AB000002010BD0B720800014825F023BD00BF37
:109AC0000E72080073B5002601AB0C480C46154613
:109AD000019625F0DFFB40F20123984208D14CB1FA
:109AE000062D09D920462946054A79F023FB304640
:109AF00002B070BD0B20FBE71920F9E70E720800D9
:109B000071FA0C08014825F0FDBC00BF1072080076
:109B1000002307B50348019301AB25F0BBFB03B05D
:109B20005DF804FB10720800014825F0EBBC00BF93
:109B300011720800002307B50348019301AB25F01B
:109B4000A9FB03B05DF804FB11720800014825F081
:109B5000D9BC00BF12720800002307B50348019367
:109B600001AB25F097FB03B05DF804FB127208000F
:109B7000014825F07FBC00BF1872080010B50648E8
:109B80000C4625F013FB40F20123984202BF01234B
:109B90002380002010BD00BF18720800014825F086
:109BA000B1BC00BF0F72080073B5002601AB0C48B2
:109BB0000C461546019625F06DFB40F201239842B4
:109BC00008D14CB10C2D09D920462946054A79F017
:109BD000B1FA304602B070BD0B20FBE71920F9E75F
:109BE0000F7208007BFA0C08014825F08BBC00BFFF
:109BF00004720800014825F04DBB00BF0472080044
:109C0000014825F099BC00BF1F720800014825F0EB
:109C100097BB00BF1F720800014825F02BBC00BF96
:109C20000772080013B510480C4625F0BFFA40F241
:109C300001229042034604D14FF470632380002335
:109C40000FE070B92388B3F5805FF8D34FF4BF738A
:109C50002F240121CDE90034044A054B93F03FFC49
:109C60002346184602B010BD07720800A8FA0C0877
:109C700088FA0C08014825F015BC00BF08720800DE
:109C800010B506480C4625F0B9FA40F20123984277
:109C900002BF4FF47A732360002010BD08720800E1
:109CA000014825F02FBC00BF09720800014825F0CB
:109CB000F1BA00BF09720800014825F023BC00BFBB
:109CC0000A720800014825F0E5BA00BF0A720800D0
:109CD0000B4610B5084A0C4608480949FFF738FEFC
:109CE000D82807D11EF0DAF903682146BDE81040F4
:109CF0009B68184710BD00BF27720800B9FA0C080E
:109D0000267208000B4610B5084A0C460848094957
:109D1000FFF71EFED82807D11EF0C0F903682146C0
:109D2000BDE810405B69184710BD00BF25720800F0
:109D3000D5FA0C08247208000B4610B5084A0C46E8
:109D400008480949FFF704FED82807D11EF0A6F9F4
:109D500003682146BDE810401B69184710BD00BFCD
:109D600023720800FBFA0C0822720800022307B5D0
:109D700001A8D1E9001201935CF04EFD18B90199D8
:109D8000024825F08FFB03B05DF804FB2072080049
:109D90001FB5022003900698009003A85CF054FDC4
:109DA00018B90399024825F07DFB05B05DF804FB66
:109DB00020720800002370B5164886B00D4616467E
:109DC000049325F031F9E8B1124804A925F016FAF8
:109DD000B0B9049B3246002B08BF0223294605A8D0
:109DE00005935CF09BFD0446029073681F2001936D
:109DF0006B6802210093084A049B93F070FB204695
:109E000006B070BD1EF04AF90368324629469B69C8
:109E10009847E8E72072080014FB0C08014825F079
:109E200041BB00BF21720800014825F0E7B900BF1F
:109E300021720800014825F065BB00BF29720800A7
:109E4000014825F027BA00BF29720800014825F013
:109E500073BB00BF05720800014825F071BA00BF4E
:109E600005720800014825F0EDBA00BF287208000D
:109E7000014825F073B900BF287208000020094B83
:109E800010B5186032B9084C2146BDE810400748AB
:109E900025F008BBA1F5005105488C1895F010FD80
:109EA000F2E700BFAC63012000E017082172080050
:109EB000BC7701202DE9F74F1C46002380460F4652
:109EC000274801A91646019325F098F958BB254D5E
:109ED00001992B681BB9244895F0D5FC18BBD4E92F
:109EE0000093D8F82820DDF804B0002A08BF4FF40A
:109EF000007213F00301D5F800A00DD003F104089F
:109F0000A8EB0108424511D3A8EB030209EB0300BB
:109F1000FF21BFF0F8FB43464A4613480BEB0A010A
:109F200095F0B7FC20B103B0BDE8F08F1920FAE737
:109F30003846296825F0B6FA0028F4D13046616821
:109F400025F0B0FA0028EED12B6862680020134497
:109F500013F03F021CBF40339B1A2B60E3E700BFA6
:109F600021720800AC630120BC77012008B5034AC8
:109F70000B460349FFF79EFF08BD00BF277208008C
:109F80002672080008B5034A0B460349FFF792FF03
:109F900008BD00BF257208002472080008B5034AF6
:109FA0000B460349FFF786FF08BD00BF2372080078
:109FB0002272080010B530200C4623F05DFE20B15F
:109FC000024B848003600023836010BD50FC0C08AA
:109FD00010B52C2023F050FE044628B12C2200217D
:109FE000BFF091FB014B2360204610BD88FC0C089C
:109FF00008B5082023F040FE18B100234360014B50
:10A00000036008BDA4FC0C08F8B543680446072BA0
:10A010000D461FD8013B062B96BF0F4A0F4F52F833
:10A0200023703846BFF027FC232813D804F1080614
:10A03000242239463046BFF08DFB0023304684F899
:10A040002B30BFF018FCC5E90060012063680133C4
:10A050006360F8BD0020FCE70CFC0C085FFB0C08FB
:10A06000042370B5144645688AB0ADF802302B68F9
:10A070000A4601A805499E6879F03EF9224628461D
:10A080000DF1020301A9B0470AB070BD65FB0C08D1
:10A0900030B54468134622688BB0156901A80A469A
:10A0A000034979F029F9204601A9A8470BB030BD32
:10A0B00072FB0C0830B58DB04468019223680A46E3
:10A0C00003A80649DD6879F017F9042320460DEB53
:10A0D000030203A9A8470DB030BD00BF65FB0C0803
:10A0E000F0B5A3B0064617A81F460C46154691F0DA
:10A0F000B1FD2A2217A80CA991F0BFFD0DF10B03A9
:10A10000019315234FF48072009317A8002391F058
:10A11000E3FF50BB97E80300154B8DE80300D3E93C
:10A12000002317A892F0B0F8F8B9D7E90201114B53
:10A130008DE80300D3E9002317A892F0A5F8A0B991
:10A140009DF90B1017A891F0FCFF70B976682246B4
:10A1500033680949DF6803A82B4679F0CDF830460B
:10A16000BDF874300CAA03A9B84723B0F0BD00BFF6
:10A17000F0FC0C08E8FC0C0872FB0C0813B5044654
:10A1800008460A4B1146C4E900300023C4E90333F2
:10A190000193036822815B6A01AA984710B9019B69
:10A1A000C4E90303204602B010BD00BF6CFC0C08DC
:10A1B0002DE9F34183680446032B0D4603D90020A3
:10A1C00002B0BDE8F0818288022100921F20184A67
:10A1D00093F085F9A368032BF1D8164A52F823604F
:10A1E000154A304652F82380BFF045FB1028E6D8C8
:10A1F0004046BFF040FB1028E1D804F10C0731467F
:10A20000384604F11D0679F09DF84146304679F054
:10A2100099F83846BFF02FFBC5E900703046BFF013
:10A220002AFBC5E90260A36801200133A360C7E7E8
:10A2300083FB0C0838FC0C0828FC0C082DE9F041C5
:10A24000D0E90332934204460D469EB003D300206A
:10A250001EB0BDE8F0812A2642683B495768ADF838
:10A2600002603A68D2F80880028910A879F044F8B0
:10A2700038460DF1020305AA10A9C0470028E6D10F
:10A2800010A891F02DF8324605A910A891F06BF8AE
:10A290004FF480720023152110A891F07CFB002858
:10A2A000D5D10DF1010110A891F06BFA0028CED1A3
:10A2B000264BCDE90100D3E90023CDE9030010A826
:10A2C00091F05CFB0028C2D101AE314610A891F09C
:10A2D000D1FB0028BBD11E4B10A8D3E9002391F07D
:10A2E0004DFB0028B3D10DF10C08414610A891F0A8
:10A2F000C1FB0028ABD110A891F035FB0028A6D1F6
:10A300009DF9011010A891F0D9FA00289FD196E884
:10A31000060004F1140704F12506384679F01AF80E
:10A3200098E80600304679F015F83846BFF0A3FAF1
:10A33000C5E900703046BFF09EFAC5E90260E368E7
:10A3400001200133E36083E772FB0C08F0FC0C088A
:10A35000E8FC0C08F8B505460E460024094FAC424F
:10A3600006DB20F039FC084992F070FC0020F8BDB3
:10A3700020F032FC56F82420394692F067FC013474
:10A38000EDE700BFF8FC0C08FEFC0C08F8B505462C
:10A390000E460024064FAC4201DB0020F8BD56F803
:10A3A00024303A4602211C2093F099F80134F2E758
:10A3B0009D630E0810B520F00FFC04468FF04EFD93
:10A3C00003490246204692F041FC002010BD00BF28
:10A3D000FCFC0C0803220249024820F0ABBA00BF83
:10A3E00050FD0C08AC6A01202DE9F0470024064618
:10A3F000E0B088464FF4BE72214601A80094BFF039
:10A4000082F9A64228DD6D464FF0200958F824A0B5
:10A410005046BFF030FA60AB2F189F4202461DD263
:10A4200028465146BFF096F97D1C60AB9D4204F171
:10A4300001042CBF3D4687F80090A642E6D10848AB
:10A4400095F05CF968469CF06DFF054895F058F969
:10A45000002060B0BDE8F0872F20FAE71920F8E768
:10A46000D0CD002001220249024820F063BA00BF8B
:10A470009CFD0C08AC6A012010B50446034B40F863
:10A48000083B30F001FD204610BD00BFF0000D0874
:10A4900010B50446034B40F80C3BFFF7EDFF204698
:10A4A00010BD00BF14010D0870B5836B05460C4646
:10A4B00043B1134B2420002918BF0B46114A032136
:10A4C00093F00DF82B6821465B6C28469847AB6BE0
:10A4D000064653B1A0280AD1094B0B4A002C18BFDD
:10A4E00023460321242092F0FAFF304670BD9F28B6
:10A4F000FBD1034B054A002C18BF2346F1E700BFF0
:10A50000A8FD0C08AFFD0C08F2FD0C083CFE0C0881
:10A510002DE9F0411F46836B0546012B0C4616467C
:10A5200008D9154B2420002918BF0B46134A0321D4
:10A5300092F0D5FF2B683246D3F83C8021463B464B
:10A540002846C047AB6B0646012B0AD9A0280BD181
:10A55000094B0B4A002C18BF23460321242092F0FC
:10A56000BEFF3046BDE8F0819F28FAD1024B054A74
:10A57000002C18BF2346F0E7A8FD0C088CFE0C0841
:10A58000C9FE0C0810FF0C0810B50446054B03600B
:10A5900000F5CF6093F067FB23690BB1BEF01CFEA2
:10A5A000204610BD44D10D082DE9F3411E46836BB2
:10A5B00005460C46174633B10B46242003210F4AAB
:10A5C000009692F08CFF2B683A46D3F840802146E3
:10A5D00033462846C047AB6B0646012B0AD99F2855
:10A5E00008D1074B0321002C18BF23462420054A1D
:10A5F00092F075FF304602B0BDE8F0815DFF0C08B7
:10A60000A8FD0C08ACFF0C0870B504460B4B00F518
:10A61000387503F12C0203604C334260836000F113
:10A620001006B54207D055F8080C283D0028F8D090
:10A630002EF022FCF5E7204670BD00BF10080E0882
:10A64000A0F10400E0E7A0F10800DDE7002200230C
:10A6500010B5C0E90023C0E90223C0E904230D4B73
:10A6600004460021836121226030BFF04CF84FF690
:10A67000FF720023A4F882204FF48072204684F8F1
:10A680008130A4F88420C4F8883078F03CFF20465C
:10A6900010BD00BFFCE70D0800F1080373B50446C8
:10A6A0000D46036011B91048BDF012FB0846BFF01B
:10A6B000E2F80F2805EB0006019007D9002220469A
:10A6C00001A970F0EFF9019B2060A3603246294692
:10A6D0002068BDF04BFB00212046019B226863608F
:10A6E000D15402B070BD00BFF9FF0C0810B504468C
:10A6F000044B0360406A78F0A0FEE06878F096FFB3
:10A70000204610BDA0000D0870B5164605460C4643
:10A710008CB01146684678F0DBFE2946304678F06A
:10A720005DFE641B0A4BE4105C43694606A878F0A2
:10A73000CFFE2246002106AB284678F0B7FF06A8D8
:10A74000BDF0D7FA6846BDF0D4FA0CB070BD00BFBA
:10A75000ABAAAAAA2DE9F04F4FF0180B04461746F2
:10A760000E468DB000EB0B08351BB5F5C07F22DD22
:10A770003F4BED105D4367BB4FF01808AF1E7F10D5
:10A78000684608FB074178F0A3FE694606A878F002
:10A790009FFE20462A46394606AB78F087FF06A87A
:10A7A000BDF0A7FA57B96846BDF0A3FA331B182BC2
:10A7B000A6F1180607DC0DB0BDE8F08F6846013F32
:10A7C000BDF097FADCE7324631462046FFF79CFFA2
:10A7D000ECE76D100BFB05454046294678F061FF1C
:10A7E000A6F11809C246494660B1284678F059FFDB
:10A7F00008B129460BE04946404678F052FF28B19F
:10A80000494604E0404678F04CFF10B341462046EC
:10A81000BDF0ECFA35465046214678F042FFD1466D
:10A820000AF1180A0028F6D1A5F1180A5146204667
:10A8300078F037FF5546AAF1180A0028F6D1A94545
:10A840000ED3013F31463A464846FFF783FF4E4656
:10A850008AE74946284678F024FF0028C9D0CFE788
:10A8600029464846BDF0C2FA09F1180AD3E700BFED
:10A87000ABAAAAAA2DE9F043884205460E4687B046
:10A8800005D0DFF8608000F11804A64202D107B0BD
:10A89000BDE8F0832946204678F003FF04F118074D
:10A8A000E0B12146684678F013FEB946641BE41017
:10A8B00008FB04F4002C08DC2846694678F08EFD7D
:10A8C0006846BDF016FA3C46DFE7A9F13001A9F170
:10A8D0001809484678F082FD013CEBE7204678F005
:10A8E00049FFF0E7ABAAAAAA2DE9F041036886B0B8
:10A8F0009B6A0446984701210346394A242092F076
:10A90000EEFD236821466846DB6A9847039E0024D3
:10A9100030460DF10408404505D1324B9C4206DD1E
:10A920003148BDF0D8F9BDF079F80134F3E71827C4
:10A9300067431CB138469BF036FF04462546464522
:10A940002CD1AC4217D0294B2E1BF2105A43B2FA2D
:10A9500082F2C2F11F02294620465200FFF7FAFE9A
:10A96000B6F5C07F2ADD04F5C07631462046FFF7F4
:10A9700081FFB5421DD12646DFF87480B54222D151
:10A980002646B54227D11CB1394620469BF01BFF15
:10A99000029878F052FD06B0BDE8F081284606F135
:10A9A000100178F069FD3046BDF038F818350646DC
:10A9B000C5E7304678F0DEFE1836DAE7294620464D
:10A9C000FFF758FFD7E742460121242056F8183BED
:10A9D00092F085FDD2E73046BDF08BF91836D0E70E
:10A9E0002B000D08555555055C000D08ABAAAAAA09
:10A9F0008D000D082DE9F8430025424C6019903573
:10AA0000FFF724FEB5F5347FF8D100263E48FFF766
:10AA10001DFE3E4A3E493B48C4E9D866C4E9DA66B1
:10AA2000A4F87063C4F8746384F8786384F880636E
:10AA300084F88263A4F884634FF00008BCF090FFB0
:10AA4000122441F2A45E4FF00009324D324BDFF880
:10AA500000C103F12C022B604C33C5E902366A6059
:10AA600005F11007013C9CE80F0005F1280587E877
:10AA70000F0005F8086C25F806EC45F8046CC5E9EC
:10AA80000089AE60ECD1214A24492248BCF068FF1D
:10AA9000234821F077FC1D4A22492148BCF060FF81
:10AAA00021482FF0CFF8194A20491F48BCF058FF21
:10AAB0001F48204B154A2049C0E901440360047334
:10AAC000BCF04EFF1D481E4B104A036000F1080306
:10AAD000C0E904331B4900F12003C0E90A330472C2
:10AAE000C460846180F820404462046380F834408C
:10AAF0008463BCF035FFBDE8F843044A12491348AB
:10AB0000BCF02EBF20340020F0360020FC9802203C
:10AB1000633508084031002010080E0809A6000817
:10AB20009029002089A5000888180020559E030858
:10AB3000EC63012068150E084D990308B0630120ED
:10AB4000A0000D08EDA6000891A40008B49A022008
:10AB5000586A012070B5036805460C4616460BB1CD
:10AB6000032070BD02210D20074A92F0B8FC0CB9F9
:10AB70002F20F6E723682046DB6898470028F0D1AD
:10AB8000C5E90046EDE700BF20010D082DE9F04FB3
:10AB9000074600688BB004680D46646C90461E46FC
:10ABA000A0472D2804460ED048B19F4A9F4B022152
:10ABB000A52808BF13460D209D4A92F090FC204620
:10ABC0000BB0BDE8F08F6B78202B01D10024F6E7A5
:10ABD000984B3868029358B103682A461B6C02A947
:10ABE0009847044630B1029803689B689847E6E7A7
:10ABF0000324F8E74FF0000A4FF0000B8E4B03934D
:10AC0000029803A90368DB68984730B102210D2040
:10AC10008A4A92F064FCA52410E08DF8060003989F
:10AC20000DF106010368DB689847044630B99DF8CA
:10AC30000630402B06D0802B04D0032403A879F0E3
:10AC4000A8F8D0E76A789A42DAD1012303988DF800
:10AC5000073003680DF107015B6998470446002837
:10AC6000ECD19DF80730082B18D8002BC8D0013B39
:10AC7000072BC5D801A252F823F000BFB5AC0008DD
:10AC8000C7AC000801AC0008D3AC000801AC000858
:10AC900001AC000801AC0008F1AC0008102BAFD1EA
:10ACA000102E1AD0082EABD84FF48B73F340D80770
:10ACB000A6D512E006F1FF3CDCF1000343EB0C03E8
:10ACC000002B9DD009E0731E012B8CBF00230123B4
:10ACD000F6E7042E01D0012E92D1002303980493AD
:10ACE000036804A95B6A9847814648B14C46A5E7CA
:10ACF000082E85D86FF489733341DC07EDD57FE7E3
:10AD0000049B1BBB002303980593036805A99B6B59
:10AD1000984781460028E9D1059B002B7FD100246C
:10AD20008CE74FF0FF31C21C994274EB020243D30F
:10AD30009DF80620402A80D14FEA134C05F10C0102
:10AD400005F118048C4229D109F10109049B4B45F6
:10AD50007FF656AFCDE906AB03984946036806AACD
:10AD60009B6A9847044600287FF468AFDDE9063007
:10AD70006FF0010C5A1E40F1FF3194456FF0100244
:10AD80008A41CED39DF80620402A7FF456AFD5E9FC
:10AD90000212904208BF8B42D6D1B3E751F8042F7C
:10ADA000002ACFD0BCEB124FCCD198B20028C9D02A
:10ADB00092B29042C6D8A5E713F5803F70F1FF32FA
:10ADC000FFF43BAF9DF80620802ADEE700230398BE
:10ADD000069303684946DB6B06AA98470446002899
:10ADE0007FF42CAF069BD90704D5D8F8002007992B
:10ADF000914212D19A0705D5BDF82010B8F8042069
:10AE000091420AD15B078AD57868B8F804200368B4
:10AE100009999B689847002881D109F10109059B90
:10AE20004B45D3D8ECE600BF68010D08E6DC0E0800
:10AE30003C010D08DC9A0220E09A022059010D081D
:10AE40000023F0B58BB0CDE9043308688DF80D30E0
:10AE50008DF80E308DF80F3003680D46DB680DF16C
:10AE60000D0198470446002840F0C78028680DF17E
:10AE70000E0103681B6998470446002840F0BD8016
:10AE800028680DF10F0103685B69984704460028A4
:10AE900040F0B380286804A903685B6A98470446B9
:10AEA000002840F0AA80286805A903689B6B984792
:10AEB0000446002840F0A1809DF80E30002B00F0E1
:10AEC0009E809DF80D30402B07D0802B40F09E8057
:10AED0009DF80F30102B00F09B802646049BB34258
:10AEE00007D800264B4F059BA3423AD801200BB050
:10AEF000F0BD28683146036806AA9B6A9847002877
:10AF000079D19DF80D30402B16D1DDE906326FF076
:10AF1000010C591E42F1FF378C456FF01001B94109
:10AF200008D24FF0FF310332994270EB02020CD38A
:10AF30009BB253B10136D1E7802B06D1069B079A0D
:10AF400013F5803F72F1FF32F1E7334B04460028DE
:10AF500056D001210D20314A009492F0C0FA002011
:10AF6000C5E72868069603682146DB6B06AA984762
:10AF7000002840D1069B03F0020103F00402DB0726
:10AF800010D411B1F2B1264BE0E7002AFBD0099BA7
:10AF900003EA070212F5003FF5D89BB2B3F5404F24
:10AFA000F1D215E009B1002AEDD1079B13F5302F3E
:10AFB0004FEA134CE7D2BCF1000F0BD11B0410D5A4
:10AFC0006046E0E74FF6FF73BDF820209A42DAD0E2
:10AFD000013488E740F2FE3C03F580639BB2634591
:10AFE000D1D829B14FF6FF73BDF820109942CAD0CD
:10AFF000002ACCD1ECE70B4BA8E70A4BA9E70A4B98
:10B0000001210D20094A92F06AFAA8E7084BF7E7F8
:10B01000084BF5E70000FFFF80010D08D8010D087F
:10B0200090010D086F010D08C3010D08EE010D0818
:10B03000B1010D089F010D082DE9F0430546006898
:10B0400087B088461F468DF80F2020B9032420467C
:10B0500007B0BDE8F083DFF86490AB68CDF81490DA
:10B06000EBB900262868394603680DF10F02DB6B47
:10B070009847044678B91EB133684B4508BF00268F
:10B0800002234146CDE9006328463B469DF80F2048
:10B0900078F0A0FE002405A878F07BFED7E79DF8A5
:10B0A0000F3039468DF81330036805AA5C6B0DF13B
:10B0B0001303A0470028D4D105AED3E7E09A0220BD
:10B0C000034B1868034B002808BF1846704700BFA1
:10B0D000006401200464012010B5044602210D2003
:10B0E000024A92F0FCF9024B1C6010BD00020D08F0
:10B0F0000064012010B5094C094922460948BCF0FA
:10B100002FFC224608490948BCF02AFC2246BDE82B
:10B11000104007490748BCF023BC00BFFC98022040
:10B12000613D080804640120733D0808E09A02208C
:10B13000753D0808DC9A02200023F7B5CDE90033FD
:10B140004AB96E4601AB15240E4A013C06D11423C0
:10B15000036003B0F0BD6B4601AEF4E71578002D37
:10B16000F5D055788D4206D107683568AF4207D0D3
:10B17000019D01350195009D403201350095E4E7C0
:10B180001B68E5E7E837002007B5019021B10122EF
:10B19000097801A8FFF7D0FF019813280AD8064BB9
:10B1A000820103EB80109B5C002B08BF002003B0E2
:10B1B0005DF804FB0020FAE7E837002000231520A3
:10B1C00010B51360074B013801D1002010BD1C7869
:10B1D000002CFAD05C7840338C4202BF14680134F2
:10B1E0001460F0E7E837002000231A4610B506483F
:10B1F000B3F5A06F0A6001D1002010BD4033C45CDC
:10B20000002CF9D00132F3E7A83700200868114B71
:10B2100070B598420E46154603D303F10C029042D6
:10B2200014D31B79A3B90B4C03689B68984701237F
:10B23000002D3460237108BF00234FF000006371BC
:10B2400018BF2B78A06018BFA37170BD0446EBE750
:10B250001920FAE71464012002210D20014A92F01E
:10B260003EB900BF84020D0838B502210D20074AFF
:10B2700092F035F90024064D60194034B4F5A86FFA
:10B2800001D1002038BD78F04AFEF5E7AC020D0888
:10B29000E837002038B50B4B0C46984202D30C33EC
:10B2A000984201D3BDF098FF85680FCD0FC40FCD34
:10B2B0000FC40FCD0FC495E80F0084E80F000020E5
:10B2C00038BD00BFE89A02202DE9F041144C1F461A
:10B2D0000E461523A046013B01D119201EE021781E
:10B2E00071B14034F7E763783B70B6B1A4EB080462
:10B2F000A41134602A4630463978FFF71DFF0CE070
:10B3000021461068FFF7C6FF054630B9002FEAD185
:10B310001EB1A4EB0804A41134602846BDE8F081F6
:10B32000E8370020064B984203D303F10C02904209
:10B3300004D39B680248002B18BF0020704700BF51
:10B34000E89A022010B50868FFF7ECFF80B1826828
:10B35000084B0AB19A4206D21B784BB9054A78F0DD
:10B3600025FE002010BD03F14004A242F4D2F6E70E
:10B370001920F7E7A837002038B5114A83684BB980
:10B38000104B83608468944201D0237833B9826083
:10B390000A2038BD9342F5D24033F2E743791BB11E
:10B3A000657883799D42E9D10868FFF7BBFF20B13A
:10B3B000224678F0FBFD0020EBE71920E9E700BF0B
:10B3C000E83C0020E8370020F0B50E4F84680646C0
:10B3D000BC4205D307F140039C4201D20020F0BDDE
:10B3E0003B7863B9074D0FCC0FC50FCC0FC50FCC01
:10B3F0000FC594E80F0085E80F00B760EEE719204D
:10B40000EDE700BFA83700202DE9F0410E461146B8
:10B410003046FFF7B9FE0446002842D0224FBB68F1
:10B42000984202D13846FFF7CFFFDFF88C804445C1
:10B4300016D204F1400CC4450FD294F8403063B1E9
:10B4400065460FCD0FC40FCD0FC40FCD0FC495E8C7
:10B450000F0084E80F006446E9E7204678F05FFDBE
:10B46000124CBB6804EB86169E4212D003D24345B1
:10B4700001D2403BBB600E4A93689E4206D84345CA
:10B4800004D2A3420CBF0023403B93600020BDE8E0
:10B49000F0817D68286803689B689847054B2B609E
:10B4A000E9E70A20F3E700BFE89A0220E837002026
:10B4B00014640120E09A0220E83C00208268054BD9
:10B4C00000219A4203D340339A4238BF1170816001
:10B4D000704700BFA837002010B5094CD4E8AF3F33
:10B4E000DB070BD420469BF08FFE38B1054A064996
:10B4F0000648BCF035FA20469BF08BFE034810BD91
:10B5000010640120FC980220F53F0808E49A02200C
:10B5100010B5084C084922460020BCF021FA002052
:10B52000064B074A18711A6006492246BDE81040CA
:10B53000BCF016BAFC980220FB3F080814640120F6
:10B5400030030D08A140080870B5104ED6E8AF4F83
:10B5500014F0010418D130469BF056FEA0B10C4DFA
:10B560000C4A2B4607CA43F8044B83E807004FF602
:10B57000FF722A824FF0FF321846C5E9052478F0A1
:10B58000E4FE30469BF045FE014870BD206401207A
:10B5900024640120C4030D0838B5054604300C4668
:10B5A00078F0D3FE2A6813461BB9E26001202C60B4
:10B5B0000DE09868A16888420ED1197909B1217906
:10B5C00031B923200121054A91F089FF002038BDBF
:10B5D000D888E1888842F4D0DB68E5E790030D085D
:10B5E000F0B5044685B0216829B90846C4E90211BE
:10B5F000A180A17134E04FF6FF730A899A4222D0EC
:10B600000B6801331FD04B685A1C53425341A3713E
:10B610004FF6FF73228A9A420AD10B89934202D0D5
:10B620000A68013211D1204678F0C0FEFF2323764C
:10B63000208A638A834215D82368DB6823604FF62B
:10B64000FF732382CFE70123E1E74A680132EAD0A2
:10B65000A3800B68A3604B68E36000232361012093
:10B6600005B0F0BD16F0A6FA48B9238A4FF6FF726E
:10B6700001332382FF23A2822376A376D8E7208A90
:10B6800016F04AFD237E0546FF2B08D102462168AD
:10B69000204678F09EFE4FF6FF73A382A3764FF606
:10B6A000FF7732E0A38A019EBB4208D1A37EFF2B25
:10B6B00005D133462A462046216878F09EFEA38AAB
:10B6C000E28A9A420FD93246294602A889F0C5F883
:10B6D0009DF8083033B3039BA580C4E90263A38AB5
:10B6E0000133A382BBE7A37EE27E9A4208D90E4AC9
:10B6F000A58052F823200133C4E90262A376AEE7A5
:10B70000237EA78201332376A776227E637E93422F
:10B71000ABD901232946684689F001F89DF800302D
:10B72000002BBFD1BDF058FDD0030D082DE9FF411E
:10B730000A9F884616461D4691F0B3FD0446002830
:10B740003FD0D6E900010026231DD8F80020C4E927
:10B750000133C4E906011D4B267323602661226272
:10B7600004F1280C95E80F008CE80F002B7C04F105
:10B77000480084F838306B8A63876B69E363D5E9E6
:10B780000623C4E91023124B04F1580519680B680D
:10B790009B68984700220023C4E9142301AB97E873
:10B7A000070083E80700012385E80700A4F8743048
:10B7B000084B84F8646084F8686084F86C60A6675D
:10B7C0002360204604B0BDE8F08100BF2C040D08C2
:10B7D000589C022074040D08094A08B502600269E9
:10B7E0000AB1BDF0F9FC074A011D026082688A4275
:10B7F000F7D141680029F4D04A604368136008BD5E
:10B800002C040D08E4030D0810B50446024B036038
:10B81000FFF7E2FF204610BD74040D08F7B50C4693
:10B82000114B0546196868460B689B689847D4E930
:10B830001421009B20469F1A019B63EB010678F0C0
:10B8400092FF038920469F4276F1000309D278F0E7
:10B850008AFF0430036828462B6000236B6003B026
:10B86000F0BD78F080FFF5E7589C02202DE9F04309
:10B8700007460E46154698466FF001096FF0100412
:10B880008BB08EF0BAFA421E41F1FF33914574EB52
:10B890000303F6D300231836CDE9040102933046A2
:10B8A0002B46CDF8008004AA02A9FFF73FFF04460B
:10B8B00050BB4FF0FF324FF0FF33CDE9062306AB0C
:10B8C00003900893304603AB1C4A08A9099391F0F2
:10B8D00050FD039C2CB900233B7038460BB0BDE8EB
:10B8E000F083236820461B6898472146304691F034
:10B8F0001EFD2B463046CDF8008004AA02A9FFF7B2
:10B9000015FF04460028E6D095E80F0004F128064C
:10B9100086E80F002B7C204684F838306B8A6387DA
:10B920006B69E363D5E90623C4E9102301233B7067
:10B9300023687C60DB689847CFE700BFD7460808DC
:10B94000084B10B50360183343600446083078F0A4
:10B950007EFF014620B9606900F5CF6092F099F949
:10B96000204610BD20060D08A0F10400E8E700BF46
:10B970002DE9F04F06460C468FB01D469DF8643009
:10B9800090460793D1E90023CDE9003227200B7AB6
:10B990002D4A0321189FDDF868A09DF86C9091F066
:10B9A0009EFD00222146304678F09EFF834670BB04
:10B9B00003212720254A91F092FDD6F834C0DCF807
:10B9C00000E0049694E80F008DE80F006046DEF872
:10B9D0000030326B06F1080198478346B8B925B1AB
:10B9E0000B2221462B69E86898476FB194E80F0055
:10B9F00008AD85E80F000B230C93002329468DF832
:10BA00003430F8683B6998470FB0BDE8F08F58466E
:10BA100007997BF05AFBBAF1000F03D05146584604
:10BA200003F060FB2DB14B462A46414658467BF059
:10BA300054FC002FE8D04B463A46414658460FB0DA
:10BA4000BDE8F04F7BF051BCB4040D08E5040D08CF
:10BA500082B070B586B00AA981E80C0001220546C3
:10BA600078F042FF0446E8B903212720134A91F0F9
:10BA700036FD6C6B0AAB266804950FCB8DE80F0082
:10BA8000204633682A6B05F108019847044688B9B7
:10BA9000032127200A4A91F022FD06B0BDE870403C
:10BAA00002B070470A9B0321009327200B9B054A95
:10BAB00091F015FD204603F09FFCEEE730050D08E0
:10BAC00076050D08BD050D0810B50446044B40F879
:10BAD000083B77F0C3FA201D77F0C0FA204610BD6E
