:020000040800F2
:100000000810002071010008D1240008A92500086B
:10001000D1240008D1240008D1240008D1240008EC
:10002000D1240008D12400081C3D0008D124000878
:10003000D1240008CC3C0008D1240008D1240008B9
:10004000D1240008D1240008D1240008D1240008BC
:10005000D1240008D1240008D1240008D1240008AC
:10006000D1240008D1240008D1240008D12400089C
:10007000D1240008D1240008D1240008D12400088C
:10008000D1240008D1240008D1240008D12400087C
:10009000D1240008D1240008D1240008D12400086C
:1000A000D1240008D1240008D1240008D12400085C
:1000B000D1240008D1240008D1240008D12400084C
:1000C000D1240008D1240008D1240008D12400083C
:1000D000D1240008D1240008D1240008D12400082C
:1000E000D1240008D1240008D1240008D12400081C
:1000F000D1240008D1240008D1240008D12400080C
:10010000D1240008D1240008D1240008D1240008FB
:10011000D1240008D1240008D1240008D1240008EB
:10012000D1240008D1240008D1240008D1240008DB
:10013000D1240008D1240008D1240008D1240008CB
:10014000D1240008D1240008D1240008D1240008BB
:10015000D1240008D1240008D1240008D1240008AB
:10016000D1240008D1240008D1240008D12400089B
:1001700008B50B4B83F30A880A4B07A1D1E90001AC
:10018000C3E9000100F07EF800F08AFA00F054F8AC
:1001900000F066F800F01AFAA5EDF5FEA5EDF5FE03
:1001A00008000020081000200348044B834202D0BE
:1001B000034B03B118477047B85D0020B85D0020BD
:1001C00000000000064B0749C91A891048BF0131D9
:1001D000491003D0044B0BB101481847704700BFCA
:1001E000B85D0020B85D00200000000010B5064C8E
:1001F000237843B9FFF7D8FF044B13B10448AFF39A
:1002000000800123237010BDA45D002000000000C9
:10021000E83E000808B5054B1BB105490548AFF39A
:100220000080BDE80840FFF7CDBF00BF0000000020
:1002300010100020E83E0008064B0748DA1C121A8E
:10024000C11E22F00302994288BF0022034903F035
:1002500081BC00BFB85D0020A85D0020F43E00080E
:10026000064B0748DA1C121AC11E22F003029942FB
:1002700088BF0022002103F065BC00BFA85D0020FC
:1002800010100020044B054A9A60D3F8882042F4ED
:100290007002C3F88820704700ED00E000000008FD
:1002A00037B500F1006303F500430193104B0D4691
:1002B000984214461AD8019A0E4B9A4216D2019AC5
:1002C0009B1AA34212D348B94FF000639B6A0A4AB3
:1002D0005969914202D9186900F0A8FA22462946C4
:1002E000019803B0BDE8304002F0F3B803B030BD70
:1002F000FF7FFFF700E01708008000087FB56FF070
:10030000006200F178419142034619D26D460D4AD0
:1003100002F110062C4610685168083203C4B2423C
:100320002546F7D15A1E04A90F3311F8014D12F8D2
:10033000010F844204D19A42F7D1012004B070BD6C
:100340000020FBE7B83C0008F0B50368044603F161
:100350006043B3F5802F9FB033D84FF000639B6AA2
:1003600042681E6996422CD8344B9A4229D8456B74
:1003700006F14002AA425ED89D425CD82846FFF7AB
:10038000BDFF002857D0284602F0D6F880B16B692F
:1003900073B1022B0ED1AB69C4F1040119444FF0C3
:1003A000FF32204601F0D6F8254BC31A5842584177
:1003B0001FB0F0BD40F2046328460293FFF79EFF92
:1003C00008B90020F4E74FF000635F6B3846FFF791
:1003D00095FF0028F5D0A6F150039F42F1D828469A
:1003E00003A902F0B0F80028EBD0039DAE42E8D894
:1003F000AC42E6D8114B9D42E3D804A801F06EF957
:1004000021462A1B04A803F035FA04A803F034FAA5
:1004100001F074F9044601F08FF923460090294653
:1004200005F1200204A801F0D9F802900298B0FA70
:1004300080F04009BCE70120BAE700BF00001808BF
:10044000E320BBDE70B54FF0FF3290B005460C469E
:1004500001F080F81C4B984232D14FF480621B4B64
:1004600000219A6601A81C2203F06CFB184B294658
:100470006846043C009303F0E6FB2146684603F01F
:10048000E2FB684603F0E8FB03F0A6FB0646B8B9BA
:1004900040F2022000F076F91C22314609A803F050
:1004A00051FB0C4B294608A8089303F0CCFB08A885
:1004B000214603F0C8FB08A803F0CEFB03F08CFB39
:1004C000002010B070BD00BFE320BBDE00900040F4
:1004D00001000543010006434FF4806230B5044635
:1004E000154B91B09A6600211C2201A803F02AFB4B
:1004F000124B21466846009303F0A5FB684603F0C3
:10050000ABFB03F069FB054698B940F2022000F00E
:1005100039F91C22294609A803F014FB084B08A846
:100520002146089303F08FFB08A803F095FB03F026
:1005300053FB002011B030BD00900040000002438A
:10054000000003434FF4806210B50F4B8CB004469B
:100550009A6600211C2205A803F0F4FA0B4B0194C3
:100560000493012302930A4B01A904A8039303F007
:1005700096FA04A803F070FB03F02EFBB0FA80F0AB
:1005800040090CB010BD00BF0090004000000843BF
:1005900004000020004870470080000838B50C4671
:1005A000054680B179B100230B60074B036003F06F
:1005B00049FA01301EBF2B6843F4C0432B60236807
:1005C00043F40023236038BD0C12000813B501A8C2
:1005D00001F010FE9DF80530012B14D19DF8043078
:1005E0008BB94FF480122A4B2A49586E03F5805379
:1005F0005A664B6BC00223F0E05343F040634B63F9
:100600005CBF254B5A664FF04023D3F88420110677
:1006100006D44FF400621A67D3F88420D206FBD4C4
:1006200001F0B4FF00F0A0F808B900F085F803F07D
:100630007FF9044658B900F097F808B100F08CF83B
:1006400040F2012000F0C8F84FF4017018E000F00B
:100650008BF808B900F078F800F0A0F8012802D96A
:1006600000F06AF8FEE700F0A5F80C4B0193019B3F
:10067000002B0ADC40F205439C42E5D140F2032006
:1006800000F0AAF8002002B010BD019B013BEDE78D
:10069000008000400040004A00A0004000350C00EF
:1006A000012307B58DF806308DF807304FF0402351
:1006B000D3F894305A060FD500F0A2F8A0F2022029
:1006C00080B2072808D8C923C340DB0742BF0023F4
:1006D0008DF806308DF80730154B5B68013308D173
:1006E0004FF4027000F04EF800238DF806308DF8BC
:1006F00007309DF807305BB10D48FFF725FE8DF8F8
:1007000006009DF806301BB94FF4027000F03AF86D
:100710009DF806304BB100F027F808B100F01CF846
:100720000348044B986001F035FF03B05DF804FB0B
:100730000060000800ED00E04CF23C32014B5A80B2
:10074000704700BF000000204AF6C032014B5A80BB
:10075000704700BF000000204FF20F02014B5A808B
:10076000704700BF000000204AF6C030044B5B8891
:1007700023F00F039BB21B1A58425841704700BF29
:1007800000000020044A08B51080FFF7EDFF10B903
:100790004FF20F03538008BD0000002008B5FFF79B
:1007A000E3FF18B1024B588800F00F0008BD00BFEE
:1007B0000000002008B5FFF7D7FF48B1054A53886D
:1007C00003F00F010F2914BF013323F00F035380EF
:1007D00008BD00BF0000002008B5FFF7D3FFBFF33E
:1007E0004F8F0549054BCA6802F4E0621343CB60A2
:1007F000BFF34F8F00BFFDE700ED00E00400FA05F6
:100800004FF20F01084B5A888A4201D1188870476D
:100810003AB91B8840F20220012B18BF4FF4007038
:1008200070474FF400707047000000204FF4803292
:1008300008B5044B9A6601F009FCB0FA80F0400953
:1008400008BD00BF00900040072BF8B506460F46D4
:1008500014461D4601D90020F8BD0121202001F0D9
:1008600087FB0121212001F083FB8CB144EA0603C0
:100870009B07F0D14FF48032064B31469A662846EA
:1008800023463A4601F046FCB0FA80F04009E3E71F
:100890000120E1E700900040134610B562B1034328
:1008A0009B070BD14FF48034054B9C6601F0F6FB9F
:1008B000B0FA80F0400910BD0120FCE70020FAE703
:1008C000009000400A4B186830B9B1F5205F0DD890
:1008D000012208481A607047012806D1B1F5005F6F
:1008E00003D8022204481A6070470020704700BFF6
:1008F00028100020A4350020A415002031B1044A9E
:100900001368002BC4BF03F1FF331360704700BFAF
:100910002810002002232DE9F04F884616460027B4
:100920008BB0DFF8C490DFF8C4A005908DF81F30BD
:100930009DF81F20022A07D0002E48D041F2023134
:10094000012A18BF0F4642E0D9F80010234DC1F527
:1009500040730893DAF80030214809930DF11F0322
:1009600002930023019309AB009308AA1D4B29446D
:1009700002F023FE9DF81F3038BB63B3089BD9F803
:10098000004029461C4424F0030B43465A46059870
:1009900000F07EF914F00304074605D022462846ED
:1009A00005EB0B0103F0B4F8DAF800200999C9F857
:1009B00000408A42A2EB010404D90A4822460144BD
:1009C00003F0A6F8CAF80040B2E741F20337384610
:1009D0000BB0BDE8F08F41F20237F8E7A01000201D
:1009E0002C100020A41300209C100020A013002035
:1009F00008B570220021064803F0A4F80122002067
:100A0000044B1A70044B1860044B186008BD00BFFB
:100A10002C100020A55D00209C100020A0130020B9
:100A20002DE9F84399465B6806468846144643B369
:100A30001E4B1D78A5B100221A7051F8043B052207
:100A400003661B4B1B4800F077F860BB194802F0A7
:100A5000A1FCD6F88C50184B9D4214BF11251925C6
:100A6000164F641B3B68C3F50073A3420CD33E686A
:100A700013482246304408EB0501264403F06AF887
:100A80003E600020BDE8F883002249463046FFF76B
:100A900041FF0028F6D13B68C3F50073A342E6D2BC
:100AA00041F20430EEE741F20530EBE7A55D0020AE
:100AB000A85D00202C100020F80C0CF8A0130020DA
:100AC000A4130020436D3BB9D0F88C00034B98422F
:100AD00014BF11201920704701207047F80C0CF842
:100AE0004B6870B505460C46E3B10122FFF712FFD3
:100AF000C8B90D4B186888B10C4E0428C0F1040227
:100B00004FF0FF0188BF0022304403F01BF823465A
:100B100004223146284600F0BBF820B904490548B4
:100B200002F0C7FD002070BD9C100020A010002026
:100B3000A85D00202C1000202DE9FF41E846044666
:100B400040461E4602F0C1FD054660BB32464146A6
:100B5000204602F08DFD054628BB039AB2F1804F76
:100B600025D240F6FF731649B2F5800F28BF0B4619
:100B70009F1827EA03076169974238BF174611B1EA
:100B8000A36ABB4215D030467368984700233946A4
:100B90006361304633689847606150B931462046FA
:100BA00002F05DFD0225284604B0BDE8F081054B4A
:100BB000DEE798E80F00A76284E80F00F3E700BFC4
:100BC000FFFF0F00FFFF3F000068024BC31A5842AF
:100BD00058417047FD0707FD034A044B90420CBF84
:100BE00018460020704700BFFD0707FD643D000860
:100BF00030B5024600230C25054905FB03F46018B7
:100C00000C59944203D001330D2BF6D1002030BD96
:100C1000783D0008F0B50023082787B0CDE90133FF
:100C200015463B46009704AA044602F091FD41F2A6
:100C300003039842064623D194F8433053B13A4611
:100C4000E06C04A902F016FE04AA3B461146A06C13
:100C500002F0FFFD059A049B6A6094F843202B6024
:100C600052B9094A934207D0084A934204D0082255
:100C7000E06C04A902F0FEFD6B6823650023636548
:100C8000304607B0F0BD00BFF70A0AF7FC0404FCC9
:100C90002DE9F04799465B6804460F469046002BC5
:100CA0003FD08B0740D14FF000639B6A006E1B69F9
:100CB00081181D1DA9421BD31C33984218D2A8428B
:100CC000024638BF2A46994294BFC2EB010AC2EBE2
:100CD000030A101A3E18C5F1680010443146524606
:100CE000204402F037FF5246FF21304602F02AFF2F
:100CF000226E0F4B9A420BD80E4902EB0800884235
:100D000006D39B1AFA58C4F880204FF0FF32FA50ED
:100D1000D9E9003542463946206EA847236E434440
:100D200023660020BDE8F08741F20200FAE700BF29
:100D300004800008088000082DE9F04100254FF0EC
:100D4000FF3704468846164603F0200380F84230F9
:100D50001822FF21C0E91855A0F8405080F84350F0
:100D6000A0F8445080F84650C0F88870683002F00F
:100D7000E9FE88222946C4E91286C4F88070C4F8C6
:100D8000847004F1900002F0DDFE074BC4F820717E
:100D9000C4E9463584F8245116B1304600F09EFC73
:100DA0000020BDE8F08100BF000101012DE9F04FF6
:100DB000A9B0CDE915230593002304460E464FF054
:100DC0000109329D1793179A059B9A4201D300207F
:100DD000E7E094F84630142BF6D8DFE813F07900FA
:100DE000C700C100610048004C01F2014800EA015F
:100DF00048002D004800EA014003B40315004201F9
:100E0000E402E4027402B2030027636D0F2B00F2C8
:100E1000AB80102318AA009320464023CDE9019708
:100E200015A902F095FC41F203030B900B9A9A422C
:100E300000F009810B9B57E0DFF868A3636D072B77
:100E400000F226814FF0080838231AAA2046CDE97F
:100E50000199CDF8008015A902F07AFC41F2030354
:100E60000D900D9A9A4200F03D810D9B3CE04FF0B1
:100E70000108D4E914739F4276D9FF1ADDE91632CE
:100E80009B1A94F84020032F134440F29E81032BB9
:100E900000F2B281204615A902F039FC002323E0BC
:100EA0000127636D072B00F2F380082318AA009333
:100EB00020464023CDE9017715A902F049FC41F213
:100EC00003030E900E9A9A4200F036810E9B0BE0BF
:100ED00018AA204615A9FFF79DFE41F203020890CB
:100EE000089B934208D0089B079341F20303079A9B
:100EF0009A423FF468AF53E0199A1899226500228C
:100F00006265A64A914240F02481022284F846207C
:100F1000EAE7082318AA009320464023CDE9019769
:100F200015A902F015FC41F203030990099A9A42AF
:100F300001D0099BD8E7189B03F07F43B3F1407FB2
:100F400005D0142384F8463041F20903CCE7199BFD
:100F5000D90706D594F8423043F0010384F84230B3
:100F60000027636D072BD4D9012327E1204618AA57
:100F700015A9FFF74FFE41F203030A90DDF8288020
:100F8000984511D0DDF8288041F20303CDF81C808C
:100F9000079A9A423FF417AF079B0BB10023F370F7
:100FA000079829B0BDE8F08F1898FFF721FE074693
:100FB00028B9142341F2080884F84630E4E743795D
:100FC00094F824219A4205D9142341F20E0884F89A
:100FD0004630D9E70168724A914205D00289D207AA
:100FE00048BF013384F8243194F84230D8070DD536
:100FF0003A8994F84330910706D53BB1142384F81D
:10100000463041F20108BFE7002BF7D018A8FFF7E0
:10101000DBFD18B93B7984F84630B5E71898C4F879
:101020008C00FFF7D9FD94F842309A06F2D50028DB
:10103000F0D04368002BEDD0204698470A900A9BD9
:10104000002BE7D0DDE7D4F8488000F093FB802345
:101050000221CDE9000319AA0123404600F092FACB
:10106000D3E6226D0123A265002284F84330E265B5
:1010700084F84630A7E600213C2219A818910127E0
:1010800002F060FDD4E91432934204D884F846702B
:1010900041F2030328E7009318AA40232046CDE934
:1010A000017715A902F054FB41F203030C900C9A4E
:1010B0009A4201D00C9B17E70DF1600C06F1080372
:1010C0000DF1780E624603CA724518605960944665
:1010D00003F10803F6D110681860337843F0010378
:1010E0003370CFE7337843F0040333701B9BB36254
:1010F00073785B071CD50020236DCDF860A0C4F881
:10110000843094F84530606643F0020384F845303B
:10111000EF686FB104222B6818A9B847606E2B687E
:101120004246EF681AA90830B847636E1033636609
:101130000B2384F8463081E6337843F002033370A2
:10114000189B7360236D083B7362199BB3F1006FAA
:1011500005D0142384F8463041F20103C4E6042389
:1011600084F8463094F8453043F0010384F8453064
:101170000023636695E6042318AA009320464023C3
:10118000CDE9017715A902F0E3FA41F203030F90CC
:101190000F9A9A4208D00F9BA6E600BFEB17A60352
:1011A000F90707F9EB17A65E226D189B042A01D9EF
:1011B00023660127636D032BDDD9092384F84630AC
:1011C00066E700236366072352E79F423FF662AE5D
:1011D0009F4228BF1F46402318AA2046CDE9018818
:1011E000009715A902F0B4FA41F203031090109A87
:1011F0009A420AD0109B77E6402F28BF40279F4293
:1012000028BF1F4627F00307E5E794F846B0BBF177
:10121000070F1BD0042FC7F1040A88BF4FF0000A44
:1012200018AB5246FF21D81902F08CFCBBF1090F14
:10123000BA4419D12B465246204618A9FFF728FD7B
:101240001090109B002B3FF414AED3E7D5F808A004
:10125000BAF1000FDED02B683A46606E18A9D0476D
:10126000636E3B44636604E6BBF1040F1FD17378E1
:101270009F077FF5FEADEB68002B3FF4FAAD626E81
:10128000042A0BD80AEB0203062B07D919AB9B1AC9
:101290001A68C4F884204FF0FF321A60EF682B6898
:1012A0005246606E18A9B847636E5344DAE7BBF143
:1012B0000B0F7FF4DEAD737858077FF5DAADEF687A
:1012C000002FECD1D5E594F8427017F0200707D035
:1012D000D4F88C00FFF780FC074600283FF43CAFB1
:1012E0004FF0010A44E05BB357B33B6943B3204678
:1012F0009847DDE916329B1A94F840201344834244
:10130000FFF4C8ADD4E91421A2EB0108B8F1400FF5
:1013100028BF4FF04008984528BF984618AA402398
:101320002046CDE901AACDF8008015A902F010FAF7
:1013300041F203031190119A9A4203D0119BD3E515
:101340000120D6E794F84230990611D5002F3FF4DA
:1013500003AFD7F808B0BBF1000F3FF4FDAE2B464A
:101360004246204618A9D8471190119B002BE5D181
:10137000D4E9142194F84230914203F02003B2D30F
:10138000002B3FF4F1AD002F3FF4EEADFB68002BD6
:101390003FF4EAAD2946204698471190119B002B57
:1013A0003FF4E2ADCAE74FF000618A6A496B126907
:1013B000503A91423FF6D0AE112B0FD194F818312C
:1013C000002B7FF4D1AD41F206031293129A9A4298
:1013D00002D1142384F84630129B85E594F84430FA
:1013E000002B7FF4C1ADCDE90133402318AA00934F
:1013F000204615A902F0ACF941F203031290129AAB
:101400009A42E9D1E06C02F037FA94F81831A3B1AE
:1014100004F1B4030093E06C04F1940320AA18A92A
:1014200000F0DCF81290129BA3B10023F370142398
:1014300084F8463041F2060356E5D4F84C8000F0BB
:101440005DF9074600F078F93B46009020AA404637
:1014500018A9E5E70123F37084F8443084E50023FC
:101460004FF00408CDE9013318AA40232046CDF8F7
:10147000008015A902F06CF941F203031390139A4E
:101480009A4202D0139B07938AE5D4F888202F4B09
:101490009A4205D0142384F8463041F20503F2E75E
:1014A0000123F37094F84530DA0707D5EF682FB1C0
:1014B000424640462B6804F18401B84794F8453011
:1014C0009B0707D5EF682FB104222B68104604F163
:1014D0008401B847236E6BB36F685FB34FF0FF337F
:1014E00004F180080422414614A8149302F000FB82
:1014F00020B1042241462B681548B84704F1680919
:101500000422494614A802F0F3FA98B14FF00063A0
:101510009B6A1422D3F8108004F16C0108F10800D2
:10152000D5E90037B847D5E900370422494608EB2A
:101530000200B8470123B3700E2384F8463000231D
:10154000A1E70023F37041F207002AE5E320BBDEA8
:101550000480000830B50824094B00255C6601248E
:1015600003F5FE235C6001449D601A61DC608842E3
:1015700001D1586A30BD10F8012B1A62F7E700BF9D
:10158000009000402DE9F04116464FF480621D4660
:10159000114B00F1200804469A6640460F4602F0BF
:1015A00088FADDE90612404602F087FA002384F843
:1015B000587063643368C4F859307368C4F85D3098
:1015C000B368C4F861302B0C6DBA84F86530A4F8A8
:1015D0006650BDE8F08100BF009000402DE9F04367
:1015E00015464FF480621C46364B99B0DDF880906A
:1015F0000E4607469A66002861D000295FD0002D6C
:101600005DD0002C58D0304B304AB9F1000F14BFD8
:10161000984690461C22002111A802F093FA2C4B08
:10162000414610A8109302F00EFB202110A802F0F2
:101630000AFB0122274B019402920393CDF81090EC
:101640000592069354B1B9F1000F07D001A910A873
:1016500002F01BFA04A910A802F017FA0797012755
:101660001C4C07A910A80897099402F00EFA0AA9C1
:1016700010A80A960B970C940D950E970F9402F0F4
:1016800004FA0DA910A802F000FA10A802F0E4FA7A
:10169000114B00934FF098435A6CD202FCD55B6D0E
:1016A00040F2046003F470230093009B002B08BFFA
:1016B000002019B0BDE8F083DFF81080AAE740F2FF
:1016C0000160F6E7009000401F2400801F24FC8486
:1016D0000000010620000020785634124FF480628A
:1016E00010B50446044B9A6602F0C9F82046BDE8DE
:1016F0001040002102F0C7B8009000404FF4806213
:1017000000B50B4B9BB09A660021242201A802F081
:1017100019FA402300210AAA01A800F07DFD20F05B
:1017200010000128034818BF00201BB05DF804FB1F
:10173000009000404CE317084FF4806200B50B4B5B
:101740009BB09A660021242201A802F0FBF94023F5
:1017500000210AAA01A800F05FFD20F01000012876
:10176000034818BF00201BB05DF804FB0090004048
:101770006CE317080048704786E217082DE9F34725
:101780001446DDE90A920D461F4600284DD14CB3A0
:1017900013683F2B2AD8516851B32549002F14BF35
:1017A000B846884603F03F061B19136022BF5368F2
:1017B00001335360FEB93F2C0ED9A3092A4600938A
:1017C00041463B46002000F083F824F03F031D44CF
:1017D00004F03F0434B100262246294609EB0600F6
:1017E00002F0B8F9002002B0BDE8F087B846D9E7AA
:1017F000DFF83C80D6E7C6F1400A5445ECD32946D1
:10180000524609EB060002F0A5F901232644009395
:101810004A463B4641460020A6F1400400F058F8F5
:101820003F2C5544D6D9B846C7E70248DBE700BF8E
:10183000543E000880AFFFFF2DE9F04117461468C1
:1018400086B01E46E3008DF80F3063098DF80E3028
:10185000630B8DF80D30630D8DF80C305368054621
:10186000DA0002EB54728DF80B2004F03F045A09A1
:10187000372C8DF80A204FEA53324FEA53538DF834
:101880000920884694BFC4F13802C4F17802CDE93A
:1018900000178DF808300D4903460020FFF76EFF52
:1018A00008222B460020CDE900870DEB0201FFF74F
:1018B00065FF284605F1200350F8042B984246F8AE
:1018C000042BF9D1002006B0BDE8F081143E0008D9
:1018D000F0B517464FF480621D46254B93B00E4677
:1018E0009A660446202200210AA802F02BF9012062
:1018F0004FF00052019702900392049605900692D1
:10190000079508900992002C2FD1189C194BA4011F
:1019100021460AA80A9302F096F9039B04A91C43E6
:101920000394069B0AA843F020030693099B43F007
:101930002003099302F0A9F801A90AA802F0A5F86A
:1019400007A90AA802F0ABF80AA802F085F94FF03F
:1019500098435A6CD202FCD55B6D13F4702F14BF00
:101960006FF06F00002013B0F0BD6FF07100FAE768
:1019700000900040000401032DE9F041A2B0502284
:1019800004460D460EA8002102F0DCF834220021A6
:1019900001A802F0D7F801A800F02EFA049B012B51
:1019A00011D8002320466A1E9D424FEA82024FF062
:1019B000FF0108BF1A4640F8043B02F0C3F80020BC
:1019C00022B0BDE8F081AB425DD300F01FF9059B6A
:1019D0000C220EA90646DF6802F007F80028EFD1B6
:1019E000DFF8AC800E9B434515D1109A0EA9304606
:1019F00001F0FBFF4FF0FF3210990EA8FFF7AAFD90
:101A0000224B98422ED0FF212046AA0002F09AF8DD
:101A100040F20650D4E737440C2238460EA901F0B4
:101A2000E4FF0028CCD10E9B434507D0FF21204680
:101A3000AA0002F087F840F20550C1E70EA9384627
:101A4000109A01F0D2FF059B3046D96801F0FDFFE6
:101A50000028B5D13046109A0EA901F0D6FF002813
:101A6000C3D0ADE7109E11A9103EB608AE4228BF04
:101A70002E46B7003A46204602F06CF8AA1BFF211A
:101A80009200E01999E740F2045099E7E320BBDEA9
:101A900039528FE144222DE9F043A3B00C46814630
:101AA00000210DEB020002F04DF8012350262E4AD2
:101AB0000021CDE90E2301A83422109602F042F84D
:101AC00001A800F099F9049BA34249D3012B0AD83D
:101AD000D9F8003040F204500133022B38BF002007
:101AE00023B0BDE8F08300F091F8102C28BF10243B
:101AF000059B4FEA8408DF6842464946074405468D
:101B000011A802F027F8C4F110040EAB08F10C0084
:101B10001844FF21A20002F015F84C214FF0FF32CB
:101B20000EA8FFF717FDC043059B2190D9683846E2
:101B300001F08BFF0028D3D1324638460EA901F0C0
:101B400064FF0028CCD1059B2846D96801F07DFFB1
:101B50000028C5D1324628460EA901F056FFBFE73E
:101B600040F20450BCE700BF39528FE110B5ADF52B
:101B70000E7D4FF40D72002001A901F007FF40F225
:101B80000124002101A801F0D8FEA042F9D040F2C2
:101B90000323984204D040F205400DF50E7D10BDA0
:101BA0009DF8043059070ED49DF804309A071AD4D2
:101BB000DB07F0D5002204998A9800F081F900280B
:101BC000E9D00020E9E70B9800F0D0FC0028EBD02A
:101BD0008A9800F033F90028E6D00B48FEF77CFC29
:101BE0000028E1D1D7E74FF00062926A029992682B
:101BF0009142DDD98A9800F03FF90028CBD00A99AC
:101C00000148FEF71FFCC6E7008000080048704747
:101C100000A00E0831B10A4B5A68824205D8002351
:101C2000C1E9003340F201407047013053F83020E1
:101C300003EBC0035B6800200A604B60704700BF85
:101C4000D83E000870B40C4611461A460D4B5D682C
:101C5000854210D9013003EBC0056D68A618AE426D
:101C60000DD8A5420BD3954209D353F83000204438
:101C700070BC01F0BABE40F2014070BC704740F247
:101C80000240FAE7D83E000830B5CA681B4B04464C
:101C90009A420D46A3B019D1FEF77CFCD4F8243249
:101CA000174A013352F83330D4F82C2213449842A7
:101CB00008D38033984209D241F20D03C4F8303280
:101CC00023B030BD00F5C0309842F5D88023D4F859
:101CD0002C1202AAD4F82402FFF7B4FF8023214675
:101CE000009502AA04F12C00FFF760F8D4F82C321A
:101CF000C4F830028033C4F82C32E1E7A1020008B6
:101D0000D83E000870B50D46002186B00DF10703DE
:101D100002931E4B04461646116028461C22CDE94C
:101D200003338DF80710059301F00CFF9DF8072091
:101D300052B994F87230132B06D0D4F830321BB954
:101D4000D4E98A31994219D32378990744BF61684D
:101D50003160DB0709D504F1080304F1240153F8CD
:101D6000040B8B4245F8040BF9D162B9237840F299
:101D70000640002B18BF002006B070BD204602A907
:101D8000FFF782FFD2E70020F6E700BF35390008F1
:101D900070B40C4611461A460D4B5D68854210D949
:101DA000013003EBC0056D68A618AE420DD8A54200
:101DB0000BD3954209D353F83000204470BC01F096
:101DC00024BE40F2014070BC704740F20240FAE786
:101DD000D83E0008074B5A68824207D9013003EB0E
:101DE000C002516853F8300001F02FBE40F20140AC
:101DF000704700BFD83E000870B5054688B0C0B136
:101E00004FF4403200236C46C0E900230A4B05F131
:101E100014061A785B680272C360684600F082F8A4
:101E20000FCC0FC694E80F0086E80F0005F11403ED
:101E30002B6108B070BD00BFD83E000800B5ADF5FD
:101E4000137D4FF40D7205A901F0A0FD78B90423AC
:101E50008DF81530074BCDE90100039001A905A8C5
:101E6000049301F0A7FD0DF5137D5DF804FB002040
:101E7000F9E700BFA10200084FF0006300B59B6ABC
:101E8000ADF5137D9B688B4204D300200DF5137DC7
:101E90005DF804FB4FF40D7205A901F077FD0028F1
:101EA000F3D102238DF81530044BCDE901000390E6
:101EB00001A905A8049301F07DFDE7E7A102000850
:101EC00010B5ADF5127D05AC4FF40D72214601F051
:101ED0005DFD70B901238DF81530074B0490CDE9F5
:101EE000023001A92046019401F064FD0DF5127D38
:101EF00010BD0020FAE700BF17250008B1F5C01F8C
:101F00000BD800F17843B3F5C01F06D8044B084442
:101F100098428CBF0020012070470020704700BF0E
:101F20000000180870B504460646044D0FCD0FC4D6
:101F300095E80F0084E80F00304670BDB83E0008F9
:101F40004FF48032014B00209A66704700900040A9
:101F5000024BD86900F00100704700BF0000034049
:101F60004FF48032014B00209A66704700A0004079
:101F7000430905D0012B0CD0022B084B18BF0023BE
:101F800000F01F0039B103F58053012282401A602E
:101F90007047034BF4E703F50053F6E76880004011
:101FA00064800040F0B5114A114C124E00F001055A
:101FB000E3695F0713D40DB9334213D103EA000775
:101FC0008F4207D10B4A1A40002A0CBF00206FF045
:101FD0000100F0BD013AEBD16FF00200F9E74FF0DC
:101FE000FF30F6E76FF00100F3E700BF809698003E
:101FF000000003400200010070B5134C6061E3690A
:102000005B071ED40E4656F8043B8D18A361AE4202
:102010000BD10423002121202361FFF7C3FF58B90E
:10202000BDE870402120FFF7BDBF08210846FFF73B
:10203000B9FF10B10423236170BD56F8043BA361BE
:10204000E5E74FF0FF30F7E7000003404FF4803240
:1020500038B50E4B0E4C9A66E56941F67133154062
:102060000122E3630B4B0021DA600223606121202F
:102070002361FFF797FF10B92120FFF793FF01229B
:10208000054BDA600DB10023E36338BD00900040DA
:102090000000034000100340002003402DE9F843F6
:1020A00015464FF48032184B89469A6603F51C3367
:1020B000DF690646174041F67132DA63012203F503
:1020C0008053DFF84C80DA6055B9284601220F4B67
:1020D000DA601FB10022A3F50053DA63BDE8F8838C
:1020E00006F5005404EA0804A41BAC4228BF2C46A1
:1020F000494622463046FFF77FFF0028E6D12644B6
:10210000A1442D1BE0E700BF0090004000200340E9
:1021100000E0FFFF2DE9F04F01274FF43025302676
:102120008400DFF8C0C004F1402404F58024CCF81A
:102130000470656000244FF48035DFF8ACE0DFF810
:10214000AC9006FB00E6F46534663467234CDFF898
:10215000A0A0A56641F6713504F51C34D4F81C80A6
:10216000E563E56807FA00F03D43E5604BB9E268D6
:1021700018F4803F22F00102E26029D10020BDE87E
:10218000F08F01F5005505EA09056D1A9D4228BF3B
:102190001D466161D4F81CB0AF081BF0040F19D1C3
:1021A000013F3F0147F060577766B266C6F86CA002
:1021B000CCF82400DEF834703842FBD0084F2944B4
:1021C00078630427CCF828002A4427615B1BCDE7FD
:1021D000E363D3E74FF0FF30D1E700BF009000404A
:1021E00000200440001004400000044000E0FFFF15
:1021F000180003404FF48032064B5A6603F5E6237D
:102200009B69C3F38512827003F03F021B0B42707F
:1022100003707047009000401FB5044660B35AB386
:10222000402B29D1930727D1042925D8DFE801F0D5
:10223000031A24221E004FF4807310490B432360BD
:102240000023C4E90133E3610123019202930C4BA3
:10225000204601A9039301F022FC204601F09AFCDC
:1022600004B010BD4FF400730449E7E705494FF48B
:102270008063E3E70149FAE72120F1E7010008FF65
:1022800040000020000008FF2DE9F041012905462B
:102290000E4690461F4692B04AD8046824F0400388
:1022A000802B02D0B4F5807F45D11C2200210BA8E1
:1022B00001F048FC234A244B0121012E08BF13469C
:1022C0000A932B1D0193E408204B44F00054029123
:1022D0000AA80394CDF810800591069307970891FA
:1022E00001A9099301F0D1FB04A90AA801F0CDFBD3
:1022F00007A90AA801F0D3FB29680AA8C90801F0B8
:10230000A2FC10210AA801F09EFC01F031FCA8B942
:102310000AA801F0A1FC4FF098435A6CD202FCD5F8
:102320005C6D01F02FFC04F4702012B0BDE8F08168
:102330006FF02000F9E76FF07100F6E74FF0FF3023
:10234000F3E700BF000100040001010410000020B9
:102350002DE9F04F074689469846164699B082B156
:1023600015683B6823F04002802A03D0B3F5807FD4
:1023700040F0A68000244C4505D306B1356000200E
:102380007BE01546EDE75DB1239B229A1B5D525D14
:1023900001355340249A05F00F0513550134EAE73F
:1023A000A9EB040ABAF10F0F0BD8239B03EB040A25
:1023B000249B1C44239B03EB090BDA4560D14C465C
:1023C000D9E71C22294611A801F0BCFB3E4B3A6814
:1023D00010933B1D01930123D20842F00052029357
:1023E00003923A4ACDF8108005930692CDF81C80EE
:1023F00008930992239A249922442AF00F0A0A92F8
:1024000021444AF000520B9310A80C920D9101A99F
:102410000E930F9201F039FB04A910A801F035FBCF
:102420000AA910A801F031FB0DA910A801F037FB93
:1024300007A910A801F033FB396810A8C90801F0FA
:1024400002FC514610A801F0FEFB01F091FB90B98F
:1024500010A801F001FC4FF098435A6CD202FCD551
:10246000586D544400F4702B01F08CFBBBF1000F4D
:102470009BD0584601E04FF0FF3019B0BDE8F08F17
:1024800055B1229A1AF8013B525D0135534004F8C8
:10249000013B05F00F0590E7424601213846229B9B
:1024A000FFF7F2FE0028E8D108F1100212F8013D12
:1024B0000133DBB21370002BE3D19045F6D1E0E796
:1024C0006FF01F00D9E700BF0303000410000020D5
:1024D000FEE7C0F30C032DE9F04105460F46164612
:1024E0000BB9FEF7A3F905F5005424F4FF5424F0CA
:1024F0001F0405EB0608A04507D832463946284692
:10250000BDE8F0410223FEF79FB92046FEF78EF9A1
:1025100004F50054EFE770B44FF00065AD6A034670
:102520002E69864206D86C6913449C4202D370BC63
:10253000FFF7CFBF70BC7047036913F0FE0F0CBFED
:1025400001200020704738B504460D46FDF7D6FE41
:1025500038B16369012B07D12046FFF7EDFF10B1B9
:10256000A46901202C6038BD0020FCE74FF0FF3348
:1025700013B5044601A80193FDF7E4FF20B1019BC8
:10258000A3422CBF0020012002B010BDFFF7D8BC31
:10259000FFF7E6BC03461846016881F3088881F31B
:1025A000098840688746FEE74FF40170FEF714B9CA
:1025B000B1F50D7F10B504460FD34FF40D72002115
:1025C00001F0C0FA04F5DE7204F5AA7104F12C00E2
:1025D0000023BDE81040FEF7AFBB40F2052010BD60
:1025E00013B50446009101462C30FEF7DFFBC4F81A
:1025F000300218B141F20703984204D1A37823B105
:10260000E07800F2022002B010BD40F20120FAE7AB
:102610002DE9F04387B00DF1080904460E46174630
:102620000021102248461D46DDF8388001F08AFA64
:1026300000211C22C8F80010284601F083FA324617
:102640003B462146CDF8009004F12C00FEF7AEFB8E
:1026500023789A0744BF6268C8F80020DB0709D5D1
:1026600004F1080304F1240253F8041B934245F8D3
:10267000041BF9D1237840F20640002B18BF00203C
:1026800007B0BDE8F0834FF40D707047826CF0B571
:10269000531EB3F5887F18D8D0E9093CD0E90B4721
:1026A000C91A914228BF11464569866B2FB9C76880
:1026B000A7EB040E8E4598BF07630C44521AC46200
:1026C000826419448B4201D14362F0BDB34234BFEE
:1026D000644600249A1B2A44125DEA540133F1E750
:1026E0002DE9F04F95B008910D92036B416A079365
:1026F000C36A0193079B002B40F0AA80019AC3682C
:102700009B1A089A521A9A4240F2A2800B444FF048
:10271000FF37D0E90DBA8568099307FA05F5ED434F
:102720000E954568C36BAF40FD430F95002502939E
:10273000036C04690393436C0B950493036804F6DC
:1027400068250C93119504F26465436912950C9DFC
:102750000593C5F10805836A026A13950693D0E9CB
:1027600006360E9D019FB6F1807F05EA070808EB4B
:102770000B1C3CBF13F8015B360234F81C7038BFE9
:1027800045EA0222F50A7D4395424FEA0B1E40F2CC
:10279000C380C7F5006607EB561624F81C60019F3E
:1027A000079E04F66C6C3E4312D03E460F9F3740A6
:1027B0000C9E07FA06FE00294CD1069E013E059F9D
:1027C000BE5D139F3E414FF4C067764407FB06CCC5
:1027D000019EBBF1060F06F10106019647D80126BE
:1027E000BBF1030F94BFABEB0B0BABF1030B0096EC
:1027F000009EB5F1807F38BF13F801EB4FEA460623
:1028000038BF2D023CF8067038BF4EEA02224FEA6C
:10281000D52E07FB0EFE964500960CEB06081BD93D
:10282000C7F5006507EB5515AFB27546009EA8F8D1
:102830000070FF2EDCD9059E009F77542E46013193
:10284000099D8D4240F236830D9D9D4289D831E32A
:10285000089B5CE74E1EB2E7009EA7EB57170136B8
:10286000A5EB0E05A2EB0E02BFB20096DEE7069FB7
:10287000A1EB0A06514528BF0027BE46059FBBF1C4
:102880000A0F3E4416F80E9034BF03260626ABEB23
:10289000060B01264FF4807800964FEA4909009E06
:1028A00009EA08070A9708EB06070A9EB5F1807F38
:1028B00038BF13F801EB37440CEB470638BF2D0245
:1028C0003CF8177038BF4EEA02224FEAD52E07FBBC
:1028D0000EFE1096009E96454FEA460600960ED9CB
:1028E000C7F5006507EB5515AFB20A9D28EA050844
:1028F0007546109E3780009EFF2ECED99BE7009E26
:10290000A7EB57170136DDF82880A5EB0E05A2EBE3
:102910000E02BFB20096ECE7761BA7EB5717B6F195
:10292000807F24F81C70A2EB05020BF1C0093CBFAC
:1029300013F8015B360234F8197038BF45EA0222F9
:10294000F50A7D4395424FEA490C40F20581C7F5EF
:10295000006607EB561624F81960049E129F0A962B
:10296000039E0BF10C0B0496029ECDE902A6B5F175
:10297000807F3CBF13F8016B2D02B7F800C038BF51
:1029800046EA0222EE0A0CFB06F6964240F2A381CA
:102990004FF0000ECCF500650CEB55153D8007EBB4
:1029A000081704374FF008094FF0010CB6F1807F8B
:1029B00038BF13F8018B4FEA4C0C38BF360237F89A
:1029C0000C5038BF48EA02224FEAD62805FB08F827
:1029D000904507EB0C0A40F2AE81C5F5006605EBA9
:1029E0005616B5B24646CC45AAF80050DED3AEEB3B
:1029F000090E0EEB0C05BBF10B0F009540F2B382F4
:102A0000032D94BF4FEAC51E4FF49C6E4FF0010595
:102A100098BF0EF5587EB6F1807F4FEA450538BF66
:102A200013F801CB05EB0E0838BF360234F80870F6
:102A300038BF4CEA02224FEAD62C07FB0CFC944527
:102A400040F28381C7F5006607EB5616B7B26646BB
:102A50003F2D24F80870DED9403D032D3FD905F005
:102A6000010C0D2D4FEA55074CF0020C00F283814A
:102A70004FF00108013FC5F1004E0CFA07FC0EF2C1
:102A8000AF2EE6444FEA4E050B95C24665460A97BF
:102A90000B9FB6F1807F4FEA480838BF13F8019BBF
:102AA00007EB080E38BF360234F80EC038BF49EACB
:102AB00002224FEAD6290CFB09F9914540F24E81DA
:102AC000CCF500660CEB56161FFA86FC4E460A9FA4
:102AD00024F80EC0013F4FEA4A0A0A97D8D1079F4F
:102AE00005F1010A002F40F03C82019FAF4240F205
:102AF0005782BBF1130F34BF4FF0070B4FF00A0B97
:102B0000009F099D0237B5EB010CB84600F04882E2
:102B1000BC4528BFBC46069FA1EB0A05514528BF0E
:102B200000273D44019F67440197A8EB0C070B97D2
:102B3000069F7F1BBC45059F0F4400F21C82A5EB3E
:102B40000108059D614405EB010C17F808E007F842
:102B500001EBBC45F9D173E6A7EB5717761B521B67
:102B600024F81970079D019F3D4303D1012015B042
:102B7000BDE8F08FB6F1807F38BF13F8015B0CF130
:102B8000180938BF360234F8097038BF45EA022206
:102B9000F50A7D43954250D9C7F5006607EB5616F6
:102BA000B5F1807F24F809600EF1F00E38BF13F8FC
:102BB000016BC64438BF2D0234F81E7038BF46EA98
:102BC0000222EE0A7E4396421FD9C7F5006507EB45
:102BD0005515069F24F81E50514528BF0027BC46B6
:102BE000059FA1EB0A053D4415F80C50BBF1060FFB
:102BF0007D54019D88BF4FF00B0B05F1010598BF77
:102C00004FF0090B013101951AE6AD1B921B029E94
:102C1000CDF808A0B246A7EB571724F81E70049E03
:102C2000BBF1060F0A96039E8CBF4FF00B0B4FF0C3
:102C3000080BCDE903A6119F99E6761BA7EB571762
:102C4000B6F1807F24F80970A2EB05020CF1300E7A
:102C50003CBF13F8015B360234F80E7038BF45EA0A
:102C60000222F50A7D43954206D9C7F5006607EBB7
:102C7000561624F80E60D2E7761BA7EB5717B6F16D
:102C8000807F24F80E70A2EB05020CF1480C3CBFCB
:102C900013F8015B360234F80C7038BF45EA0222A3
:102CA000F50A7D4395420AD9C7F5006607EB56162B
:102CB00024F80C60DDE9026702970396AFE7A7EB03
:102CC000571724F80C70049F521B751B029E029725
:102CD000039F0497F1E7AD1BACEB5C1CB5F1807F63
:102CE000A7F800C0A2EB06023CBF13F8016B2D024F
:102CF000B7F802C038BF46EA0222EE0A0CFB06F61D
:102D000096420BD9CCF500650CEB551507EB08186E
:102D10007D804FF0080E08F5827743E6ACEB5C1C33
:102D2000921BA7F802C04FF0100E4FF4807907F500
:102D30000177AE1B38E6A5EB5515A6EB0806A2EB0E
:102D40000802ADB20CF1010C4DE6A7EB5717A6EB4C
:102D50000C06A2EB0C02BFB2013579E6ACEB5C1CB1
:102D6000A6EB0906A2EB09021FFA8CFC08F1010888
:102D700045EA0A05ABE6053FB6F1807F3EBF13F892
:102D8000015B360245EA02227608921BD51705F14F
:102D9000010E013F05EA06050EEB4C0C2A44EBD16F
:102DA000B6F1807F3CBF13F8017B36024FEA0C1569
:102DB000B4F846C638BF47EA0222F70A0CFB07F709
:102DC000974204F2446E40F2AC80CCF500660CEB06
:102DD00056161FFA86FC0226B7F1807FA4F846C675
:102DE0003EF816A04FEA460C0EEB46093EBF13F81C
:102DF000016B3F0246EA0222FE0A0AFB06F69642F1
:102E000040F29980CAF500680AEB58181FFA88F852
:102E1000A9F80080B6F1807F3CBF13F8017B360231
:102E20003EF81CA038BF47EA0222F70A0AFB07F760
:102E300097424FEA4C080EEB4C0940F28780CAF5E6
:102E4000006C0AEB5C1C1FFA8CFCB7F1807FA9F8C0
:102E500000C038BF13F8016B3EF818903CBF3F022A
:102E600046EA0222FE0A09FB06F696424FEA480CA1
:102E700087BFC9F5006809EB5818A9EB591845F048
:102E800008058FBF1FFA88F8921B1FFA88F8BE1B2F
:102E90006F1C2EF80C807FF422AE009CABF10C0B63
:102EA00004F589740B94DDE902A40294049C039454
:102EB0000A9C0494B6F1807F3CBF13F8014B3602A4
:102EC000C0E906360B9B38BF44EA02228364019BAB
:102ED0000262C362029B4162C363039BC0F838A0D5
:102EE0000364049BC0F834B04364036B23B9C36824
:102EF000019A934298BF03630899FFF7C7FB436A9F
:102F0000089A9342836C07D282690D998A4203D250
:102F1000B3F5897FFFF4E9ABB3F5897F3CD8002096
:102F200025E6ACEB5C1CD21B1FFA8CFCF71B45F0B2
:102F30000105032650E7AAEB5A18921B1FFA88F8DE
:102F40000CF1010C45F00205BE1B61E7AAEB5A1C0F
:102F5000D21B1FFA8CFC08F1010845F00405F71B91
:102F600073E7079FC2E5DDE902A50295049D03957D
:102F70000A9D0495C4E5B9460CEB070E059F17F8AA
:102F80000580069F09F8018B0135AF4208BF002577
:102F9000CE45F3D1614453E44FF489738364BEE7B3
:102FA0004162E3E52DE9F047D0E907530127846842
:102FB000D0F82C80A740D0F834C0013F066907EA5A
:102FC000080707EB0C1EB5F1807F36F81E900A4407
:102FD00007D2914280F0DC8111F8014B2D0244EAC6
:102FE0000323EC0A09FB04F4A34278D2056B06F62E
:102FF0006C6658EA050519D0D0E900E70125BD4007
:10300000013D05EA080505FA0EF7456AD0F8148077
:1030100005B9856A013D18F80550CEF1080E45FA4C
:103020000EF53D444FF4C06707FB0566BCF1060F83
:1030300020D801204000B4F1807F375A07D2914256
:1030400080F0A68111F8015B240245EA0323E50A1A
:103050007D43AB4229BF01302C46641B5B1BFF281C
:10306000E8D90120B4F1807F80F02281914228BF0D
:1030700000201DE1876BD0F824C04569BC45ACEB4E
:10308000070E2CBF0027876A05EB0E0010F807C05B
:1030900001204FF480774FEA4C0C07EA0C0E3D18E4
:1030A0007544B4F1807F36F8158007D2914280F0E4
:1030B0006F8111F8015B240245EA0323E50A08FB4E
:1030C00005F54000AB422BBF01302C46774627EA7E
:1030D0000E0724BF641B5B1BFF28DCD9C1E7281B3C
:1030E0000CF1C00CB0F1807FA3EB04034FEA4C0459
:1030F00036F81CC007D2914280F04A8111F8015B7A
:10310000000245EA0323C50A0CFB05F5AB4280F03B
:10311000A08002204FF0000E06F2646CB5F1807FB3
:10312000BCF8008007D2914280F0328111F8014B47
:103130002D0244EA0323EC0A08FB04F4A34280F0C6
:10314000EB800CEB071C00270CF1040C4FF0080976
:103150004FF001084FEA4808B4F1807F3CF808A01E
:1031600007D2914280F0148111F8015B240245EAF4
:103170000323E50A0AFB05F5AB4229BF08F1010864
:103180002C46641B5B1BC845E4D3BEF1030F3FF61E
:1031900069AFA7EB09074744032F88BF4FF49C672B
:1031A0004FF001059CBFFF0107F558776D0006EB56
:1031B000050CB4F1807F3CF807E007D2914280F023
:1031C000E78011F801CB24024CEA03234FEAD42C08
:1031D0000EFB0CFC634529BF01356446A4EB0C04CF
:1031E000A3EB0C033F2DE1D9403D032D7FF63AAF11
:1031F0000D2D4FEA550700F2B18005F0010C013F9B
:103200004CF0020CC5F100450CFA07FC05F2AF25A5
:10321000654406EB45064FF0010C4FEA4C0CB4F147
:10322000807F36F80CE007D2914280F0B18011F82F
:10323000015B240245EA0323E50A0EFB05F5AB42D8
:1032400031BF2C46641B5B1B0CF1010C013FE4D128
:1032500008E7401B3444B0F1807FB4F818C0A3EBFA
:10326000050307D2914280F0938011F8015B0002C0
:1032700045EA0323C50A0CFB05F5AB4222D20EF149
:10328000F00EB5F1807F36F81E4006D291427FD213
:1032900011F8010B2D0240EA0323E80A6043834240
:1032A00008D2B0F1807F71D2914234BF0320002058
:1032B000BDE8F0872D1A1B1A03204FF00C0E06F6FE
:1032C000682C2BE7401BB0F1807FB4F830C0A3EB33
:1032D000050306D291425BD211F8015B000245EA78
:1032E0000323C50A0CFB05F5AB42E5D3401BB0F147
:1032F000807FB4F84840A3EB050306D2914247D241
:1033000011F8015B000245EA0323C50A6543AB429D
:1033100024BF5B1B451BCFE72D1BB5F1807FBCF89D
:103320000280A3EB040306D2914231D211F8014B83
:103330002D0244EA0323EC0A08FB04F4A34205D25D
:103340000CEB071707F5827C0827FFE61B1B1027ED
:103350004FF480790CF5017C2C1BF9E6053FB4F1A4
:10336000807F06D2914213D211F8015B240245EA14
:10337000032364081D1BED0F013D2540013FA3EB16
:103380000503ECD1042706F2446644E703208FE7E7
:1033900000208DE700230122C0E90B33C0E912327F
:1033A00043628365026570472DE9F74F9846002711
:1033B00004469DF83030D8F80060C8F800700093DB
:1033C0008B461546FFF762F90D9B1F70A36CB3F592
:1033D000897F09D1236A13B901230D9A1370206ADA
:1033E000003818BF01201EE0E36C8BB1A36D5EB303
:1033F000042B1BD994F85C30002B40F0D780D4F814
:103400005D20E36412BA22624FF0FF32A365E261ED
:10341000636A5B4555D3A36CD3B9236AF3B904231C
:1034200000200D9A137003B0BDE8F08F5A1CA265FE
:1034300015F8012B234483F85C20D8F80030013EB6
:103440000133C8F80030D1E7042BD3D80323E7E7D2
:10345000009B002B40F0A7800223E1E7009B002B9C
:10346000FAD00123226D9AB1D4E9002111444FF41E
:1034700040728A400021206902F236728A4222D8C4
:103480000122C4E91022C4E90E22002262632265EF
:10349000A76D002F68D1132E1BD943B3324629469E
:1034A0002046FFF77FFDF0B93246294604F15C0063
:1034B00000F050FBA665D8F800303344C8F800305F
:1034C000C4E70023CEE74FF4806720F81170013184
:1034D000D4E73246294620460193FFF763FD019B5E
:1034E0000028E1D00BB102285DD12A4602E0A6F106
:1034F00014022A4459462046A561FFF7F1F8002836
:1035000054D1A369D8F800205D1B2A44C8F80020D4
:10351000761B1D465AE715F809100137D15509F1F8
:103520000109132F25D9A76504F15C0A93BB524604
:1035300059462046C4F818A0FFF7D2F8B0BBA369DB
:10354000A3EB0A039F4236D3FA1A914533D3D8F836
:10355000001009EB0302D31B19443744C8F80010CC
:103560002B44BE1AA065D4E74FF0000904F15B02BA
:10357000D7E7B145CFD104F15C0A3A46514620461F
:10358000A7650193FFF70EFD019B88B9D8F80030BD
:103590004B4493E73A4651462046FFF703FD002887
:1035A000F4D00228C3D002230D9A137001203AE709
:1035B000002BBCD0F5E70B2035E72DE9F04F89B0A3
:1035C000DDF848809A469DF84C3004460493D8F8BC
:1035D00000308B4602930023164617681360C8F824
:1035E0000030029B149A0793D4E909318B4204BF3F
:1035F00000236362656A20464B1BBB4232BF002337
:10360000049B7919CDE90032524607ABFFF7CCFE97
:10361000079A029B61699B1A0293D8F800300390C5
:103620001344C8F80030636A5846A3EB05092944DF
:1036300092444A46059300F08DFA059BCB44ED1A5F
:1036400033682F444B443360039B23B9B9F1000F17
:1036500001D0002FC5D1039809B0BDE8F08F10B597
:1036600004464B680846216998470023236110BD32
:1036700070B54FF440751646D1E9003213449D40B1
:103680000369044605F2367513B1436DAB420ED0A3
:1036900031462046FFF7E3FF30463368690098471C
:1036A0002061B0FA80F040096565400070BD0020DF
:1036B000FCE738B504460D46FFF7D1FF6B68284696
:1036C000616998470023636138BD042A01D804204A
:1036D0007047D1F80130B3F5805F38BF4FF48053A5
:1036E000C3600A78E02AF2D80923B2FBF3F303EBB4
:1036F000C301521AD2B202600522B3FBF2F2826019
:1037000002EB82029B1ADBB243600020704770B567
:10371000D1E90152AA4205D290F840302B449B1ABD
:10372000402B10D9002012E00A6890F84040D65C87
:1037300090F841200133224402F03F0201348654C4
:103740008B6080F840408B689D42EDD8012070BDB1
:103750002DE9F84390F840C017469E46D1E9012371
:10376000089DD21A6244954204460E469DF8249064
:103770009DF828800AD9FFF7CAFF002867D11423D3
:1037800041F2020084F84630BDE8F883754555D80B
:10379000002394F840200AB19D4235D1D6E9012199
:1037A000914201D29D4241D89D424DD12946384691
:1037B000D4F88820FDF7CEFEC4F88800B9F1000FD8
:1037C00004D02A463946E06C00F054F894F84330AF
:1037D000B8F1000F06D08BB12B463A463946A06CA3
:1037E00000F037F894F8433043B1E36DA26D2B44F9
:1037F0009342E36524BF002384F84330636D41F2B4
:1038000003002B446365BFE794F84120A25CFA549F
:1038100094F841200133013202F03F0284F8412044
:1038200094F84020013A84F84020B2E73268525CB4
:10383000FA54B26801330132B260AFE741F20100DD
:10384000142384F846309FE741F20200F8E7002095
:103850009AE71FB50C46194600F14803CDE901422D
:10386000009300F1440200F158032030FEF770FD90
:1038700004B010BD00F00CB8014600F016B8682284
:10388000002100F05FB903460020C3E90000704743
:1038900007B500F128030190009300F10803002010
:1038A000FDF76CFF03B05DF804FB02460B4600F128
:1038B00028010830FDF7C0BF3C2230B59FB0002181
:1038C00005460DEB020000F03DF94FF0FF333422C6
:1038D000002101A80E9300F035F901A8FEF78CFA3B
:1038E000049C012C1ED921460EA8FEF745F818B1FC
:1038F00040F2055398420ED100230EAA52F8041B41
:10390000481C0AD11EAA02EB830321460EA843F8E5
:10391000405CFEF7BFF81FB030BDA94205D00133AF
:103920009C42EBD140F20250F5E740F20350F2E73F
:10393000FEF71CB901221A7070471FB50023CDE9AC
:103940000033CDE90213D0F83032044693B9D0E900
:103950008A329A420ED26946FEF796F9D4F83002BE
:1039600070B141F2070240F20123904208BF1846AD
:1039700004B010BDA37833B1E07800F20220F7E77D
:1039800040F20120F4E740F20220F1E737B50C469F
:10399000054611462046FEF70BFE48B96946284603
:1039A000FEF738F920B9019BC4F82452C4F8283234
:1039B00003B030BD38B500F5DE7204460D46202355
:1039C00000F5AA712C30FDF7B7F9D4F830321BB9E5
:1039D000D4E98A329A4203D3A07800B1E07838BDA6
:1039E00029462046FEF750F9EFE738B50C46114658
:1039F0000546FEF783FA28B12946204600F0AAF8CA
:103A0000002038BD40F20240FBE738B50D461146B4
:103A10000446FEF773FA80B940F2024038BDE1581F
:103A200001310CD104339A42F9D829462046FCF7DB
:103A300033FF0028F0D00020F0E70023F3E740F246
:103A40000340EBE74FF0FF30704738B541EA000321
:103A5000C3F30C0304460D46A3B9FEF74FFA10B9A1
:103A600040F2024038BD2544204604F50054FCF7DE
:103A7000DDFEA54202D00028F6D1F1E70028EFD004
:103A80000020EFE740F20440ECE7436813B94160DF
:103A900070475B685A68012AFBD159607047836898
:103AA00013B9816070475B685A68012AFBD159607D
:103AB00070472422002100F045B870B515460E4627
:103AC00024220021044600F03DF825F04003802B1D
:103AD00002D0B5F5807F08D12046314640F8045B1E
:103AE000EA0800F037F8002070BD6FF01F00FBE718
:103AF0000139024410B5904201D1002005E003785D
:103B000011F8014FA34201D0181B10BD0130F2E79C
:103B1000884210B501EB020402D98442234607D83B
:103B2000431EA14208D011F8012B03F8012FF8E73A
:103B3000024401468A4200D110BD13F8014D02F83B
:103B4000014DF7E702440346934200D1704703F862
:103B5000011BF9E70A44431E914200D1704710B59A
:103B600011F8014B914203F8014FF9D110BD00004B
:103B70004FF48062024B9A66BFF34F8F002070476C
:103B8000009000404FF48062014B00209A6670471D
:103B900000A0004008B5C0B14FF480620C4B9A669B
:103BA000BFF34F8F00F058F84FF098435A6CD20291
:103BB000FCD54FF48062586D064B10F470209A6665
:103BC00004D0BDE8084000F010B8212008BD00BFB7
:103BD0000090004000A000404FF098435A6CD20281
:103BE000FCD5586D00F470207047B0F5802F22D0BE
:103BF00010D8B0F5003F20D007D818B3B0F5803FFB
:103C000008BF482018BF01207047B0F5403F08BFEB
:103C10002C20F7E7B0F5302F11D007D8B0F5E02F02
:103C20000FD0B0F5202F08BF1020EBE7B0F57F0FC5
:103C300008BF0620E6E74B2070472A207047112076
:103C4000704721207047C369032B9FBF00EB83029D
:103C50000133D160C3617047C369042B14D84FF09E
:103C60009842116CC902FCD504339B0013650168AE
:103C7000103B11604168116050F8081F11604FF04F
:103C800098420344984200D1704750F8041F1160D5
:103C9000F8E7000000000000000000000000000045
:103CA000F8B500BFF8BC08BC9E467047F8B500BF29
:103CB000F8BC08BC9E467047B814B6F1E0CFF3AD2F
:103CC000B7DD25C9FA79B7130000000013B779FAF8
:103CD000C925DDB7ADF3CFE0F1B614B8010200009D
:103CE00000000000043F000040000000020000034C
:103CF00000000000000000000000000000000000C4
:103D000000000000000000000000000000000000B3
:103D100000000000000000000000000007B0CD5EC1
:103D20000200000002000003083F000000600008DD
:103D300000001808F00401008D25000891250008F6
:103D400049030008B1250008E1250008743E000879
:103D50001126000887260008000000009D050008C5
:103D600095050008FD0707FDF1090008210A000874
:103D7000E10A0008C50A0008EB17A60302010000CB
:103D800003000000FA0606FA0F040000030000001A
:103D9000F40A0AF40505000001000000EB17A65E16
:103DA0000A06000001000000F50909F503070000FC
:103DB00001000000F60808F60608000000000000F8
:103DC000FE0101FE0808000000000000FD0303FDE5
:103DD0000C08000000000000FD0707FD13080000AC
:103DE00000000000F90707F91009000002000000B8
:103DF000F30B0BF3110A000003000000F70A0AF7A7
:103E0000120B000003000000FC0404FC0D0C000079
:103E1000030000008000000000000000000000001F
:103E20000000000000000000000000000000000092
:103E30000000000000000000000000000000000082
:103E40000000000000000000000000000000000072
:103E5000000000006A09E667BB67AE853C6EF3723E
:103E6000A54FF53A510E527F9B05688C1F83D9AB45
:103E70005BE0CD1900010000F91D0008151C0008C9
:103E8000451C0008911D0008D51D0008951A000862
:103E900079190008B93800088D3900083B39000845
:103EA000051D0008511F0008EB3900080B3A0008F7
:103EB0004B3A0008453A00081002030028000000B1
:103EC0002800000000200000000018000000000092
:103ED000040000000000004001000000010000009C
:083EE00000A00E08008008009C
:0C3EE800F43E0008A85D0020040000006B
:103EF400C5080008FD08000815020008ED010008C7
:04000005080001717D
:00000001FF
