:020000040800F2
:2060000008100020050805087DC20408F1C2040815080508F5C20408F9C204081508050846
:2060200015080508150805081508050815080508FDC20408E8660008150805081508050843
:2060400021AD04081508050815080508150805081508050815080508150805081508050840
:20606000150805082DEC040823EC040815080508150805088BEA040881EA04081508050840
:20608000150805081508050815080508150805081508050849B204081508050815080508D3
:2060A00015080508E95B0408D15B0408150805081508050897040408510C0408230C04088F
:2060C000210C04089D0504084F0C0408250C0408290C0408270C0408C90C04088D0C04082F
:2060E0001508050815080508ED06050815080508FBED0408150805081508050815080508B0
:2061000015080508150805081508050815080508150805081508050815080508150805082F
:2061200015080508150805081508050815080508150805081508050815080508150805080F
:20614000150805081508050815080508B32605088912040815080508F9210508FD210508B8
:2061600015080508150805081508050815080508000000000000F03F0000000000002440E4
:2061800000000000000059400000000000408F40000000000088C34000000000006AF8402A
:2061A0000000000080842E4100000000D01263410000000084D797410000000065CDCD4173
:2061C0005072652D52656C6561736500416C706861203100416C706861203200416C7068B6
:2061E0006120330042657461203100004265746120320000426574612033000047410000F9
:2062000025737478203078253038582C200000004552524F523A2000534C5F53544154558E
:20622000535F4E4554574F524B5F5550203078253034580054727573742043656E74657232
:2062400020455549206861732025736368616E6765642E006E6F742000000000534C5F536D
:2062600054415455535F4E4554574F524B5F444F574E0000534C5F5354415455535F4E4F8F
:20628000545F4A4F494E454400000000534C5F5354415455535F5A49474245455F4E455455
:2062A000574F524B5F4F50454E45443A2025642073656300534C5F5354415455535F5A495F
:2062C000474245455F4E4554574F524B5F434C4F5345440025733A202573000053756363F1
:2062E0006573730025733A2025733A2030782530325800004572726F720000004C696D6953
:2063000074696E67206475726174696F6E206F66207065726D6974206A6F696E2066726F68
:206320006D20666F726576657220283235352920746F2032353400002573696E67206F6E39
:206340002063682025642C2070616E496420307825303458000000004A6F696E0000000038
:20636000496E76616C69642053656375726974792050726F66696C653A203078253032580C
:2063800000000000704A6F696E20666F72202564207365633A2030782530325800000000B1
:2063A00052583A205A444F2C20636F6D6D616E64203078253034582C207374617475733AEE
:2063C000203078253032580052583A202573204465736320526573700000000053696D7088
:2063E0006C6500004D617463680000002C204D6174636865733A2025640000004465766963
:20640000636520416E6E6F756E63653A203078253034580052583A20494545452041646435
:206420007265737320526573706F6E736500000052583A2041637469766520455020526544
:2064400073706F6E73652C20436F756E743A2025640000004E6F6465000000002C204D61EC
:2064600074636865733A20307825303458000000737461636B207665722E205B25642E251A
:20648000642E256400000000202573206275696C642025645D0000000000010050726F665B
:2064A000696C653A2025732028307825303458292C20436C75737465723A203078253034FD
:2064C000582C2025642062797465732C00000000205A434C20257320436D642049443A2020
:2064E00025640000436C757374657200476C6F62616C000000000000C061000811000000A6
:20650000CC61000812000000D461000813000000DC61000821000000E4610008220000000F
:20652000EC61000823000000F4610008AA000000FC610008FF00000000000000657A7370B6
:2065400020636F756E74657273206661696C656420257500657A7370205265736574205410
:2065600068726573686F6C64206572726F72202575000000657A7370205365742054687262
:206580006573686F6C64206572726F7220257500526573657420696E666F3A203078253052
:2065A000325820282573290064656C6574652062696E64696E673A202530325820253032FA
:2065C0005800000075736520707265636F6E66696775726564206B657900000073656E6476
:2065E000206B657920696E2074686520636C65617200000064656E79206A6F696E00000033
:206600006E6F20616374696F6E000000616C6C6F772072656A6F696E73206F6E6C790000E4
:20662000736563757265642072656A6F696E0000554E73656375726564206A6F696E00006A
:20664000646576696365206C65667400554E736563757265642072656A6F696E00000000CA
:20666000080A0E1254727573742043656E746572204A6F696E2048616E646C65723A2073EA
:206680007461747573203D2025732C206465636973696F6E203D20257320282530325829B5
:2066A0002C2073686F7274696420307825303458000000004C443234313020496E697400DD
:2066C0004E574B3A4A4F494E2C5354532025303258000000434C533A4F43433D25732C53F6
:2066E000545320257300000013B779FAC925DDB7ADF3CFE0F1B614B80102000000000000B7
:20670000FFFFFFFF010000000100000000000000000000000000000000000000000000007B
:20672000000000000000000000000000000000000000000000000000080109020A030B0429
:206740000C050D060E070F081001180119021A031B041C051D061E071F082001210222036F
:2067600023042405250626072708280129022A032B042C052D062E072F0830013102320329
:20678000380239043A08E004E104E204E802E902EA04F008F11000000950726F64657369F6
:2067A000766500000000000000000000000000000000000000000000000C5044545F4D5707
:2067C0004156455F303100000000000000000000000000000000000000000832303235301C
:2067E0003132330000000000000000FFFFFFFFFFFFFFFFFFFFFFFF0000800000000000008F
:206800000300000903000006030001090300400904000001040000040400010104000104EE
:206820000400020104000204040003010400030404000401040005011900000419000101E9
:2068400019000204190003011900050419000601190007040000200120000000080000004D
:2068600001002001200000000000000002002001200000000000000003002001200000004F
:20688000000000000400422120000000986700080500422120000000B96700080600421161
:2068A00020000000DA6700080700300120000000010000000800300120000000FF000000BE
:2068C0000900300120000000FF0000000A00411120000000000000000B0042412000000035
:2068E00000000000004042112000000000000000FDFF21022000000003000000FDFF210284
:206900004000000002000000000021020100000000000000FDFF21020000000002000000F0
:20692000FDFF210240000000030000000000F00840000000EB6700080100230440000000FB
:20694000F3670008060030014000000000000000FDFF2102400000000400000000001801E2
:206960000000000000000000010030010000000000000000020018010000000000000000CA
:20698000FDFF2102000000000200000000000000546800080E0000004000000000000000C4
:2069A00003000000FC68000801000200800000000000000003000000086900080200040063
:2069C000400000000000000004000000206900080100020080000000000000001900000046
:2069E0002C69000804000F008000000000000000060400005C690008040005004000000047
:206A0000000000008C69000806001C0000000000000000002825732900000000454E445047
:206A20004F494E542025303258000000636C7573202F2073696465202F2061747472202FD9
:206A4000206D666720202F74797065286C656E292F207277202F2073746F72616765202F30
:206A600020646174612028726177290025303458202F202573202F2025303458202F2000FA
:206A8000636C6E740000000073727672000000002D2D2D2D000000002530345800000000E3
:206AA000202F202530325820282530325829202F202573202F202573202F200020746F6B4D
:206AC000656E200065787465726E2000202052414D202000556E737570706F727465640004
:206AE0004F544120524541443A2065703A25303258206369643A253034582061747469648D
:206B00003A25303458206D736B3A25303258206D66636F64653A2530345800005245414411
:206B20003A20636C757320253034582C20617474722025303458206661696C656420253041
:206B400032580000524541443A20636C757320253034582C206174747220253034582C2029
:206B6000646174614C656E3A20253032582C204F4B00000025736570202530325820636CE2
:206B80007573202530345820617474722025303458206E6F7420737570706F7274656400B9
:206BA0005752495445204552523A20002573696E76616C69642064617461207479706500CC
:206BC000257361747472206E6F74207772697461626C650057524954453A206E6F207772AC
:206BE0006974652C206A7573742061207465737400000000524541443A20617474726962E4
:206C00007574652073697A6520746F6F206C6172676520666F722063616C6C6572000000B4
:206C2000453A5C53696D706C696369747953747564696F5F563831305C53444B735C706CA3
:206C40006174666F726D5C736572766963655C6C65676163795F68616C5C7372635C626136
:206C600073652D7265706C6163656D656E742E6300000000010000000000000000000000ED
:206C80000100000000000000000000000000000043757272656E7420436F6E6669673A2040
:206CA0002530780053657420434341206D6F646520746F2025643A20253078004D46472062
:206CC000537472696E673A20257300004275666665722062797465733A202564202F202533
:206CE000640000004170704275696C646572204D464720436F64653A2030782530345800D0
:206D00006E6F6465205B00005D206368616E205B25645D20707772205B25645D0000000000
:206D20004164646974696F6E616C20696E7465726661636573000000202025643A200000F3
:206D400070616765205B25645D206368616E205B25645D20707772205B25645D0000000040
:206D60006E6F742061637469766500006572726F72203078253038580000000070616E49C7
:206D800044205B3078253034585D206E6F64654944205B3078253034585D20007870616EC3
:206DA000205B307800000000706172656E744944205B3078253034585D20706172656E748E
:206DC00052737369205B25645D0000006E6F646554797065205B0000307825303258000067
:206DE000756E6B6E6F776E005365637572697479206C6576656C205B253032585D0000003C
:206E00006E6574776F726B207374617465205B253032585D20000000457020636E743A20DC
:206E2000256400006570202564205B656E64706F696E742025732C206465766963652025B6
:206E4000735D2000656E61626C65640064697361626C6564000000006E776B205B25645D8E
:206E60002070726F66696C65205B3078253034585D206465764964205B3078253034585D33
:206E800020766572205B3078253032585D00000020202020257320636C75737465723A2092
:206EA00030782530345820006F757428636C69656E742900696E2028736572766572290022
:206EC0005072696D617279202870726F290000004E776B20636E743A202564006E776B2024
:206EE0002564205B25735D0020206E6F646554797065205B3078253032585D00202073659A
:206F000063757269747950726F66696C65205B3078253032585D000045502025643A2025E4
:206F200073200000456E61626C65640044697361626C6564000000004572726F723A202077
:206F4000556E6B6E6F776E20656E64706F696E742E000000456E61626C65206576656E7409
:206F600020646562756720696E666F20696E20436F726520434C4920636F6D706F6E656E07
:206F800074000000C06E00084D6163205278204263617374000000004D61632054782042E0
:206FA00063617374000000004D6163205278205563617374000000004D6163205478205599
:206FC00063617374000000004D616320547820556361737420526574727900004D61632082
:206FE0005478205563617374204661696C000000415053205278204263617374000000002E
:207000004150532054782042636173740000000041505320527820556361737400000000A5
:20702000415053205478205563617374205375636365737300000000415053205478205522
:20704000636173742052657472790000415053205478205563617374204661696C000000C3
:20706000526F757465204469736320496E69746961746564000000004E65696768626F7275
:2070800020416464656400004E65696768626F722052656D6F766564000000004E6569675B
:2070A00068626F72205374616C6500004A6F696E20496E6469636174696F6E004368696CDA
:2070C00064204D6F76656400415348204F766572666C6F7700000000415348204672616D5F
:2070E00065204572726F7200415348204F76657272756E204572726F720000004E574B20DA
:207100004643204661696C7572650000415053204643204661696C7572650000415348208D
:20712000584F66660000000041505320556E617574686F72697A6564204B6579000000008D
:207140004E574B2044656372797074204661696C7572657300000000415053204465637267
:20716000797074204661696C75726573000000005061636B65742042756666657220416CB8
:207180006C6F63617465204661696C757265730052656C6179656420556361737400000036
:2071A00050687920746F204D4143207175657565206C696D6974207265616368656400003A
:2071C0005061636B65742056616C69646174652064726F7020636F756E7400004E574B20DF
:2071E0007265747279206F766572666C6F770000434341204661696C7572657300000000A3
:2072000042726F616463617374207461626C652066756C6C00000000505441204C6F2050B0
:20722000726920526571000050544120486920507269205265710000505441204C6F2050B2
:2072400072692044656E696564000000505441204869205072692044656E69656400000080
:20726000505441204C6F2050726920547820416272740000505441204869205072692054F9
:2072800078204162727400004164647265737320436F6E666C6963742053656E74000000FB
:2072A00043534C205278207363686564756C65206661696C656400003F3F3F002575292070
:2072C00025733A202575000053657474696E67205468726573686F6C6420636F6D6D616EDC
:2072E000640000004941434356494F4C3A20617474656D7074656420696E73747275637422
:20730000696F6E2066657463682066726F6D2061206E6F2D657865637574652061646472D0
:20732000657373004441434356494F4C3A20617474656D70746564206C6F6164206F7220BA
:2073400073746F726520617420616E20696C6C6567616C2061646472657373004D554E53D9
:20736000544B4552523A20756E737461636B2066726F6D20657863657074696F6E20726578
:207380007475726E20636175736564206163636573732076696F6C6174696F6E0000000008
:2073A0004D53544B4552523A20737461636B696E672066726F6D20657863657074696F6E34
:2073C00020636175736564206163636573732076696F6C6174696F6E000000004D4D415264
:2073E00056414C49443A204D4D415220636F6E7461696E732076616C6964206661756C74AB
:20740000206164647265737300000000494255534552523A20696E737472756374696F6E2E
:207420002070726566657463682063617573656420627573206661756C7400005052454376
:2074400049534552523A2070726563697365206461746120627573206661756C7400000002
:20746000494D5052454349534552523A20696D707265636973652064617461206275732068
:207480006661756C74000000554E53544B4552523A20756E737461636B696E67206F6E20A4
:2074A000657863657074696F6E2072657475726E2063617573656420646174612062757384
:2074C000206661756C74000053544B4552523A20737461636B696E67206F6E206578636525
:2074E0007074696F6E20656E74727920636175736564206461746120627573206661756C8F
:20750000740000004246415256414C49443A204246415220636F6E7461696E732076616C15
:207520006964206661756C74206164647265737300000000554E444546494E5354523A20E0
:20754000747269656420746F206578656375746520616E20756E646566696E656420696E45
:20756000737472756374696F6E000000494E5653544154453A20696E76616C6964204550BC
:207580005352202D20652E672E2C20747269656420746F2073776974636820746F204152E2
:2075A0004D206D6F64650000494E5650433A20657863657074696F6E2072657475726E2030
:2075C000696E7465677269747920636865636B73206661696C6564004E4F43503A20617457
:2075E00074656D7074656420746F2065786563757465206120636F70726F636573736F722F
:2076000020696E737472756374696F6E00000000554E414C49474E45443A20617474656D7C
:207620007074656420616E20756E616C69676E6564206D656D6F727920616363657373008C
:2076400044495642595A45524F3A20617474656D7074656420746F20657865637574652014
:2076600053444956206F72205544495620776974682064697669736F72206F66203000003A
:207680002573203D2025346C7800000052657365742063617573653A205761746368646F40
:2076A0006720657870697265642C206E6F2072656C6961626C6520657874726120696E6628
:2076C0006F726D6174696F6E0A00000052657365742063617573653A205761746368646FDF
:2076E0006720636175676874207769746820656E68616E63656420696E666F0A000000007F
:20770000496E737472756374696F6E20616464726573733A2025346C780A00005265736591
:20772000742063617573653A204173736572742025733A256C640A00526573657420636100
:207740007573653A2048617264204661756C740A00000000484653522E5645435454424C68
:207760003A206572726F722072656164696E6720766563746F72207461626C6520666F7249
:2077800020616E20657863657074696F6E0A0000484653522E464F524345443A20636F6E53
:2077A000666967757261626C65206661756C7420636F756C64206E6F74206163746976619C
:2077C00074650A00484653522E44454255474556543A206661756C742072656C6174656498
:2077E00020746F206465627567202D20652E672E2C20657865637574656420424B50540ACC
:207800000000000052657365742063617573653A204D656D6F7279204D616E6167656D6526
:207820006E74204661756C740A000000496C6C6567616C20616363657373206164647265D4
:2078400073733A2025346C780A000000434653522E25730A000000005265736574206361BC
:207860007573653A20427573204661756C740A0041646472657373206973206F6620616E6B
:2078800020696E737472756374696F6E20616674657220627573206661756C74206F6363D9
:2078A00075727265642C206E6F74207468652063617573652E0A0000434653522E286E6FDE
:2078C0006E6529206C6F6164206F722073746F726520617420616E20696C6C6567616C20A0
:2078E000616464726573730A0000000052657365742063617573653A2055736167652046AF
:2079000061756C740A00000052657365742063617573653A204465627567204D6F6E69740B
:207920006F72204661756C740A00000070726F63657373006D61696E000000005468726509
:207940006164000048616E646C6572002573206D6F6465207573696E6720257320737461E1
:20796000636B202825346C7820746F2025346C78292C205350203D2025346C780A00000078
:20798000257520627974657320757365642028257525252920696E20257320737461636BFB
:2079A00020286F7574206F6620257520627974657320746F74616C290A000000535020698E
:2079C00073206F75747369646520257320737461636B2072616E6765210A0000496E746541
:2079E0007272757074732061637469766520286F72207072652D656D7074656420616E64AC
:207A000020737461636B6564293A0A004E6F20696E74657272757074732061637469766521
:207A20000A0000000D0A5B4153534552543A25733A25645D0D0A0000E472000824730008F2
:207A40001B2705085C730008A07300081B2705081B270508DC7300080C7400083C740008B0
:207A60006074000888740008C87400081B2705081B27050804750008347500086C75000829
:207A8000A8750008D87500081B2705081B2705081B2705081B2705081076000840760008E4
:207AA000523000523100523200523300523400523500523600523700523800523900523102
:207AC00030005231310052313200523133284C5229004D53500050535000504300785053D7
:207AE00052004D535020757365640050535020757365640043535441434B20626F74746FAE
:207B00006D004943535200534843535200494E545F4143544956453000494E545F414354EC
:207B200049564531004346535200484653520044465352004D4D41522F42464152004146A2
:207B400053520052657430005265743100526574320052657433005265743400526574354F
:207B60000044617430004461743100000104010303060105010501090600060B0000070B21
:207B8000050B00000000000000000000554E4B004649420042544C0045585400505752004A
:207BA0005744470020535700435253004653480042414400464C540042524F00554E4B00D2
:207BC000474F200042544C00474F3200474F3300474F3400474F3500474F3600474F37004E
:207BE000474F3800474F3900474F4100474F4200474F4300474F4400474F4500474F4600CF
:207C00004A4D5000424452005550520042544D004D534D0046544C00554E4B00474F200054
:207C200042544C004241440046544C00465243004F54410044534C00424150005550470054
:207C4000544D450046415500545A4600554E4B0050494E00454D3400554E4B004856200027
:207C6000554E4B00455850004C574D00554E4B005242540044534C00454D3400554E4B00CC
:207C800041535400554E4B0056465900494E4800554E4B004C434B0058544C004F424600A3
:207CA000554E4B00485244004D454D00425553005553470044424700444D410056435400B4
:207CC000554E4B00555020005250200041503000415031004150200044502000444543007B
:207CE000BC7B0008C07B0008187C00084C7C0008587C0008607C00086C7C00087C7C0008E6
:207D0000847C0008907C0008A07C0008C07C0008000010300000000000000000000000009F
:207D2000000010030000000000000000000000001E0000030400E40C0A0000004C4432341B
:207D4000313020496E69740D0A0000004261642053746172742F456E640D0A00456E6769E2
:207D60006E656572696E67204D6F64650D0A00005447543D4E4F540D0A0000005354412023
:207D80002533642C2000000045475920253032582C2000004D4F56202533642C2000000091
:207DA0004453542025336428636D290D0A0000005A69676265652050726F000042696E64A0
:207DC000696E6700536563757269747920436F72650000005365637572697479204C696EC9
:207DE0006B204B657973000043424B45203136334B31000043424B452044534120536967C1
:207E00006E0000004543430043424B452044534120566572696679005061636B65742056B9
:207E2000616C696461746500496E7374616C6C20436F6465000000005A4C4C0043424B45F5
:207E4000203238334B310000454343203238334B3100000043424B4520636F726500000007
:207E60004E4350004D756C7469206E6574776F726B000000456E68616E63656420426561AE
:207E8000636F6E205265710043424B45203238334B3120445341205665726966790000007F
:207EA0004D756C74692D50414E0000004572726F722072657472696576696E6720696E66E5
:207EC0006F20666F72206C696272617279204944202564002573206C69627261727925731C
:207EE0002070726573656E7400000000204E4F540000000020204861766520526F7574655D
:207F00007220537570706F72740000002020456E6420446576696365204F6E6C7900000049
:207F20002020456E61626C6564000000202044697361626C656400006F6E6C7920636F6FDB
:207F40007264696E61746F72732063616E20666F726D0A006A6F696E203078253038580AB4
:207F6000000000002573203078253032580A00006C656176650000002573203078253032C4
:207F80005800000072656A6F696E000072656A6F696E446966664465766963655479706510
:207FA000000000006578742E2050414E2049443A200000004E574B206F70656E3A20257586
:207FC00020736563000000004E574B20636C6F736564000066696E64206A6F696E61626C1C
:207FE000653A2030782530325800000066696E6420756E757365643A203078253032580005
:208000004368616E67696E6720746F206368616E6E656C2025643A203078253032580000BB
:20802000696E76616C6964206E6574776F726B20696E64657800000053686F72742049443A
:208040003A203078253034582C2045554936343A200000002C2050616E2049443A20307830
:20806000253034580000000053746172746564206D756C74692D70687920696E74657266D7
:20808000616365004661696C656420746F202573202573203078253032580000737461729E
:2080A000740000006D756C74692D70687920696E74657266616365005465726D696E61748E
:2080C0006564202573203078253032580000000073746F70000000004B65657020616C69D7
:2080E000766520737570706F727420656E61626C65642E006661696C656420746F207365EF
:2081000074206B65657020616C697665206D6F64652E00007375636365737366756C6C79DD
:208120002073657420746865206368696C642074696D656F7574206F7074696F6E206D6180
:20814000736B2E006661696C656420746F2073657420746865206368696C642074696D65EB
:208160006F7574206F7074696F6E206D61736B2E000000004368616E6E656C206E6F7420AA
:2081800076616C69643A2025640000002573206D61736B206E6F7720307825303858000067
:2081A0005072696D617279005365636F6E646172790000004D61736B206E6F742076616CD3
:2081C00069643A202564000025733A20536574202573206D61736B20746F203078253038F5
:2081E000580000007072696D617279007365636F6E6461727900000025733A2025733A0097
:2082000053746174757300004368616E6E656C206D61736B3A0000002020202028312920F9
:20822000307825303858205B000000002020202028322920307825303858205B000000000B
:2082400053746174653A203078253032582028257329000043757272656E74206368616E96
:208260006E656C3A20256400546F74616C20626561636F6E733A2025640000004A6F696E6A
:2082800020617474656D7074733A2025640000004E6574776F726B2073746174653A2030B4
:2082A000782530325800000025733A2025733A20307825303258000053746F700000000056
:2082C0004E6F6E65000000005363616E205072696D617279204368616E6E656C7320616E4A
:2082E000642075736520436F6E66696775726564204B6579000000005363616E205072696E
:208300006D617279204368616E6E656C7320616E642075736520496E7374616C6C20436FCF
:20832000646500005363616E205072696D617279204368616E6E656C7320616E6420557364
:20834000652043656E7472616C697A6564204B65790000005363616E205072696D61727951
:20836000204368616E6E656C7320616E6420557365204469737472696275746564204B659E
:20838000790000005363616E205365636F6E64617279204368616E6E656C7320616E642058
:2083A00075736520436F6E66696775726564204B657900005363616E205365636F6E64619F
:2083C0007279204368616E6E656C7320616E642075736520496E7374616C6C20436F646514
:2083E000000000005363616E205365636F6E64617279204368616E6E656C7320616E642071
:208400005573652043656E7472616C697A6564204B6579005363616E205365636F6E6461EF
:208420007279204368616E6E656C7320616E642055736520446973747269627574656420A2
:208440004B6579005363616E205072696D617279204368616E6E656C7320616E64205573E3
:208460006520416C6C204B6579732028696E7374616C6C20636F64652C2063656E747261DF
:208480006C697A65642C20646973747269627574656429005363616E205365636F6E64614A
:2084A0007279204368616E6E656C7320616E642055736520416C6C204B6579732028696ED1
:2084C0007374616C6C20636F64652C2063656E7472616C697A65642C2064697374726962A3
:2084E00075746564290000004578616D696E696E6720626561636F6E206F6E206368616EC2
:208500006E656C20256420776974682070616E49642030782530345800000000546869734A
:2085200020626561636F6E206973206E6F742070617274206F6620746865206375727265D8
:208540006E74206368616E6E656C206D61736B2028307825303858292E2047657474696EBD
:2085600067206E65787420626561636F6E2077686F7365206368616E6E656C206269746D22
:2085800061736B206973207365742E004E6F20626561636F6E73206C656674206F6E206303
:2085A000757272656E74206D61736B2E204D6F76696E6720746F206E6578742073746174D3
:2085C000650000002573206A6F696E696E6720307825303458206F6E206368616E6E656CF1
:2085E000202564004572726F723A20257320636F756C64206E6F7420617474656D707420EF
:208600006A6F696E3A2030782530325800000000257320737461636B207374617475732017
:2086200030782530325800002573206E6574776F726B206A6F696E65642E000025732074FE
:208640007279696E67206E657874206E6574776F726B2E0025733A2069737375696E6720A6
:208660007363616E206F6E202573206368616E6E656C7320286D61736B2030782530385893
:20868000290000007072696D617279007365636F6E646172790000004572726F723A20532E
:2086A00063616E20636F6D706C6574652068616E646C65722072657475726E6564203078C0
:2086C00025303258000000002573207363616E20636F6D706C6574652E20426561636F6E4F
:2086E000732068656172643A2025640025732053746F702E2020436C65616E696E6720757E
:20870000702E000025732053746174653A202573000000004572726F723A20257320636F22
:20872000756C64206E6F742073657475702073656375726974793A203078253032580000B9
:2087400025733A205741524E494E473A20736C5F7A69676265655F7365745F696E697469DC
:20876000616C5F73656375726974795F7374617465206661696C65642E20436F6E74696E97
:2087800075696E6720776974686F757420696E7374616C6C20636F64652E00004572726F5A
:2087A000723A20696E7374616C6C20636F6465207365747570206661696C65642E2049735B
:2087C00020616E20696E7374616C6C20636F646520666C6173686564206F6E746F20746805
:2087E00065206465766963653F000000FFFFFFFFFFFFFFFF257320697320616C7265616430
:208800007920696E2070726F677265737300000025733A2025733A203078253032580000E8
:20882000537461727400000025733A20257300004B657920766572696669636174696F6E54
:20884000206661696C65642E204C656176696E67206E6574776F726B0000000042726F61D1
:208860006463617374696E67207065726D6974206A6F696E00000000547275737420636520
:208880006E746572206C696E6B206B65792075706461746520737461747573004E574B2071
:2088A0005374656572696E67000000005A6967426565416C6C69616E63653039D0D1D2D379
:2088C000D4D5D6D7D8D9DADBDCDDDEDF00000000452205084F220508572205087922050846
:2088E000E32205087B220508B12205082C0000004D61746368202573792066726F6D20306E
:2089000078253034582C20657020256400000000646973636F766572000000004E574B20C5
:208920004164647265737320726573706F6E73653A203078253034580000000049454545E7
:20894000204164647265737320726573706F6E73653A200053657276696365202573792026
:20896000646F6E652E000000454D505459000000554E4943410000004D324F4E45000000C3
:208980004D554C54490000003F20202020000000232020747970652020206E776B20206C0C
:2089A0006F6320202072656D202020636C75732020206E6F64652020206575690000000081
:2089C00025643A2000000000202025642020202030782530345820203078253034582020D9
:2089E00030782530345820307825303458200000736C5F7A69676265655F6765745F6269A8
:208A00006E64696E67204572726F723A203078253038580A000000002564206F6620256404
:208A20002062696E64696E677320757365640000656E61626C6564207072696E74000000DF
:208A400064697361626C6564207072696E740000616464206C696E6B206B65790000000031
:208A60004552523A2043616C63756C617465642043524320646F6573206E6F74206D61742B
:208A8000636800004552523A20496E7374616C6C20436F6465206D75737420626520382C02
:208AA0002031302C2031342C206F7220313820627974657320696E206C656E6774680000EE
:208AC0004552523A204145532D4D4D4F2068617368206661696C65643A203078253032583A
:208AE00000000000536574206A6F696E696E67206C696E6B206B6579000000007365742099
:208B000062696E642025643A203078253032780068890008708900087889000880890008FA
:208B20008889000800020100C800AEFEB400E8087F8DFBFF4E0002036349FFFF2C00AF0122
:208B4000EFE5FFFF1B00FF00E61A00001100A700DA2800000A0062001528000006003B0085
:208B6000A821000003000B00A10E000006FF6CFFA1FFBCFFCDFFD8FFE0FFE6FFEAFFEEFF67
:208B8000F0FFF3FFF4FFF6FFF7FFF7FF000800B4288B00080100000F6C8B0008000000009A
:208BA000000000002530325820000000253032580000000028256329253032582530325840
:208BC00025303258253032582530325825303258253032582530325800000000000000005B
:208BE00000000000666E692D00000000666E692B000000002573642C2064726F7070696E5F
:208C0000672065702030782530325820636C75732030782530345820636D64203078253060
:208C20003258000064697361626C6500446973636F76657220436F6D6D616E64732072654E
:208C400073706F6E73652028636F6D706C6574653A202563292C202573204944733A200072
:208C600047656E657261746564000000526563656976656400000000307825303258200097
:208C800064697361626C65640000000025733A20636C7573202530345800000052454144D6
:208CA0005F4154545200000057524954453A20636C7573202530345820617474722025302D
:208CC000345820004641494C202530325800000057524954453A20746F6F2073686F727446
:208CE00000000000257325733A20636C7573202530345800444953435F4154545200000075
:208D00005F45585400000000505341004B455900253032583A000000657020253032582029
:208D2000636C7573202530345820617474722025303458207376722025630000206D666722
:208D40002025303258000000207265706F7274206D696E2025303458206D617820253034E4
:208D600058207270742D6368672025303858000020726563656976652066726F6D20253075
:208D8000345820657020253032582074696D656F7574202530345800257320307825303244
:208DA00058000000636C65617200000072656D6F76650000636C656172696E67206C617321
:208DC00074207265706F72742074696D65206F6620616C6C206174747269627574657300DF
:208DE00074657374696E672074696D696E67206F6620766172696F7573207265706F7274F3
:208E0000696E67206F7065726174696F6E7300002D2D2D2D2D2D2D2D2D2D2D2D2D2D2D2DE0
:208E20002D2D2D2D2D2D2D2D2D2D2D2D2D2D2D2D2D2D2D2D2D2D2D2D2D2D2D2D2D2D2D00BF
:208E40002D2D7461626C65207265616473202D2066756C6C207461626C652D2D00000000DF
:208E6000726573756C74203D202564206D7300002D2D696E6974202F207363686564756CE8
:208E800065207469636B2D2D2D0000002D2D6C6F616420636F6E66696775726174696F6E89
:208EA0002064656661756C74732D2D005265706F7274696E6720456E7472792046756C6C41
:208EC000202D206372656174696E67206E6577207265706F7274000025733A2000000000C0
:208EE0004346475F52505400202D20646972656374696F6E3A253032582C20617474723AC5
:208F00002530345800000000202020747970653A253032582C206D696E3A253034582C203E
:208F20006D61783A25303458000000002020206368616E67653A000020202074696D656F52
:208F400075743A25303458005265706F7274696E673A206661696C656420746F2073656E2B
:208F60006420257320726573706F6E73653A20307825303258000000636F6E666967757208
:208F8000655F7265706F7274696E6700524541445F5250545F4346470000000072656164F7
:208FA0005F7265706F7274696E675F636F6E66696775726174696F6E000000004552523A7E
:208FC0002072656164696E6720636C7573746572203078253034582061747472696275743D
:208FE00065203078253034583A20307825303258000000004552523A207265706F7274693A
:209000006E67206F66204C4F4E4720737472696E67206174747269627574652074797065A9
:20902000206E6F7420737570706F727465643A20636C757374657220307825303458206133
:2090400074747269627574652030782530345800496E6465782049454545204164647265C4
:2090600073732020202020202020204E574B496E6465782020496E2046432020202020546E
:20908000544C28732920466C6167202020204B657920202020000000256420202020200080
:2090A000202025642020202020202000202025303858202000000000307825303458000019
:2090C000203078253034582020000000496E64657820494545452041646472657373202051
:2090E00020202020202020496E20464320202020205479706520204175746820204B6579B3
:20910000000000002D20202020200000256320202020202563202020202000005741524EFA
:20912000494E473A202052454144494E47204F46204B45592056414C5545532044495341EE
:20914000424C4544204259204D464720544F4B454E0000002573206F75742046433A20256A
:20916000303858004E574B204B657900257320736571206E756D3A203078253032580000A4
:2091800025733A20000000002573206F75742046433A2025303878004C696E6B204B6579EE
:2091A0000000000054432025732000002573205461626C650000000025642F256420656E6C
:2091C000747269657320757365642E005472616E7369656E74204B6579000000256420655A
:2091E0006E7472257320636F6E73756D696E67202564207061636B657420627566666572B5
:2092000025732E0054727573742043656E74657220257320616C6C6F77207472757374206C
:2092200063656E7465722072656A6F696E73207573696E672077656C6C2D6B6E6F776E20FF
:209240006B65792E0000000057494C4C0000000057494C4C204E4F540000000053657420CA
:2092600074696D656F757420666F722054727573742043656E7465722072656A6F696E73A3
:20928000207573696E672077656C6C2D6B6E6F776E206C696E6B206B657920746F20256477
:2092A000207365636F6E64732E0000002573737461636B206D75737420626520646F776E1B
:2092C0002E0000004552524F523A2000736C5F7A69676265655F6B65795F73657474696E2A
:2092E00067735F743A203078253034580000000020205065726D697373696F6E733A202583
:209300007300000052656164696E6720416C6C6F7765640048617368696E67206F6E6C7994
:20932000000000004E4F4E45000000004572726F723A204661696C656420746F20676574F1
:2093400020636F6E6669672C207374617475733A20307825303858004661696C65643A2001
:20936000307825303858000025735365727669636520446973636F76657279205374617463
:2093800065206C696D69747320726561636865640A00000053766320446973633A20000097
:2093A0002573496C6C6567616C2062726F61646361737420616464726573732C2072656DF2
:2093C000617070696E6720746F2076616C6964206F6E652E0000000025734661696C65646E
:2093E00020746F2073656E64206D6174636820646973636F766572793A203078253032589A
:209400000000000025735374617274696E6720646973636F7665727920666F7220636C75A5
:2094200073746572203078253034580025734661696C656420746F2073656E642049454528
:2094400045206164647265737320726571756573743A203078253032580000002573466178
:20946000696C656420746F2073656E64204E574B2061646472657373207265717565737442
:209480003A2030782530325800000000257357616974696E672025642073656320666F7215
:2094A00020646973636F7665727920746F20636F6D706C6574650000537461746520636F45
:2094C00072726573706F6E64696E6720746F20746865207468652072657175657374206E65
:2094E0006F7420666F756E640A0000002573636F6D706C6574652E0A0000000025734D65D0
:20950000737361676520746F6F2073686F72740025734D65737361676520746F6F207368AC
:209520006F727420666F72206E756D2E20656E64706F696E7473000025734D617463682533
:209540007320666F756E642066726F6D203078253034582E00000000204E4F5400000000A0
:209560004572726F723A202573206261642073696D706C652064657363726970746F72207F
:209580006C656E6774682E004572726F723A20257320696E76616C6964206C656E67746876
:2095A0002028256420213D2025642920666F722041637469766520456E64706F696E742026
:2095C000726573706F6E7365000000002573676F742061637469766520455020726573700F
:2095E0006F6E73650000000054686520617267756D656E74206973206E6F7420666F726DD1
:20960000617474656420636F72726563746C79004E6F20636F6D6D616E6420666F756E6449
:20962000000000004D6178696D756D206E756D626572206F6620617267756D656E74732098
:20964000657863656564656400000000496E636F727265637420617267756D656E74207413
:2096600079706500496E636F7272656374206E756D626572206F6620617267756D656E74D2
:2096800073000000496E707574206275666665722069732046554C4C00000000556E6B6EC2
:2096A0006F776E206572726F7200000075696E743800000075696E743136000075696E742D
:2096C00033320000696E743800000000696E743136000000696E743332000000737472697E
:2096E0006E67000075696E74386F70740000000075696E7431366F707400000075696E7410
:2097000033326F7074000000696E74386F707400696E7431366F707400000000696E743338
:20972000326F707400000000737472696E676F70740000006865786F707400006164646990
:2097400074696F6E616C000077696C64636172640000000067726F7570000000756E6B6E4F
:209760006F776E002E2E2E200000000068656C70000000005072696E747320696E666F7284
:209780006D6174696F6E2061626F757420746865206E6574776F726B2073746174652C20EE
:2097A000636C7573746572732C20616E6420656E64706F696E74732E000000004C697374F7
:2097C00073207768696368206F7074696F6E616C206C6962726172696573206F662074688F
:2097E0006520737461636B2061726520696D706C656D656E746564206F6E207468697320CD
:209800006465766963652E0053656E64732061206D6573736167652E00000000536F757250
:20982000636520656E64706F696E741F0000000044657374696E6174696F6E1F536F757276
:20984000636520656E64706F696E741F44657374696E6174696F6E20656E64706F696E749D
:209860001F00000052656164732061206D6573736167652E00000000456E64706F696E74E5
:209880001F436C75737465722049441F4174747269627574652049441F3120696620736563
:2098A0007276657220646972656374696F6E2C203020696620636C69656E7420646972653A
:2098C0006374696F6E1F00005772697465732061206D6573736167652E000000456E647093
:2098E0006F696E741F436C75737465722049441F4174747269627574652049441F4D617340
:209900006B1F4461746120747970651F4461746120627974651F00005265736574732074CB
:209920006865206E6F64652E00000000437265617465732061206D6573736167652062791E
:209940002073706563696679696E6720746865207261772062797465732E20557365207495
:2099600068652073656E6420636F6D6D616E6420746F2073656E6420746865206D6573734B
:20998000616765206F6E636520697420686173206265656E20637265617465642E204578BF
:2099A0003A2072617720307830303046207B303020304120303020313120323220333320AD
:2099C00034342035357D2073656E64732061206D65737361676520746F20636C75737465A2
:2099E00072203135202830783030304629206F66206C656E6774682038207768696368203E
:209A0000696E636C7564657320746865205A434C206865616465722E00000000436C757337
:209A200074657249641F446174611F0053656E64732061207072652D627566666572656421
:209A4000206D756C746963617374206D65737361676520746F206120676976656E20677255
:209A60006F75702049442066726F6D206120676976656E20656E64706F696E742E000000A8
:209A800067726F757049641F7372632D656E64706F696E741F0000005768656E2073656EE0
:209AA00064696E67207573696E6720612062696E64696E672C20737065636966696573201B
:209AC000776865746865722061206D756C7469636173742062696E64696E672073686F753E
:209AE0006C6420626520757365642E007573654D756C74696361737442696E64696E671FD3
:209B00000000000053656E647320612072656164206174747220666F72207468652074696B
:209B20006D65206F662074686520646576696365207370656369666965642E204974207303
:209B4000657473206120666C616720736F207768656E2069742067657473207468652072E7
:209B60006573706F6E736520697420777269746573207468652074696D6520746F206974FD
:209B800073206F776E2074696D6520617474722E0000000049641F737263456E64706F6993
:209BA0006E741F64657374456E64706F696E741F0000000052657475726E73205054492074
:209BC000726164696F20636F6E66696720696E666F726D6174696F6E20746F206465746555
:209BE000726D696E6520746865205048592074797065206265696E67207573656420627905
:209C0000205241494C2E2072657475726E2076616C756520697320656E756D205241494CB8
:209C20005F494545453830323135345F507469526164696F436F6E6669675F7420652E67BB
:209C400020205241494C5F494545453830323135345F5054495F524144494F5F434F4E4652
:209C600049475F32503447485A203D203078303055205241494C5F494545453830323135BD
:209C8000345F5054495F524144494F5F434F4E4649475F32503447485A5F414E544449563E
:209CA000203D203078303155205241494C5F494545453830323135345F5054495F52414454
:209CC000494F5F434F4E4649475F32503447485A5F434F4558203D203078303255205241BC
:209CE000494C5F494545453830323135345F5054495F524144494F5F434F4E4649475F3264
:209D0000503447485A5F414E544449565F434F4558203D20307830335500000053657420FA
:209D200074686520636F6E66696775726564203830322E31352E3420434341206D6F646540
:209D400020696E2074686520726164696F2E2053656520646F63756D656E746174696F6E77
:209D600020726567617264696E67205241494C5F494545453830323135345F4363614D6FFB
:209D800064655F742E00000041205241494C5F494545453830323135345F4363614D6F643F
:209DA000655F742076616C75651F000053686F7773207468652076657273696F6E206F667F
:209DC0002074686520736F6674776172652E00005072696E7420737461747573206F662083
:209DE000656E64706F696E74732E0000456E61626C65732074686520656E64706F696E74C5
:209E000020666F72205A434C206D657373616765732E0000456E64706F696E7420696E6490
:209E200065781F0044697361626C652074686520656E64706F696E7420666F72205A434C20
:209E4000206D657373616765732E00005072696E7420616374697665206576656E74732ED0
:209E6000000000005072696E74204D464720746F6B656E2E00000000536574204D46472026
:209E8000746F6B656E2C2043414E4E4F5420424520554E53455420425920434C492E00005B
:209EA0005072696E747320616C6C20636F756E7465722076616C75657320616E6420636CB7
:209EC00065617273207468656D2E00005072696E7473207468652076616C7565206F6620A8
:209EE0007468697320706172746963756C617220636F756E7465722E0000000054686520C4
:209F0000636F756E746572207479706520746F207072696E741F00005072696E74732061EF
:209F20006C6C20636F756E7465722076616C7565732E0000436C6561727320616C6C206315
:209F40006F756E7465722076616C7565732E00005072696E7473207468652074687265735F
:209F6000686F6C6473206F6620616C6C2074686520636F756E746572732E000053657473B8
:209F80002061207468726573686F6C642076616C756520666F722061207061727469637516
:209FA0006C61722074797065206F6620636F756E7465722E0000000054797065206F662086
:209FC000636F756E7465721F5468726573686F6C642056616C75651F0000000052657365EA
:209FE000747320616C6C207468726573686F6C64732076616C75657320746F2030784646BA
:20A0000046462E0053656E64732061207265717565737420666F72204F544120636F756E9F
:20A02000746572732E000000456E61626C652F64697361626C65206465627567206073745C
:20A0400061636B60207072696E7420747970652E00000000456E61626C652F64697361629B
:20A060006C651F00456E61626C652F64697361626C652064656275672060636F72656020D6
:20A080007072696E7420747970652E00456E61626C652F64697361626C6520646562756712
:20A0A000206061707060207072696E7420747970652E0000456E61626C652F6469736162A9
:20A0C0006C6520646562756720607A636C60207072696E7420747970652E0000456E61628C
:20A0E0006C652F64697361626C6520646562756720606C65676163792061707020667261B6
:20A100006D65776F726B20646562756760207072696E7420747970652E0000004469737036
:20A120006C617973207468652063757272656E7420737461747573206F6620746865206E3A
:20A140006574776F726B207374656572696E672070726F636573732E0000000053746172FB
:20A16000747320746865206E6574776F726B207374656572696E672070726F636573732E9F
:20A180000000000041206D61736B206F66206F7074696F6E7320666F7220696E64696361A2
:20A1A00074696E67207370656369666963206265686176696F722077697468696E20746868
:20A1C00065206E6574776F726B2D7374656572696E672070726F636573732E1F00000000F6
:20A1E00053746F707320746865206E6574776F726B207374656572696E672070726F636501
:20A2000073732E005365747320746865207072652D636F6E66696775726564206B657920E7
:20A22000736F207468617420746865206A6F696E696E67206465766963652063616E206595
:20A240006E74657220746865206E6574776F726B2E00000053657473207468652070726525
:20A26000636F6E66696775726564206B65791F00536574732065697468657220746865206F
:20A280007072696D617279206F72207365636F6E64617279206368616E6E656C206D617377
:20A2A0006B2E0000546865206368616E6E656C206D61736B20746F20737562747261637494
:20A2C00020746865206368616E6E656C2066726F6D1F5468652076616C756520746F20733D
:20A2E000657420746865206368616E6E656C206D61736B20746F2E1F000000004164647393
:20A300002061206368616E6E656C20746F2065697468657220746865207072696D6172799A
:20A32000206F72207365636F6E64617279206368616E6E656C206D61736B206F662074687E
:20A3400065206E6574776F726B2D7374656572696E6720636F6D706F6E656E742E000000BF
:20A36000546865206368616E6E656C206D61736B20746F206164642061206368616E6E659D
:20A380006C20746F1F546865206368616E6E656C20746F2061646420746F20746865206DD8
:20A3A00061736B1F000000005375627472616374732061206368616E6E656C2066726F6D36
:20A3C0002065697468657220746865207072696D617279206F72207365636F6E646172796E
:20A3E000206368616E6E656C206D61736B206F6620746865206E6574776F726B2D7374659F
:20A400006572696E6720636F6D706F6E656E742E00000000546865206368616E6E656C20CC
:20A420006D61736B20746F20737562747261637420746865206368616E6E656C2066726F24
:20A440006D1F546865206368616E6E656C20746F20737562747261637420746865206D617C
:20A46000736B2066726F6D1F000000005072696E747320746865207265706F727420746179
:20A48000626C652E00000000436C6561727320616C6C20656E74726965732066726F6D209A
:20A4A000746865207265706F7274207461626C652E00000052656D6F76657320616E2065F4
:20A4C0006E7472792066726F6D20746865207265706F7274207461626C652E005468652027
:20A4E000696E646578206F6620746865207265706F727420746F2062652072656D6F76659A
:20A50000641F0000416464732061206E657720656E74727920746F20746865207265706FC5
:20A520007274207461626C652E000000546865206C6F63616C20656E64706F696E7420668C
:20A54000726F6D2077686963682074686520617474726962757465206973207265706F72E1
:20A560007465641F54686520636C75737465722077686572652074686520617474726962FA
:20A58000757465206973206C6F63617465641F546865204944206F662074686520617474C9
:20A5A000726962757465206265696E67207265706F727465641F3020666F7220636C6965F3
:20A5C0006E742D736964652061747472696275746573206F72203120666F722073657276C7
:20A5E00065722D7369646520617474726962757465731F546865206D696E696D756D20725D
:20A6000065706F7274696E6720696E74657276616C2C206D6561737572656420696E207321
:20A6200065636F6E64732E1F546865206D6178696D756D207265706F7274696E6720696E21
:20A6400074657276616C2C206D6561737572656420696E207365636F6E64732E1F54686556
:20A66000206D696E696D756D206368616E676520746F2074686520617474726962757465E0
:20A6800020746861742077696C6C20726573756C7420696E2061207265706F727420626537
:20A6A000696E672073656E742E1F0000436C6561727320746865206C617374207265706FD0
:20A6C00072742074696D65206F6620617474726962757465732E0000464F522054455354F4
:20A6E000494E4720505552504F534553202D206761746865722074696D696E67206D6574E5
:20A700007269637320666F72207265706F7274696E67207461626C65206F706572617469EB
:20A720006F6E732E00000000446973706C61792074686520736C6565702073746174757367
:20A7400000000000536574206F7220636C65617220666F726365206177616B65000000004D
:20A76000536574206F7220636C6561722073746179206177616B65207768656E206E6F7438
:20A78000206A6F696E656400546869732073657473207468652074686520616D6F756E7433
:20A7A000206F662074696D65206265747765656E2073756273657175656E7420747275736E
:20A7C000742063656E746572206C696E6B206B6579207570646174657320696E206D696CBE
:20A7E0006C697365636F6E64732E000054686520616D6F756E74206F662074696D6520624C
:20A8000065747765656E2073756273657175656E742074727573742063656E746572206CB2
:20A82000696E6B206B6579207570646174657320696E206D696C6C697365636F6E64731F1B
:20A8400000000000466F726D732061206E6574776F726B206F6E206120676976656E20630C
:20A8600068616E6E656C2C2077697468206120676976656E20545820506F77657220616EB8
:20A88000642050414E2049442E000000546865206368616E6E656C206F6E20776869636830
:20A8A00020746F20666F726D20746865206E6574776F726B1F4F6E652D6279746520736918
:20A8C000676E65642076616C756520696E6469636174696E672074686520545820506F77E0
:20A8E000657220746861742074686520726164696F2073686F756C642062652073657420FE
:20A90000746F1F5468652050414E204944206F6E20776869636820746F20666F726D2074CD
:20A920006865206E6574776F726B1F004A6F696E732061206E6574776F726B206F6E2061D5
:20A9400020676976656E206368616E6E656C2C2077697468206120676976656E2054582017
:20A96000506F77657220616E642050414E2049442E000000546865206368616E6E656C2063
:20A980006F6E20776869636820746F206A6F696E20746865206E6574776F726B1F4F6E6508
:20A9A0002D62797465207369676E65642076616C756520696E6469636174696E67207468A9
:20A9C0006520545820506F77657220746861742074686520726164696F2073686F756C6409
:20A9E0002062652073657420746F1F5468652050414E204944206F6E207768696368207451
:20AA00006F206A6F696E20746865206E6574776F726B1F005475726E73207065726D697480
:20AA2000206A6F696E696E67206F6E20666F722074686520616D6F756E74206F662074699D
:20AA40006D6520696E646963617465642E000000412073696E676C65206279746520696E83
:20AA60006469636174696E6720686F77206C6F6E6720746865206465766963652073686FFA
:20AA8000756C642068617665207065726D6974206A6F696E696E67207475726E206F6E20E8
:20AAA000666F722E20412076616C7565206F662030786666207475726E73207065726D6961
:20AAC00074206A6F696E20696E646566696E6974656C792E1F0000004C65617665732061E0
:20AAE000206E6574776F726B2E00000052654A6F696E732061206E6574776F726B2E00006B
:20AB0000426F6F6C65616E206E6574776F726B206B657920617661696C6162696C697479C7
:20AB20001F4368616E6E656C206D61736B1F000052656A6F696E7320616E2065786973743C
:20AB4000696E67206E6574776F726B20696E206120736563757265206F7220696E7365633B
:20AB6000757265206D616E6E65722077697468206120646966666572656E742064657669EC
:20AB8000636520747970652E00000000426F6F6C65616E206E6574776F726B206B6579206A
:20ABA000617661696C6162696C6974791F4368616E6E656C206D61736B1F416E20656E75C0
:20ABC0006D65726174696F6E20696E6469636174696E672074686520646576696365207457
:20ABE00079706520746F2072656A6F696E2061732E54686520737461636B206F6E6C7920E2
:20AC00006163636570747320534C5F5A49474245455F454E445F44455649434520616E64E5
:20AC200020534C5F5A49474245455F534C454550595F454E445F4445564943452E1F00007D
:20AC40005772697465732074686520657874656E6465642070616E20494420666F7220749D
:20AC60006865206465766963652E000065787470616E69641F000000436865636B73206EEE
:20AC80006574776F726B20706A6F696E207374617475732E000000005065726D69747320E2
:20ACA0006A6F696E696E67206F6E20746865206E6574776F726B20666F72206120676976D0
:20ACC000656E206E756D626572206F66207365636F6E647320414E442062726F6164636115
:20ACE0007374732061205A444F204D676D74205065726D6974204A6F696E696E6720726541
:20AD0000717565737420746F20616C6C20726F75746572732E000000412073696E676C6560
:20AD2000206279746520696E6469636174696E6720686F77206C6F6E67207468652064657D
:20AD4000766963652073686F756C642068617665207065726D6974206A6F696E696E6720FA
:20AD60007475726E6564206F6E20666F722E20412076616C7565206F6620307866662074F4
:20AD800075726E73206F6E207065726D6974206A6F696E20696E646566696E6974656C7949
:20ADA0002E1F000066696E644A6F696E61626C654E6574776F726B0066696E64556E75734B
:20ADC000656450616E496400417474656D70747320746F206368616E6765206465766963D8
:20ADE00065206F76657220746F206120646966666572656E74206368616E6E656C206769CE
:20AE000076656E20696E20746865206368616E6E656C20617267756D656E742E00000000E7
:20AE2000546865206368616E6E656C20746F206368616E676520746F1F00000053657473AE
:20AE400020746865206E6574776F726B20696E646578207573656420627920616C6C206684
:20AE6000757475726520434C4920636F6D6D616E64732E20204265666F72652065786563AD
:20AE80007574696E67206120434C4920636F6D6D616E642C20746865206672616D65776F75
:20AEA000726B20737769746368657320746F2074686973206E6574776F726B2E2020416611
:20AEC0007465722074686520636F6D6D616E642066696E6973686573206578656375746937
:20AEE0006E672C20746865206672616D65776F726B207377697463686573206261636B20A7
:20AF0000746F207468652070726576696F7573206E6574776F726B2E202054686520434CE8
:20AF2000492075736573207468652073616D65206E6574776F726B20696E64657820756E5C
:20AF400074696C207468652064657669636520726573657473206F72206974206973206384
:20AF600068616E676564207468726F756768207468697320636F6D6D616E642E0000000044
:20AF8000696E6465781F0000496E697469616C697A65732061206E6574776F726B3B20747B
:20AFA0006869732069732061207465737420636F6D6D616E64207573656420666F72207425
:20AFC000632D737761702D6F75742074657374696E672E005072696E7473207468652063F1
:20AFE000757272656E74204E6F64652049442C2045554936342C20616E642050616E20499E
:20B00000442E00005377697463686573206265747765656E20646966666572656E74206B08
:20B0200065657020616C697665206D6F64657320737570706F727465642062792061207259
:20B040006F757465722E00004B65657020616C697665206D6F64651F00000000417474656B
:20B060006D70747320746F206368616E676520746865206368696C642074696D656F7574D7
:20B08000206F7074696F6E206D61736B20746F2066696C746572206F757420756E646573CB
:20B0A000697261626C652076616C7565732028652E672E206E6F206D6F7265207468616E66
:20B0C00020332064617973292E00000074696D656F7574206F7074696F6E206D61736B1F4A
:20B0E000000000005573656420746F207374617274206D756C74692D50485920696E746535
:20B100007266616365206F74686572207468616E206E617469766520616E6420666F726D53
:20B1200020746865206E6574776F726B2E2054686520737461636B20757365732073616D9E
:20B14000652050616E4964206173206E617469766520726164696F206E6574776F726B2E7C
:20B1600000000000706167651F6368616E6E656C1F706F7765721F6F7074696F6E734D6115
:20B18000736B20284269742030203D20526F757465727320616C6C6F7765642C2042697436
:20B1A0002031203D2042726F61646361737420616C6C6F776564291F000000005465726D46
:20B1C000696E6174657320746865206D756C74692D50485920696E74657266616365000050
:20B1E0005072696E747320616C6C207365637572697479206B6579732E00000044656C655A
:20B2000074652074686520737065636966696564206C696E6B206B657920696E6465782E8B
:20B2200000000000436C6561727320616C6C207365637572697479206B6579732E000000B9
:20B240005072696E7473207468652062696E64696E67207461626C6520746F207468652066
:20B26000636F6D6D616E64206C696E652E000000436C65617273207468652062696E646918
:20B280006E67207461626C652E00000053657473207468652062696E64696E672074616231
:20B2A0006C650000696E6465781F636C75737465721F6C6F63616C45701F72656D6F7465FA
:20B2C00045701F65756936341F000000456E61626C6573207072696E74696E67206F662074
:20B2E0005278206D657373616765732E0000000044697361626C6573207072696E74696E93
:20B3000067206F66205278206D657373616765732E00000074617267657449641F000000EE
:20B3200070726F66696C6549641F636C757374657249641F00000000426F6F6C3A20616CCF
:20B340006C6F772074727573742063656E7465722072656A6F696E207573696E67207765AF
:20B360006C6C2D6B6E6F776E206B65791F00000074696D656F75741F000000005443206CCA
:20B38000696E6B206B6579207265717565737420706F6C6963791F417070206C696E6B20FB
:20B3A0006B6579207265717565737420706F6C6963791F006B65791F00000000696E646544
:20B3C000781F65756936341F6B65791F00000000696E6465781F65756936341F696E7374E1
:20B3E000616C6C436F64651F0000000053656E64732061205A444F20726F757465207265A9
:20B40000717565737420636F6D6D616E6420746F20746865207461726765742E00000000C2
:20B420007461726765741F696E6465781F00000053656E64732061205A444F20506F7765E9
:20B44000722044657363726970746F72205265717565737420746F20746865207461726700
:20B460006574206465766963652E00007461726765741F0053656E64732061205A444F20E4
:20B480004D474D542D4C514920284C5149205461626C6529205265717565737420746F20D9
:20B4A00074686520746172676574206465766963652E00007461726765741F737461727412
:20B4C000496E6465781F000053656E64732061205A444F204D474D542D42696E6420284241
:20B4E000696E64696E67205461626C6529205265717565737420746F2074686520746172CE
:20B50000676574206465766963652E0053656E64732061205A444F204D616E6167656D6567
:20B520006E74204C6561766520636F6D6D616E6420746F207468652074617267657420648E
:20B5400065766963652E00007461726765741F72656D6F76654368696C6472656E1F72655E
:20B560006A6F696E1F00000053656E647320616E20756E62696E6420726571756573742027
:20B58000666F722061206D756C7469636173742062696E64696E6720746F207468652074FA
:20B5A0006172676574206465766963652E0000007461726765741F736F7572636520657589
:20B5C0006936341F736F7572636520656E64706F696E741F636C757374657249441F6772C1
:20B5E0006F7570416464726573731F0053656E647320616E20756E62696E642072657175A9
:20B6000065737420666F72206120756E69636173742062696E64696E6720746F2074686580
:20B6200020746172676574206465766963652E007461726765741F736F7572636520657574
:20B640006936341F736F7572636520656E64706F696E741F636C757374657249441F646550
:20B660007374696E6174696F6E45554936341F64657374696E6174696F6E20656E64706FAD
:20B68000696E741F0000000053656E647320616E2061637469766520656E64706F696E7437
:20B6A000207265717565737420746F20746865206465766963652077697468207468652010
:20B6C000676976656E2073686F72742049442E006E6F646549641F0053656E647320612016
:20B6E0005A444F2042696E6420636F6D6D616E6420746F2061206465766963652073706545
:20B7000063696669656420696E2074686520636F6D6D616E6420617267756D656E74732E4A
:20B720000000000044657374696E6174696F6E1F536F7572636520656E64706F696E741F57
:20B7400044657374696E6174696F6E20656E64706F696E741F636C757374657249441F72A7
:20B76000656D6F746545554936341F6465737445554936341F00000053656E647320612089
:20B780006E6F64652064657363726970746F72207265717565737420746F20612067697691
:20B7A000656E20746172676574206465766963652E00000053656E64732061206D6174630E
:20B7C0006844657363726970746F72735265717565737420746F2074686520676976656EE9
:20B7E0002064657374696E6174696F6E20776974682074686520676976656E2070726F663A
:20B80000696C652E000000006E6F646549641F70726F66696C651F0053656E6473206120A0
:20B8200073696D706C652064657363726970746F72207265717565737420666F7220746893
:20B84000652073686F7274206164647265737320616E6420656E64706F696E7420737065F1
:20B860006369666965642E00646573741F746172676574456E64706F696E741F0000000080
:20B88000526571756573747320616E20494545452061646472657373206261736564206F71
:20B8A0006E206120676976656E206E6F64652049442E000053656E64732061206E65747763
:20B8C0006F726B2061646472657373207265717565737420666F722074686520676976655A
:20B8E0006E204945454520616464726573732E00696565651F000000506572666F726D7369
:20B9000020616E20656E65726779207363616E206F6E20676976656E206368616E6E656C9A
:20B92000206D61736B2E00007461726765744E6F646549641F7363616E4475726174696FB7
:20B940006E1F7363616E436F756E741F6368616E6E656C4D61736B1F0000000042726F6185
:20B9600064636173747320746865204944206F6620746865206E6577206E6574776F726B4D
:20B98000206D616E6167657220616E6420616374697665206368616E6E656C732E00000023
:20B9A0006E776B4D676549641F6368616E6E656C4D61736B1F000000506572666F726D7380
:20B9C00020616E20656E65726779207363616E2E000000007461726765744E6F6465496421
:20B9E0001F7363616E4475726174696F6E1F7363616E436F756E741F0000000053656E64C7
:20BA00007320616E20757064617465206368616E6E656C2070616765207265712E205468F9
:20BA20006520737461636B2073656E6473206E776B20656E68616E6365642075706461742A
:20BA4000652072657120666F72206E6F6E2D7A65726F20706167652E000000006368616ED5
:20BA60006E656C1F706167651F00000053656E647320616E20757064617465206368616E63
:20BA80006E656C20726571756573742E000000006368616E6E656C1F00000000416464739C
:20BAA00020636C75737465727320746F20746865206B6E6F776E20636C69656E7420286FEA
:20BAC00075742920636C757374657273206F6E2074686973206465766963652E000000002C
:20BAE000636C757374657249641F0000436C6561727320746865205A444F206C69737420B4
:20BB00006F6620636C69656E7420286F75742920636C7573746572732E00000041646473A9
:20BB200020636C75737465727320746F20746865206B6E6F776E20636C69656E742028696F
:20BB40006E2920636C757374657273206F6E2074686973206465766963652E00436C6561B1
:20BB6000727320746865205A444F206C697374206F6620636C69656E742028696E29206337
:20BB80006C7573746572732E000000005072696E7473206174747269627574652E000000C3
:20BBA0005072696E74732074696D652E000000007072696E74000000656E61626C65000074
:20BBC00064697361626C6500656E64706F696E742072656C6174656420636F6D6D616E6430
:20BBE000732E000067657400736574004765742F736574204D464720746F6B656E2E000014
:20BC00006F6E00006F6666005365637572697479206170732072656C6174656420636F6DF0
:20BC20006D616E64732E00007365742D616C6C6F772D74727573742D63656E7465722D726F
:20BC4000656A6F696E2D7573696E672D77656C6C2D6B6E6F776E2D6B657900007365742D52
:20BC6000616C6C6F772D74727573742D63656E7465722D72656A6F696E2D7573696E672D54
:20BC800077656C6C2D6B6E6F776E2D6B65792D74696D656F757400007365742D6B65792DFD
:20BCA000726571756573742D706F6C69637900006D66672D746F6B656E00000061707300F2
:20BCC00073656375726974792072656C6174656420636F6D6D616E64730000007072696EC0
:20BCE000742D636F756E7465722D74797065000073696D706C652D7072696E7400000000D0
:20BD0000636C6561720000007072696E742D7468726573686F6C6473000000007365742D09
:20BD20007468726573686F6C6400000072657365742D7468726573686F6C647300000000A6
:20BD400073656E642D7265717565737400000000636F756E746572732072656C617465648F
:20BD600020636F6D6D616E64732E0000737461636B000000636F7265000000006170700023
:20BD80007A636C006C65676163795F61665F646562756700656E61626C655F7479706500D1
:20BDA000616464007375627472616374000000006D61736B2072656C6174656420636F6DE6
:20BDC0006D616E642E0000007374617475730000737461727400000073746F7000000000FD
:20BDE0007072652D636F6E666967757265642D6B65792D73657400006D61736B000000000E
:20BE00006E6574776F726B2D7374656572696E672072656C6174656420636F6D6D616E648A
:20BE2000732E000072656D6F76650000636C6561722D6C6173742D7265706F72742D746918
:20BE40006D650000746573742D74696D696E67007265706F7274696E672072656C61746524
:20BE60006420636F6D6D616E64732E00666F7263652D6177616B65006177616B652D776864
:20BE8000656E2D6E6F742D6A6F696E6564000000436F6D6D616E647320746F20636F6E74A2
:20BEA000726F6C2069646C696E672F736C656570696E67206F662074686520646576696397
:20BEC0006500000074696D65720000007570646174652D74632D6C696E6B2D6B6579207272
:20BEE000656C6174656420636F6D6D616E647300636F756E74657273000000006E65747730
:20BF00006F726B2D7374656572696E67000000007265706F7274696E6700000069646C65CF
:20BF20002D736C65657000007570646174652D74632D6C696E6B2D6B657900006A6F696E33
:20BF400061626C6500000000756E7573656400006E6574776F726B2066696E6420636F6D8F
:20BF60006D616E64732E0000666F726D000000006A6F696E00000000706A6F696E000000FC
:20BF80006C6561766500000072656A6F696E000072656A6F696E2D646966662D64657669EB
:20BFA00063652D747970650065787470616E69640000000069736F70656E000062726F613B
:20BFC000642D706A6F696E006368616E67652D6368616E6E656C0000696E69740000000090
:20BFE000696400006368616E67652D6B6565702D616C6976652D6D6F6465000074696D657D
:20C000006F75742D6F7074696F6E2D6D61736B006D756C74692D7068792D73746172740025
:20C020006D756C74692D7068792D73746F70000066696E64000000004E6574776F726B20B9
:20C0400072656C6174656420636F6D6D616E64732E00000064656C6574650000536563755C
:20C0600072697479206B6579732072656C6174656420636F6D6D616E64732E0042696E64FE
:20C08000696E67207461626C652072656C6174656420636F6D6D616E64732E00456E616223
:20C0A0006C65732F44697361626C6573207072696E74696E67206F66205278206D657373A4
:20C0C000616765732E00000064656661756C740041505320726574727920666C6167206633
:20C0E0006F72636520636F6D6D616E64730000007265676973746572000000007461726712
:20C100006574000064697363000000006C696E6B00000000696E7374616C6C2D636F646536
:20C120000000000062696E64696E672D7461626C650000007072696E742D72782D6D736737
:20C14000730000006170737265747279000000007365637572697479000000004F707469DE
:20C160006F6E2072656C6174656420636F6D6D616E64732E000000006E6574776F726B0037
:20C180006368616E67656B65792072656C6174656420636F6D6D616E64732E0067726F7592
:20C1A00070000000756E6963617374005A646F20756E62696E642072656C617465642063C7
:20C1C0006F6D6D616E64732E000000007363616E2D6368616E2D6D61736B00007363616E58
:20C1E000000000006368616E506700006368616E000000005A646F206E776B2D7570642021
:20C2000072656C6174656420636F6D6D616E64732E0000005A646F206F75742D636C2D6C63
:20C220006973742072656C6174656420636F6D6D616E64732E0000005A646F20696E2D6359
:20C240006C2D6C6973742072656C6174656420636F6D6D616E64732E00000000726F75741E
:20C2600065000000706F7765720000006D676D742D6C7169000000006D676D742D62696EE9
:20C2800064000000616374697665000062696E64000000006E6F6465000000006D617463D6
:20C2A0006800000073696D706C65000069656565000000006E776B00756E62696E64000024
:20C2C0006E776B2D757064006F75742D636C2D6C69737400696E2D636C2D6C69737400009F
:20C2E0005A646F2072656C6174656420636F6D6D616E64732E0000006174747200000000B5
:20C3000074696D65000000007072696E742072656C6174656420636F6D6D616E64732E00A0
:20C32000696E666F000000006C696273000000006273656E6400000073656E6400000000F1
:20C340007265616400000000777269746500000072657365740000007261770073656E64FF
:20C360005F6D756C746963617374000073656E642D7573696E672D6D756C74696361737488
:20C380002D62696E64696E670000000074696D6573796E63000000006765742D7074692D42
:20C3A000726164696F2D636F6E66696700000000636F6E6669672D6363612D6D6F6465002F
:20C3C00076657273696F6E006576656E74730000656E64706F696E74730000007A69676242
:20C3E00065655F7072696E7400000000706C7567696E00006E6574006B6579730000000055
:20C400006F7074696F6E00006F707400706C7567000000006368616E67656B6579000000C9
:20C420006368616E67656B007A646F00292104087497000820270508FF00000001C3040852
:20C44000BC97000820270508FF000000930A0508089800081C98000800FF00000B0B0508FE
:20C460000898000830980008010000FF390C0508649800087898000800010100FF000000D5
:20C48000910D0508C8980008DC980008000101000007FF007924040818990008202705084F
:20C4A000FF000000151805082C9900081C9A00080107FF000B0B05082C9A0008809A00089E
:20C4C0000100FF0069180508989A0008EC9A000800FF000087180508049B0008949B00087D
:20C4E000010000FF89200408B49B000820270508FF000000A52004081C9D0008889D00081E
:20C5000000FF000071240408AC9D000820270508FF00000081240408D09D0008202705085D
:20C52000FF000000D5240408EC9D0008149E000800FF0000D5240408249E0008149E000824
:20C5400000FF00000B2504084C9E000820270508FF00000093DF0408649E0008202705087F
:20C56000FF00000093DF0408789E000820270508FF000000D9AE0408A09E000820270508A0
:20C58000FF000000E9AE0408CC9E0008FC9E000800FF000031AF0408189F000820270508E7
:20C5A000FF00000015B00408349F000820270508FF00000071AF0408509F00082027050806
:20C5C000FF00000043AF04087C9F0008B89F00080001FF001DB00408DC9F0008202705082C
:20C5E000FF00000041AF040804A0000820270508FF000000495F020828A0000854A00008C3
:20C6000000FF0000535F020864A0000854A0000800FF00005D5F02088CA0000854A0000862
:20C6200000FF0000675F0208B4A0000854A0000800FF0000715F0208DCA0000854A000087A
:20C6400000FF000077D304081CA1000820270508FF000000D1D204085CA1000884A100088C
:20C6600000FF000011D40408E0A1000820270508FF000000A1D4040804A2000854A20008C1
:20C6800007FF00002BD3040870A20008A4A200080002FF00E7D20408FCA2000860A30008AB
:20C6A0000000FF00E7D20408A8A3000814A400080000FF0005D904086CA40008202705084E
:20C6C000FF000000B7D9040888A4000820270508FF000000CBD90408B4A40008DCA40008A0
:20C6E00000FF0000E9D9040804A500082CA5000800010100010102FF87DA0408ACA6000817
:20C7000020270508FF000000DFDA0408D8A6000820270508FF0000009520050828A700088F
:20C7200020270508FF000000C920050844A70008DE4B010800FF00000721050860A7000848
:20C74000DE4B010800FF00000F23050888A70008ECA7000802FF000039C4040844A8000899
:20C760008CA80008000301FF47C404082CA9000874A90008000301FF77C4040814AA000851
:20C7800050AA000800FF00008DC40408D8AA000820270508FF000000A7C40408ECAA000849
:20C7A00000AB00080002FF00EBC4040830AB00088CAB0008000500FF35C5040840AC0008EA
:20C7C0006CAC000807FF00006DC5040878AC000820270508FF00000077C4040898AC0008E3
:20C7E00018AD000800FF000097C50408A4AD000820270508FF000000ABC50408B8AD000870
:20C8000020270508FF000000BFC50408C8AD000820AE000800FF0000EFC504083CAE000831
:20C8200080AF000800FF0000EDC5040888AF000820270508FF00000015C60408D4AF000800
:20C8400020270508FF000000EBC6040804B0000848B0000800FF000019C704085CB000080D
:20C86000CCB0000801FF000049C60408E4B0000864B1000800000310FF000000BBC60408C1
:20C88000BCB1000820270508FF00000033090508E0B1000820270508FF000000770905080E
:20C8A000FCB1000880AF000800FF00008B09050824B2000820270508FF00000059D5040881
:20C8C00040B2000820270508FF0000003DD6040870B2000820270508FF00000015D8040876
:20C8E0008CB20008A4B200080001000007FF000045D60408CCB2000820270508FF0000008D
:20C9000045D60408F0B2000820270508FF0000007FD604082027050820270508FF000000EB
