:020000040800F2
:10600000C80A00200D7500082BE402082BE40208E2
:106010008D0403082BE402082BE402082BE4020899
:106020002BE402082BE402082BE402082BE402080C
:106030002BE4020880F20308470503082BE402085A
:10604000F17800082BE402082BE402082BE4020894
:106050002BE402082BE402082BE402082BE40208DC
:106060002BE4020869E102082BE402082BE4020891
:106070002BE402082BE402082BE402082BE40208BC
:106080002BE402082BE402082BE402082BE40208AC
:106090002BE40208957F00082BE402082BE4020899
:1060A0002BE402087D7C00085D7C00082BE40208DC
:1060B0002BE402080976020841810208A1B6030810
:1060C0009DB60308D1780208B7B60308A5B6030841
:1060D00011810208A9B6030881810208ED81020836
:1060E0002BE402082BE402082BE402082BE402084C
:1060F0008B0303082BE402082BE402082BE40208BC
:106100002BE402082BE402082BE402082BE402082B
:106110002BE402082BE402082BE402082BE402081B
:106120002BE402082BE402082BE402082BE402080B
:106130002BE402082BE402082BE402082BE40208FB
:106140002BE402082BE402082BE4020805F2030802
:10615000915A02082BE4020883B6030889B60308A3
:106160002BE402082BE402082BE402082BE40208CB
:10617000F0B5114A114C124E00F00105E3695F07BA
:1061800013D40DB9334213D103EA00078F4207D16C
:106190000B4A1A40002A0CBF00206FF00100F0BD2E
:1061A000013AEBD16FF00200F9E74FF0FF30F6E76C
:1061B0006FF00100F3E700BF8096980000000350E5
:1061C000020001000B4B70B5D96911F480310DD17B
:1061D00001244FF48072084E084DF46020462C6470
:1061E0001A61FFF7C5FF3464EC6070BD6FF0010009
:1061F000FBE700BF000003500010035000200350D5
:106200004FF4803238B50E4B0E4C9A66E56941F674
:10621000713315400122E3630B4B0021DA60022346
:10622000606121202361FFF7A3FF10B92120FFF750
:106230009FFF0122054BDA600DB10023E36338BDF7
:106240000090005000000350001003500020035045
:1062500070B5134C6061E3695B071ED40E4656F8B7
:10626000043B8D18A361AE420BD1042300212120F1
:106270002361FFF77DFF58B9BDE870402120FFF78B
:1062800077BF08210846FFF773FF10B1042323618D
:1062900070BD56F8043BA361E5E74FF0FF30F7E728
:1062A000000003502DE9F84315464FF48032184B97
:1062B00089469A6603F51C33DF690646174041F6A6
:1062C0007132DA63012203F58053DFF84C80DA6023
:1062D00055B9284601220F4BDA601FB10022A3F501
:1062E0000053DA63BDE8F88306F5005404EA0804B5
:1062F000A41BAC4228BF2C46494622463046FFF735
:10630000A7FF0028E6D12644A1442D1BE0E700BFEB
:10631000009000500020035000E0FFFF000000004C
:10632000000000000000000000000000000000006D
:10633000002370B5424C05468AB0E36318B100886B
:10634000236011F0D5FE12F0E5F83E4834F09BFAD8
:106350003D4E3E4B304633603D4B736030F010FA9B
:10636000002130461AF052FC33A3D3E90023A06287
:10637000C4E9062330F00FFAD4E906231943104389
:10638000C4E90601CDE900014FF0FF334FF0FF32C1
:10639000A06A34F024FB02224FF0FF31A06A34F0EF
:1063A00023FB012011F022FB4FF400730022294946
:1063B000A06A34F04DFCB0F5007F39D1002394225F
:1063C000079309933C23CDE9033205939623069363
:1063D0005023A06A03A908931AF032FD35B3287C34
:1063E00012F0AAF80546F0B9A06A34F033FD12F0B5
:1063F0003BF911F0DDFA20B14FF4807000210CF070
:10640000F1F911F0E5FA20B14FF4006000210CF031
:10641000E9F930F072FA012034F0E8F90E4A0F4938
:10642000A06A30F0ABF928460AB070BDFF20D7E76C
:106430000725F8E7AFF300800DD5015520000000D7
:10644000380B0020690345ECF02300202578010873
:1064500000240020D8210020256703086567030871
:106460000348044B834202D0034B03B118477047E3
:10647000583200205832002000000000064B074927
:10648000C91A891048BF0131491003D0044B0BB120
:1064900001481847704700BF58320020583200208A
:1064A0000000000010B5064C237843B9FFF7D8FF71
:1064B000044B13B10448AFF300800123237010BDD7
:1064C000402C0020000000002853040808B5054BAC
:1064D0001BB105490548AFF30080BDE80840FFF750
:1064E000CDBF00BF00000000B80D002028530408F5
:1064F000A3F5803A704700BF174B002B08BF134B22
:106500009D46FFF7F5FF00218B460F461348144ABE
:10651000121A35F010F90E4B002B00D098470D4B96
:10652000002B00D098470020002104000D000D48EA
:10653000002802D00C48AFF3008022F0ABF8200016
:10654000290027F095FD22F093F800BF0000080015
:106550000000000000000000C80A0020C80A002057
:10656000A02D00200000000000000000054B5A6F25
:10657000D20605D45B6F9B0602D5034828F019B8F4
:10658000704700BF00C0035068F203080022014BAF
:106590001A807047042C002010B538F0D2FB054A51
:1065A000148814B1631E0124138038F0C5FB204603
:1065B00010BD00BF042C00200B4B70B51D688DB1C1
:1065C0002846012300F8013B084B094C1E7821782E
:1065D000324635F0B0F82946304627F0D8FD23681A
:1065E0000133236070BD00BFD40D0020422C002079
:1065F000D00D00202DE9F34143780446013B042BE4
:1066000054D8DFE803F0032B3A4145004FF000086F
:10661000C378284F284E294D3B7083782868337003
:10662000274BC3F8008018B129F002FFC5F800809D
:10663000387829F0EBFE286070B101230093214ADD
:1066400000233178204800F067FE0121621C02B06F
:10665000BDE8F04127F098BD1920F6E71A4800F090
:106660003DFE164E0546306818B129F0E1FE0023C4
:10667000336001212846621CE9E7144835F070F8C0
:10668000124AC1B20020E2E7024612F8011BF9E704
:10669000054615F8011B00202A4627F075FD2946FE
:1066A000207802B0BDE8F04127F071BD0022012042
:1066B0001146CCE7422C0020412C0020D40D0020B4
:1066C000D00D0020B9650008D80D00202832002028
:1066D00007B501A805F014F99DF80530012B14D178
:1066E0009DF804308BB94FF48012124B1249586E4A
:1066F00003F580535A664B6B23F0E05343F040633D
:106700004B63C3025CBF0D4B5A6607F0D5F929F005
:1067100038FE07F07DF829F028FE29F034FE07F056
:1067200037FA01F0A7F802F019FF03B05DF804EBA7
:1067300007F0BEBD008000500040005A00A000508D
:10674000014827F033BF00BF68F2030818B1034BBC
:106750001860002070472520704700BF100E0020F1
:1067600010B5054C0549206803F066FB2068BDE8BC
:106770001040FFF7EBBF00BF903000206C2F0020CF
:10678000014B1868704700BF100E002008B538F0A4
:10679000E1FA0022034B1A809A70BDE8084038F0F5
:1067A000D4BA00BFB40F002008B538F0D3FA0022E5
:1067B000034B1A809A70BDE8084038F0C6BA00BF93
:1067C000AC0E0020002337B518481D460288009300
:1067D0001146D41CADF804300444032920D93BB140
:1067E000042AC2F1040388BF002312FA83F3038052
:1067F0006A4606234A21406830F09FF9FFF7C6FF3A
:1068000001220B4B69461A70009B180200F4E060ED
:10681000C3F307231843043000F03CFB03B030BD42
:106820000131012304F8015F89B2D6E7B40F0020DB
:10683000432C002010B5002488B0FFF7A7FFFFF716
:10684000B3FF114B1C22214601A81C7034F073FFCA
:1068500009238DF804300D4B0D4902930D4B01A80F
:10686000039302238DF810304FF4806305930A23BD
:10687000ADF8183000F068FC014610B1204627F052
:1068800079FC08B010BD00BF432C002099680008B7
:10689000BC1000207DE1020870B5444D286827F047
:1068A00060FD014638B1002027F064FC2868BDE88F
:1068B000704027F03ABD3E4CA378BBB33D4E3378D1
:1068C000A3BBA37033F031FE38B10121042027F0BF
:1068D00051FCBDE87040FFF759BF6068364A20F4AC
:1068E0007F4323F00703934258D033D802F17C4210
:1068F0003249D83202408A4236D1934238D0304AA7
:10690000934241D013F06AFD012304463370FFF730
:106910003DFF22682146130203F4E063C2F307221D
:106920001343181D00F0B6FA33F007FE254B9A7892
:106930005AB120490A7842B9012008701888191DF7
:106940009A7000F0A7FAFFF72FFF2868BDE87040A3
:1069500027F015BD1C4A934206D1227A0AB304F1EE
:10696000080027F010FCCDE7184933F0A0FEC9E776
:10697000227A22B104F10800FFF73CFEC2E711467B
:10698000012019F0ABFABDE7237A1BB10F4800F0E4
:1069900029F9B7E7012019F0DFFAB3E700F048FE64
:1069A000B0E71146012019F0E1FAABE7BC10002076
:1069B000B40F0020432C00202000FF022000FF0025
:1069C0002000FF01AC0E00202000FF03BC0F0020C0
:1069D0002DE9F0411F4F0546386827F0C2FC0146FB
:1069E00090BB286820F47F4020F0070000F058F9A1
:1069F00028BB284627F0B6FB08B32B68164E1C02AE
:106A000004F4E064C3F307231C4338F0A3F933888C
:106A10000434C3F58272944280460AD80433224675
:106A2000F018294634F08FFE33881C44012334804B
:106A3000B370404638F089F9386827F076FC38683A
:106A4000BDE8F04127F09BBC002027F093FBBDE898
:106A5000F08100BFBC100020AC0E002070B50D4EC0
:106A60000546306827F07DFC044680B90A4A138841
:106A7000C3F582739D4205D893781BB9074B9C7868
:106A800084F00104306827F07AFC204670BD0024B1
:106A9000FBE700BFBC100020AC0E0020B40F0020AC
:106AA00010B50A4C206827F05CFC014648B9084B39
:106AB0001870206827F039FC2068BDE8104027F0E6
:106AC0005EBC002027F056FB10BD00BFBC100020AC
:106AD000432C00202DE9F74389461746014610B1A3
:106AE000012027F047FB3A4D286827F03AFC014681
:106AF000002866D11FFA89F43CB338F02BF9354EE3
:106B0000804630880328C0F582720CD994420AD995
:106B100073681C0204F4E064C3F307231C43C0F150
:106B200004031C44A4B2944240D80430224639469F
:106B3000304434F008FE338883B123444046338028
:106B400038F003F93288032A1DD8286827F0EDFBB6
:106B5000286803B0BDE8F04327F011BC40463480FC
:106B600038F0F3F83288032A1ED800234FF4FA7164
:106B70000093194A194B1A4800F0CEFB0146002831
:106B8000E3D0022017E0002071680B0203F4E063F9
:106B9000C1F307210B43043393420FD8012310485C
:106BA000B37000F09BFBE9E70120EDE7404638F0C9
:106BB000CCF81E21012027F0DDFAC6E70028D4D149
:106BC000C3E7002027F0D6FA03B0BDE8F08300BF8A
:106BD000BC100020B40F002093E10208C567000834
:106BE000740E002070B543780278012B14D0022B6C
:106BF0002BD063BB052A2AD1274C2278082A47D0FC
:106C00002649D0F802000D46DEB2964224D345F85C
:106C100022000132227016E0052A18D11E4C21787C
:106C2000C1B3D0F802601D480023024650F8045B4F
:106C3000AE421ED10020013942F82300217002EB40
:106C4000830299420FDC002002E0012A17D00120C4
:106C5000BDE8704019F080B951F8046B0133B042BF
:106C6000D2D12E20F4E754680133146042F8040FA7
:106C7000E7E70133DDB2A942D8D82D20E8E720228A
:106C80000021064834F057FD0022034B1A70DAE762
:106C90001C20DDE71B20DBE7442C0020C010002077
:106CA00010B5084B084A1C780023D9B28C4201D891
:106CB000002010BD52F8041B01338842F5D1012099
:106CC000F7E700BF442C0020C0100020F8B50546AF
:106CD000002843D038F03EF8AB6A06469B889BB24A
:106CE0001BB9BDE8F84038F030B8E86836F026FE49
:106CF0000023AC6A85F8303038F02CF8A3889BB2BA
:106D00001BB938F022F83046EBE767886388E288E1
:106D10009BB20133B3FBF2F102FB11339BB26380F0
:106D2000A388BFB2013B9BB2A38038F00EF81423B6
:106D30005F4307F110012144E86836F045FE084939
:106D40003C44A1610028DED16769002FDBD0E268F6
:106D500023692846D31AA268B847D4E7F8BD00BF14
:106D6000097000F038B51F4C206803689B6C1A044A
:106D700024D5012103F044F937F0ECFF23680546E0
:106D80001B68DA6C22F40042DA644FF4004203F527
:106D900000539A6437F0D5FF23681B685A6E22F4BB
:106DA000E0225A665A6E42F082725A6637F0C4FF89
:106DB000284637F0CAFF2068FFF788FF206803687D
:106DC0009B6CDB060CD5012103F01AF90221206827
:106DD00002F0C0FE102223681B6803F500539A647A
:106DE00038BD00BF00140020014B1868FFF76EBFCC
:106DF0000014002010B588B0FFF7C2FC1E4B0268DB
:106E000018601E4B1E4C9A422BD1092323706946F1
:106E1000012038F0C4F8014610B1042027F0C9F968
:106E200010240021224601A834F085FC29238DF886
:106E30000430144B4FF480620293134B13490393B5
:106E400002238DF81030124B01A8CDE905230794D9
:106E500000F07AF9014610B1012027F0AAF908B034
:106E600010BD2521022027F0A4F9FF2325210220AF
:106E7000237027F09EF9CAE70014002000C00550D7
:106E8000452C0020B5700008BBE10208FC1300206F
:106E90000A0004002DE9F8431D4E04463068884678
:106EA00027F05FFA014620B1012027F082F9BDE802
:106EB000F883184DE71C2B6827F00307DA19164BE7
:106EC0009A4224BFA3F582732B60B4F5827F08D960
:106ED0001D21032027F06DF93068BDE8F84327F045
:106EE0004EBAD5F8009022464146484634F02BFC75
:106EF0000A48224649460A4B006803F03DF910B99A
:106F00002B683B442B60306827F00FFAE4E700BFA2
:106F1000FC13002094300020E41100200014002015
:106F2000256F00081FB50223003918BF01218DF815
:106F30000030074B019110226946186827F021FAAA
:106F4000014610B1012027F034F905B05DF804FBCB
:106F5000FC1300201FB500238DF80030064B694656
:106F60001022186827F00DFA014610B1012027F011
:106F700020F905B05DF804FBFC13002070B51B4D33
:106F800004462B6803F58272194B9A4224BFA3F57D
:106F900002732B6037F0DEFE4FF482720646154B0B
:106FA0002046296803F03AF80446C0B9304637F065
:106FB000CCFE4FF40041104B1868026802F50053F4
:106FC0009964D36C0B4343F01003D364214603F060
:106FD00017F82B6803F582732B60204670BDFFF70E
:106FE000B9FF304637F0B1FEF7E700BF9830002018
:106FF000EC1300206D7000080014002070B5164DD1
:10700000286827F0AEF9014618B1012027F0D1F821
:1070100070BD124C124E94F9000006F0ABFD94F9CD
:10702000000006F063FD33680E4A1B685A660E4A7C
:1070300003F500539A6437F08DFE04463068FFF77D
:107040009DFF08B1FFF786FF204637F07EFE2868D7
:10705000BDE8704027F093B9FC130020452C0020B8
:1070600000140020FF002401FFFF01001FB50020D5
:107070000124CDE9020001900C488DF800408142C6
:1070800001D001B1019463B1CDE90232084B6946E8
:107090001022186827F075F9014610B1012027F079
:1070A00088F8FFF757FF04B010BD00BF097000F06B
:1070B000FC13002070B5214D86B0286801AA02A9F2
:1070C00027F08CF91B28044604D028B10146012082
:1070D00027F06FF806B070BD37F03CFE9DF8083021
:1070E0000646012B1ED0022B0FD043B9144C20684A
:1070F00028F0A2F810B92068FFF740FF304637F0BB
:1071000024FE286827F03BF9E4E70E4B039E5C6001
:107110001C7337F01AFE286827F031F93046FFF764
:10712000BFFCD7E737F011FE286827F028F9DDE922
:1071300004120398FFF7CEFCCCE700BFFC1300203D
:1071400000140020EC130020F8B50F460546002877
:1071500043D0002941D003784268980702D01AB979
:10716000212428E0002AFBD1190702D5AA8A002A87
:10717000F6D09A0605D5EB8A002BF1D0AB69002B2F
:10718000EED02C2029F042F9064640B32C220021F3
:1071900034F0D1FA2B46321D05F11C0153F8040BD3
:1071A0008B4242F8040BF9D12B785B0705D53E6082
:1071B0006B686BB900242046F8BD0121304627F0EA
:1071C00088F804460028F2D0304629F031F9F2E779
:1071D0003146044827F08AF9ECE72224EBE719242A
:1071E000E9E700BF0414002008B5044827F077F948
:1071F00026F04CFFBDE8084026F04FBF04140020E5
:107200000B4B10B51C680CB901200AE037F099FD52
:1072100094F8202003462AB1A26A1AB137F08CFDF7
:10722000002010BD184637F087FD2468EBE700BF4B
:10723000041400200B4B10B51C680CB901200AE0A7
:1072400037F07FFD94F8202003462AB1A26A1AB1D4
:1072500037F072FD042010BD184637F06DFD24682C
:10726000EBE700BF041400200C4B10B51C6804B9F8
:1072700010BD37F066FD94F8203002464BB1A36A8A
:107280003BB1013BA36237F057FDA36898472468E0
:10729000EDE7104637F050FDF9E700BF0414002079
:1072A00038B5054637F056FD00230B4A14685CB12B
:1072B000AC4206D1A96A6BB1996237F046FD012054
:1072C00007E02346A46AF2E7002DF3D037F03DFD36
:1072D000204638BD1160F0E70814002010B50446C0
:1072E000B0B137F03DFA2046FFF7DAFF10B194F85D
:1072F0002C300BB9002010BD064C2368002BF9D0B0
:1073000037F028FD2368013B236037F01EFDF1E7CD
:107310002220F0E70C1400202DE9F04385B005464B
:10732000914698460E469DF8307009B9002F5CD101
:107330002846FFF7D3FF0446002836D185F82C00F5
:10734000686307F075F9864233D937F09FFA214612
:10735000844640F2E7304FF47A720023E6FB0C01DA
:1073600020F0F6FF4FF0FF32002320F0F1FF2B4614
:10737000E88611462846CDE900441D4A37F0DAFE7A
:10738000044690B9C5E9089885F82D702E6337F04A
:10739000E1FC184A136833B31A469B6A002BFBD1F1
:1073A00095620023AB6237F0D0FC204605B0BDE803
:1073B000F08347B12B4631462846CDE900440C4ABC
:1073C00037F0B6FADCE7304603A937F065FA044631
:1073D0000028EAD12B462846CDE90077044A0399D4
:1073E00037F084FECCE71560DBE72124DDE700BF42
:1073F000F97300080814002091F82C3013B50C46DE
:1074000083B98B8ECA8E93420ED243B9CDE9003335
:1074100020460B46124A4FF0FF3137F04BFEA38E49
:107420000133A38602B010BD52B191F82D3093B153
:1074300001230093D1E908232046096BFFF76CFF75
:10744000012384F82C30074B1A6801321EBF1A68DA
:1074500001321A60E6E7084637F082F9F0E700BF2C
:10746000F97300080C1400202DE9F041154E336823
:1074700033B34FF00008144F37F06CFC05463C68FE
:1074800024B92846BDE8F04137F05FBC94F82C30B1
:10749000A3B1336884F82C8013B13368013B3360A7
:1074A00094F82D3013B92046FFF7FAFE284637F03E
:1074B0004CFCD4E9083120469847DDE7A46ADFE7B1
:1074C000BDE8F0810C14002008140020034B1B6859
:1074D000002B14BF04200120704700BF0C140020B3
:1074E000024B1868B0FA80F0400970470C14002075
:1074F0000348044A0449121A921026F097BF00BFAD
:107500007061000830630008A02D002008B500F06D
:107510002FF8FFF7EDFF124B12498B4212D30020D8
:10752000114B12498B4218D3FEF7E6FF186850F84A
:107530002240586840F82240013298688242F5D3D0
:107540000C33EAE70022F8E71C6844F82200013215
:107550005C68A242F8D30833E4E70022F8E700BFF2
:10756000305304083C5304083C5304083C530408BB
:107570004FF48041124B134A70B59A60D3F88820BB
:10758000114D42F47002C3F88820104A05F50054EA
:1075900091664FF0FF3222660D4A62660222C3F8FE
:1075A000D020BFF34F8FBFF36F8F4FF440360020D2
:1075B00006F0E0FA0020E66006F098FA2E6170BD51
:1075C00000ED00E0006000080080004400900050E2
:1075D000F7FF3700014B1860704700BFA030002054
:1075E000054B1860054B1B6F03F00703032B01D1FC
:1075F00036F028B9704700BFA83000200080005046
:107600004FF000639B6A03F17842B2F5C04F03D29A
:107610001968064A914203D00023037083607047C3
:10762000012202709A689B694260F7E707B0CD5E5D
:10763000024B034A1A6028F0AABE00BF00000020D7
:1076400002020FF073B54F4B04461A781AB10222AA
:107650001A7002B070BDCDE900220028F9D00126D1
:107660001E7037F077FB484D484B18601DF038F915
:107670002B785BB901F072FF40B945480823454AB1
:107680004549006801F004FE00B92E70434B5A6E64
:1076900062619B6E424AA3614FF480439366414B03
:1076A0005968E16140499960196E2160596E6160C5
:1076B000D3F87011A160196CE160596C21613B49EC
:1076C000086C1864496C5964012151661B6E9C0456
:1076D00041D5374AD368D807FCD4364B1A68531CB7
:1076E0003ED04FF480139340334A13664FF4007337
:1076F0000426314C2666236626F0C1FE01300DD0EB
:1077000026F0BDFE40F20113984207D04FF400531B
:1077100023664FF480432366C4F870610823264C27
:10772000684623664FF4805323664FF00063236658
:107730004FF4002301A9636626F085FE009B2366B3
:10774000019B63662B78002B83D0124B1A6822664C
:107750005B6863667DE7194AD368D907FCD4BCE748
:10776000174B1B78002BC1D14FF400720C4B5A669B
:1077700003F5A6235B68002BB8D14FF480120E4BA3
:107780001A66B3E7472C0020482C00203014002054
:10779000D030002034140020007108000080005018
:1077A000009000500080004455CEAC0000C0005452
:1077B00000000440AC300020009000440000045061
:1077C000462C002070B5224D04462E78012E02D0A2
:1077D00001232B7070BD0028FCD026F050FE013034
:1077E0000BD026F04CFE40F20113984205D0194B05
:1077F000194A5E66D368DE07FCD42268174B1A6606
:1078000062685A66A268C3F87021E2681A64226945
:107810005A64E269D00744BF00229A60104B1A688C
:10782000013207D10F4A127822B90F494968C907B6
:1078300048BF1A6062690D4B5A66A2699A661DF0CC
:1078400057F80B4B186837F080FA0023C1E700BFE8
:10785000472C0020009000400000044000800044BD
:10786000AC300020462C002000C0055000800050A5
:1078700030140020F8B54FF00066B36A03F1784287
:10788000B2F5C04F26D21A68144B9A4222D1144D39
:107890002C7814F0FD0402D000242046F8BD4FF4EB
:1078A00080371048FFF7CEFE204606F063F90E4BF6
:1078B0002046DF6006F01AF90C4B1F61B36ADB69E2
:1078C000984704460748FFF77DFF002CE5D10123C8
:1078D0002B70E1E74FF48174DFE700BF07B0CD5EA6
:1078E000462C00201014002000A00044009000440A
:1078F00013B5204B1B7803B9FEE700231E4CCDE9DE
:1079000000336A4608231D49206801F0C1FCF8B91C
:107910001B4AD2F84031D2F840211F2B4FF001030F
:1079200011D9203A9340019A1A43019208236A46DA
:107930001249206801F068FC124B134A1A6028F0C3
:1079400026FD02B010BD9340009A1A430092EDE765
:107950002D28F1D10A4AD2F84031D2F840211F2B0C
:107960004FF0010385BF203A93409340019398BFA5
:107970000093DBE7472C0020D03000200071080086
:1079800000800044000000200B020FF0BFF34F8F77
:107990000549064BCA6802F4E0621343CB60BFF3AB
:1079A0004F8F00BFFDE700BF00ED00E00400FA05C7
:1079B0002DE9F04104460C254FF00108124E0CB39E
:1079C00014F001000BD0002024F0010405FB00623C
:1079D0005768002FF3D09168C0B2B847EFE722464E
:1079E000013020284FEA520201D0D307F8D508FA17
:1079F00000F20F2824EA0204E8D9103805FB0062DF
:107A0000B432E5E7BDE8F0813C14002008B50C482D
:107A100028F0B2FC192006F077F828B1192006F0FA
:107A2000A9F8192006F062F81A2006F06DF828B1BE
:107A30001A2006F09FF81A2006F058F8002008BD1A
:107A4000CC0504082DE9F0410E469046054618B3D2
:107A50000F2923D80378E3B1012B03D0022B18D0D0
:107A6000032B1BD13F236A78D340DB0716D50D4B80
:107A7000D3F81043A4B937F06DF9074642462846BB
:107A8000314604F055F8384637F05FF92046BDE836
:107A9000F08140F2FF33E6E72224F7E72124F5E7FF
:107AA0000224F3E700C0035010B50446E8B10378A0
:107AB000C3B1012B03D0022B14D0032B17D13F23CA
:107AC0006278D340DB0712D537F044F9012263789E
:107AD00021789A4030235943064B5A5037F035F9F4
:107AE000002010BD40F2FF33EAE72220F9E7212011
:107AF000F7E700BF40D0035010B50446E8B1037863
:107B0000C3B1012B03D0022B14D0032B17D13F2379
:107B10006278D340DB0712D537F01CF90122637875
:107B200021789A4030235943064B5A5037F00DF9CB
:107B3000002010BD40F2FF33EAE72220F9E72120C0
:107B4000F7E700BF40E0035010B50446E8B1037802
:107B5000C3B1012B03D0022B14D0032B17D13F2329
:107B60006278D340DB0712D537F0F4F8012263784E
:107B700021789A4030235943064B5A5037F0E5F8A4
:107B8000002010BD40F2FF33EAE72220F9E7212070
:107B9000F7E700BF40F003502DE9F0410D461646CF
:107BA00098460446002851D000294FD002784AB1A7
:107BB000012A42D0022A05D0032A3ED0FF2A07D04C
:107BC000212041E040F2FF336278D340DA07F7D555
:107BD000022E01D9042EF3D137F0BCF823780746E2
:107BE000FF2B05D032462046296803F0E7FF2860C6
:107BF0002B68013309D12378FF2B06D1144B607811
:107C0000D3F8241427F024FC286029684B1C17D0D3
:107C10000C23104A03FB0122069BC2F804809360E8
:107C20002378FF2B04D001230B4A8B40C2F8243465
:107C3000384637F08AF8002006E03F236278C4E730
:107C4000384637F082F82D20BDE8F0812220FBE78E
:107C500000C003503C14002000D0035008B503F0CE
:107C60005DFF054B00F0553020F05020C3F8200494
:107C7000BDE80840FFF79CBE00E0035008B503F0E4
:107C80004DFF054B00F0AA3020F0A020C3F82004DF
:107C9000BDE80840FFF78CBE00E0035013B5044672
:107CA0000A4828F069FBA2780421B2FA82F223780C
:107CB00052098DF8043063780DEB01008DF8053022
:107CC000FFF7C0FE002002B010BD00BFCC050408C5
:107CD0002DE9F04F9A46564B85B01B7806460F4665
:107CE0001546DDF83C909DF844B0DDF85080002B3F
:107CF00000F09780072A00F296800E9B002B00F080
:107D00009280B9F1000F00F08E80129BB3F5006FE6
:107D100000F38980012803D1109B002B00F08380A1
:107D2000444B03EB05131B7B002B7ED0424C1022EF
:107D30000021684633F0FFFC04EB45141022A7BB7A
:107D40003946204633F0F7FC43F210036380BBF161
:107D5000000F03D1E37843F00303E370364A0E9B30
:107D600002EB451CCCE90193129B6901581E9DF85A
:107D70004C30C0F30A0003F003039B0643EA001EE5
:107D800053582E48012E00EA03004EEA0003CDF8B6
:107D900000A0535017D0B8F1000F2ED19CF802303C
:107DA00068F304138CF8023027E00021204633F0FA
:107DB000C2FC4FF444736380BBF1000FCED1E37873
:107DC00043F03003C9E713230CF1100ECCF80C304C
:107DD0009CE80F008EE80F006FF00301DCF81C2018
:107DE000109B61F39F02012FCCF81C20CCF81430BB
:107DF00003D1CCF81890CCF8043000270D4A2901A3
:107E000002EB051342F80180159A28465A6069462C
:107E100022469F605E7303F0B3FC384605B0BDE8B0
:107E2000F08F0748FAE70748F8E70748F6E700BF8A
:107E3000492C0020A4160020A41500200F80FFF379
:107E4000028000F0018000F0078000F038B5124B8E
:107E500005461B78DBB1E0B136F07CFF0F4A00230A
:107E60001146147B54B92B6001251A0101EB031351
:107E70001D738C5036F069FF204638BD0133082B46
:107E800002F11002EDD136F060FF0548F5E7054834
:107E9000F3E70548F1E700BF492C0020A4160020B5
:107EA000048000F0028000F0018000F0154B13B553
:107EB0001868002301908DF8043036F04BFF124B08
:107EC0001C7824B136F041FF104802B010BD0122E9
:107ED0001A7036F03AFF0E4B01A81C731C7783F81A
:107EE0002C4083F83C4083F84C4083F85C4083F896
:107EF0006C4083F87C4008238DF8073003F010FCB9
:107F00002046E2E7D0F20308492C0020038000F06D
:107F1000A41600200A4A08B512785AB107280BD8CF
:107F2000084A02EB00131B7B43B1002103F0EAFB7C
:107F3000002008BD0448FCE70448FAE70448F8E7D5
:107F4000492C0020A4160020028000F0018000F0DF
:107F5000078000F00A4A08B512785AB107280BD8F2
:107F6000084A02EB00131B7B43B1012103F0CAFB5B
:107F7000002008BD0448FCE70448FAE70448F8E795
:107F8000492C0020A4160020028000F0018000F09F
:107F9000078000F0184B2DE9F0411F6D5B6D1F400D
:107FA00000D5FEE701260025144CDFF85880374243
:107FB00018D02368C8F85060A3B1A16828460131E1
:107FC0006268A1609847637B012B0BD150B90C4BC1
:107FD00003EB45131A7B60F341021A731A7F60F3B7
:107FE00041021A770135082D4FEA460604F11004C4
:107FF000DDD1BDE8F08100BF00000450A4160020D0
:10800000A4150020002004502DE9F04F1446064628
:108010000D469B46C36B87B001225B6902A960686D
:108020009847F36B01225B6903A92846984702A889
:1080300026F031FF074648B10023A37563754FF062
:10804000FF33A360002007B0BDE8F08F03A826F03F
:108050002FFF0123A375237E04EBC303DD611F847F
:108060006368AB420ED1206003A826F043FF4FF0B7
:10807000FF332075A360237D043B022B26D8002309
:10808000A375DFE723681A1A53425341A37503A867
:1080900026F030FF237D834218BFA77503A826F082
:1080A0000BFF074602A826F007FF874218BF0023F0
:1080B00003A818BFA37526F007FF074602A826F0FD
:1080C00003FF87421CBF0023A375D4E703A826F053
:1080D000F3FE80B1F36B022228465B6904A998473E
:1080E00004A826F0F8FE0346207D032839D8DFE8EF
:1080F00000F03838040903A8F3E7CC22237E04EB10
:10810000C3031A8401F0A2FA109B187003A8277EFB
:1081100026F0C6FE04EBC70787F82200237E03A8DB
:1081200004EBC303B3F8209093F8227026F0C4FE4A
:10813000804603A826F0C8FE8246B8F1000F15D08D
:10814000F36B022228465B6904A9984704A826F02D
:1081500087FE6075637D6BB90023A3754FF000083F
:1081600038E0227E04EBC2021384CBE703A826F09A
:1081700062FEEEE794F81680B8F1000FEED0B9F188
:10818000000F09D1DFB10123627EE375002A44D1DB
:108190009F4218D1677614E0736C05EB0A025942CE
:1081A00085EA020008421CBF0021A175591E0A4041
:1081B0009B1A9945D0D8A37D002BE3D1CEE7E37D70
:1081C00043B94FF000084B4652462946304626F048
:1081D000A0FBA060A27D12B123694B442361144926
:1081E000237E097899421ED901332376BBF1000F13
:1081F0001BD0D2B1E37DC3B1B8F1000F15D1032F6D
:1082000013D0A1684B1C10D0109B2246009330461F
:108210000123FFF7F9FEA07507E0012FDAD0032F45
:1082200008BFA376CDE70023A375A07D0BE700BFB1
:10823000F4F203082DE9F04F0E46984600238BB068
:1082400004464FF0FF31104617468DF8133001F009
:10825000E7F9B6F5801F3BD3B21C53D1E56A6B1C1E
:1082600057D12046616A26F09AFA0546B31C18BF1A
:108270000123DFF810910193636A626C0293236813
:1082800005A902FB053AE36B05225B695046984756
:1082900005A826F09BFE26F0BEFE504626F0C6FE40
:1082A0004FF0000B824601464B1C05D0636C81EAFF
:1082B0000A025B42134232D02946204626F06FFA6A
:1082C000029BAB424DD0BBF1000F4DD10546D3E729
:1082D000314605AA04F1080026F02BFD0146481C92
:1082E00010D0384601F09CF90122394620460DF1A4
:1082F000130326F060FB28B19DF8133088F8003096
:10830000002003E0237C002BA8D12D200BB0BDE87A
:10831000F08F2368ED1A636CB5FBF3F5A6E74846CA
:1083200001F07EF90DF1130349462046019A26F02B
:1083300042FB034690B1B21C03D0D9F80020B242F0
:108340000CD19DF8132003930D4B88F8002049466B
:108350001A68384633F0F7F9039B9B46D9F80810A2
:10836000A2E7BBF1000FD0D0B6F5801FC8D23146CE
:1083700098F800307A6804F1080001F07FF8BFE750
:10838000F0F20308981D00202DE9F341044617463A
:1083900098460E46194D816AE36A8B422AD04B1CDF
:1083A00018E0284601F03CF90122294620460DF14B
:1083B000070326F000FB30B14346294620469DF8CE
:1083C0000720B847B0B1A9684A1C05D0012E0AD0D1
:1083D000E36A9942E5D10DE06968204626F06CFA1F
:1083E000012E0146D8D16B6881EA0302636C5B42BF
:1083F0001A42D1D002B0BDE8F08100BF6C1D002050
:108400002DE9F041036B9046826B07689A4288BF62
:108410008363426C436A90B002FB0377C36B0E46E2
:10842000052201A95B6904463846984701A826F051
:10843000CDFD01280146307057D0656CE26B236892
:10844000606AD2F814C005FB0030052206A9E04797
:1084500006A826F0BBFD01284FF0000523D0D4E983
:108460000A3201219342CDE90B458DF834800E95F7
:108470008DF83C102AD11946204626F01DFA236BB0
:10848000626C14339B1AE06223630C9B53B99DF812
:108490003C303BB1626A616C2368E06B01FB0231E6
:1084A00026F04CFD0C9DE36B05225B6901A9384663
:1084B000984701A826F08AFD30702846236BA26BEE
:1084C0009A4288BFA36310B0BDE8F081237C33B922
:1084D0001C490BAA04F1080001F01EF8D5E720465C
:1084E000194A0BABFFF750FFCFE7237C23BB224693
:1084F000164904F1080001F00FF8616A204626F0E1
:108500006FF9616A421C204626F038F9054620B909
:10851000236B626C1344143B23632046A16A26F04C
:10852000CBF92368A062C01A636CB0FBF3F0606201
:10853000204626F004FAB6E700232046044AFFF757
:1085400023FFDAE7158D0008918C00083FEA020846
:10855000DBE9020873B50D46D11E4A421C461B7E5C
:108560004A419A4226D129682368994222D36368F6
:1085700099421FD8114E0DF107033246FFF75AFEFC
:10858000C0B972686B689A4214D19DF80730DA1E40
:1085900053425341227E93420CD16369013363619C
:1085A000D4E90323934205D22968A26842F8231034
:1085B00001332361012002B070BD00BFC41D002043
:1085C0002DE9F04F9A468BB09DF85030DFF850B14E
:1085D0000293DBF81030804653450D461646C0F036
:1085E0009980D146DBF804300193B9F1000F00F017
:1085F0008D80D8F83C3001225B6907A90198984723
:1086000007A826F055FCDBF80030984240F0858042
:1086100007A826F059FC0428074614D107A826F01D
:108620005AFC019B029A04463B44002A3FD18642F1
:1086300012D91446361A4046019926F03DF9A9EBA5
:1086400004090190D1E7D8F83C3002225B69019817
:1086500008A9984708A8E2E7841B544528BF544658
:10866000032C03EB0607AAEB040A4FEA94021CD979
:10867000D8F83C30294638465B69984724F0030314
:1086800004F003061F441D44002ED4D0D8F83C301B
:1086900001225B6908A9384698473246284608A94E
:1086A000354433F050F80026C5E72646ECE7074688
:1086B00000F00302039203442A1804920593049BDA
:1086C000DD1B059BD81B039B9F420FD1002FB2D00F
:1086D000D8F83C30012208A95B6998473A462846F9
:1086E00008A932F0FEFF78B93D44A4E7D8F83C3041
:1086F000012208A95B6998470422284608A932F09C
:10870000F0FF08B9043FDAE74FF0360948460BB0EE
:10871000BDE8F08F4FF06309F8E74FF06F09F5E718
:10872000F01D00202DE9F0410F46164698460446FC
:1087300088B060B390F83450FDB1012125F0F4FF0A
:1087400000210E9BCDE90511CDE902379DF83C30A3
:10875000CDF804808DF81C30237C04968BB90D492C
:1087600001AA04F1080000F0D7FEDDE90553E06B33
:10877000002E08BF1D4626F070F9284608B0BDE857
:10878000F0812046044A01ABFFF7FEFDEDE7054608
:10879000F3E700BF09EA0208558500082DE9F04F0C
:1087A00099B00F4609920A69416C0E931439D31D92
:1087B000B3FBF1F3013302EBC302036B04469342B4
:1087C000C0F00D820023DFF820940D93E36A484641
:1087D0001946079300F024FFD7E9033604930E9B54
:1087E000022B4ED1CC2E40F08A81099B002B42D027
:1087F0003946204626F08FF9656C079A6B1E1340A8
:108800001490ED1AE36B01225B6916A9786898470A
:1088100016A826F051FB00280CBF04230823782E4D
:1088200006933DD9012300254FF0080A05933B68C4
:1088300005990E98C9F80030C9F8106026F05EFB63
:108840004FEA9A0310930023DDF81CB089F8140056
:108850000B930F9308930C93616C4A1E0BEA020270
:108860008B1A002E38D05544AB4240D8236B5B1A8C
:1088700013442363ABE0049B1B6814930823069303
:10888000D0E7656C079A6B1E1340782EA5EB0305A5
:1088900016D8FB7D7BB9099B002BB3D1042306932B
:1088A000331DAB4210D9A6B1082DBBD80425002337
:1088B000AA460593BBE7099B002BA3D10823EEE74B
:1088C000099B002B9ED1D9E7002505954FF0040A9E
:1088D000ADE704250596F9E75345C7D3B0460BEB42
:1088E0000A030393089B002B18BF032313E0A3EB99
:1088F0000A039E42B0460BEB0A0228BF98469E42EE
:108900000392EFD90123D9F8102089F81730964245
:1089100071D1C9F804B0089399F81730002B6CD0C6
:1089200099F818200899D31C09EBC3030132C3F846
:1089300004B0A3F80880997289F81820B8F1000FE4
:1089400014D00E9B022B5BD10B9B7BB90F9B434436
:10895000032B0BD9E36B01229B69039814A9984759
:108960000546002840F03D8101230B93089B16A883
:108970000193059B009399F814204346396800F051
:1089800005FEE36B58469B69109A16A99847051E89
:108990000D9B18BF5B4652460D93594643462046F1
:1089A00025F0B7FF236B08F10302A3EB0A0322F0C3
:1089B00003029B1AC9F808002363002D40F01181BF
:1089C0000F9BDDF80CB04344A6EB08060F93594605
:1089D000204625F071FF00258346002E7FF43CAF32
:1089E000814A3968936804F10800E36252680E9B7B
:1089F00000F044FDDEE002238DE7C9F804B09DE7F6
:108A0000099B002B30D1049BB8F1030F43440A9318
:108A100027D9DDE90301E36B4FEA98029B69984788
:108A20000546002865D118F003025FD0049B28F0AA
:108A300003052B440493039B1D444FF0FF3304991B
:108A400015A8159332F07FFEE36B28469B6901223F
:108A500015A9984705460A9B0493002D86D0039BD1
:108A600099E74246039DE8E7039B0A9307F1200339
:108A70001193FB7D78689BB100233D7E0C9AD9B29F
:108A80008D4211D9119903F1010C31F83310914243
:108A900026D9069907EBC303D8690A44104403E0BA
:108AA0000C9B069A13441844E36B01225B6915A9D9
:108AB0009847159B012213930C9B0A9804330C933F
:108AC000E36B13A99B699847039B0A9A43449B1A3B
:108AD000042B054607D978B9134604330A93C8E72F
:108AE0006346521ACBE70A9B0393B6E70A9B0493AB
:108AF0003CE70A9B0493B2E70A9B0393AFE7702617
:108B000004F1080303932368079A606CA2EB030A3D
:108B1000BAFBF0FA00FB0A3026F088FAE16A8046D8
:108B2000204625F0C9FEA26A82424AD0626CD9F87A
:108B30000830511E0B40216B2568891A0B442363B2
:108B40000D9BE0625D1BB5FBF2F5AA4536D1079B94
:108B5000B3EB080A12D0E36B4FEA9A0241469B69D5
:108B600098478346E36A079A5344E362236B03986A
:108B70009B1A4344236326F0ADF8DA462368616C00
:108B8000E06B01FB053126F0C6F9204625F0D7FD44
:108B9000204625F0D4FE2063BAF1000F11D03A69C7
:108BA000616CD31D1439B3FBF1F3013302EBC30243
:108BB0009042A8D2304619B0BDE8F08F4FF0000ABD
:108BC000DCE73A69616CD31D1439B3FBF1F301336F
:108BD00002EBC302236B9342BFF4F8ADEAE71C2615
:108BE000E8E72E468CE700BF981D00202DE9F347EB
:108BF0001E4643690446B342884617469DF82890AE
:108C00003DD300258DF80750204625F064FDD4F8AB
:108C100030A082450AD2236AB5EB430F06D2002268
:108C200020460DF10701FFF7EBFB30B39DF807304D
:108C3000012B05D1002220460DF10701FFF7E0FBD3
:108C4000B9F1030F06D03146204625F02FFD256BE4
:108C5000854218D30D4D4FF0FF31284600F0E0FC5F
:108C60004B46002229462046C5E90376C5F8008018
:108C700002B0BDE8F047FFF791BD0135C4E76220BF
:108C800002B0BDE8F0871C20FAE700BFC41D002039
:108C9000032A2DE9F34106460D4617461C4606D128
:108CA000237A012B23D0012002B0BDE8F081DFF848
:108CB0006080096842460DF10703FFF7BBFA606068
:108CC0000028EDD19DF80720237A032AE8D0D8F8B0
:108CD00004106A689142E3D1012B2969D4F80CC0D1
:108CE00007D172690CEB0103934202D92074207CF6
:108CF000DAE708316144E1603B460122294630460B
:108D0000FFF74CFD60600028CAD00020CCE700BF10
:108D1000C41D00202DE9F341089C032A174626684C
:108D200006D1237A012B24D0012002B0BDE8F081C6
:108D3000DFF89080304642460DF10703FFF77AFADC
:108D400060600028EDD12568D8F80400A96AD5F83C
:108D500044C04840CCF100031840227AE1D1012AF6
:108D600009D1E268D8F8103013447269934202D9ED
:108D70002074207CD9E72868EB6A1B1A081AB3FB19
:108D8000FCF3B0FBFCF083420BD1706CF36A421E23
:108D90001340326B121A13442846336325F08CFDBE
:108DA000E862D8F81020E36808321344E360012237
:108DB0003B4604492068FFF7F1FC60600028B0D012
:108DC0000020B2E7C41D00202DE9F04F4FF0FF3323
:108DD0004FF6FF720025044600F10806C0E909239A
:108DE0008BB0C3620562056330460F4625F072FF03
:108DF000204625F0A4FC20BB2046394625F01FFD67
:108E0000204625F09CFC20BB5E200BB0BDE8F08F17
:108E1000E26B2368606CD2F814C000FB05300522B9
:108E200005A9E04705A826F0D1F8012828D1294650
:108E3000204625F0D5FC421C2946204625F09EFC04
:108E40000135E3699D42E3D3204625F078FC0028F4
:108E5000D2D000254FF0FF394FF6FF73CA46A8461F
:108E6000C4E90853E369984514D3A5EB0905012D1E
:108E700036D84FF6FF72636A934246D16720C4E743
:108E800026F0CEF80028DBD02946204625F0A8FCA5
:108E90000246D1E72368E26B606C576900FB08303B
:108EA000052205A9B84705A826F090F8834605A82D
:108EB00026F063F80746584626F0ADF868B15745E6
:108EC00038BFC4F82480B94528BFB946BD4238BF71
:108ED0003D46BA46236A0133236208F10108C1E71F
:108EE0004FF6FF7300256362E3699D42C1D2676C50
:108EF0002068E36B052207FB05005B6905A998471D
:108F000005A826F03AF80135EEE7E26B676C2068B9
:108F1000694607FB030055690522A847684626F005
:108F20002CF8626A2368606C504D00FB023026F01A
:108F30007DF84FF0FF33A062E3622A466FF0010133
:108F4000204605ABFFF776F900284FD1AD682946DA
:108F50002046E56225F0CFFB206320B92046E16A78
:108F600025F0AAFCE0622946204625F0A5FC05462E
:108F7000A36A9D423CD16569626CE91C143AB1FB5D
:108F8000F2F14FF0000805EBC1050335B5FBF2F532
:108F9000C1460235E36999453CD3A8455AD22046DB
:108FA000616A25F0FCFB0027064604F1400AB8453B
:108FB00012D8626C2368694602FB0639E36B05220E
:108FC0005B6948469847684625F0D7FF53460246F6
:108FD0004946E06B26F02CF83146204625F0DFFBB1
:108FE0000137AF420646E2D364200EE7A56AAEE73A
:108FF0002946204625F07FFB236B2946034407467C
:109000002363204625F058FC0546002FB0D1C4E963
:109010000B07ADE7636C2768052203FB0977E36B59
:1090200005A95B693846984705A825F0CFFF25F0CC
:10903000F2FF60B1384625F0F9FF0146204625F0E1
:109040005AFB636C143B984208BF08F1010809F110
:1090500001099FE7304625F03DFE002320461946D2
:10906000034AFFF791F90020CFE600BFC41D00209E
:10907000A5E902080023624A2DE9F04117680E466F
:109080000446136018B921252846BDE8F08190F800
:1090900034500DB309680268914240F0A9807168AC
:1090A0004268914240F0A480B1688268914240F0E9
:1090B0009F80F168C268914240F09A8031694269AC
:1090C000914240F09580B169C26B914240F090802E
:1090D00072691D468261D7E750222946D0F8388050
:1090E00032F029FBD6E90212336804F1080023604C
:1090F0007368C4F838806360336963617369A3611E
:1091000025F0FAFDB36904F14000E3639B689847DA
:1091100094F8432020B1E561002AB4D05B25B3E781
:10912000656C002DF7D06668B6FBF5F3E361002AA5
:10913000A9D0B542F2D82268B2FBF5F105FB1122A5
:10914000002A57D105FB1363002B53D1204625F08D
:10915000C2FAA369043303449E424DD340F63472ED
:109160006369CC3B934249D8B5F5805FD6D30321E0
:10917000204625F0D9FAD4E90001E36B1B68984733
:109180000546E36B0220DB6898471DB1002384F895
:1091900034301DE039462046FFF716FE64280546A8
:1091A00004D139462046FFF70FFE0546636C143B99
:1091B000002DEBD1226A204602FB03F625F08BFA44
:1091C000A369043303449E4206D284F834505A25DE
:1091D000E06B25F042FC57E70123D4E90001094A7E
:1091E00084F8343013680133136025F01FFEEFE775
:1091F0005D2549E7592547E75A2545E75F2543E7B8
:1092000028170020241700202DE9FF410F46904623
:109210001E46054698B390F8343093B3B1F5801FDD
:1092200031D21A4C022125F07FFA224639462846CF
:109230000DF10F03FEF7FEFF024678B1012342460F
:109240000093394633462846FFF7D0FC0446E86BC6
:1092500025F003FC204604B0BDE8F0819DF80F30F6
:10926000012BEBD12169B142E8D10093414633464D
:109270002846FFF7A5F904460028DFD1E7E72124B7
:10928000E8E71124E6E72924E4E700BFF01D002009
:109290002DE9FF410C4616461F46054680B390F85F
:1092A00034307BB3B1F5801F2ED2DFF8608001210E
:1092B00025F03AFA2146424628460DF10F03FEF703
:1092C000B9FF044670B99DF80F30012B11D1D8F8C1
:1092D0001030BB4212D10246009031462846FFF7BB
:1092E0006FF90446E86B25F0B8FB204604B0BDE8F2
:1092F000F081022B14BF2D246024F3E76324F1E7EF
:109300002124F2E71124F0E72924EEE7F01D0020E4
:109310002DE9F04385B00C4617461E460546DDF89C
:10932000308098B390F8343093B3B1F5801F31D2C8
:10933000DFF86490012125F0F7F921464A462846D6
:109340000DF10F03FEF776FF044688B99DF80F3044
:10935000012B14D1D9F8102006EB08039A4213D33D
:1093600000904346324639462846FFF729F904461D
:10937000E86B25F072FB204605B0BDE8F083022BB8
:1093800014BF2D246024F3E76324F1E72124F2E7DE
:109390001124F0E72924EEE7F01D00202DE9F34128
:1093A0001F4600230C46164605463B6050B390F816
:1093B00034304BB3B1F5801F28D2DFF8548001213F
:1093C00025F0B2F92146424628460DF10703FEF783
:1093D00031FF0446A0B99DF80730032B10D0022BB3
:1093E0000AD10123336004233B60E86B25F035FB91
:1093F000204602B0BDE8F081D8F810303060F3E7C5
:109400002D24F2E72124F3E71124F1E72924EFE7E3
:10941000F01D002030B50C46054685B028B390F805
:10942000343023B3B1F5801F23D2022125F07CF91B
:109430000DF10F03214628460F4AFEF7FBFE0346B7
:1094400088B99DF80F20032A0DD0032221460092EF
:1094500002462846FFF7CAFB0446E86B25F0FDFAF2
:10946000204605B030BD2D24F7E72124F8E711246C
:10947000F6E72924F4E700BFF01D00202DE9F043B2
:10948000466886B3056898464FF0000CA946AE467C
:1094900055F83C400CF1010CC4F31307013401D022
:1094A000B94217D066450EF1080EF1D12F460024BF
:1094B00003E0A64207F1080712D055F83430013412
:1094C0000133F6D1C1F3130141EA0851C7E9001293
:1094D000BDE8F08341EA0851CEE90012BDE8F0830F
:1094E000B8F1030F03D101230372BDE8F083002319
:1094F00003E09E4209F10809F5D055F833400133E5
:10950000C4F30754032CF4D1C1F3130343EA085303
:10951000C9E90032BDE8F0832DE9F0410646406814
:1095200082B0C0B10F4690460024336853F83450DF
:1095300003EBC403C5F30752C5F31301013504F16E
:10954000010406D05B683046CDF80080B84710B102
:1095500070688442E9D302B0BDE8F081024B19681B
:10956000024B1868FFF786BDB0300020D0300020D5
:1095700008B535F0E6FB014B186008BD1C1E002045
:10958000014B186835F0D8BB1C1E002073B504468B
:109590002248012A00EAC1119DF8185023F07C40AE
:1095A00007D9961E012E28D9073303F07F031943EC
:1095B00008E09DF81C300A43DB0603F0C053134358
:1095C00043F060410023C4E900108DF80730B5B1C5
:1095D000202221460DF1070025F044FD1A220DF14D
:1095E0000700211D25F03EFD082063689DF8072037
:1095F00043EA8263636002B070BD1143E2E71B225D
:109600000DF10700214625F02DFD23689DF8072068
:10961000042043EAC2632360EDE700BF80FFFF0739
:1096200038B5094B0D461A680021044632F083F81C
:1096300000234FF0FF322383C4E900252361A26099
:10964000E382A37638BD00BFF0F203080138C0B250
:1096500005289ABF014B185C01207047F5F20308FA
:109660002DE9F0410746154600240E46596888B09A
:10967000490A012922464FEA510104F10104F8D8B0
:10968000DC78997824031B88C90201F4006104F492
:1096900080540C43C3F30A035203234492B24FF0A5
:1096A00000089C18274B6FEA0444039325F0784385
:1096B000ED4302A90DF107001B2202938DF80780EC
:1096C00025F0D0FC9DF80720029B02A943EAC26363
:1096D0000DF107001B2225F07845049302958DF8C3
:1096E000078025F0BFFC9DF80720029B6FEA144419
:1096F00043EAC26305934FF0FF330794069307A92B
:10970000BB69012206F110009847BB6905A9044610
:10971000012206F108009847BB69404518BF04467E
:1097200004A90122301D98470122404518BF044674
:10973000BB69304603A99847404508BF204608B09A
:10974000BDE8F08101009AB238B504460D4635F007
:1097500001FBA3889BB223B92B6035F0F6FA0648CB
:1097600038BD142263889BB202FB034408342C608A
:1097700035F0EBFA0020F3E70B7000F038B141B19F
:10978000013AB2F5006F044838BF00207047034823
:1097900070470148704700BF037000F0027000F08E
:1097A000104930B50A78104B2AB9C3E90022C3E941
:1097B000022201220A700C4900220C4654F8045B74
:1097C000854208D00132042AF8D1002251F8044B16
:1097D0001CB943F82200002030BD0132042AF5D123
:1097E0000248F9E74A2C0020201E0020027000F0F9
:1097F000002313B51D4A52F8044B94F821108142FE
:109800000ED00133042BF6D102B010BD0028FBD1DD
:109810009DF80730002BF7D0A068FEF77BFBF3E73D
:1098200094F83530022BEFD1204625F0A4FC637E5E
:109830002076022BE8D194F8323003F0FF02002B9F
:10984000E2D1A0680DF107018DF8072034F096F8F9
:10985000237E1BB194F83330002BD7D00023A068AF
:1098600084F83330FEF776FBCEE700BF201E0020E1
:1098700010B50446FEF71AFB002104F10800FEF7BC
:10988000E5FA014608B1044810BD04F10C00FEF7EA
:10989000DDFA0028F8D0F6E70E7000F0F8B50446BF
:1098A00016460F4635F056FAA388E2889BB29A42D4
:1098B000054605D80023336035F047FA1748F8BD50
:1098C0001422238807F1100C9BB202FB03433A4693
:1098D0000833174603CF6745186059603A4603F1CD
:1098E0000803F6D1142238681860238828469BB2F2
:1098F00002FB0343083333602388E2889BB20133C1
:10990000B3FBF2F102FB11339BB22380A388013336
:109910009BB2A38035F019FA0020D0E70A7000F05E
:1099200090F8363053B9042103790A4A03F2391307
:109930005B01D150022203685A617047022B07D1A4
:109940000068816C11F0020118BF062125F016BDD8
:10995000704700BF00C0035090F8363063B9012251
:1099600003685A619A69D207FCD504210379084A31
:10997000B9335B01D1507047022B07D10068836C6B
:109980009B074CBF0521092125F0F8BC704700BF9B
:1099900000C0035010B590F83630044663B9042275
:1099A00003685A619A699207FCD523790C4AB93346
:1099B0005B011021995010BD022BFCD10068836C13
:1099C000DB074CBF0521062125F0D8FC237941F2A5
:1099D00094425B0103F1A04303F57033E9E700BF54
:1099E00000C00350012370B580F8303090F8363055
:1099F00004460E4686B0A3B905682435204625F0F6
:109A0000D3FB0D4B049403930023029373680193DB
:109A10000123009332682B466169E06824F02CFE34
:109A200007E0022B02D105683C35E7E7002380F808
:109A3000303006B070BD00BF75A0000801232DE9CD
:109A4000F04180F8313090F8363004460E4688B048
:109A500063BB05683C3535F07DF904F13C080746E9
:109A60000DF11F01404634F0A9FE40B99DF81F30AA
:109A70002BB1404634F074FE204635F088F9384664
:109A8000012735F062F92046E76525F08DFB0D4B87
:109A9000049403930023029373682A46CDE900736C
:109AA00033682169A06824F0CDFD07E0022B02D1C4
:109AB00005684435CFE7002380F8313008B0BDE8B1
:109AC000F08100BFC99A00082DE9FF41D06A03A9BF
:109AD0001446FFF739FE0646204635F041F90025C9
:109AE00001462346CDE90055184A04F13C0035F003
:109AF000FDFA174B9E4221D0039E3561B56035F0CB
:109B000029F9D6F80C800746B8F1000F04D0D6E941
:109B1000002329462046C047E06A03A925F05DFBE3
:109B2000E06A83889BB26BB103A9FFF70DFE204664
:109B30000399FFF783FF384635F007F9012004B099
:109B4000BDE8F08184F83130F5E700BF0DDA030895
:109B50000B7000F0F7B50D460446002800F08C802D
:109B600035F0F8F8012D064609D1E36A9B889BB2CF
:109B7000002B3BD135F0E9F8404803B0F0BD022D91
:109B80002CD1A36A9B889BB2002BF3D0E06833F002
:109B9000D5FE0023A06A84F8303083889BB27BB165
:109BA0006946FFF7D1FD009DE06805F1080133F03B
:109BB0000BFF334B2B61A06A83889BB2002B4ED1E5
:109BC00094F83530032B02D02046FFF7A9FEA36B93
:109BD000002B32DD204635F0DAF82EE0032D2CD1B3
:109BE000E36A9B889BB20BB9A36ABFE7A06833F016
:109BF000A5FE0023E06A84F8313083889BB273B1FC
:109C000001A9FFF7A1FD019FA06807F1080133F04A
:109C1000DBFE1B4B3B61E06A83889BB293B9204615
:109C200025F0FEFA8304FAD5A36B002B02DD204653
:109C300035F0ADF8023D012DA8D9304635F085F854
:109C400000209AE701A925F0C8FA019AD768002FE9
:109C5000E1D09368204612680949B847DBE76946B6
:109C600025F0BBFA009AD568002DA4D09368204651
:109C700012680349A8479EE702487EE7087000F093
:109C8000097000F0027000F02DE9F041044617461B
:109C9000FFF774FD88460646E8B9152003F042FF39
:109CA0000546E26A93889BB213B194F83230ABB1A7
:109CB00094F83630BBB923689D6915F0020527D0AA
:109CC000012384F834304744B845206844D183697F
:109CD0009B06FCD545B33046BDE8F081002DE1D0B0
:109CE000FEF758F9DDE7022B12D123689D6C15F0C1
:109CF00002050DD0012384F83430474447452068DD
:109D000031D142F22002836C32EA0303FBD1E1E756
:109D10002046FFF73FFE012394F8365084F8343094
:109D2000002DD0D0022D1CD094F8363003B3022B76
:109D3000D1D12068816C11F0010118BF092125F0F3
:109D40001DFB42F29442102123795B0103F1A043F1
:109D500003F570339950BEE718F8011B25F064FB3A
:109D6000B2E70025C9E718F8011B25F00CFBC5E791
:109D700010212379044A03F239135B01D1500822E0
:109D800023685A61A7E700BF00C0035010B504461E
:109D900080B190F832302BB925F0EDF910B9A068F8
:109DA000FEF7B8F8002094F832300133DBB284F8C3
:109DB000323010BD0048FCE7027000F010B50446D8
:109DC000A0B190F832309BB190F83230012B05D120
:109DD00025F0D1F910B9A068FEF7BCF8002094F87E
:109DE0003230013BDBB284F8323010BD0148FCE771
:109DF0000148FAE7027000F0057000F030B5002568
:109E0000437F85B08DF8083090F821300446042255
:109E10008DF80930039303A9064B009502A8FDF7BE
:109E2000BBFE4FF4007320462383A57625F008FA85
:109E300005B030BDF19700082DE9F0410546684FA7
:109E400088B001AE0C460FCF0FC697E8070086E832
:109E50000700002D00F0C18024B9624E304608B0E2
:109E6000BDE8F08160220021284631F064FC2846DC
:109E7000FFF796FC06460028F0D14FF00108237D3D
:109E800085F83530236885F836002B60227BC5F8CD
:109E90005C802A71544A9342DFD1544B544A6B621E
:109EA0004FF48023C5E90423D4E90723AA62108074
:109EB0005080908085F83000EB6218805880988040
:109EC000636885F831000393E38985F83300ADF8C2
:109ED0001430238A4748ADF81230A37C464F8DF8E2
:109EE0001030E37C8DF8163005238DF8113026F004
:109EF00043FA6B6A986826F03FFA206801A98DF84A
:109F0000046001F09FFD1421237B03F1390252010B
:109F1000B950267AA07A07EB431346EA0042C3F809
:109F20003827617AE27A41EA024CC3F830C7EE760C
:109F3000E877297785F82020637D41466B77A37DFC
:109F4000284685F82130E37DAB77237E85F82230E3
:109F500025F0A6F80646002880D134F0FBFE237DCC
:109F60008046032B33D10221227B02F1B9035B012E
:109F7000F950042107EB421741F22C72236803F5D4
:109F80008053D965217EE37D43EA0143BB50A27D26
:109F9000637D43EA024341F22872BB504FF0FF3227
:109FA000206800F500539A64237D032B0CBF052124
:109FB000042125F02AFA4FF44062236828465A61AA
:109FC000FFF756FC0646404634F0BFFE46E7022B3C
:109FD000E4D12846FFF712FFE0E7084E3EE700BF56
:109FE000FCF20308037000F000C00550D00504081F
:109FF00002000400CC05040800C00350027000F009
:10A0000090F83530032B05D00229417618BF017630
:10A0100025F016B900487047057000F0F0B587B01C
:10A0200005461646FFF7AAFB0446F0B90493104B09
:10A03000CDE901166A46A86A01A903960593FFF7C0
:10A040002DFC044688B995F8303073B92846FFF7DF
:10A0500083FC28460099FFF7C5FC95F83530032BA3
:10A0600003D028462C7625F0EBF8204607B0F0BD4B
:10A07000017000F0F7B5906A01A91446FFF764FB80
:10A080000546204634F083FE384B9D4230D094F88C
:10A090003610019D002939D123689A6C12F40072A0
:10A0A00029D0334AA9602A614FF4007203F50053A6
:10A0B0009A6434F04FFEEF68064637B16A68AB68C1
:10A0C0002046D31A29692A68B847A06A01A925F051
:10A0D00084F8A06A8588ADB2002D37D001A9FFF7BA
:10A0E00033FB20460199FFF77DFC304634F02DFE0E
:10A0F000012003B0F0BD996CC80523D51D49AA60A5
:10A1000029614FF4807203F50053D1E7022919D178
:10A110002368DA6C12F4007209D0154A03F5005373
:10A120002A610022AA604FF40072DA64C1E7D96C98
:10A13000C90507D50F49AA6029614FF4807203F55C
:10A140000053F2E700232B61AB60B2E70123204606
:10A15000237625F075F894F8353084F83050032BC9
:10A16000C3D02046FFF7DCFBBFE700BF0B7000F059
:10A170000D7000F00C7000F0F0B587B00446164684
:10A18000FFF7FCFA054658BB0493194BCDE90116BD
:10A19000059394F8363003962BBB23689B6903F034
:10A1A000020313B92046FFF7F5FB6A46E06A01A9EE
:10A1B000FFF774FB054698B994F8313083B934F051
:10A1C000C9FDE36A06469B889BB233B120460099DD
:10A1D000FFF734FC012384F83430304634F0B5FD09
:10A1E000284607B0F0BD022BDCD123689B6CD6E774
:10A1F000017000F0044BD3F88420D206FBD4D3F8CE
:10A200008400C0F3811070470040005038B5174BF0
:10A210000546D3F828310C4603F00703013B052B14
:10A2200020D8DFE803F003131B0F0B1733F0E4FA19
:10A23000052305B1286004B1236038BD33F0DCFA92
:10A240000623F6E733F022FB0723F2E733F014FB93
:10A250000323EEE733F010FB0423EAE733F008FBB7
:10A260000223E6E700231846E3E700BF0080005022
:10A27000002337B50193164B0546D3F820320C4620
:10A2800003F00703042B21D8DFE803F0030B1116BA
:10A290001B0001230DB1019A2A6004B1236003B0B1
:10A2A00030BD002101A8FFF7B1FF1223F2E733F020
:10A2B000EDFA07230190EDE734F038FD0A23019011
:10A2C000E8E733F02BFB09230190E3E70023E1E704
:10A2D0000080005038B5104B0546D3F880300C464E
:10A2E00003F00303022B0BD0032B0DD0012B0FD156
:10A2F00033F088FA0E2305B1286004B1236038BD1D
:10A3000033F0C4FA0723F6E733F076FA0623F2E7D0
:10A3100000231846EFE700BF0080005038B5104B0F
:10A320000546D3F800310C4603F00303022B0BD093
:10A33000032B0DD0012B0FD133F09EFA032305B16F
:10A34000286004B1236038BD33F0E8FA0923F6E74A
:10A3500033F098FA0823F2E701230020EFE700BF6B
:10A360000080005038B5184B0546D3F820010C4644
:10A3700000F00700062823D8DFE800F0040A0E16D4
:10A38000121A1E00012305B1286004B1236038BDF4
:10A3900033F032FA0523F6E733F06EFA0323F2E7DF
:10A3A00033F074FA0723EEE733F062FA0223EAE7A8
:10A3B00033F022FA0623E6E733F05EFA0423E2E7FD
:10A3C00000231846DFE700BF0080005038B5104B6F
:10A3D0000546D3F840310C4603F00303022B0BD0A3
:10A3E000032B0DD0012B0FD134F0A0FC0A2305B1B3
:10A3F000286004B1236038BD33F090FA0923F6E7F2
:10A4000034F097FC0C23F2E701230020EFE700BFB4
:10A4100000800050002337B50193164B0546D3F852
:10A4200060320C4603F00703013B032B1FD8DFE823
:10A4300003F0020E1914002101A8FFF793FF102367
:10A440000DB1019A2A6004B1236003B030BD002130
:10A4500001A8FFF7BBFF1123F2E733F017FA072338
:10A460000190EDE733F004FA02230190E8E70023BE
:10A47000E6E700BF00800050002337B50193164B7C
:10A480000546D3F894320C4603F00703013B032B37
:10A490001FD8DFE803F0020E1914002101A8FFF70E
:10A4A00061FF10230DB1019A2A6004B1236003B04B
:10A4B00030BD002101A8FFF789FF1123F2E733F037
:10A4C000E5F907230190EDE733F0D2F9022301907B
:10A4D000E8E70023E6E700BF0080005038B5104BE6
:10A4E0000546D3F860310C4603F00303022B0BD072
:10A4F000032B0DD0012B0FD134F018FC0A2305B12A
:10A50000286004B1236038BD33F008FA0923F6E768
:10A5100034F00FFC0C23F2E701230020EFE700BF2B
:10A52000008000502E4B98424AD022D82D4B9842A2
:10A5300040D014D82C4B984239D00AD82B4B984293
:10A5400032D02B4B98422FD02A4B98422CD000204F
:10A550007047294B9842FAD1284B186F7047284B07
:10A5600098422AD0274B9842F1D1244BD3F880004F
:10A570007047254B98422BD009D8244B984223D0C2
:10A58000234B9842E3D11D4BD3F88C007047214BED
:10A59000984221D003F5740303F510539842D6D1A5
:10A5A000164BD3F898007047144B986D7047134BB7
:10A5B000586E7047114B586F7047104B986F70472B
:10A5C0000E4BD3F8840070470C4BD3F888007047CB
:10A5D0000A4BD3F890007047084BD3F894007047AB
:10A5E0000048E8010024F400C0CF6A0080841E0007
:10A5F00000093D0040420F00405DC6000080E00FB2
:10A60000C0EA210180BA8C01007E560380D5430246
:10A61000006CDC020090D00373B50D460021114B95
:10A620000191D3F88041064604F00304022C13D0B4
:10A63000032C0CD0012C13D101A8FFF793FE10249A
:10A640000EB1019B336005B12C6002B070BD33F0D8
:10A650001DF907240190F3E733F00AF90190EFE7C1
:10A660000C46EDE70080005038B5104B0546D3F896
:10A6700040320C4603F00303022B0BD0032B0DD00A
:10A68000012B0FD134F052FB0A2305B1286004B12D
:10A69000236038BD33F042F90923F6E734F049FB73
:10A6A0000C23F2E701230020EFE700BF00800050F9
:10A6B00038B5144B0546D3F800020C4600F00700ED
:10A6C00004281BD8DFE800F003090D111500012351
:10A6D00005B1286004B1236038BD34F027FB0A239C
:10A6E000F6E733F01BF90923F2E734F022FB0C23E1
:10A6F000EEE733F0A7F80F23800AE9E700231846B6
:10A70000E6E700BF0080005038B5144B0546D3F88B
:10A7100008020C4600F0070004281BD8DFE800F010
:10A7200003090D111500012305B1286004B1236050
:10A7300038BD34F0FBFA0A23F6E733F0EFF80923CB
:10A74000F2E734F0F6FA0C23EEE733F07BF80F2350
:10A75000800AE9E700231846E6E700BF00800050C2
:10A76000B0F5207F1FD009D8B0F5007F15D003D8F1
:10A7700068B1B0F5C07F0AD000200CE0B0F5607F72
:10A78000FAD10B4BD3F88000C0F3011003E0084B63
:10A79000186FC0F3033001307047054BD3F89000B9
:10A7A000C0F30460F7E7024B186FC0F38020F2E7B4
:10A7B0000080005002464FF48030104B10B5986670
:10A7C0000020FFF7CDFF504341F671320C4BDC699E
:10A7D000DA635A6804F4803422F4401259B9094902
:10A7E000884294BF00200120000502435A600CB14A
:10A7F0000022DA6310BD0449F2E700BF0090005068
:10A8000000000350005A6202002D3101430905D0B7
:10A81000012B0CD0022B084B18BF002300F01F00A7
:10A8200039B103F58053012282401A607047034B0F
:10A83000F4E703F50053F6E76880005064800050A9
:10A840001FB50021B0F5807F0446CDE9001100F06E
:10A85000D2803AD85E2833D85E2833D8DFE800F0BB
:10A8600045323232323232323232323232323232B5
:10A8700032323232323232323232323232323232B8
:10A8800045AC45ACBCBCBCBCBCACC64E6BDC4EAC39
:10A89000ACAC3232323232323232ACACAC7EE6ACBC
:10A8A00032323232323232323232323232BC4545D8
:10A8B00045E14E4EEB8D63C132323232329E45005D
:10A8C000802870D0009804B010BDB0F5D06F00F0B3
:10A8D000A38035D8B0F5607F79D01AD8B0F5007F65
:10A8E00065D005D8B0F5C07FECD132F0ABFF5CE0AD
:10A8F000B0F5207F60D0B0F5407FE3D132F0A2FF09
:10A9000002464FF42070FFF72BFFB2FBF0F2520823
:10A910005BE0B0F5B06F69D00AD8B0F5806F5BD05E
:10A92000B0F5A06FCED100216846FFF7A1FCC9E7C2
:10A93000B0F5C06FC6D100216846FFF747FDC1E7FB
:10A94000B0F5106F6DD00ED8B0F5086F78D0B9D8CB
:10A95000B0F5E06F6AD0B0F5F06FB3D10021684672
:10A96000FFF7BCFDAEE7B0F5406F3AD013D8B0F5B5
:10A97000206F60D0B0F5286FA4D10021324B039135
:10A98000D3F8703203F00303012B02D103A8FFF7C1
:10A990001DFD039B39E0B0F5486F93D10021684657
:10A9A000FFF76AFD8EE732F02DFF00908AE732F064
:10A9B00029FF0246204604E032F044FF02464FF4ED
:10A9C0002070FFF7CDFEB2FBF0F200927AE701A80B
:10A9D000FFF780FC019AEDE700216846FFF7C2FC13
:10A9E00070E700216846FFF711FC6BE7002168461D
:10A9F000FFF712FE66E74FF0E02302911B695B0749
:10AA000005D532F01FFF0290029B00935AE703A97D
:10AA100002A8FFF7DBFCF7E700216846FFF748FED6
:10AA200050E700216846FFF76FFE4BE700216846BC
:10AA3000FFF71AFE46E700216846FFF7EBFC41E707
:10AA40006846FFF76BFC3DE70080005008B58020AA
:10AA5000FFF7F6FE034B98429EBF4FF48032024B45
:10AA60001A6708BD005A620200A000501FB50346D5
:10AA70000020B3F5807F019000F0C58065D85D2B84
:10AA800056D84C2B07D82D2B48D8232B2CD80198DF
:10AA900005B05DF804FB4D3B102BF8D801A252F82D
:10AAA00023F000BFFDAB00088FAA00088FAA0008A2
:10AAB0008FAA0008ABAB00088FAA00088FAA000875
:10AAC00057AC0008C9AB00086FAB00084DAC0008DC
:10AAD0008FAA00088FAA00088FAA00088FAA000872
:10AAE0008FAA000861AC0008243B092BCFD801A233
:10AAF00052F823F0FDAB0008FDAB0008FDAB0008E9
:10AB0000FDAB0008FDAB00088FAA0008F3AB0008FE
:10AB10008FAA00088BAB000833AC00083D2B00F077
:10AB200083803E2BB3D1002001A9FFF79DFDAEE746
:10AB3000802BACD1504B1B6F03F00703013B032B61
:10AB4000A5D8DFE803F0544D5052B3F5F06F6BD049
:10AB500020D8B3F5B06F4CD00ED8B3F5607F71D06C
:10AB600095D3B3F5806F49D0B3F5A06F8FD1002096
:10AB700001A9FFF77DFB8AE7B3F5D06F59D0B3F594
:10AB8000E06FD0D0B3F5C06F81D1002001A9FFF7ED
:10AB90001DFC7CE7B3F5206F5DD00BD8B3F5086FD3
:10ABA0004CD0B3F5106F7FF472AF002001A9FFF70E
:10ABB000ABFD6CE7B3F5406F48D0B3F5486F4FD0AD
:10ABC000B3F5286F7FF463AF2B4BD3F8703203F0EB
:10ABD0000303012B49D0022B0CBF1523002300E0F7
:10ABE0000523019353E70323FBE70823F9E7022337
:10ABF000F7E7002001A9FFF70FFD48E7002001A9B2
:10AC0000FFF7B0FB43E74FF0E02302901B695B07BF
:10AC100005D532F017FE0D230393039BE1E703A94B
:10AC200002A8FFF7D3FBF8E7002001A9FFF756FCC5
:10AC30002DE7002001A9FFF73BFD28E701A9FFF759
:10AC40006DFB24E701A9FFF745FB20E7002001A9E0
:10AC5000FFF7DCFA1BE7002001A9FFF7DBFB16E793
:10AC6000002001A9FFF708FC11E7002103A8FFF766
:10AC7000ADFB1123B5E700BF008000504FF48032D8
:10AC8000074B0849586E03F580535A664B6A23F008
:10AC900001034B62C3035CBF034B5A66704700BF9E
:10ACA0000080005000C0075000A0005008B5FFF71A
:10ACB000DDFE092811D00A38012802D94FF6FF70AD
:10ACC00008BD4FF48002064B5A6603F5D8335B6A21
:10ACD000DB07F3D54FF4FA70F2E7024B1888EFE781
:10ACE000009000501632002008B5FFF7BFFE032881
:10ACF0000ABF024B4FF6FF70188808BD14320020BF
:10AD000038B504468020FFF7B1FE032800F08380A9
:10AD10004FF48012524B4FF0A0615A6645F60E0276
:10AD2000504BC3F88020504A91624FF4803102F5B5
:10AD3000805291629A6DD203FCD4996D11F08041DA
:10AD4000FBD1D4E90002120542EA0062E07B024333
:10AD5000207B42EA0042607B42EA0032A07B42EA6A
:10AD600080121A619869D4E90452120642EA856297
:10AD700000F000400243A07EE57E0243207E42EACE
:10AD80000042607E42EA00229A611A6AE06922F07B
:10AD90000F0242EA8502354D00283DD11A6294F82F
:10ADA0002420996A94F82000D200294042EA4012F7
:10ADB0000A4394F8211042EA011242F480329A6266
:10ADC0002B49284A936D31EA0303FBD14FF0807180
:10ADD000254881621369A56823F4700343EA05538B
:10ADE00013614FF00043836194F822300BB9214B7B
:10ADF000996294F823303BB94FF480321D4B9A622C
:10AE0000184A936D5B00FCD494F825301BB1154BA8
:10AE1000194AC3F8802038BD024342F008020228D4
:10AE20001A6208D119614FF40852996113484FF41E
:10AE30007F4124F041FA0B4994F822308A6A94F851
:10AE400020001B062A4043EA4013134394F82420B1
:10AE500043EAC20394F8232043EA02438B62D3E718
:10AE6000009000500040005A0050005AC7FFFEFEFC
:10AE7000030001000060005AF1A7FFFF3440005AB0
:10AE8000014B93F90000704734320020014B1880C9
:10AE9000704700BF143200204FF4800208B5184BF1
:10AEA0005A660223174A5360936813F48033FBD128
:10AEB000012822D132F0E0FC134B984215D003F563
:10AEC000122303F5F863984213D0104B00EB800275
:10AED000400AB3FBF0F3520A0A49CA620B6301232A
:10AEE0004B620022074B5A6008BD45F67A13084AA8
:10AEF000F2E745F61A03074AEEE75362F1E700BFAF
:10AF0000009000500040025000F0490264666666FE
:10AF1000D8B80500BBCF0500B0F5207F10B50C46B2
:10AF20005DD008D8B0F5007F4ED003D8C0B1B0F5E1
:10AF3000C07F15D010BDB0F5607FFBD12C4B4C1EEF
:10AF4000D3F8FC202B4912F0807F4FEA041427D15C
:10AF5000D1F8803023F030032343C1F88030E9E793
:10AF600024F0B9F924F0C5F94FF48031224B214A7D
:10AF70001967136F013C23F4704343EA04331367EA
:10AF800032F060FC0446FFF735F9C0F102012046BB
:10AF900024F0A9F900F04AF8BDE81040FFF756BDCB
:10AFA000D3F8FC2022F08072C3F8FC20D1F8802076
:10AFB00022F030022243C1F88020D3F8FC2042F076
:10AFC0008072C3F8FC20B5E70A4A4C1ED2F89030D4
:10AFD00023F0F85343EA0463C2F89030AAE7054A25
:10AFE0004C1E136F23F4806343EA84231367A1E7A5
:10AFF00000ED00E0008000500090005008B50121F5
:10B00000022000F095F94FF42070FFF7A9FB054BE3
:10B01000187024F060F924F06CF94FF48032024B80
:10B020001A6708BD4B2C00200090005008B54FF463
:10B03000C070FFF705FCBDE808400449884294BF92
:10B04000012102214FF42070FFF766BF80F0FA0261
:10B0500038B5044632F0F6FB0546FFF7CBF8C0F1F1
:10B060000201284624F03FF90121002000F0A0F958
:10B070002CB1FFF7DBFFBDE83840FFF7E7BC034B1F
:10B080004FF420701978FFF747FFF4E74B2C0020AE
:10B090004FF4C02270B50546FFF744FA314B044621
:10B0A0005A6603F598335A68012A04D12E494A603A
:10B0B0005A689207FCD48020FFF7D8FC052807D1F6
:10B0C00024F009F924F015F94FF48032254B1A6762
:10B0D000264B24F040749D4230D0254B9D4230D009
:10B0E00032F08AFB8542064603D90121284600F04A
:10B0F0005FF9204BDA6812F0060FFBD199689C606B
:10B100009A68624012F4F81F1ED12846FCF762FAD2
:10B110008020FFF7ABFC05280DD132F093FB0446ED
:10B12000FFF768F8C0F10201204624F0DCF8FFF7D1
:10B130007DFFFFF78BFCAE420CD270BD44F0007473
:10B14000CEE744F08074CBE780209960FFF78EFC57
:10B15000052805D0BDE870400121002000F028B985
:10B160003546DAE70090005000E0015040420F0001
:10B1700080841E0000000150304B314A984251D06B
:10B1800020D8A3F5B703A3F55863984246D00DD84D
:10B190002C4B984231D02C4B984239D02B4B4FF44A
:10B1A000002198421DD00023516622E0284B4FF425
:10B1B00000219842F7D1274BD3F8BC30516623F0D9
:10B1C000407316E0244B984230D0244B984231D043
:10B1D000234B4FF400219842E5D11E4BD3F8C830E1
:10B1E000ECE71C4BD3F8A030516623F0407343F0DA
:10B1F00000734FF0B442936070474FF40021154B39
:10B20000D3F8A030516623F0407343F08073F0E729
:10B21000104BD3F8A0304FF40021CFE70D4BD3F8FB
:10B22000B830F8E70B4BD3F8C030F4E7094BD3F84C
:10B23000CC30F0E7074BD3F8D030ECE7C0EA21017F
:10B240000090005080841E0000093D0040420F0025
:10B250000024F4000080E00F0048E801005A620278
:10B2600080BA8C01024A536B0342FCD1704700BF85
:10B2700000400950044A4178536F23F4407343EA75
:10B2800001235367704700BF004000500E4A10B5BD
:10B290001369044643F00403136133F041F924F0C9
:10B2A0002DF80A4B5B6E5B0142BF094B094AC3F89C
:10B2B000202430BF24F023F803F04EF91CB9BDE878
:10B2C000104032F0BFBA10BD00ED00E00080005029
:10B2D00000E003500000FF0F0C4A10B5136904464C
:10B2E00043F0040313610A4B5B6E5B0142BF094BE1
:10B2F000094AC3F8202433F013F930BF03F02CF9C6
:10B300001CB9BDE8104032F09DBA10BD00ED00E060
:10B310000080005000E003500000FF0F034A017955
:10B32000D36E23F030030B43D366704700400050C8
:10B33000F8B504461C4BD3F88420D106FBD4D3F8CF
:10B340008430C3F381139C422CD032F05BFA012C81
:10B35000064602D1214623F0C6FF33F0F2FC4FF03F
:10B360000072124B07465A66204623F0CBFF4FF47B
:10B3700080630D4D621E93402B676B6E9A0103D460
:10B38000D5F884309B060AD5384633F0D5FC022C1C
:10B3900008D13046BDE8F840002123F0A4BFD5F81D
:10B3A0008430EAE7F8BD00BF004000500060005064
:10B3B00010B50C4608B932F025FA074B21461B7828
:10B3C0003BB1064B984204D80120BDE81040FFF77E
:10B3D000AFBF0220F9E700BF4C2C0020005A6202E8
:10B3E0000278034B012100201A70FFF7E1BF00BF74
:10B3F0004C2C00204FF0004238B5244B244C5A66A8
:10B400004AF6CD33656C014605F00105236428BB7F
:10B410000120FFF727FF6368DB0715D51D4B586038
:10B4200008461D4B226BD2070CD4984208D1072442
:10B4300015B1174B194A1A642FF0EFFA204638BDA0
:10B440000130EFE79842F2D00024F1E70132236B9C
:10B4500013F0080305D08A42F8D1E8E700220E492C
:10B46000F5E78A42E3D020210A4A91620121A2F540
:10B47000805251600649084A886A800603D4934284
:10B48000D5D00133F8E79342DDE700BF00900050CC
:10B49000004009500060095040420F003254FFFF45
:10B4A0004FF0004238B5164B01465A664AF6CD3386
:10B4B000144C154A656C236443780B205B0043F001
:10B4C0000103D363FFF7CEFE63688A7823F4F87331
:10B4D00043EA02136360CA784B7943EA0223A3600C
:10B4E0000A798B7943EA022323610878FFF782FF08
:10B4F000EB0744BF054B23642FF08FFA012038BDC2
:10B500000090005000400950004000503254FFFFAE
:10B510004FF00042124B70B55D6E03F580535A66D2
:10B520004AF6CD3304460F4980204E6C0B64FFF77A
:10B5300099FE0B6A23F00F030F2C94BF234343F0B3
:10B540000F030B62F30744BF074B0B64002DA2BF30
:10B550004FF00042054B5A662FF05FFA70BD00BFF6
:10B5600000800050004009503254FFFF00A00050FE
:10B570004FF00042104B70B55D6E03F580535A6674
:10B580004AF6CD3304460D4980204E6C0B64FFF71C
:10B5900069FE0B6A23F4F85343EA04230B62F307B2
:10B5A00044BF074B0B64002DA2BF4FF00042054B78
:10B5B0005A662FF032FA70BD0080005000400950EA
:10B5C0003254FFFF00A000502B4B2DE9F041984270
:10B5D000064612D0294886420CBF57200020FFF7AC
:10B5E0002FF9B16811F0010109D03169090E01315B
:10B5F000B0FBF1F10846BDE8F0815620EFE7346B6F
:10B60000B3681F4A03F0E003402B02EA040210D0A3
:10B6100007D84BB3202B2BD0B36DDB0748BF4908AD
:10B62000E8E7602B26D0802BF6D14FF480750C46CE
:10B630001CE080250C46032302F5807803FB08F804
:10B640000023424619461CF083FE02FB04F100FB76
:10B6500005F705FB0311A2FB05050023424629441B
:10B660001CF076FE3918D7E710251C460123E3E7C6
:10B670001D46DCE74025DAE70000015B00000A50C8
:10B68000F8FF7F002DE9F04105460F461E46904623
:10B690004AB101233022194C8B4002FB004436B3DF
:10B6A00004F5825423600F21072F05EB450388BF63
:10B6B000A7F108044FEA0313114895BFBC00A4008A
:10B6C00004330C3308FA04F2A140184423F060FE5E
:10B6D000B8F1000F09D101233021084ABB4001FB1A
:10B6E00005223EB102F582521360BDE8F08104F5F7
:10B6F0000154D7E702F50152F6E700BF00C003503E
:10B7000030C00350044A054B002908BF13460122EC
:10B7100082401A60704700BF40100450402004501F
:10B7200010B5012104462020FFF770F801212120E7
:10B73000FFF76CF80122114B15205A60227812068F
:10B740009A606178A27842EA01429A61FF229A6285
:10B7500000229A631A644FF000425A654FF0FF329C
:10B7600003F500531A6502F005FA1520E17824F07C
:10B7700010FEBDE81040152002F0B8B900000450DA
:10B78000F8B50125C3B2D1F800E091F80AC00F7BEB
:10B790000C469D40CB7A1D491D4E0D65810001F17F
:10B7A000A04101F58821C1F804E04FF0300E0EFBF6
:10B7B00000601B05617B43EA0C4343EA475322F0D8
:10B7C00003020166C365026733F0C4FA114B5D657D
:10B7D000237A13B1336C2B433364637A13B1B36BA5
:10B7E0002B43B3632279A37943EA0243074A936167
:10B7F0006179E37943EA014306498B61044B556360
:10B800009D64BDE8F84033F0A0BA00BF00200450AA
:10B81000000004500010045010B50124C0B2844050
:10B8200033F098FA044B5A6D22EA04025A659C627E
:10B83000BDE8104033F089BA0000045070B50546E9
:10B8400033F088FA3022084B5E6B02FB05335C6EE6
:10B8500033F07BFA0123EDB2AB4033420ABFC4F3AD
:10B860000A100020013070BD000004504FF48032F7
:10B87000054B9A6641F6713203F51C33DA630122F7
:10B8800003F50053DA6070470090005041F67132C2
:10B890000121064BDA6303F50052D1600022DA631E
:10B8A0004FF48032A3F518339A66704700000350B6
:10B8B000013831289ABF024B185C0020704700BF46
:10B8C00038F3030838B5C2F30625044602F0070230
:10B8D00041B942EA052242F440220634074B43F8BC
:10B8E000242038BD1146284623F061FD0246284633
:10B8F000FFF7DEFF163442EA0022EFE70080035034
:10B900004FF48032064B5A6603F5E6239B69C3F376
:10B910008512827003F03F021B0B42700370704768
:10B9200000900050014B986CD96C70470080E00F7C
:10B930000120034B9B680A3303F01F0398407047B4
:10B940000080E00F70B5054616461C4621B94FF43D
:10B950002070FEF775FF0146402C1BD003D8DCB1E8
:10B96000202C1BD070BD602CFCD1042303FB06F2FD
:10B97000530803EB4113B3FBF2F3094A203B02EAFD
:10B98000C303AA6822F06002AA60AA681443AC60EC
:10B99000EB61E7E70623E9E71023E7E70823E5E79C
:10B9A000F8FF7F00F8B5154E1C4615460E40FAB953
:10B9B000202B05D0402B1ED0002B0CBF1024402480
:10B9C000012306F580765E430023324619461CF0BB
:10B9D000BFFC02FB05F100FB04F704FB0311A2FB13
:10B9E00004040023324621441CF0B2FC3844F8BD64
:10B9F00080240025E4E780240323E2E7F8FF7F00AA
:10BA0000012100F5805310B5596040F6AA6341F258
:10BA1000050243610023094C8360C365C26000F5E1
:10BA200000520361C361C3649464054C8365A04202
:10BA300004BF03654365516010BD00BFFFFF0100F7
:10BA400000C0055070B50D46FFF7DAFF012300F581
:10BA500080567360AB7C04461BB1836843F080431F
:10BA60008360EB7C5BB1244B9C4202BF2A7DA3F533
:10BA70001033C3F8C821E36D43F08003E3652A8ADD
:10BA80006B7B20461343EA891343E3602B7BD5E9A4
:10BA90000112FFF757FF6B7D1BB1A36843F480339E
:10BAA000A360AB7D1BB1A36843F40043A360EB7DAF
:10BAB0002A7E1B07120502F4E00203F0E043134361
:10BAC000A3656B7E9A1E012A4FF0020209D80B492A
:10BAD000032BC1F8202709D10423F3652B78636178
