:020000040800F2
:1060000008100020CD7700082DEC000831EC0008C6
:1060100015D2030835EC00083DEC000815D2030842
:1060200015D2030815D2030815D2030815D20308A8
:1060300041EC00081C25050815D2030815D20308F9
:106040009D7B000815D2030815D2030815D203085A
:1060500015D2030815D2030815D2030815D2030878
:1060600015D203082D7100086BC9030815D2030867
:1060700015D2030815D2030815D2030815D2030858
:1060800015D2030815D2030815D2030815D2030848
:1060900015D20308B584000815D2030815D20308E9
:1060A00015D20308C1800008A180000815D203089A
:1060B00015D2030869530208155E020875530408D7
:1060C00071530408A55502088B530408795304083A
:1060D000E55D02087D530408555E0208C15E0208B2
:1060E00015D2030815D2030815D2030815D20308E8
:1060F000C5F4030815D2030815D2030815D2030806
:1061000015D2030815D2030815D2030815D20308C7
:1061100015D2030815D2030815D2030815D20308B7
:1061200015D2030815D2030815D2030815D20308A7
:1061300015D2030815D2030815D2030815D2030897
:1061400015D2030815D2030815D2030857B0040866
:106150003D42020815D2030861530408675304083E
:1061600015D2030815D2030815D2030815D2030867
:10617000F0B5114A114C124E00F00105E3695F07BA
:1061800013D40DB9334213D103EA00078F4207D16C
:106190000B4A1A40002A0CBF00206FF00100F0BD2E
:1061A000013AEBD16FF00200F9E74FF0FF30F6E76C
:1061B0006FF00100F3E700BF8096980000000350E5
:1061C000020001000B4B70B5D96911F480310DD17B
:1061D00001244FF48072084E084DF46020462C6470
:1061E0001A61FFF7C5FF3464EC6070BD6FF0010009
:1061F000FBE700BF000003500010035000200350D5
:106200004FF4803238B50E4B0E4C9A66E56941F674
:10621000713315400122E3630B4B0021DA60022346
:10622000606121202361FFF7A3FF10B92120FFF750
:106230009FFF0122054BDA600DB10023E36338BDF7
:106240000090005000000350001003500020035045
:1062500070B5134C6061E3695B071ED40E4656F8B7
:10626000043B8D18A361AE420BD1042300212120F1
:106270002361FFF77DFF58B9BDE870402120FFF78B
:1062800077BF08210846FFF773FF10B1042323618D
:1062900070BD56F8043BA361E5E74FF0FF30F7E728
:1062A000000003502DE9F84315464FF48032184B97
:1062B00089469A6603F51C33DF690646174041F6A6
:1062C0007132DA63012203F58053DFF84C80DA6023
:1062D00055B9284601220F4BDA601FB10022A3F501
:1062E0000053DA63BDE8F88306F5005404EA0804B5
:1062F000A41BAC4228BF2C46494622463046FFF735
:10630000A7FF0028E6D12644A1442D1BE0E700BFEB
:0C631000009000500020035000E0FFFF50
:106320002DE9F04F4FF0FD0BC9B09A460DF11B0956
:106330009DF8503108AFCDF80C90CDF808B001971A
:10634000059303890446009383790E46904641885D
:106350008288407815F024FE054650B10090A3884D
:10636000002062883A4916F081F9284649B0BDE814
:10637000F08F99F800003BF01CFB38B12846A38849
:106380006288344916F072F98D25EEE75A4639468F
:1063900099F800003BF0DCFA8346002851D0529B6C
:1063A0001BB1BDF84C3198424BD8002399F80090AE
:1063B0000793A9F14102012A5FFA8BF123D83846ED
:1063C0000139254ADFF898C05FFA81FE734513DB77
:1063D000059B04210792C3B907AF18221F489FED00
:1063E0001A7B02FB060420460A460830394684ED33
:1063F000027B42F0D6FA11E010F8011F0133514040
:106400000CFB01F2E2E7059B33B123464A463846CE
:10641000009610F045FFA8E70829DED9B8F1000F73
:1064200001D088F80090BAF1000F01D0AAF800B0AE
:10643000529B002B99D05A46184608A942F0B1FA4F
:1064400093E7012591E700BF000000000000000075
:106450000467050839670508C59D1C815810002090
:1064600093010001000000002DE9F04F93B0CDE949
:106470000A32DDE91C530E9353EC102BCDE90801D1
:10648000104619468DED060B1E9E35F015FE80B1A7
:10649000DDE906014FF0FF32C54B35F035FE40B95E
:1064A000DDE906014FF0FF326FF4801335F00EFE88
:1064B00070B1DDE908019DED060B0E9B1E96CDE93E
:1064C0001C53DDE90A3213B0BDE8F04F00F088B983
:1064D0000022DDE90601002335F0F8FD002800F078
:1064E0003381DDE906A303F1004BCBF30A5016F428
:1064F0008063A0F2FF3008BF06250F9335F00AFB3A
:106500009BA3D3E9002335F06FFB9BA3D3E90023C2
:1065100035F0B4F9CBF31304894644F07F5180463B
:106520000022A44B504641F4401135F0A5F994A344
:10653000D3E9002335F058FB02460B464046494656
:1065400035F09CF935F0EAFD044635F0E3FA8EA308
:10655000D3E900238046894635F046FB0022964B5E
:1065600035F08CF935F0DAFD89A3D3E9002307462D
:106570004946404635F038FB80463846894635F076
:10658000C9FA85A3D3E9002335F02EFB02460B465A
:106590004046494635F070F902460B46CDE90C23DA
:1065A00035F022FBDDE90C2380468946104619466A
:1065B00035F064F90022CDE91001804B4046494690
:1065C00035F03CFC00227E4B35F058F902460B4674
:1065D0004046494635F032FC00227A4B35F04EF900
:1065E00002460B464046494635F028FCDDE90C23BF
:1065F0008046894600204FF0804135F03DF9024643
:106600000B464046494635F039F902460B46DDE96E
:10661000100135F013FC07F2FF3700226A4B35F00A
:106620002DF900223B0535F0DFFA52465B468046E5
:10663000894635F069FD002840F08980CDE90C8954
:1066400004F16303C72B34BF0427052731051BD58D
:1066500053A3D3E900235046594635F04BFD00289B
:106660007FD051A3D3E900235046594635F02EFD83
:10667000002876D00027A542C6BF2C1B04F1FF35A9
:1066800000253C4646F480660E9B9F422CBF4FF08F
:106690000008A3EB070816F0020903D0002F18BF6B
:1066A0004FF000083CB1DDE90C235046594635F067
:1066B000C5FB82468B46DDE906010022002335F04A
:1066C00005FD10B10BF100439B46DDE9080126F4FE
:1066D0000063CDE90183DDE90A324BEC10AB009594
:1066E00000F07EF802465FB3DDE9091316F0200FD3
:1066F00000F10105089E0CBF65204520B047DDE98B
:1067000008010523002205930A23002CCDE902325B
:1067100007F1FF374FEAD473B8BF64422A460193AA
:1067200004970A9B00943EF05AF90246B9F1000F13
:1067300006D00B9BC41A0B9B1A190E9BA34245D87B
:10674000104613B0BDE8F08FDDE906ABCDE60022C0
:10675000404649461A4B35F071FB013CCDE90C012E
:106760006EE7002D90D00F9B002B8DD0013D8BE765
:10677000FB799F501344D33FB3C8608B288AC63F30
:1067800061436F63A787D23F71A379094F930A4092
:106790001655B5BBB16B0240EF39FAFE422EE63F0B
:1067A0002D431CEBE2361A3F0000000080842E418E
:1067B000FFFFEF7F0000F83F0000E03F00002C40AB
:1067C00000002440000018400000F03F2020DDE9D8
:1067D0000913089DA8470134ADE700BF0000000081
:1067E0002DE9F04F5BEC10AB97B0CDE90501DDE989
:1067F0002057CDE90723504652465B465946229E14
:1068000035F05AFC70B90323CDE902760193B04B01
:106810000093DDE90501DDE907233EF000F817B03C
:10682000BDE8F08F4FF0FF326FF4801350465946A9
:1068300035F04CFC28B10423CDE902760193A54B39
:10684000E6E74FF0FF3250465946A34B35F05CFC6B
:1068500068B1A24A06F00403002B08BF0322A04B34
:106860001CBF13460422CDE902760192D0E75046C0
:1068700093A3D3E90023594635F046FC38B992A3D7
:10688000D3E900235046594635F020FC68B1DDE9D4
:106890000723DDE905014BEC10ABCDE9217620950E
:1068A00017B0BDE8F04FFFF7DFBD002200235046D0
:1068B000594635F00BFC002800F09A805B465246A2
:1068C0000020002134F0D8FF012382468B46099333
:1068D00016F4806400F08E80092D40F28E80002432
:1068E00030210EABA5F109020134202C03F8011B65
:1068F000A5EB040901D09442F6D15946504635F033
:106900000DFC784B054603EBC90393ED007B8DED41
:106910000A7B35F0FFF802460B465046594634F0E4
:10692000ABFFDDE90A2335F05FF902460B46CDE9FE
:106930000C2335F01BFC804635F0DCF802460B4694
:10694000DDE90C0134F098FF02460B46CDE90C233B
:106950000022654B35F0D8FB002851D008F1010822
:10696000404635F0C7F802460B46DDE90A0135F02E
:10697000B7FB10B14FF000080135B9F1000F50D14D
:10698000284635F0C7F802460B465046594634F0C3
:1069900073FF0022544B8046894635F097FB30B197
:1069A000002240464946504B35F0AEFB10B1E80797
:1069B00000D501350A210EAB1A19202C0AD095FBFF
:1069C000F1F001FB1055303502F8015B013405464A
:1069D0000028F2D106F00302012A57D1002F55D02A
:1069E000099A12B916F00C0F00D0013F302245E091
:1069F00009906DE74FF006097FE7A94600247CE780
:106A00000022DDE90C01384B35F060FB0028B4D1E1
:106A1000B8F1000F02D018F0010FAED008F1010854
:106A2000ABE70A210EAB2344202C0ED0B8FBF1F0CB
:106A300001FB1082B8F1090F02F1300209F1FF39B0
:106A400004F1010403F8012B11D83021A1440EAA4E
:106A5000202CAFD0A14504F101030AD11C4609F155
:106A600058030DEB03092E2309F8203CA2E78046CA
:106A7000DAE7A1541C46EBE71A550134A74205D9C1
:106A8000202CF9D1CDE902760194C1E6202CF9D071
:106A9000099A3AB12D2104F158026A4402F8201CE7
:106AA0000134EFE7710704D504F158022B216A4441
:106AB000F4E73207E6D504F1580220216A44EDE7F5
:106AC0000000000065CDCD410000000065CDCDC1C6
:106AD000999605089D960508FFFFEF7F909605089B
:106AE00095960508A89605080000E03F0000000004
:106AF00070B58EB02C22002103A841F02EFF642334
:106B00004FF002320893CDE905230B2301218DF8C4
:106B10003430534B8DF810101B88D80700F1988043
:106B2000084643F0F1F80A224E4B4F491A704FF4D1
:106B300028734E48ADF812301FF080FA4C4C20609C
:106B400020B94FF416714B4842F0D6F80521206861
:106B50003EF0CAFC20B14FF41A71464842F0CCF81E
:106B6000206800F0EFFA444B206819683EF02FF8D7
:106B70000C2543F0FDFC6843099043F0F9FC6843A1
:106B80000DEB05010790206819F07CFB20B140F265
:106B90007D21384842F0B0F8256823F0F3FA00224E
:106BA000014628463EF083F820B140F27F2131486B
:106BB00042F0A2F840F20353304D314E2B800523B2
:106BC00096F90000AB707F2801D120F0EBFF3378FD
:106BD000EB7043F0CDFC00EB80008000A88043F018
:106BE000C7FC0023C0004FF0FF31E880AB604FF0DE
:106BF000FF3019A3D3E9002343F0D8F921492068D5
:106C00003EF012F8206802A93EF022FD20B14FF4B8
:106C10002E71184842F070F8042220680DEB020132
:106C20003DF0AAFF042804D040F2BB21114842F0F5
:106C300063F801A901203CF083FD08F03BF8012036
:106C400021F04CFC37F0BFFA21F072FC20F042FF3B
:106C50000EB070BDAFF300800A0020FF42030000B9
:106C6000B644002007500020319D040880550020C4
:106C70003C390020C2D605086C5300203039002072
:106C800016590020A59D04080348044B834202D0F6
:106C9000034B03B1184770474C5900204C59002052
:106CA00000000000064B0749C91A891048BF01318E
:106CB000491003D0044B0BB101481847704700BF7F
:106CC0004C5900204C5900200000000010B5064C23
:106CD000237843B9FFF7D8FF044B13B10448AFF34F
:106CE00000800123237010BDA44500200000000097
:106CF000C8DA050808B5054B1BB105490548AFF3CF
:106D00000080BDE80840FFF7CDBF00BF00000000D5
:106D100098160020C8DA0508A3F5803A704700BF2E
:106D2000174B002B08BF134B9D46FFF7F5FF0021C3
:106D30008B460F461348144A121A41F00EFE0E4BB2
:106D4000002B00D098470D4B002B00D09847002017
:106D5000002104000D000D48002802D00C48AFF3BC
:106D6000008035F075FD2000290035F0A1FD35F0DB
:106D7000ADFB00BF000008000000000000000000A4
:106D8000081000200810002084500020000000009F
:106D90000000000010B53AF0A6FD02280ED1FF2138
:106DA000074839F044F801200CF0D6FBBDE810404C
:106DB000034601210420034A0CF06ABB10BD00BF4A
:106DC000B016002068B304081FB53AF08CFD022805
:106DD00019D100900DF10E030022032101203BF098
:106DE0001BFABDF80E300A4853B136F071FB4FF470
:106DF0007A62FF21074839F009F805B05DF804FB15
:106E000036F060FBF9E705B05DF804EB0FF0C8BBA6
:106E1000640B0508D01600201FB501230022009343
:106E200006210DF10F033BF0F7F928B99DF80F305B
:106E3000044823B136F046FB05B05DF804FB36F09C
:106E400044FBF9E7640B0508162808B504D1BDE832
:106E50000840074836F039BB152808D1044836F0F9
:106E600031FBBDE80840FF21024838F0D8BF08BD1B
:106E7000640B0508B016002037B5FF24094D2346E2
:106E80002846094A002100940AF09EFF0749084855
:106E90000BF020F82146284603B0BDE8304038F01A
:106EA000BEBF00BFD0160020C96D0008956D000858
:106EB000B016002010B50446034601210420084AFC
:106EC0000CF0E6FA54B112F033FD034630B1BDE8E0
:106ED000104001210420034A0CF0DABA10BD00BFB3
:106EE0008BB30408A9B3040808B536F02DFA28B905
:106EF000BDE80840FF21024838F091BF08BD00BF3F
:106F0000B01600201FB5094B094A1868094B01A9A2
:106F10001860094B1360094A0192094A1268CDE9C9
:106F2000022337F037FF05B05DF804FBE85200207C
:106F3000B0240020B4240020DC520020490A0508B7
:106F4000AC190020014B186837F038BFE852002018
:106F500038B507F03FF80446064D2B68D3F8B00269
:106F600007F02CF8286837F03CFF2046BDE8384091
:106F700007F024B8E852002007B501A804F026FB6A
:106F80009DF80530012B14D19DF804308BB94FF4D6
:106F90008012134B1349586E03F580535A664B6B9E
:106FA00023F0E05343F040634B63C3025CBF0E4BDE
:106FB0005A6606F0ADFF38F07CFA38F07CFA38F00B
:106FC00071FA38F07DFA07F0D1FE00F0A9FD07F064
:106FD0009DFA02F0EFFE03B05DF804EB08F05CB937
:106FE000008000500040005A00A00050064B1B6873
:106FF0001A7A022A04D812B11B68044A1360704737
:10700000032AF9D0704700BFEC520020AC190020D1
:1070100030B51B4D95B00DAC0FCD0FC495E80700F2
:10702000292384E80700174A0021CDE90223092417
:1070300008230E220DF12600CDE9041106918DF8EA
:1070400011308DF8134041F088FC4FF480210E4B35
:107050000DAACDE907130A238DF825300B4B07A99C
:107060000A9320230B9301238DF83130084B0948F4
:10707000009302AB8DF8244007F07AF915B030BDCB
:10708000300B050800C0055024C00550A545002060
:10709000B01900201C1A0020831E012B10B50C46CD
:1070A00019D801290DD8184B04221B6C0821002087
:1070B000C3F3002304F010F924B1144B18680368DB
:1070C000F3B910BD114B18680368002BF9D0BDE867
:1070D000104007F00BB98B1E012B0CD80128F0D8FB
:1070E000BDE810400022084B08211B6C1046C3F37A
:1070F000002304F0F1B80029E4D00129DDD0E0E755
:10710000BDE8104038F01EBC00C003500053002002
:1071100008B50449044808F0A1F8BDE80840FFF7A5
:1071200077BF00BF04530020401A0020014838F008
:1071300083BC00BF1C1A0020014B1A6A1868104754
:107140001C1A002008B519F0CBF80022014B1A7068
:1071500008BD00BFC5450020014836F0F0B800BFAB
:107160004C0B0508014836F0AAB900BF640B0508AE
:107170001FB5084903460868097902AA02908DF8EC
:107180000C10009205210022012009F0B3FF05B088
:107190005DF804FB7C0B05081FB50A4A034610681E
:1071A00002A9029090889279ADF80C008DF80E201B
:1071B000009144224FF44071012009F09BFF05B07B
:1071C0005DF804FB820B05081FB5084903460868F3
:1071D000097902AA02908DF80C1000920521422232
:1071E000012009F087FF05B05DF804FB8A0B050854
:1071F0001FB5084903460868097902AA02908DF86C
:107200000C10009205214022012009F073FF05B007
:107210005DF804FB7C0B05081FB5074A0346039283
:1072200003AA00924FF440714122012009F062FF4D
:1072300005B05DF804FB00BF010221211FB509491B
:1072400003460868097902AA02908DF80C10009292
:107250004FF440714022012009F04CFF05B05DF869
:1072600004FB00BF900B05081FB5094903460868D9
:10727000097902AA02908DF80C1000924FF4407127
:107280004322012009F036FF05B05DF804FB00BF82
:10729000900B05081FB5094903460868097902AA39
:1072A00002908DF80C1000924FF4407142220120A0
:1072B00009F020FF05B05DF804FB00BF840B050852
:1072C0001FB5064A0346039203AA00920122082131
:1072D000104609F00FFF05B05DF804FB0101212104
:1072E0001FB5074A0346039203AA00924FF4407168
:1072F0000822012009F0FEFE05B05DF804FB00BF86
:10730000121221211FB5094A034610689288029083
:10731000ADF80C2002AA00924FF440714B220120DC
:1073200009F0E8FE05B05DF804FB00BF960B050808
:107330001FB5074A0346039203AA009201224FF4A5
:107340004071104609F0D6FE05B05DF804FB00BFA1
:10735000010121211FB5074A0346039203AA0092A7
:107360004FF440710422012009F0C4FE05B05DF81D
:1073700004FB00BF010121211FB50949034608682C
:10738000097902AA02908DF80C1000924FF4407116
:107390000722012009F0AEFE05B05DF804FB00BF36
:1073A000970B05081FB5074A0346039203AA0092EC
:1073B0004FF440710A22012009F09CFE05B05DF8EF
:1073C00004FB00BF020221211FB5094903460868DA
:1073D000097902AA02908DF80C1000924FF44071C6
:1073E0000022012009F086FE05B05DF804FB00BF15
:1073F0009D0B05081FB5094903460868097902AACB
:1074000002908DF80C1000924FF44071062201207A
:1074100009F070FE05B05DF804FB00BF9D0B050888
:107420001FB5064A0346039203AA009208210022D0
:10743000012009F05FFE05B05DF804FB0102212187
:107440001FB5074A0346039203AA00924FF4407106
:107450000322012009F04EFE05B05DF804FB00BFD9
:10746000010221211FB5094903460888897803AA2A
:10747000ADF80C008DF80E1000920621422201207A
:1074800009F038FE05B05DF804FB00BFA30B05084A
:107490001FB503AA00920522074903460888897888
:1074A000ADF80C008DF80E100120114609F022FEF7
:1074B00005B05DF804FB00BFA70B05081FB5084920
:1074C00003460868097902AA02908DF80C10009210
:1074D00008210222012009F00DFE05B05DF804FB31
:1074E0009D0B05081FB5094903460868097902AADA
:1074F00002908DF80C1000924FF440710922012087
:1075000009F0F8FD05B05DF804FB00BFAB0B050802
:107510001FB50A4A0346106802A902909088927922
:10752000ADF80C008DF80E2000914C224FF4407104
:10753000012009F0DFFD05B05DF804FBB10B050883
:107540001FB5094903460868097902AA02908DF817
:107550000C1000924FF440710222012009F0CAFD84
:1075600005B05DF804FB00BFB90B05081FB509495C
:1075700003460868097902AA02908DF80C1000925F
:107580004FF440710522012009F0B4FD05B05DF80B
:1075900004FB00BFB90B05081FB50949034608885D
:1075A000897803AAADF80C008DF80E10009208211E
:1075B0000622012009F09EFD05B05DF804FB00BF26
:1075C000BF0B05080A46014935F059BB13250508CC
:1075D0000A46014935F053BB082505080A4601490A
:1075E00035F04DBB032505080A46014935F047BB78
:1075F000FE2405080A46014935F041BBF924050877
:107600000A46014935F03BBBEC2405080A4601490E
:1076100035F035BBDD2405080A46014935F02FBB9E
:10762000D82405080A46014935F029BBCF240508AE
:107630000A46014935F023BBC62405080A4601491C
:1076400035F01DBBBD2405080A46014935F017BBBE
:10765000B62405080A46014935F011BBAB240508DC
:107660000A46014935F00BBBA02405080A4601492A
:1076700035F005BB952405080A46014935F0FFBAE7
:107680008C2405080A46014935F0F9BA8124050819
:107690000A46014935F0F3BA7E2405080A46014935
:1076A00035F0EDBA7B2405080A46014935F0E7BA02
:1076B000782405080A46014935F0E1BA7524050821
:1076C0000A46014935F0DBBA722405080A46014929
:1076D00035F0D5BA6D2405080A46014935F0CFBA10
:1076E000682405080A46014935F0C9BA5F2405082F
:1076F0000A46014935F0C3BA542405080A4601492F
:1077000035F0BDBA4F2405080A46014935F0B7BA2D
:107710004A2405080A46014935F0B1BA452405084E
:107720000A46014935F0ABBA402405080A4601492A
:1077300035F0A5BA352405080A46014935F09FBA47
:107740002A2405080A46014935F099BA2324050878
:107750000A46014935F093BA202405080A46014932
:1077600035F08DBA1D2405080A46014935F087BA5F
:10777000122405080A46014935F081BA0D2405088E
:107780000A46014935F07BBA042405080A46014936
:1077900035F075BAFB2305080A46014935F06FBA82
:1077A000F62305080A46014935F069BAEB230508B6
:1077B0000348044A0449121A921035F02CBD00BF48
:1077C000706100081C6300082451002008B500F017
:1077D0002FF8FFF7EDFF124B12498B4212D3002016
:1077E000114B12498B4218D3FFF79AFA186850F8D8
:1077F0002240586840F82240013298688242F5D30E
:107800000C33EAE70022F8E71C6844F82200013252
:107810005C68A242F8D30833E4E70022F8E700BF2F
:10782000D0DA0508DCDA0508DCDA0508DCDA050858
:107830004FF48041124B134A70B59A60D3F88820F8
:10784000114D42F47002C3F88820104A05F5005427
:1078500091664FF0FF3222660D4A62660222C3F83B
:10786000D020BFF34F8FBFF36F8F4FF4403600200F
:1078700006F096FB0020E66006F076FB2E6170BDF8
:1078800000ED00E00060000800800044009000501F
:10789000F7FF3700014B1860704700BF2C530020E2
:1078A000054B1860054B1B6F03F00703032B01D139
:1078B00041F0B8B8704700BF34530020008000503A
:1078C0004FF000639B6A03F17842B2F5C04F03D2D8
:1078D0001968064A914203D0002303708360704701
:1078E000012202709A689B694260F7E707B0CD5E9B
:1078F00073B54F4B04461A781AB102221A7002B0BF
:1079000070BDCDE900220028F9D001261E7043F099
:1079100070FA484D484B18601BF090FB2B785BB910
:1079200002F048FA40B945480823454A45490068ED
:1079300002F026F800B92E70434B5A6E62619B6EBE
:10794000424AA3614FF480439366414B5968E16119
:1079500040499960196E2160596E6160D3F87011C9
:10796000A160196CE160596C21613B49086C186495
:10797000496C5964012151661B6E9C0441D5374AFC
:10798000D368D807FCD4364B1A68531C3ED04FF44A
:1079900080139340334A13664FF400730426314C2E
:1079A0002666236635F060FC01300DD035F05CFCB6
:1079B00040F20113984207D04FF4005323664FF46E
:1079C00080432366C4F870610823264C684623660A
:1079D0004FF4805323664FF0006323664FF4002377
:1079E00001A9636635F024FC009B2366019B636656
:1079F0002B78002B83D0124B1A6822665B68636673
:107A00007DE7194AD368D907FCD4BCE7174B1B782C
:107A1000002BC1D14FF400720C4B5A6603F5A6231C
:107A20005B68002BB8D14FF480120E4B1A66B3E797
:107A3000C7450020C8450020681A00205C5300207C
:107A40006C1A002000710800008000500090005067
:107A50000080004455CEAC0000C00054000004403B
:107A6000385300200090004400000450C645002018
:107A700070B5224D04462E78012E02D001232B70C2
:107A800070BD0028FCD035F0EFFB01300BD035F095
:107A9000EBFB40F20113984205D0194B194A5E6680
:107AA000D368DE07FCD42268174B1A6662685A66F0
:107AB000A268C3F87021E2681A6422695A64E26914
:107AC000D00744BF00229A60104B1A68013207D1D8
:107AD0000F4A127822B90F494968C90748BF1A608E
:107AE00062690D4B5A66A2699A661BF0AFFA0B4B9E
:107AF000186843F079F90023C1E700BFC7450020AB
:107B000000900040000004400080004438530020F2
:107B1000C645002000C0055000800050681A0020B3
:107B2000F8B54FF00066B36A03F17842B2F5C04F82
:107B300026D21A68144B9A4222D1144D2C7814F094
:107B4000FD0402D000242046F8BD4FF480371048D1
:107B5000FFF7CEFE204606F023FA0E4B2046DF60EC
:107B600006F002FA0C4B1F61B36ADB6998470446C2
:107B70000748FFF77DFF002CE5D101232B70E1E7DB
:107B80004FF48174DFE700BF07B0CD5EC64500202B
:107B9000481A002000A000440090004413B5204B78
:107BA0001B7803B9FEE700231E4CCDE900336A467B
:107BB00008231D49206801F0E3FEF8B91B4AD2F8FA
:107BC0004031D2F840211F2B4FF0010311D9203A48
:107BD0009340019A1A43019208236A461249206889
:107BE00001F08AFE124B134A1A6037F06DFC02B0A6
:107BF00010BD9340009A1A430092EDE72D28F1D171
:107C00000A4AD2F84031D2F840211F2B4FF001032D
:107C100085BF203A93409340019398BF0093DBE7E0
:107C2000C74500205C53002000710800008000441C
:107C3000000000200B020FF0BFF34F8F0549064BE9
:107C4000CA6802F4E0621343CB60BFF34F8F00BFFA
:107C5000FDE700BF00ED00E00400FA0570B5D0B10B
:107C6000C9B10E4E431E013913F8014F2046325D53
:107C700002F00302012A11F8012F08BF04F12000CD
:107C8000B55C05F00305012D08BF2032801A01D133
:107C9000002CE9D170BD0120FCE700BFC7D9050861
:107CA00030B5056887B0AB8804461848ADF80C308D
:107CB00037F0FAFB0122032103A800F075F80DF15B
:107CC0000B0103A835F0CFFB9DF80B3083F00103C7
:107CD0002B70AB79022B15D14FF0FF330022CDE989
:107CE000043304A90A4B009403A800F087F9049B0D
:107CF000009401330CBF04220122054B05A903A8FF
:107D000000F0FCF8002007B030BD00BF6C2E050865
:107D100053D303082DE9F04104460C254FF0010828
:107D2000124E0CB314F001000BD0002024F001041B
:107D300005FB00625768002FF3D09168C0B2B847C6
:107D4000EFE72246013020284FEA520201D0D30744
:107D5000F8D508FA00F20F2824EA0204E8D910380E
:107D600005FB0062B432E5E7BDE8F081741A00203B
:107D700008B50C4837F098FB192006F003F928B134
:107D8000192006F00DF9192006F0EEF81A2006F079
:107D9000F9F828B11A2006F003F91A2006F0E4F8E1
:107DA000002008BD6C2E05082DE9F0410E469046D6
:107DB000054618B30F2923D80378E3B1012B03D06C
:107DC000022B18D0032B1BD13F236A78D340DB074B
:107DD00016D50D4BD3F81043A4B943F00AF8074663
:107DE00042462846314603F0E5FC384642F0FCFFA7
:107DF0002046BDE8F08140F2FF33E6E72224F7E7B2
:107E00002124F5E70224F3E700C0035010B504462F
:107E1000E8B10378C3B1012B03D0022B14D0032B9C
:107E200017D13F236278D340DB0712D542F0E1FF40
:107E30000122637821789A4030235943064B5A50E7
:107E400042F0D2FF002010BD40F2FF33EAE72220CB
:107E5000F9E72120F7E700BF40D0035010B50446F2
:107E6000E8B10378C3B1012B03D0022B14D0032B4C
:107E700017D13F236278D340DB0712D542F0B9FF18
:107E80000122637821789A4030235943064B5A5097
:107E900042F0AAFF002010BD40F2FF33EAE72220A3
:107EA000F9E72120F7E700BF40E0035010B5044692
:107EB000E8B10378C3B1012B03D0022B14D0032BFC
:107EC00017D13F236278D340DB0712D542F091FFF0
:107ED0000122637821789A4030235943064B5A5047
:107EE00042F082FF002010BD40F2FF33EAE722207B
:107EF000F9E72120F7E700BF40F003502DE9F041FA
:107F00000D46164698460446002851D000294FD009
:107F100002784AB1012A42D0022A05D0032A3ED073
:107F2000FF2A07D0212041E040F2FF336278D3409E
:107F3000DA07F7D5022E01D9042EF3D142F059FF0A
:107F400023780746FF2B05D032462046296803F0E8
:107F500077FC28602B68013309D12378FF2B06D1E9
:107F6000144B6078D3F8241436F0DCF828602968C4
:107F70004B1C17D00C23104A03FB0122069BC2F8AE
:107F8000048093602378FF2B04D001230B4A8B409D
:107F9000C2F82434384642F027FF002006E03F2391
:107FA0006278C4E7384642F01FFF2D20BDE8F0811B
:107FB0002220FBE700C00350741A002000D00350B9
:107FC0000F2810B5044613D842F013FF0123094AC5
:107FD000A340C2F82034C2F824340C22064B02FB22
:107FE00004330024C3E9014442F0FEFE204610BDE4
:107FF0002120FCE700E00350741A00202DE9F04135
:108000000D4690461F460446002842D0002940D025
:10801000017849B1012933D0022905D003292FD095
:10802000FF2907D0212032E040F2FF336278D340AD
:10803000DA07F7D542F0DDFE23780646FF2B05D0A0
:1080400042462046296803F081FC28602A68531CB8
:1080500019D00C23104903FB0211069BC1F8B8701C
:10806000C1F8BC302378FF2B05D001231032934098
:108070000A4AC2F82434304642F0B6FE002006E038
:108080003F236278D3E7304642F0AEFE2D20BDE8B4
:10809000F0812220FBE700BF741A002000D00350BB
:1080A00008B503F06DFB054B00F0553020F0502073
:1080B000C3F82004BDE80840FFF72CBE00E00350E1
:1080C00008B503F05DFB054B00F0AA3020F0A020BE
:1080D000C3F82004BDE80840FFF71CBE00E00350D1
:1080E00013B504460A4837F0DFF9A2780421B2FA42
:1080F00082F2237852098DF8043063780DEB010089
:108100008DF80530FFF750FE002002B010BD00BF13
:108110006C2E05082DE9F04F9A46564B85B01B781A
:1081200006460F461546DDF83C909DF844B0DDF854
:108130005080002B00F09780072A00F296800E9B5B
:10814000002B00F09280B9F1000F00F08E80129B9E
:10815000B3F5006F00F38980012803D1109B002B39
:1081600000F08380444B03EB05131B7B002B7ED078
:10817000424C10220021684640F0EFFB04EB45140E
:108180001022A7BB3946204640F0E7FB43F210031C
:108190006380BBF1000F03D1E37843F00303E37086
:1081A000364A0E9B02EB451CCCE90193129B6901F8
:1081B000581E9DF84C30C0F30A0003F003039B06E1
:1081C00043EA001E53582E48012E00EA03004EEAEF
:1081D0000003CDF800A0535017D0B8F1000F2ED1F6
:1081E0009CF8023068F304138CF8023027E0002179
:1081F000204640F0B2FB4FF444736380BBF1000FA4
:10820000CED1E37843F03003C9E713230CF1100E0D
:10821000CCF80C309CE80F008EE80F006FF00301E3
:10822000DCF81C20109B61F39F02012FCCF81C206E
:10823000CCF8143003D1CCF81890CCF804300027D7
:108240000D4A290102EB051342F80180159A2846D0
:108250005A60694622469F605E7303F0D1F8384643
:1082600005B0BDE8F08F0748FAE70748F8E7074888
:10827000F6E700BFC9450020DC1C0020DC1B002005
:108280000F80FFF3028000F0018000F0078000F013
:1082900038B5124B05461B78DBB1E0B142F0A9FDC1
:1082A0000F4A00231146147B54B92B6001251A0193
:1082B00001EB03131D738C5042F096FD204638BD30
:1082C0000133082B02F11002EDD142F08DFD05487B
:1082D000F5E70548F3E70548F1E700BFC945002089
:1082E000DC1C0020048000F0028000F0018000F01F
:1082F00038B542F07EFD002305460B4A147B6CB96D
:108300000133082B02F11002F8D103F025F8074BD6
:1083100028461C7042F068FD204603E0284642F0E3
:1083200063FD034838BD00BFDC1C0020C9450020A8
:10833000058000F00D4B10B51B78044693B107285B
:1083400012D842F056FD0A4B03EB04131A7B2AB1F4
:1083500000241C7342F048FD204610BD42F044FD4D
:108360000448FAE70448F8E70448F6E7C94500205E
:10837000DC1C0020068000F0028000F0018000F08C
:10838000154B13B51868002301908DF8043042F0A6
:1083900030FD124B1C7824B142F026FD104802B08B
:1083A00010BD01221A7042F01FFD0E4B01A81C7374
:1083B0001C7783F82C4083F83C4083F84C4083F8CA
:1083C0005C4083F86C4083F87C4008238DF80730CC
:1083D00002F0E6FF2046E2E76C250508C9450020CB
:1083E000038000F0DC1C0020F8B50D4D2D7885B120
:1083F000072810DC0B4D060105EB0014277B67B145
:10840000AB510025069BA560636002F0F9FF28468A
:10841000F8BD0548FCE70548FAE70548F8E700BF5E
:10842000C9450020DC1C0020028000F0018000F023
:10843000078000F00A4A08B512785AB107280BD80D
:10844000084A02EB00131B7B43B1002102F09AFFA4
:10845000002008BD0448FCE70448FAE70448F8E7B0
:10846000C9450020DC1C0020028000F0018000F0E3
:10847000078000F00A4A08B512785AB107280BD8CD
:10848000084A02EB00131B7B43B1012102F07AFF83
:10849000002008BD0448FCE70448FAE70448F8E770
:1084A000C9450020DC1C0020028000F0018000F0A3
:1084B000078000F0184B2DE9F0411F6D5B6D1F40E8
:1084C00000D5FEE701260025144CDFF8588037421E
:1084D00018D02368C8F85060A3B1A16828460131BC
:1084E0006268A1609847637B012B0BD150B90C4B9C
:1084F00003EB45131A7B60F341021A731A7F60F392
:1085000041021A770135082D4FEA460604F110049E
:10851000DDD1BDE8F08100BF00000450DC1C00206C
:10852000DC1B0020002004502DE9F04F14460646C5
:108530000D469B46C36B87B001225B6902A9606848
:108540009847F36B01225B6903A92846984702A864
:1085500035F012FC074648B10023A37563754FF050
:10856000FF33A360002007B0BDE8F08F03A835F00B
:1085700010FC0123A375237E04EBC303DD611F847C
:108580006368AB420ED1206003A835F024FC4FF0A5
:10859000FF332075A360237D043B022B26D80023E4
:1085A000A375DFE723681A1A53425341A37503A842
:1085B00035F011FC237D834218BFA77503A835F061
:1085C000ECFB074602A835F0E8FB874218BF002302
:1085D00003A818BFA37535F0E8FB074602A835F0DD
:1085E000E4FB87421CBF0023A375D4E703A835F042
:1085F000D4FB80B1F36B022228465B6904A998473B
:1086000004A835F0D9FB0346207D032839D8DFE8DC
:1086100000F03838040903A8F3E7CC22237E04EBEA
:10862000C3031A8401F03EFC109B187003A8277E38
:1086300035F0A7FB04EBC70787F82200237E03A8C9
:1086400004EBC303B3F8209093F8227035F0A5FB38
:10865000804603A835F0A9FB8246B8F1000F15D07B
:10866000F36B022228465B6904A9984704A835F0F9
:1086700068FB6075637D6BB90023A3754FF000083C
:1086800038E0227E04EBC2021384CBE703A835F066
:1086900043FBEEE794F81680B8F1000FEED0B9F185
:1086A000000F09D1DFB10123627EE375002A44D1B6
:1086B0009F4218D1677614E0736C05EB0A025942A9
:1086C00085EA020008421CBF0021A175591E0A401C
:1086D0009B1A9945D0D8A37D002BE3D1CEE7E37D4B
:1086E00043B94FF000084B4652462946304635F014
:1086F00085F8A060A27D12B123694B44236114491F
:10870000237E097899421ED901332376BBF1000FED
:108710001BD0D2B1E37DC3B1B8F1000F15D1032F47
:1087200013D0A1684B1C10D0109B224600933046FA
:108730000123FFF7F9FEA07507E0012FDAD0032F20
:1087400008BFA376CDE70023A375A07D0BE700BF8C
:10875000902505082DE9F04F0E46984600238BB072
:1087600004464FF0FF31104617468DF8133001F0E4
:1087700083FBB6F5801F3BD3B21C53D1E56A6B1C5B
:1087800057D12046616A34F07FFF0546B31C18BFFD
:108790000123DFF810910193636A626C02932368EE
:1087A00005A902FB053AE36B05225B695046984731
:1087B00005A835F07CFB35F09FFB504635F0A7FB54
:1087C0004FF0000B824601464B1C05D0636C81EADA
:1087D0000A025B42134232D02946204634F054FF4D
:1087E000029BAB424DD0BBF1000F4DD10546D3E704
:1087F000314605AA04F1080035F010FA0146481C7C
:1088000010D0384601F038FB0122394620460DF1E0
:10881000130335F045F828B19DF8133088F800307F
:10882000002003E0237C002BA8D12D200BB0BDE855
:10883000F08F2368ED1A636CB5FBF3F5A6E74846A5
:1088400001F01AFB0DF1130349462046019A35F059
:1088500027F8034690B1B21C03D0D9F80020B242E9
:108860000CD19DF8132003930D4B88F80020494646
:108870001A68384640F095F8039B9B46D9F80810D3
:10888000A2E7BBF1000FD0D0B6F5801FC8D23146A9
:1088900098F800307A6804F1080001F01BFABFE78D
:1088A0008C250508D02300202DE9F3410446174606
:1088B00098460E46194D816AE36A8B422AD04B1CBA
:1088C00018E0284601F0D8FA0122294620460DF189
:1088D000070334F0E5FF30B14346294620469DF8B2
:1088E0000720B847B0B1A9684A1C05D0012E0AD0AC
:1088F000E36A9942E5D10DE06968204634F051FF02
:10890000012E0146D8D16B6881EA0302636C5B4299
:108910001A42D1D002B0BDE8F08100BFA4230020EC
:108920002DE9F041036B9046826B07689A4288BF3D
:108930008363426C436A90B002FB0377C36B0E46BD
:10894000052201A95B6904463846984701A835F01D
:10895000AEFA01280146307057D0656CE26B23688F
:10896000606AD2F814C005FB0030052206A9E04772
:1089700006A835F09CFA01284FF0000523D0D4E971
:108980000A3201219342CDE90B458DF834800E95D2
:108990008DF83C102AD11946204634F002FF236B93
:1089A000626C14339B1AE06223630C9B53B99DF8ED
:1089B0003C303BB1626A616C2368E06B01FB0231C1
:1089C00035F02DFA0C9DE36B05225B6901A9384651
:1089D000984701A835F06BFA30702846236BA26BDC
:1089E0009A4288BFA36310B0BDE8F081237C33B9FD
:1089F0001C490BAA04F1080001F0BAF9D5E720469A
:108A0000194A0BABFFF750FFCFE7237C23BB22466D
:108A1000164904F1080001F0ABF9616A204634F010
:108A200054FE616A421C204634F01DFE054620B902
:108A3000236B626C1344143B23632046A16A34F019
:108A4000B0FE2368A062C01A636CB0FBF3F06062F2
:108A5000204634F0E9FEB6E700232046044AFFF73B
:108A600023FFDAE7059400088193000829D9030859
:108A7000C5D8030873B50D46D11E4A421C461B7E5D
:108A80004A419A4226D129682368994222D36368D1
:108A900099421FD8114E0DF107033246FFF75AFED7
:108AA000C0B972686B689A4214D19DF80730DA1E1B
:108AB00053425341227E93420CD163690133636177
:108AC000D4E90323934205D22968A26842F823100F
:108AD00001332361012002B070BD00BFFC230020E0
:108AE0002DE9F04F9A468BB09DF85030DFF850B129
:108AF0000293DBF81030804653450D461646C0F011
:108B00009980D146DBF804300193B9F1000F00F0F1
:108B10008D80D8F83C3001225B6907A901989847FD
:108B200007A835F036F9DBF80030984240F0858030
:108B300007A835F03AF90428074614D107A835F0FC
:108B40003BF9019B029A04463B44002A3FD18642EE
:108B500012D91446361A4046019934F022FEA9EB88
:108B600004090190D1E7D8F83C3002225B690198F2
:108B700008A9984708A8E2E7841B544528BF544633
:108B8000032C03EB0607AAEB040A4FEA94021CD954
:108B9000D8F83C30294638465B69984724F00303EF
:108BA00004F003061F441D44002ED4D0D8F83C30F6
:108BB00001225B6908A9384698473246284608A929
:108BC00035443FF0EEFE0026C5E72646ECE70746B3
:108BD00000F00302039203442A1804920593049BB5
:108BE000DD1B059BD81B039B9F420FD1002FB2D0EA
:108BF000D8F83C30012208A95B6998473A462846D4
:108C000008A93FF080FE78B93D44A4E7D8F83C308D
:108C1000012208A95B6998470422284608A93FF069
:108C200072FE08B9043FDAE74FF0360948460BB048
:108C3000BDE8F08F4FF06309F8E74FF06F09F5E7F3
:108C4000282400202DE9F0410F4616469846044698
:108C500088B060B390F83450FDB1012134F0D9FCF4
:108C600000210E9BCDE90511CDE902379DF83C307E
:108C7000CDF804808DF81C30237C04968BB90D4907
:108C800001AA04F1080001F073F8DDE90553E06B77
:108C9000002E08BF1D4634F055FE284608B0BDE83A
:108CA000F0812046044A01ABFFF7FEFDEDE70546E3
:108CB000F3E700BFF3D80308758A00087FB590F882
:108CC0004260044601920DF10B030A4630461249F8
:108CD00034F040FE012E0546E36B19D132465B6944
:108CE00003A998479DF80B10039B019A59B19BB2B9
:108CF00043EA0243012228460393E36B03A99B69DD
:108D0000984704B070BD1B0C1B0492B21343F1E7EB
:108D100001229B6901A9F3E7282400202DE9F04FE7
:108D200099B00F4609920A69416C0E931439D31D0C
:108D3000B3FBF1F3013302EBC302036B044693422E
:108D4000C0F00D820023DFF820940D93E36A4846BB
:108D50001946079301F090F8D7E9033604930E9B68
:108D6000022B4ED1CC2E40F08A81099B002B42D0A1
:108D70003946204634F044FE656C079A6B1E13405A
:108D80001490ED1AE36B01225B6916A97868984785
:108D900016A835F002F800280CBF04230823782E0B
:108DA00006933DD9012300254FF0080A05933B683F
:108DB00005990E98C9F80030C9F8106035F00FF821
:108DC0004FEA9A0310930023DDF81CB089F81400D1
:108DD0000B930F9308930C93616C4A1E0BEA0202EB
:108DE0008B1A002E38D05544AB4240D8236B5B1A07
:108DF00013442363ABE0049B1B681493082306937E
:108E0000D0E7656C079A6B1E1340782EA5EB03051F
:108E100016D8FB7D7BB9099B002BB3D104230693A5
:108E2000331DAB4210D9A6B1082DBBD804250023B1
:108E3000AA460593BBE7099B002BA3D10823EEE7C5
:108E4000099B002B9ED1D9E7002505954FF0040A18
:108E5000ADE704250596F9E75345C7D3B0460BEBBC
:108E60000A030393089B002B18BF032313E0A3EB13
:108E70000A039E42B0460BEB0A0228BF98469E4268
:108E80000392EFD90123D9F8102089F817309642C0
:108E900071D1C9F804B0089399F81730002B6CD041
:108EA00099F818200899D31C09EBC3030132C3F8C1
:108EB00004B0A3F80880997289F81820B8F1000F5F
:108EC00014D00E9B022B5BD10B9B7BB90F9B4344B1
:108ED000032B0BD9E36B01229B69039814A99847D4
:108EE0000546002840F03D8101230B93089B16A8FE
:108EF0000193059B009399F814204346396800F0CC
:108F000071FFE36B58469B69109A16A99847051E96
:108F10000D9B18BF5B4652460D935946434620466B
:108F200034F06CFC236B08F10302A3EB0A0322F07C
:108F300003029B1AC9F808002363002D40F0118139
:108F40000F9BDDF80CB04344A6EB08060F9359467F
:108F5000204634F026FC00258346002E7FF43CAFEB
:108F6000814A3968936804F10800E36252680E9BF5
:108F700000F0B0FEDEE002238DE7C9F804B09DE703
:108F8000099B002B30D1049BB8F1030F43440A9393
:108F900027D9DDE90301E36B4FEA98029B69984703
:108FA0000546002865D118F003025FD0049B28F025
:108FB00003052B440493039B1D444FF0FF33049996
:108FC00015A815933FF0EDFCE36B28469B69012241
:108FD00015A9984705460A9B0493002D86D0039B4C
:108FE00099E74246039DE8E7039B0A9307F12003B4
:108FF0001193FB7D78689BB100233D7E0C9AD9B21A
:109000008D4211D9119903F1010C31F833109142BD
:1090100026D9069907EBC303D8690A44104403E034
:109020000C9B069A13441844E36B01225B6915A953
:109030009847159B012213930C9B0A9804330C93B9
:10904000E36B13A99B699847039B0A9A43449B1AB5
:10905000042B054607D978B9134604330A93C8E7A9
:109060006346521ACBE70A9B0393B6E70A9B049325
:109070003CE70A9B0493B2E70A9B0393AFE7702691
:1090800004F1080303932368079A606CA2EB030AB8
:10909000BAFBF0FA00FB0A3034F039FFE16A80468F
:1090A000204634F07EFBA26A82424AD0626CD9F834
:1090B0000830511E0B40216B2568891A0B4423632D
:1090C0000D9BE0625D1BB5FBF2F5AA4536D1079B0F
:1090D000B3EB080A12D0E36B4FEA9A0241469B6950
:1090E00098478346E36A079A5344E362236B0398E5
:1090F0009B1A4344236334F062FDDA462368616CB3
:10910000E06B01FB053134F077FE204634F08CFA39
:10911000204634F089FB2063BAF1000F11D03A6980
:10912000616CD31D1439B3FBF1F3013302EBC302BD
:109130009042A8D2304619B0BDE8F08F4FF0000A37
:10914000DCE73A69616CD31D1439B3FBF1F30133E9
:1091500002EBC302236B9342BFF4F8ADEAE71C268F
:10916000E8E72E468CE700BFD02300202DE9F34727
:109170001E4643690446B342884617469DF8289028
:109180003DD300258DF80750204634F019FAD4F865
:1091900030A082450AD2236AB5EB430F06D20022E3
:1091A00020460DF10701FFF7BBFB30B39DF80730F8
:1091B000012B05D1002220460DF10701FFF7B0FB7E
:1091C000B9F1030F06D03146204634F0E4F9256B9F
:1091D000854218D30D4D4FF0FF31284600F04CFE6C
:1091E0004B46002229462046C5E90376C5F8008093
:1091F00002B0BDE8F047FFF791BD0135C4E762203A
:1092000002B0BDE8F0871C20FAE700BFFC23002075
:109210002DE9F04790F8426086B0012E0546039193
:10922000A1EB020715D1B7F5807F28BF03264FF0C9
:10923000640800244FF6FF79DFF840A195F842302A
:10924000012B14BF322364239C420AD35FFA88F4B3
:1092500015E0B7F5803F34BF012602264FF03208F3
:10926000E7E705AB22465146284634F0A7FB95F8C0
:109270004230012B059B34D14B452DD1E4B295F8FA
:109280004230012B0CBF64223222121BB24217D390
:10929000012E39D10022012B05978DF8132027D1FB
:1092A000082205A90DF1130034F04DFE9DF813308E
:1092B000059A42EA032221462846FFF7FFFC40B107
:1092C00002232E4900932846CC23096803AAFFF7FE
:1092D0004DFF06B0BDE8F087DBB203B902340134BC
:1092E000ACE7591CCAD09BB2002BF8D10134F6E789
:1092F000102205A90DF1130034F025FE9DF813305E
:10930000059A42EA0342D6E7039A012B059223D13C
:109310000823202205A90DF113008DF8133034F035
:1093200012FE9DF81320120221462846FFF7C6FCC4
:1093300095F84230611C012BC9B21AD10028BFD167
:109340002846BDF81420FFF7B9FC0028B8D1023434
:10935000BDF81620E1B2AFE71023202205A90DF1D8
:1093600013008DF8133034F0EEFD9DF81320120435
:10937000DAE70028A4D1059A9EE700BF2824002040
:10938000032A2DE9F34106460D4617461C4606D131
:10939000237A012B23D0012002B0BDE8F081DFF851
:1093A0006080096842460DF10703FFF7D3F960605A
:1093B0000028EDD19DF80720237A032AE8D0D8F8B9
:1093C00004106A689142E3D1012B2969D4F80CC0DA
:1093D00007D172690CEB0103934202D92074207CFF
:1093E000DAE708316144E1603B4601222946304614
:1093F000FFF794FC60600028CAD00020CCE700BFD3
:10940000FC2300202DE9F341089C032A1746266817
:1094100006D1237A012B24D0012002B0BDE8F081CF
:10942000DFF89080304642460DF10703FFF792F9CE
:1094300060600028EDD12568D8F80400A96AD5F845
:1094400044C04840CCF100031840227AE1D1012AFF
:1094500009D1E268D8F8103013447269934202D9F6
:109460002074207CD9E72868EB6A1B1A081AB3FB22
:10947000FCF3B0FBFCF083420BD1706CF36A421E2C
:109480001340326B121A13442846336334F089F9BF
:10949000E862D8F81020E36808321344E360012240
:1094A0003B4604492068FFF739FC60600028B0D0D3
:1094B0000020B2E7FC2300202DE9F04F4FF0FF33EE
:1094C0004FF6FF720025044600F10806C0E90923A3
:1094D0008BB0C3620562056330460F4634F06FFB04
:1094E000204634F0A1F820BB2046394634F01CF960
:1094F000204634F099F820BB5E200BB0BDE8F08F19
:10950000E26B2368606CD2F814C000FB05300522C2
:1095100005A9E04705A834F0CAFC012828D129464E
:10952000204634F0D2F8421C2946204634F09BF8FD
:109530000135E3699D42E3D3204634F075F80028F5
:10954000D2D000254FF0FF394FF6FF73CA46A84628
:10955000C4E90853E369984514D3A5EB0905012D27
:1095600036D84FF6FF72636A934246D16720C4E74C
:1095700034F0C7FC0028DBD02946204634F0A5F89B
:109580000246D1E72368E26B606C576900FB083044
:10959000052205A9B84705A834F089FC834605A82B
:1095A00034F05CFC0746584634F0A6FC68B15745D9
:1095B00038BFC4F82480B94528BFB946BD4238BF7A
:1095C0003D46BA46236A0133236208F10108C1E728
:1095D0004FF6FF7300256362E3699D42C1D2676C59
:1095E0002068E36B052207FB05005B6905A9984726
:1095F00005A834F033FC0135EEE7E26B676C2068B8
:10960000694607FB030055690522A847684634F000
:1096100025FC626A2368606C504D00FB023034F018
:1096200076FC4FF0FF33A062E3622A466FF001013F
:10963000204605ABFFF78EF800284FD1AD682946CC
:109640002046E56233F0CCFF206320B92046E16A72
:1096500034F0A7F8E0622946204634F0A2F8054627
:10966000A36A9D423CD16569626CE91C143AB1FB66
:10967000F2F14FF0000805EBC1050335B5FBF2F53B
:10968000C1460235E36999453CD3A8455AD22046E4
:10969000616A33F0F9FF0027064604F1400AB84535
:1096A00012D8626C2368694602FB0639E36B052217
:1096B0005B6948469847684634F0D0FB53460246FB
:1096C0004946E06B34F025FC3146204633F0DCFFA0
:1096D0000137AF420646E2D364200EE7A56AAEE743
:1096E0002946204633F07CFF236B29460344074676
:1096F0002363204634F055F80546002FB0D1C4E965
:109700000B07ADE7636C2768052203FB0977E36B62
:1097100005A95B693846984705A834F0C8FB34F0C2
:10972000EBFB60B1384634F0F2FB0146204633F0E3
:1097300057FF636C143B984208BF08F1010809F118
:1097400001099FE7304634F03AFA002320461946D3
:10975000034AFFF7A9F80020CFE600BFFC23002052
:109760008FD803080023624A2DE9F04117680E469E
:109770000446136018B921252846BDE8F08190F809
:1097800034500DB309680268914240F0A9807168B5
:109790004268914240F0A480B1688268914240F0F2
:1097A0009F80F168C268914240F09A8031694269B5
:1097B000914240F09580B169C26B914240F0908037
:1097C00072691D468261D7E750222946D0F8388059
:1097D0003FF0C3F8D6E90212336804F108002360B1
:1097E0007368C4F838806360336963617369A36127
:1097F00034F0F7F9B36904F14000E3639B689847DC
:1098000094F8432020B1E561002AB4D05B25B3E78A
:10981000656C002DF7D06668B6FBF5F3E361002AAE
:10982000A9D0B542F2D82268B2FBF5F105FB1122AE
:10983000002A57D105FB1363002B53D1204633F088
:10984000BFFEA369043303449E424DD340F63472F5
:109850006369CC3B934249D8B5F5805FD6D30321E9
:10986000204633F0D6FED4E90001E36B1B6898472D
:109870000546E36B0220DB6898471DB1002384F89E
:1098800034301DE039462046FFF716FE64280546B1
:1098900004D139462046FFF70FFE0546636C143BA2
:1098A000002DEBD1226A204602FB03F633F088FE3E
:1098B000A369043303449E4206D284F834505A25E7
:1098C000E06B34F03FF857E70123D4E90001094A7F
:1098D00084F8343013680133136034F01CFAEFE776
:1098E0005D2549E7592547E75A2545E75F2543E7C1
:1098F000601D00205C1D00202DE9FF410F469046B1
:109900001E46054698B390F8343093B3B1F5801FE6
:1099100031D21A4C022133F07CFE224639462846C9
:109920000DF10F03FEF716FF024678B10123424600
:109930000093394633462846FFF718FC0446E86B87
:1099400034F000F8204604B0BDE8F0819DF80F30F7
:10995000012BEBD12169B142E8D100934146334656
:109960002846FFF7BDF804460028DFD1E7E72124A9
:10997000E8E71124E6E72924E4E700BF28240020D3
:109980002DE9FF410C4616461F46054680B390F868
:1099900034307BB3B1F5801F2ED2DFF86080012117
:1099A00033F037FE2146424628460DF10F03FEF7FD
:1099B000D1FE044670B99DF80F30012B11D1D8F8B3
:1099C0001030BB4212D10246009031462846FFF7C4
:1099D00087F80446E86B33F0B5FF204604B0BDE8D5
:1099E000F081022B14BF2D246024F3E76324F1E7F8
:1099F0002124F2E71124F0E72924EEE728240020AF
:109A00002DE9F04385B00C4617461E460546DDF8A5
:109A1000308098B390F8343093B3B1F5801F31D2D1
:109A2000DFF86490012133F0F4FD21464A462846D0
:109A30000DF10F03FEF78EFE044688B99DF80F3036
:109A4000012B14D1D9F8102006EB08039A4213D346
:109A500000904346324639462846FFF741F804460F
:109A6000E86B33F06FFF204605B0BDE8F083022BB2
:109A700014BF2D246024F3E76324F1E72124F2E7E7
:109A80001124F0E72924EEE72824002070B586B0E1
:109A90000E4605460392A0B390F834309BB3B1F55F
:109AA000801F32D2022133F0B4FD31462846184AD5
:109AB0000DF11703FEF74EFE044618B99DF8173056
:109AC000032B0ED10223314600932846CC2303AA50
:109AD000FFF74CFB0446E86B33F034FF204606B03A
:109AE00070BD022B0BD10A49284633F089FF039938
:109AF00002468142EFD02846FFF78AFBEAE761245D
:109B0000E9E72124EAE71124E8E72924E6E700BF92
:109B10002824002073B50C461646054630B390F84D
:109B200034302BB3B1F5801F24D2012133F071FD05
:109B300021462846104A0DF10703FEF70BFE0446A6
:109B400080B99DF80730032B0CD0022B0CD128468E
:109B5000094933F055FF3060E86B33F0F3FE2046DF
:109B600002B070BD2D24F7E76124F5E72124F6E764
:109B70001124F4E72924F2E728240020F7B50C4645
:109B80001646054668B390F8343063B3B1F5801FCC
:109B90002BD2022133F03DFD21462846144A0DF117
:109BA0000703FEF7D7FDC0B99DF80730032B14D08B
:109BB000022B14D10E49284633F022FF471C0246DF
:109BC00039462846FFF724FB044606B13760E86BA8
:109BD00033F0B8FE204603B0F0BD2D24F7E7612432
:109BE000F5E72124F6E71124F4E72924F2E700BF82
:109BF000282400202DE9F3411F4600230C46164679
:109C000005463B6050B390F834304BB3B1F5801F3C
:109C100028D2DFF85480012133F0FBFC2146424674
:109C200028460DF10703FEF795FD0446A0B99DF8FF
:109C30000730032B10D0022B0AD1012333600423F9
:109C40003B60E86B33F07EFE204602B0BDE8F08159
:109C5000D8F810303060F3E72D24F2E72124F3E741
:109C60001124F1E72924EFE72824002030B50C4621
:109C7000054685B028B390F8343023B3B1F5801F82
:109C800023D2022133F0C5FC0DF10F0321462846F3
:109C90000F4AFEF75FFD034688B99DF80F20032A9F
:109CA0000DD003222146009202462846FFF75EFAB5
:109CB0000446E86B33F046FE204605B030BD2D2447
:109CC000F7E72124F8E71124F6E72924F4E700BF99
:109CD000282400202DE9F043466886B3056898469D
:109CE0004FF0000CA946AE4655F83C400CF1010C73
:109CF000C4F31307013401D0B94217D066450EF101
:109D0000080EF1D12F46002403E0A64207F1080710
:109D100012D055F8343001340133F6D1C1F31301B8
:109D200041EA0851C7E90012BDE8F08341EA085151
:109D3000CEE90012BDE8F083B8F1030F03D101238F
:109D40000372BDE8F083002303E09E4209F1080995
:109D5000F5D055F833400133C4F30754032CF4D144
:109D6000C1F3130343EA0853C9E90032BDE8F083A5
:109D70002DE9F0410646406882B0C0B10F469046DA
:109D80000024336853F8345003EBC403C5F307527F
:109D9000C5F31301013504F1010406D05B683046B8
:109DA000CDF80080B84710B170688442E9D302B0A2
:109DB000BDE8F081024B1968024B1868FFF7D2BC6E
:109DC0003C5300205C53002008B541F005F8014BDE
:109DD000186008BD54240020014B186840F0F7BFFC
:109DE0005424002073B504462248012A00EAC11118
:109DF0009DF8185023F07C4007D9961E012E28D9D3
:109E0000073303F07F03194308E09DF81C300A4331
:109E1000DB0603F0C053134343F060410023C4E961
:109E200000108DF80730B5B1202221460DF1070052
:109E300034F089F81A220DF10700211D34F083F85F
:109E4000082063689DF8072043EA8263636002B0DC
:109E500070BD1143E2E71B220DF10700214634F0EB
:109E600072F823689DF80720042043EAC263236048
:109E7000EDE700BF80FFFF0738B5094B0D461A68B4
:109E8000002104463EF069FD00234FF0FF3223839A
:109E9000C4E900252361A260E382A37638BD00BF38
:109EA0008C2505080138C0B205289ABF014B185C03
:109EB00001207047912505082DE9F0410746154618
:109EC00000240E46596888B0490A012922464FEA03
:109ED000510104F10104F8D8DC78997824031B8837
:109EE000C90201F4006104F480540C43C3F30A0373
:109EF0005203234492B24FF000089C18274B6FEA9C
:109F00000444039325F07843ED4302A90DF10700C3
:109F10001B2202938DF8078034F015F89DF8072076
:109F2000029B02A943EAC2630DF107001B2225F040
:109F30007845049302958DF8078034F004F89DF875
:109F40000720029B6FEA144443EAC26305934FF073
:109F5000FF330794069307A9BB69012206F110009D
:109F60009847BB6905A90446012206F108009847F5
:109F7000BB69404518BF044604A90122301D98471B
:109F80000122404518BF0446BB69304603A99847E3
:109F9000404508BF204608B0BDE8F08101009AB2F4
:109FA000044BD3F88420D206FBD4D3F88400C0F34A
:109FB000811070470040005038B5174B0546D3F864
:109FC00028310C4603F00703013B052B20D8DFE8BE
:109FD00003F003131B0F0B173EF0FEFC052305B126
:109FE000286004B1236038BD3EF0F6FC0623F6E796
:109FF0003EF03CFD0723F2E73EF02EFD0323EEE7A3
:10A000003EF02AFD0423EAE73EF022FD0223E6E7C4
:10A0100000231846E3E700BF00800050002337B557
:10A020000193164B0546D3F820320C4603F0070384
:10A03000042B21D8DFE803F0030B11161B000123CA
:10A040000DB1019A2A6004B1236003B030BD002134
:10A0500001A8FFF7B1FF1223F2E73EF007FD072347
:10A060000190EDE740F0ADFE0A230190E8E73EF0F5
:10A0700045FD09230190E3E70023E1E7008000505C
:10A0800038B5104B0546D3F880300C4603F0030377
:10A09000022B0BD0032B0DD0012B0FD13EF0A2FCD5
:10A0A0000E2305B1286004B1236038BD3EF0DEFC0C
:10A0B0000723F6E73EF090FC0623F2E7002318465C
:10A0C000EFE700BF0080005038B5104B0546D3F8CD
:10A0D00000310C4603F00303022B0BD0032B0DD0F1
:10A0E000012B0FD13EF0B8FC032305B1286004B169
:10A0F000236038BD3EF002FD0923F6E73EF0B2FCD6
:10A100000823F2E701230020EFE700BF00800050A2
:10A1100038B5184B0546D3F820010C4600F007006F
:10A12000062823D8DFE800F0040A0E16121A1E00D3
:10A13000012305B1286004B1236038BD3EF04CFC1A
:10A140000523F6E73EF088FC0323F2E73EF08EFCA1
:10A150000723EEE73EF07CFC0223EAE73EF03CFCFE
:10A160000623E6E73EF078FC0423E2E700231846E6
:10A17000DFE700BF0080005038B5104B0546D3F82C
:10A1800040310C4603F00303022B0BD0032B0DD000
:10A19000012B0FD140F015FE0A2305B1286004B150
:10A1A000236038BD3EF0AAFC0923F6E740F00CFE20
:10A1B0000C23F2E701230020EFE700BF00800050EE
:10A1C000002337B50193164B0546D3F860320C4691
:10A1D00003F00703013B032B1FD8DFE803F0020E57
:10A1E0001914002101A8FFF793FF10230DB1019A64
:10A1F0002A6004B1236003B030BD002101A8FFF73D
:10A20000BBFF1123F2E73EF031FC07230190EDE79D
:10A210003EF01EFC02230190E8E70023E6E700BFC2
:10A2200000800050002337B50193164B0546D3F844
:10A2300094320C4603F00703013B032B1FD8DFE8E1
:10A2400003F0020E1914002101A8FFF761FF10238B
:10A250000DB1019A2A6004B1236003B030BD002122
:10A2600001A8FFF789FF1123F2E73EF0FFFB072368
:10A270000190EDE73EF0ECFB02230190E8E70023BC
:10A28000E6E700BF0080005038B5104B0546D3F814
:10A2900060310C4603F00303022B0BD0032B0DD0CF
:10A2A000012B0FD140F08DFD0A2305B1286004B1C8
:10A2B000236038BD3EF022FC0923F6E740F084FD20
:10A2C0000C23F2E701230020EFE700BF00800050DD
:10A2D0002E4B98424AD022D82D4B984240D014D8C9
:10A2E0002C4B984239D00AD82B4B984232D02B4B6A
:10A2F00098422FD02A4B98422CD000207047294BEF
:10A300009842FAD1284B186F7047284B98422AD0B0
:10A31000274B9842F1D1244BD3F880007047254B4E
:10A3200098422BD009D8244B984223D0234B9842F3
:10A33000E3D11D4BD3F88C007047214B984221D0BC
:10A3400003F5740303F510539842D6D1164BD3F896
:10A3500098007047144B986D7047134B586E7047B8
:10A36000114B586F7047104B986F70470E4BD3F8D6
:10A37000840070470C4BD3F8880070470A4BD3F821
:10A3800090007047084BD3F8940070470048E801EC
:10A390000024F400C0CF6A0080841E0000093D0044
:10A3A00040420F00405DC6000080E00FC0EA21017E
:10A3B00080BA8C01007E560380D54302006CDC021B
:10A3C0000090D00373B50D460021114B0191D3F8D5
:10A3D0008041064604F00304022C13D0032C0CD059
:10A3E000012C13D101A8FFF793FE10240EB1019B9D
:10A3F000336005B12C6002B070BD3EF037FB07241E
:10A400000190F3E73EF024FB0190EFE70C46EDE707
:10A410000080005038B5104B0546D3F840320C464A
:10A4200003F00303022B0BD0032B0DD0012B0FD114
:10A4300040F0C7FC0A2305B1286004B1236038BD91
:10A440003EF05CFB0923F6E740F0BEFC0C23F2E78C
:10A4500001230020EFE700BF0080005038B5144B07
:10A460000546D3F800020C4600F0070004281BD86C
:10A47000DFE800F003090D111500012305B1286084
:10A4800004B1236038BD40F09CFC0A23F6E73EF09F
:10A4900035FB0923F2E740F097FC0C23EEE73EF092
:10A4A000C1FA0F23800AE9E700231846E6E700BF58
:10A4B0000080005038B5144B0546D3F808020C460E
:10A4C00000F0070004281BD8DFE800F003090D1195
:10A4D0001500012305B1286004B1236038BD40F0A8
:10A4E00070FC0A23F6E73EF009FB0923F2E740F08F
:10A4F0006BFC0C23EEE73EF095FA0F23800AE9E7A8
:10A5000000231846E6E700BF00800050B0F5207F2A
:10A510001FD009D8B0F5007F15D003D868B1B0F5C9
:10A52000C07F0AD000200CE0B0F5607FFAD10B4B61
:10A53000D3F88000C0F3011003E0084B186FC0F39C
:10A54000033001307047054BD3F89000C0F304602E
:10A55000F7E7024B186FC0F38020F2E7008000504D
:10A5600002464FF48030104B10B598660020FFF77C
:10A57000CDFF504341F671320C4BDC69DA635A6807
:10A5800004F4803422F4401259B90949884294BF36
:10A5900000200120000502435A600CB10022DA635A
:10A5A00010BD0449F2E700BF0090005000000350C6
:10A5B000005A6202002D3101430905D0012B0CD055
:10A5C000022B084B18BF002300F01F0039B103F520
:10A5D0008053012282401A607047034BF4E703F571
:10A5E0000053F6E768800050648000501FB50021DA
:10A5F000B0F5807F0446CDE9001100F0D2803AD852
:10A600005E2833D85E2833D8DFE800F04532323296
:10A61000323232323232323232323232323232321A
:10A6200032323232323232323232323245AC45ACF0
:10A63000BCBCBCBCBCACC64E6BDC4EACACAC3232B1
:10A64000323232323232ACACAC7EE6AC3232323202
:10A65000323232323232323232BC454545E14E4E30
:10A66000EB8D63C132323232329E4500802870D089
:10A67000009804B010BDB0F5D06F00F0A38035D8BD
:10A68000B0F5607F79D01AD8B0F5007F65D005D8D5
:10A69000B0F5C07FECD13EF0C5F95CE0B0F5207FAD
:10A6A00060D0B0F5407FE3D13EF0BCF902464FF4F4
:10A6B0002070FFF72BFFB2FBF0F252085BE0B0F521
:10A6C000B06F69D00AD8B0F5806F5BD0B0F5A06FDD
:10A6D000CED100216846FFF7A1FCC9E7B0F5C06FF5
:10A6E000C6D100216846FFF747FDC1E7B0F5106FFE
:10A6F0006DD00ED8B0F5086F78D0B9D8B0F5E06F4E
:10A700006AD0B0F5F06FB3D100216846FFF7BCFD09
:10A71000AEE7B0F5406F3AD013D8B0F5206F60D0F7
:10A72000B0F5286FA4D10021324B0391D3F87032D9
:10A7300003F00303012B02D103A8FFF71DFD039BC8
:10A7400039E0B0F5486F93D100216846FFF76AFD04
:10A750008EE73EF047F900908AE73EF043F9024663
:10A76000204604E03EF05EF902464FF42070FFF709
:10A77000CDFEB2FBF0F200927AE701A8FFF780FC71
:10A78000019AEDE700216846FFF7C2FC70E700215F
:10A790006846FFF711FC6BE700216846FFF712FEE1
:10A7A00066E74FF0E02302911B695B0705D53EF099
:10A7B00039F90290029B00935AE703A902A8FFF718
:10A7C000DBFCF7E700216846FFF748FE50E7002171
:10A7D0006846FFF76FFE4BE700216846FFF71AFE59
:10A7E00046E700216846FFF7EBFC41E76846FFF7C4
:10A7F0006BFC3DE70080005008B58020FFF7F6FEB7
:10A80000034B98429EBF4FF48032024B1A6708BD3B
:10A81000005A620200A000501FB503460020B3F5A5
:10A82000807F019000F0C58065D85D2B56D84C2BF9
:10A8300007D82D2B48D8232B2CD8019805B05DF8CC
:10A8400004FB4D3B102BF8D801A252F823F000BFB7
:10A85000A9A900083BA800083BA800083BA80008DD
:10A8600057A900083BA800083BA8000803AA000855
:10A8700075A900081BA90008F9A900083BA8000851
:10A880003BA800083BA800083BA800083BA800081C
:10A890000DAA0008243B092BCFD801A252F823F0BF
:10A8A000A9A90008A9A90008A9A90008A9A9000840
:10A8B000A9A900083BA800089FA900083BA8000818
:10A8C00037A90008DFA900083D2B00F083803E2B4C
:10A8D000B3D1002001A9FFF79DFDAEE7802BACD1DD
:10A8E000504B1B6F03F00703013B032BA5D8DFE898
:10A8F00003F0544D5052B3F5F06F6BD020D8B3F540
:10A90000B06F4CD00ED8B3F5607F71D095D3B3F54E
:10A91000806F49D0B3F5A06F8FD1002001A9FFF758
:10A920007DFB8AE7B3F5D06F59D0B3F5E06FD0D097
:10A93000B3F5C06F81D1002001A9FFF71DFC7CE7B2
:10A94000B3F5206F5DD00BD8B3F5086F4CD0B3F5DD
:10A95000106F7FF472AF002001A9FFF7ABFD6CE729
:10A96000B3F5406F48D0B3F5486F4FD0B3F5286FBB
:10A970007FF463AF2B4BD3F8703203F00303012B4A
:10A9800049D0022B0CBF1523002300E005230193BF
:10A9900053E70323FBE70823F9E70223F7E7002047
:10A9A00001A9FFF70FFD48E7002001A9FFF7B0FB61
:10A9B00043E74FF0E02302901B695B0705D53EF0AB
:10A9C00031F80D230393039BE1E703A902A8FFF7E6
:10A9D000D3FBF8E7002001A9FFF756FC2DE7002084
:10A9E00001A9FFF73BFD28E701A9FFF76DFB24E76D
:10A9F00001A9FFF745FB20E7002001A9FFF7DCFADA
:10AA00001BE7002001A9FFF7DBFB16E7002001A9E7
:10AA1000FFF708FC11E7002103A8FFF7ADFB1123A6
:10AA2000B5E700BF008000504FF48032074B084963
:10AA3000586E03F580535A664B6A23F001034B624C
:10AA4000C3035CBF034B5A66704700BF00800050D1
:10AA500000C0075000A0005038B504468020FFF722
:10AA6000DBFE032800F083804FF48012524B4FF03E
:10AA7000A0615A6645F60E02504BC3F88020504A3A
:10AA800091624FF4803102F5805291629A6DD20347
:10AA9000FCD4996D11F08041FBD1D4E9000212057C
:10AAA00042EA0062E07B0243207B42EA0042607B94
:10AAB00042EA0032A07B42EA80121A619869D4E926
:10AAC0000452120642EA856200F000400243A07E72
:10AAD000E57E0243207E42EA0042607E42EA002296
:10AAE0009A611A6AE06922F00F0242EA8502354D46
:10AAF00000283DD11A6294F82420996A94F8200025
:10AB0000D200294042EA40120A4394F8211042EA56
:10AB1000011242F480329A622B49284A936D31EA3D
:10AB20000303FBD14FF08071254881621369A5684A
:10AB300023F4700343EA055313614FF0004383612C
:10AB400094F822300BB9214B996294F823303BB929
:10AB50004FF480321D4B9A62184A936D5B00FCD40F
:10AB600094F825301BB1154B194AC3F8802038BD25
:10AB7000024342F0080202281A6208D119614FF418
:10AB80000852996113484FF47F4133F0FAF90B49A9
:10AB900094F822308A6A94F820001B062A4043EA7F
:10ABA0004013134394F8242043EAC20394F823206B
:10ABB00043EA02438B62D3E7009000500040005A02
:10ABC0000050005AC7FFFEFE030001000060005A5B
:10ABD000F1A7FFFF3440005A014B93F90000704782
:10ABE000BD580020F0B5D0E901434FF400061A4AE1
:10ABF0004178057856664FF4D156022702F5B832EF
:10AC00005662164E4F2977604FF0010728BF4F213B
:10AC100006F5805677601669F603FCD441EA0521F3
:10AC200051611B01417B43EA04230B43017B43EA4F
:10AC300041039360C37B817B1B0143EA4113417C49
:10AC40000B43017C43EA41035360837C13B16FF4EF
:10AC5000D1535362F0BD00BF00900050001002506D
:10AC6000014B1880704700BF76580020014B1880B8
:10AC7000704700BF745800204FF4800208B5184B8D
:10AC80005A660223174A5360936813F48033FBD14A
:10AC9000012822D13DF0E0FE134B984215D003F578
:10ACA000122303F5F863984213D0104B00EB800297
:10ACB000400AB3FBF0F3520A0A49CA620B6301234C
:10ACC0004B620022074B5A6008BD45F67A13084ACA
:10ACD000F2E745F61A03074AEEE75362F1E700BFD1
:10ACE000009000500040025000F049026466666621
:10ACF000D8B80500BBCF0500B0F5207F10B50C46D5
:10AD00005DD008D8B0F5007F4ED003D8C0B1B0F503
:10AD1000C07F15D010BDB0F5607FFBD12C4B4C1E11
:10AD2000D3F8FC202B4912F0807F4FEA041427D17E
:10AD3000D1F8803023F030032343C1F88030E9E7B5
:10AD400033F02EF933F03AF94FF48031224B214A97
:10AD50001967136F013C23F4704343EA043313670C
:10AD60003DF060FE0446FFF71BF9C0F102012046EA
:10AD700033F01EF900F04AF8BDE81040FFF73CBD83
:10AD8000D3F8FC2022F08072C3F8FC20D1F8802098
:10AD900022F030022243C1F88020D3F8FC2042F098
:10ADA0008072C3F8FC20B5E70A4A4C1ED2F89030F6
:10ADB00023F0F85343EA0463C2F89030AAE7054A47
:10ADC0004C1E136F23F4806343EA84231367A1E7C7
:10ADD00000ED00E0008000500090005008B5012117
:10ADE000022000F095F94FF42070FFF78FFB054B20
:10ADF000187033F0D5F833F0E1F84FF48032024B9D
:10AE00001A6708BDCA4500200090005008B54FF4ED
:10AE1000C070FFF7EBFBBDE808400449884294BFCF
:10AE2000012102214FF42070FFF766BF80F0FA0283
:10AE300038B504463DF0F6FD0546FFF7B1F8C0F120
:10AE40000201284633F0B4F80121002000F0A0F9F7
:10AE50002CB1FFF7DBFFBDE83840FFF7CDBC034B5B
:10AE60004FF420701978FFF747FFF4E7CA45002038
:10AE70004FF4C02270B50546FFF72AFA314B04465D
:10AE80005A6603F598335A68012A04D12E494A605C
:10AE90005A689207FCD48020FFF7BEFC052807D132
:10AEA00033F07EF833F08AF84FF48032254B1A677E
:10AEB000264B24F040749D4230D0254B9D4230D02B
:10AEC0003DF08AFD8542064603D90121284600F05F
:10AED0005FF9204BDA6812F0060FFBD199689C608D
:10AEE0009A68624012F4F81F1ED12846FCF7D2FC83
:10AEF0008020FFF791FC05280DD13DF093FD04461D
:10AF0000FFF74EF8C0F10201204633F051F8FFF789
:10AF10007DFFFFF771FCAE420CD270BD44F00074AF
:10AF2000CEE744F08074CBE780209960FFF774FC93
:10AF3000052805D0BDE870400121002000F028B9A7
:10AF40003546DAE70090005000E0015040420F0023
:10AF500080841E0000000150304B314A984251D08D
:10AF600020D8A3F5B703A3F55863984246D00DD86F
:10AF70002C4B984231D02C4B984239D02B4B4FF46C
:10AF8000002198421DD00023516622E0284B4FF447
:10AF900000219842F7D1274BD3F8BC30516623F0FB
:10AFA000407316E0244B984230D0244B984231D065
:10AFB000234B4FF400219842E5D11E4BD3F8C83003
:10AFC000ECE71C4BD3F8A030516623F0407343F0FC
:10AFD00000734FF0B442936070474FF40021154B5B
:10AFE000D3F8A030516623F0407343F08073F0E74C
:10AFF000104BD3F8A0304FF40021CFE70D4BD3F81E
:10B00000B830F8E70B4BD3F8C030F4E7094BD3F86E
:10B01000CC30F0E7074BD3F8D030ECE7C0EA2101A1
:10B020000090005080841E0000093D0040420F0047
:10B030000024F4000080E00F0048E801005A62029A
:10B0400080BA8C01024A536B0342FCD1704700BFA7
:10B0500000400950044A4178536F23F4407343EA97
:10B0600001235367704700BF004000500E4A10B5DF
:10B070001369044643F0040313613EF061F932F0B2
:10B08000A2FF0A4B5B6E5B0142BF094B094AC3F842
:10B09000202430BF32F098FF04F052FA1CB9BDE80A
:10B0A00010403DF0BFBC10BD00ED00E0008000503E
:10B0B00000E003500000FF0F0C4A10B5136904466E
:10B0C00043F0040313610A4B5B6E5B0142BF094B03
:10B0D000094AC3F820243EF033F930BF04F030FAB7
:10B0E0001CB9BDE810403DF09DBC10BD00ED00E076
:10B0F0000080005000E003500000FF0F034A017978
:10B10000D36E23F030030B43D366704700400050EA
:10B11000F8B504461C4BD3F88420D106FBD4D3F8F1
:10B120008430C3F381139C422CD03DF05BFC012C96
:10B13000064602D1214632F03BFF3FF04DFE4FF074
:10B140000072124B07465A66204632F040FF4FF419
:10B1500080630D4D621E93402B676B6E9A0103D482
:10B16000D5F884309B060AD538463FF030FE022CD5
:10B1700008D13046BDE8F840002132F019BFD5F8BB
:10B180008430EAE7F8BD00BF004000500060005086
:10B1900010B50C4608B93DF025FC074B21461B783D
:10B1A0003BB1064B984204D80120BDE81040FFF7A0
:10B1B000AFBF0220F9E700BFCB450020005A620272
:10B1C0000278034B012100201A70FFF7E1BF00BF96
:10B1D000CB4500204FF0004238B5244B244C5A6632
:10B1E0004AF6CD33656C014605F00105236428BBA2
:10B1F0000120FFF727FF6368DB0715D51D4B58605B
:10B2000008461D4B226BD2070CD4984208D1072464
:10B2100015B1174B194A1A6439F0A5FC204638BD00
:10B220000130EFE79842F2D00024F1E70132236BBE
:10B2300013F0080305D08A42F8D1E8E700220E494E
:10B24000F5E78A42E3D020210A4A91620121A2F562
:10B25000805251600649084A886A800603D49342A6
:10B26000D5D00133F8E79342DDE700BF00900050EE
:10B27000004009500060095040420F003254FFFF67
:10B280004FF00042104B70B55D6E03F580535A6667
:10B290004AF6CD3304460D4980204E6C0B64FFF70F
:10B2A000D1FE0B6A23F4F85343EA04230B62F3073D
:10B2B00044BF074B0B64002DA2BF4FF00042054B6B
:10B2C0005A6639F050FC70BD0080005000400950B3
:10B2D0003254FFFF00A000502DE9F04105460F4613
:10B2E0001E4690464AB101233022194C8B4002FB86
:10B2F000004436B304F5825423600F21072F05EB79
:10B30000450388BFA7F108044FEA0313114895BF0E
:10B31000BC00A40004330C3308FA04F2A140184422
:10B3200032F05CFEB8F1000F09D101233021084A48
:10B33000BB4001FB05223EB102F582521360BDE81D
:10B34000F08104F50154D7E702F50152F6E700BF9A
:10B3500000C0035030C0035010B5152002F0F2FDBC
:10B360000024FF22064B21465C6520209A625C6027
:10B37000FFF722F92146BDE810402120FFF71CB954
:10B3800000000450044A054B002908BF134601225F
:10B3900082401A60704700BF4010045040200450A3
:10B3A00010B5012104462020FFF706F901212120D4
:10B3B000FFF702F90122114B15205A60227812067C
:10B3C0009A606178A27842EA01429A61FF229A6209
:10B3D00000229A631A644FF000425A654FF0FF3220
:10B3E00003F500531A6502F0DBFD1520E17834F017
:10B3F0006DF8BDE81040152002F0B6BD0000045005
:10B40000F8B50125C3B2D1F800E091F80AC00F7B6E
:10B410000C469D40CB7A1D491D4E0D65810001F102
:10B42000A04101F58821C1F804E04FF0300E0EFB79
:10B4300000601B05617B43EA0C4343EA475322F05B
:10B4400003020166C36502673FF0D3FC114B5D65E3
:10B45000237A13B1336C2B433364637A13B1B36B28
:10B460002B43B3632279A37943EA0243074A9361EA
:10B470006179E37943EA014306498B61044B5563E3
:10B480009D64BDE8F8403FF0AFBC00BF0020045011
:10B49000000004500010045010B50124C0B28440D4
:10B4A0003FF0A7FC044B5A6D22EA04025A659C62E5
:10B4B000BDE810403FF098BC0000045010B50124D6
:10B4C000C0B284403FF095FC074BDA6A224208D1B3
:10B4D0005B6B9C430CBF012400243FF085FC20469D
:10B4E00010BD0024F9E700BF0000045070B5054608
:10B4F0003FF07FFC3022084B5E6B02FB05335C6E35
:10B500003FF072FC0123EDB2AB4033420ABFC4F3FB
:10B510000A100020013070BD000004504FF480324A
:10B52000054B9A6641F6713203F51C33DA6301224A
:10B5300003F50053DA6070470090005041F6713215
:10B540000121064BDA6303F50052D1600022DA6371
:10B550004FF48032A3F518339A6670470000035009
:10B56000013831289ABF024B185C0020704700BF99
:10B570009725050838B5C2F30625044602F00702F0
:10B5800041B942EA052242F440220634074B43F80F
:10B59000242038BD1146284632F02FFD02462846A9
:10B5A000FFF7DEFF163442EA0022EFE70080035087
:10B5B000044B1868421C02BF034AD2F8940018607A
:10B5C000704700BF60530020004000504FF48032AD
:10B5D000064B5A6603F5E6239B69C3F38512827016
:10B5E00003F03F021B0B4270037070470090005045
:10B5F0000120034B9B680A3303F01F0398407047F8
:10B600000080E00F70B5054616461C4621B94FF480
:10B610002070FEF7EBFF0146402C1BD003D8DCB1B5
:10B62000202C1BD070BD602CFCD1042303FB06F240
:10B63000530803EB4113B3FBF2F3094A203B02EA40
:10B64000C303AA6822F06002AA60AA681443AC602F
:10B65000EB61E7E70623E9E71023E7E70823E5E7DF
:10B66000F8FF7F00012100F5805310B5596040F6C6
:10B67000AA6341F2050243610023094C8360C3655C
:10B68000C26000F500520361C361C3649464054C59
:10B690008365A04204BF03654365516010BD00BFD0
:10B6A000FFFF010000C0055070B50D46FFF7DAFF3F
:10B6B000012300F580567360AB7C04461BB18368A0
:10B6C00043F080438360EB7C5BB1244B9C4202BF20
:10B6D0002A7DA3F51033C3F8C821E36D43F080033E
:10B6E000E3652A8A6B7B20461343EA891343E360B0
:10B6F0002B7BD5E90112FFF785FF6B7D1BB1A3689A
:10B7000043F48033A360AB7D1BB1A36843F40043D3
:10B71000A360EB7D2A7E1B07120502F4E00203F012
:10B72000E0431343A3656B7E9A1E012A4FF0020289
:10B7300009D80B49032BC1F8202709D10423F3654D
:10B740002B78636170BD0749012BC1F82027F4E70E
:10B75000042204F50053DA65F2E700BF00C005508B
:10B7600000D0035000E003500122437801789A4052
:10B7700030235943014B5A50704700BF40E00350FB
:10B78000034BD3F82424D3F820041040704700BFA3
:10B7900000C00350064BDA6E02F03002202A06D0B9
:10B7A000DA6E22F0300208B142F01002DA66704719
:10B7B000004000502DE9F8431F4B0546D3F81033E5
:10B7C0004B1E0E2B0E461746047890F8018026D9A2
:10B7D00051B34FF0000928461FB33DF003FA0F2183
:10B7E000B8F1070F04EB440488BFA8F108084FEA3A
:10B7F0000414124895BF4FEA88084FEA88080434B9
:10B800000C3409FA08F201FA08F1204432F07BFC0A
:10B8100086B9284657B1BDE8F8433DF0E3B98946FB
:10B82000D9E7FFF7A1FFDAE78946D8E7BDE8F84393
:10B83000FFF79ABFBDE8F88300C0035030C0035043
:10B840002DE9F0412B4B1746D3F810234A1C06462E
:10B850000C46407804D1D3F8241432F063FC04463B
:10B86000002C2FDB072C4FF0030532782DDC4FEA3C
:10B87000840805FA08F529461F4802FA08F232F052
:10B8800042FC294672781D4802F0030202FA08F2CF
:10B8900032F039FC012317F0050F194A18BF194976
:10B8A00003FA04F30CBFC2F81034C1F8103417F0D7
:10B8B000060F18BF134AC2F814340123104AA340DC
:10B8C000C2F820342046BDE8F081A4F108084FEA10
:10B8D000880805FA08F529460B4802FA08F232F002
:10B8E00012FC7278294602F00302084802FA08F2B4
:10B8F000CEE700BF00C0035000C4035008C403508B
:10B9000000E0035000D0035004C403500CC40350A3
:10B9100038B505460C4C0140D4F8303423EA000316
:10B92000C4F83034D4F830341943C4F83014D4F89F
:10B930002C340343C4F82C34012004F50054FFF7E1
:10B9400029FFC4F8205438BD00C00350124B70B515
:10B95000D3F81033064632F0FFFB0446481C154668
:10B9600003D1621C05D1204670BD631CFBD08C4204
:10B970000ED13046032185F00102FFF71BFF0120A5
:10B9800004F1100305FA03F19840FFF7C1FFEAE75D
:10B990004FF0FF34E7E700BF00C00350054B9A6843
:10B9A0009107FCD45A689207F9D4DA69002AF6D1D3
:10B9B000704700BF00800A5008B53DF01FF9022211
:10B9C000014B1A6108BD00BF00800A5008B5FFF79F
:10B9D000E5FF0122024B03F580514A601A6108BD60
:10B9E00000800A5008B5044B5968012903D1FFF7BC
:10B9F000E3FF024B596008BD00800A5000A00A50C6
:10BA000010B5064CFFF7CAFF6368012B03D1FFF79F
:10BA1000E9FFFFF7C3FF0378E36010BD00800A5021
:10BA2000B8B94A680B7812B1127843EAC2034A786F
:10BA300043EA42038A6812B1127843EA82138A7891
:10BA400043EA8203CA6812B1127843EA4223014AE8
:10BA50009364704700800A5070B5044639F0C8F806
:10BA6000064630B90FCC044D0FC594E8030085E8B5
:10BA70000300304670BD00BF5824002047F6FF7316
:10BA80009A42F0B56FD002296FD8394B5B5C012B1D
:10BA90006BD8384DDF0005EBC30415F83330A178BF
:10BAA000012B13D10025E078401AA84202D808449F
:10BAB000C0B2F0BD431B6668A0EB530336F91360B8
:10BAC0009642D4BF1D4603F1FF30EEE760680028C0
:10BAD000EFD0B0F90040944204DBB0F90240944248
