:020000040800F2
:106000000012002045A9000809B90708772C0908E3
:1060100027DB070809B9070809B9070809B90708FC
:1060200009B9070809B9070809B907085162000842
:1060300009B907082CE50B08F16100085DE60708BF
:10604000B5A6000809B9070809B9070809B907087A
:1060500009B9070809B9070809B9070809B90708FC
:1060600009B90708E90003086B20090809B90708FE
:1060700009B90708550003086720090809B9070886
:1060800009B9070809B9070809B9070809B90708CC
:1060900009B9070805B0000809B9070809B90708D0
:1060A00009B9070805B10008E1B0000809B90708F7
:1060B00009B90708697E0708ED88070895CA0B0823
:1060C00091CA0B0895800708A1CA0B0899CA0B084A
:1060D000C58807089DCA0B082D89070899890708F4
:1060E00009B9070809B9070809B9070809B907086C
:1060F000F3D4070809B9070809B9070809B9070857
:1061000009B9070809B9070809B9070809B907084B
:1061100009B9070809B9070809B9070809B907083B
:1061200009B9070809B9070809B9070809B907082B
:1061300009B9070809B9070809B9070809B907081B
:1061400009B907084DD3000809B9070835DC070865
:106150007566070809B90708E9C60B08EFC60B08FA
:1061600009B9070809B9070809B9070809B90708EB
:10617000013800D0FCE7704700000000000000007C
:106180000B4A1168086806C881F30B88022181F365
:106190001488203080F30988BFF36F8F4FF0000020
:1061A00080F31188104700BFAFF30080AFF3008089
:1061B000306F01200000000000000000000000001F
:1061C00007480068006880F3088862B661B6BFF3CC
:1061D0004F8FBFF36F8F02DF00BF00BFAFF30080B0
:1061E00008ED00E0000000000000000000000000DA
:1061F000EFF30980EFF30B82734620E9FC0F104A9E
:10620000116808604FF0300080F31188BFF34F8FA2
:10621000BFF36F8F0FF0C0FF4FF0000080F31188C5
:10622000074A11680868B0E8FC0F82F30B8880F316
:1062300009881847AFF30080AFF30080AFF3008008
:10624000306F01200000000000000000000000008E
:106250001EF0040F0CBFEFF30880EFF30980044930
:10626000084700BFAFF30080AFF30080AFF30080BA
:10627000B14C0108000000002DE9F047604F88B0E4
:106280003B68990700D4FEE75E4E336803B9FEE72A
:106290009B885D4C8DF80B3001233A680DF10B01A2
:1062A0001A462068B5F017FE9DF80B203168023AB7
:1062B0000023096892B22068B5F00DFE534B05AD7E
:1062C00093E8070085E8070033681B6893F800A08F
:1062D0001AF0200A20D02068B5F02BFC002867D0E7
:1062E0002068B5F026FC57F0F5F802460B4640A1B1
:1062F000D1E9000157F092FA80460798894657F095
:10630000E9F802460B464046494656F0A7FF57F0CB
:1063100033FC4FF0010A07902068B5F026FC9DF889
:106320000B30002847D0981DC00057F0E3F832A387
:10633000D3E9002357F048F9804620688946B5F034
:1063400014FC57F0C7F802460B464046494657F042
:1063500065FA80460798894657F0BCF80B46024616
:106360004946404656F07AFF57F006FC034631682E
:106370002068CA6907934ABB3A68D20620D503F55C
:10638000FA7391F820200793214B89799A70214A5A
:106390001278DA7052460095B5F048F928B14FF4FA
:1063A00080500DF08DF84DF0A5FC08B0BDE8F087E9
:1063B0000798C030ADE7981D079B03EB4013D6E765
:1063C0002B4652468979B5F01BF9E7E78B69897945
:1063D0001A440023ADF810300F4BA03A03920093FB
:1063E0005246019503ABB5F02CF9D7E7AFF3008027
:1063F0000000000060E366410000000080842E4140
:106400003C600120E46001204060012048060C0847
:10641000241500204A1C0020181500200000000050
:1064200073B55B4B1C6814F0010440F0A98041F681
:106430000B22584D584B7F21C5E9003405F110035C
:10644000AB60564B56489A8010221C60ADF072FD2E
:106450007F22544B1A70544B1B6ADB0700D4FEE7B3
:106460002146284668F006FF044600B9FEE76AF0B8
:10647000C7FA00B1FEE720464C4969F0D9FD00B1EA
:10648000FEE702212046B5F036FB00B1FEE72046CC
:1064900047496AF097F800B1FEE701212046B5F0C0
:1064A00096FE00B1FEE701212046B5F0A6FE0646A5
:1064B00000B1FEE701463C223E48ADF03BFD8023A3
:1064C0003246204605F11401B5F01BFD802800D0AE
:1064D000FEE7394D0120B5F08EF82BA3D3E9002358
:1064E0002C602046CDE900234FF0FF324FF0FF3300
:1064F000B5F0B6FB014600B1FEE728480CF0E8FE17
:10650000012108460CF042FF01212868B5F040FA4D
:10651000044600B1FEE701464FF40C622748ADF097
:1065200009FD274B274A9C801C60274B6FF06300B6
:106530001A609C80254A264B1A60264A9C805A6124
:1065400016F042FC0B200CF015FE234B186000B92E
:10655000FEE706F065FE20460CF00AFF08222868D8
:106560001146B5F097FB044600B1FEE70DF020FFA1
:106570001A4B1B481C7002B0BDE870407CF04ABD4D
:1065800002B070BDAFF300800BE020FFE20300001B
:106590003C6001205060012049350108486001201D
:1065A000B0F70120AFF701200080E00F07001100D5
:1065B00014060C080060012040600120E860012002
:1065C000C023002049F8012098230020CAF70120A9
:1065D000702300206023002044600120CBF80120BC
:1065E00008060C08000000002DE9F04F2DED028B8D
:1065F000884204460D4617461E4697B00AD1034608
:1066000001211D202E4A17B0BDEC028BBDE8F04FD2
:10661000A1F0ECBC9FED288B0DF10C092A21484616
:106620000DF114083FF0EEF999E8030088E8030043
:10663000DFF890A0DFF890B0BDF81400BDF8163078
:10664000834204D117B0BDEC028BBDE8F08F3FF060
:1066500067FA337881468DF824408DF825508DF8FF
:1066600026708DF828300BB173680B9309AB089333
:10667000CDF81CA038F0D8FB00230E938DF84030E5
:106680008DF851302A23ADF830904FF001090D9369
:106690000CAA6B4607A98DED128B8DF8509093F0E4
:1066A0002BFF034620B15A4649461D20A1F09EFC0F
:1066B000404698F0F7FCBFE7000000000000000033
:1066C000346F0C0840700C08746F0C080000000058
:1066D0002DE9F04F2DED028B9FED318B9DB00DF12B
:1066E00008092A21044604AD484616461F46DDF82F
:1066F000A4803FF087F999E8030085E80300DFF8FC
:10670000A8A0DFF8A8B0BDF81000BDF81230834291
:1067100004D11DB0BDEC028BBDE8F08F3FF000FA54
:10672000289B81461B78CDE90A6708948DF83030A4
:106730001BB1289B5B788DF8313098F800308DF8CC
:1067400038301BB1D8E90223CDE9102308AB0793F9
:10675000CDF818A038F068FB00232A228DF85830B5
:106760008DF869300223ADF848904FF00109CDE96A
:10677000132306A96B4612AA8DED188B8DF868902D
:1067800093F0BAFE034620B15A4649461D20A1F0B7
:106790002DFC284698F086FCB5E700BFAFF30080DB
:1067A000000000000000000068700C08CB6F0C08AF
:1067B0002DE9F04F2DED028B083085B00F46914644
:1067C000DDF85080A1F035FC0446002800F09980E7
:1067D0006E4600259FED4E8B4FF0010B41F2A45AFF
:1067E00010AB0FCB86E80F004B4BC4E9025523607A
:1067F000C4E90455C4E9065524336360474B04F1EA
:10680000480C0FCB84ED0E8BC4E90C5584F8205056
:1068100084F840508CE80F00414B84F858B0A4F83D
:106820005AA0E565C4E91955236604F17403C4E967
:106830001D3304F18003C4E920333A4B1022C4F81D
:1068400090302946C4E9255584F86C50E567C4F8B2
:106850008850C4F89C5004F1A000ADF06BFB84F8A4
:10686000B0B0A4F8B2A0C4F8B45004F1B800A2F0DB
:1068700056F94AF6C873C82284ED348B84ED368B02
:10688000C4E9382304F1F803C4E93E3384F8C45062
:10689000A4F8C850C4F8F05084F8F450C4F800517B
:1068A0003B68A3607B68E360BB682361FB6863614E
:1068B0003B69A3617B69E3613B7E84F8203033B19F
:1068C00004F1240307F11C0207CA83E807003846D5
:1068D0008CF0A5FFA8B9B9F1000F12D0B8F1000FE4
:1068E0000FD003CE3378C4F8309084F840300123C1
:1068F00084F8F030231DA063E163C4F88C80C4F8F1
:106900009C30204605B0BDEC028BBDE8F08F00BF87
:10691000000000000000000088860C08E4A80120A8
:10692000DC330D0878860C082DE9F04F2DED028B35
:106930009946002300240025CDB08DF8C830499336
:10694000ADF82831A64BCDE92E45CDE93045CDE94E
:1069500034450C934FF6FF740123DFF89CA20646E2
:1069600088461746CDF8D8A0ADF820410D93A2B3C4
:10697000054600F53474A54206D10B2420464DB0DF
:10698000BDEC028BBDE8F08F28468DF04DF808B1C4
:106990009035F0E79FED908BBDF864318DF8C8809D
:1069A000ADF820318F4B4FF4C8710E93002309A826
:1069B000CDE909330F93CDF870A00B9373F06CF809
:1069C000099C14BB0B240BA873F04BF80AA873F0B6
:1069D00048F809A873F045F8D0E79BF07EF9044623
:1069E00008B9AC24CAE706F53475284698F042FA8F
:1069F000B4F882308DF8C880ADF8203121460CA85B
:106A000094ED028B9BF0EBF8CCE74FF4C8710AA829
:106A100073F042F8DDF828A0BAF1000FD2D04FF49D
:106A2000C8710BA873F038F80B9A002ACAD04FF43B
:106A3000C8734146CDE91332304610AA1094CDE90F
:106A4000113A15939BF0A9F904460028BBD14146A1
:106A5000304612AA9BF083F904460028B3D1414680
:106A6000304614AA9BF058F904460028ABD110A96F
:106A700016A890F029FF12A918A890F025FF14A9D4
:106A80001AA890F021FF36AB079330AB049334ABD8
:106A900003930DF1B80A0EAB0DF1700B8DED008B69
:106AA000CDE905AB02931AAA18A916A843F05EF81F
:106AB0000446002887D10BA872F0D3FF0AA872F011
:106AC000D0FF09A872F0CDFFB9F1000F13D1D6F8AD
:106AD000640300285FD003689B6898470346D6F894
:106AE0006403002B4FD003685A4641465B699847C0
:106AF000044690B142E7D9F8003048465B699847B0
:106B0000036859465B6A984708B9C52436E79DF87B
:106B10006031CDF824918DF828319DF868315146C7
:106B2000B3FA83F328465B098DF829319BF080FB8B
:106B3000044600287FF422AF28460CA99BF07EF87B
:106B400006F55D7495F881303FB302211120264A85
:106B5000A1F04CFAD5E900122B69CDE9012100938F
:106B60006B6902211120214AA1F040FA20460F99B9
:106B700044F02AFF034630BB96F88233013386F88F
:106B800082330024FAE603684146DB689847002810
:106B9000C3D11024F2E60324F0E6D5E90012112057
:106BA000CDE900210221124AA1F020FA20460F99D6
:106BB00044F00AFF03460028E3D0012111200D4ACA
:106BC000A1F014FADDE7012111200A4AA1F00EFA22
:106BD000D2E700BFAFF3008000000000000000001B
:106BE000C0100C08B0D30C08DBD20C08FBD20C0888
:106BF0003ED30C0873D30C0818FE0C0800000000EC
:106C00002DE9F0478AB00DF10D03019315230646D7
:106C100000934FF48072002308460C46A0F0D9FA86
:106C2000E8B996F892300122009320460023A0F0A4
:106C300057FAA0B996F89330022200932046002319
:106C4000A0F04EFA58B90DF10E030193162303225A
:106C5000009320460023A0F0BCFA054610B10AB00C
:106C6000BDE8F0874FF0100906F1C8070DF11808CC
:106C7000102200214046ADF05DF90DF10F030193A4
:106C800015234FF48072009320460023A0F0A1FA50
:106C90000028E4D196F89320EBB29A4251D917ED2F
:106CA0000C7BC44637F828ACA7F12603A7F1160ED3
:106CB000624618685968083303C273459446F7D191
:106CC0008DED007B042200232046A0F0E4F900288B
:106CD000C5D1052200232046CDF800A0A0F000FA7F
:106CE0000028BCD14046494606228DE80300002317
:106CF0002046CDE90489A0F029FB0028AFD1204629
:106D00009DF90F10A0F093FA013530370028A6D175
:106D1000032DADD120469DF90E10A0F088FA002871
:106D20009DD1B6F88A300722009320460023A0F0B8
:106D3000D7F9002893D120469DF90D10A0F077FADD
:106D40008DE782469FED027BBAE700BFAFF300807C
:106D50000000000000000000054B186803689969F6
:106D600001A3D3E90023084700E0373B015D03009E
:106D7000041700200000000010B52A21ADF5956D24
:106D80006D484DF02DFF08B1ACF0A2FD029002A9B4
:106D900069484DF0D1FD0028F6D1029B2A2BF3D192
:106DA00063A3D3E9002365484DF032FF0028EBD1FF
:106DB00000220023614808A9CDE908234DF0E0FD39
:106DC0000028E1D1DDE9080240F6FA035C499A4265
:106DD00008BF8842D8D101215A484DF0D1FE002881
:106DE000D2D18DF807000DF1070156484DF054FD42
:106DF0000028C9D19DF80730002BC5D04E484DF072
:106E00009FFC0028C0D14C4803A94DF095FD40F2ED
:106E10000124A042B8D14C494C48A4F009F90028FB
:106E2000B2D14022494804AB0AA94DF0D1FD002857
:106E3000AAD1049B0E2BA7D10F2243490AA8ADF07B
:106E40004FF80028A0D142494048A4F0F1F80028AA
:106E50009AD104AB40223D480AA94DF0B9FD049BEC
:106E6000184391D19DF8281000298DD13748A4F0FE
:106E7000DFF8002888D14022344805AB1AA94DF02C
:106E8000A7FDA04280D1F122324933484DF0F2FEF5
:106E900000287FF479AF4FF400722F4806AB2AA97F
:106EA0004DF0ECFD00287FF46FAF069AF12A7FF4D5
:106EB0006BAF28492AA8ADF013F8024600287FF4EA
:106EC00063AF014624484DF0D5FE00287FF45CAF47
:106ED0004FF40072204807ABAAA94DF0CFFDA042A5
:106EE0007FF452AF15484DF037FC00283FF44CAF0B
:106EF00014484DF031FC00283FF446AF16484DF0E1
:106F00002BFC00287FF440AF4DF0A6FC00287FF456
:106F10003BAF0A484DF020FC00283FF435AF09484C
:106F20004DF01AFC00287FF42FAF0DF5956D10BDC4
:106F3000316EE595FA08000005730800017208003B
:106F4000316EE5950673080022110D0802730800E2
:106F500021110D0830100D08027208000000000019
:106F60002DE9F04FC76997B08346209E08910C9297
:106F7000129355EC104B8DED000B7FB910208BF068
:106F8000D7F80246CBF81C0020B9A74BEF21A74841
:106F900056F0F2FFC0E901770760C760DBF81C30EC
:106FA000196859B15A680123584693404A608B606A
:106FB00058F0C0FADBF81C3000221A602B1EB7BF55
:106FC00023F00043002301220193A8BF3360019FF7
:106FD000974BB8BF3260BB4319D142F20F73129A7C
:106FE0001360C7F31303234300F0DB85219B53B9E0
:106FF000904B21E0904B03930833219A1360039840
:1070000017B0BDE8F08F8B4B03930333F5E79DED8D
:10701000007B0022002351EC170B8DED0A7B56F00C
:107020003BFD804650B10123129A1360219B13B19E
:10703000824B219A1360824B0393E0E7C7F30A5611
:1070400014AA15A958469DED0A0B58F0FBFC0290B6
:10705000002E76D00B9BA6F2FF36CDF84C80C3F302
:10706000130343F07F53DDE90A0143F4401319464B
:107070000022744B56F0F0F865A3D3E9002356F0D4
:10708000A3FA65A3D3E9002356F0E8F804460D46B9
:10709000304656F02FFA62A3D3E9002356F094FA53
:1070A00002460B462046294656F0D8F804460D46BF
:1070B00056F03AFD0022074600232046294656F0A6
:1070C000F5FC40B1384656F015FA22462B4656F0EC
:1070D000E3FC00B9013F162F52D85B4B03EBC7030B
:1070E000DDE90A01D3E9002356F0E0FC002849D08D
:1070F000013F00231193149B9B1B5A1E4CBFC3F1ED
:1071000001030023079245BF0693002306930793CC
:10711000002F39DB079B10973B440793002309930B
:10712000089B092B66D8052BC5BF043B002401240E
:107130000893089B023B032B67D8DFE803F02D3A46
:107140003859DDE914631E4406F23243202BC9BFCF
:10715000C3F14003C3F120039F4006F21243D8BF9E
:1071600004FA03F006F1FF36C4BF24FA03F347EA3A
:10717000030056F0AFF90122A1F1F873139276E7FC
:107180000123B7E71190B6E7069BDB1B06937B4212
:10719000099300231093C3E700230D930C9B002B4E
:1071A00056DC012399461A4604930C920CE0012305
:1071B000F3E700230D930C9BFB1803F101090493E3
:1071C0004B46012BB8BF0123DBF81C000021042231
:1071D00002F114059D423FD94160584658F06AF9C2
:1071E000039000283BD1194B024640F2AF11CEE686
:1071F0000123DFE7012400230D9408934FF0FF33B0
:107200000022994604931223CFE701230D93F5E75B
:1072100061436F63A787D23FB3C8608B288AC63F9C
:10722000FB799F501344D33F2A3F0D086E470D084A
:107230000000F07F6A470D0861470D08A2590C084D
:10724000A1590C080000F83F68480D08C7470D0811
:107250000C9B99460493B7E701315200B8E7DBF87D
:107260001C30B9F10E0F039A1A606FD8002C6DD044
:10727000002F36DD07F00F02A04BF8054FEA271468
:1072800003EBC20393ED007B8DED0E7B17D59C4B7A
:1072900004F00F044FF00308D3E90823DDE90A01E5
:1072A00056F0BCFACDE90001954D5CB9DDE90E233D
:1072B000DDE9000156F0B2FACDE900012BE04FF014
:1072C0000208F1E7E10709D508F10108DDE90E013F
:1072D000D5E9002356F078F9CDE90E0164100835A0
:1072E000E3E700F007817C42844B854D4FF00208B4
:1072F00004F00F02241103EBC203DDE90A01D3E914
:10730000002356F061F90023CDE90001002C40F084
:10731000E580002BD0D1119BDDE90045002B00F06A
:107320004C810022774B2046294656F0BFFB0028AF
:1073300000F04381B9F1000F00F03F81049B002B66
:1073400000F3E480DDE90A34CDE90034159B002B1D
:1073500002DB0E2F40F342820D9A002A40F0678232
:10736000099C0025DDF81880B8F1000F0DD0079BAF
:10737000002B0ADD4345069AA8BF4346D21AA8EB64
:1073800003080692079AD31A0793099B0BB30D9B28
:10739000002B00F0A682002C00F0A1822946224694
:1073A000584658F0F1F9029A01460546584658F0F9
:1073B00041F902990646584658F0BCF8099B1B1B38
:1073C000099300F09182099A3146584658F0DCF949
:1073D00002900121584658F017F9109B0446002BE3
:1073E00000F084821A460146584658F0CDF9089BB1
:1073F0000446012B03DC009B002B00F07C8200265E
:10740000236904EB83031869ACF0F3FEC0F120009C
:107410001096079B184410F01F0000F09182C0F1F5
:107420002003042B40F38182C0F11C00069B03441F
:1074300080440693079B03440793069B002B05DDBE
:107440001A460299584658F0F9F90290079B002B0A
:1074500005DD21461A46584658F0F0F90446119BBE
:10746000002B00F0768221460298ACF011FF002834
:1074700080F26F8200230A220299584658F07CF865
:107480000D9B7E1E0290002B00F05C82002329469B
:107490000A22584658F070F8049B0546002B03DC7E
:1074A000089B022B00F35E82B8F1000F05DD294630
:1074B0004246584658F0C2F90546109B002B00F092
:1074C000D0826968584657F0F5FF0746002840F01B
:1074D0007F820D4B024640F2EF2158E5E20706D5C8
:1074E00008F10108D5E9002356F06EF80123641075
:1074F00008350BE74FF002080DE700BF68480D089C
:1075000040480D080000F03FC7470D082046002204
:10751000AC4B294656F058F87E1E08F10108049C31
:10752000CDE90001404655F0E5FFDDE9002356F0C6
:107530004BF8A54B002255F091FEA1F15073CDE917
:107540000E010F93002C3BD10022A04BDDE900017E
:1075500055F082FE02460B46CDE90023DDE90E23FD
:1075600056F0C2FA002840F05781DDE90E2101F102
:107570000043DDE9000156F099FA00283FF4E2AE3D
:10758000002425460C9BDDF80CA0DE434FF00008DC
:107590002146584657F0CEFF002D00F0A980B8F1E3
:1075A000000F05D0A84503D04146584657F0C2FF0A
:1075B0002946584657F0BEFF9AE03E464C46B1E792
:1075C000834B03EBC40353E90201039B1C440D9B53
:1075D000002B4AD002460B4600207E4956F01EF989
:1075E000DDE90E2355F038FEDDF80CA0CDE90E01E3
:1075F000DDE9000156F098FA054655F07BFF02469A
:1076000030350B46DDE9000155F026FE0AF8015B36
:1076100002460B46CDE90001DDE90E0156F064FAA1
:10762000002865D100206C49DDE9002355F014FEE7
:1076300002460B46DDE90E0156F056FA002840F0EE
:107640000D81A24500F0EA8000225E4BDDE90E01CB
:1076500055F0BAFF00225B4BCDE90E01DDE90001D8
:1076600055F0B2FFCDE90001C2E7DDE90E2355F088
:10767000ABFFA046DDF80CA0CDE90E01DDE900016D
:1076800056F052FA054655F035FF024630350B46A6
:10769000DDE9000155F0E0FD0AF8015B02460B460A
:1076A000A245CDE900234FF0000223D1494BDDE98B
:1076B0000E0155F0D3FD02460B46DDE9000156F000
:1076C00013FA002840F0CA8000204249DDE90E2369
:1076D00055F0C2FD02460B46DDE9000156F0E6F921
:1076E00070B1C24608F1FF381AF8013C302BF8D0CF
:1076F000374655E0334B55F067FFCDE90001BDE754
:10770000DDE90A34CDE90034159B002BFFF628AEE5
:107710000E2F3FF725AE2E4B03EBC70393ED007BF7
:107720000C9B002B8DED047B02DAB9F1000F64D0C5
:10773000DDF80CA0DDE90045DDE9042320462946FB
:1077400056F06CF856F0F0F9064655F0D3FEDDE938
:10775000042355F039FF0246204606F130040B465B
:10776000294655F079FD0AF8014B039C02460B4669
:10777000AAEB0404A14540F0828055F06FFD044659
:107780000D46DDE9042356F0AFF9002865D1204607
:107790002946DDE9042356F07FF908B1F3075CD4EC
:1077A0000299584657F0C6FE002301378AF8003088
:1077B000129B1F60219B002B3FF421ACC3F800A05B
:1077C0001DE400BF0000244000001C4000001440E5
:1077D00068480D080000E03F0000F03FA24B03EBBB
:1077E000C70393ED007B0C9B002B8DED047B9FDA90
:1077F000B9F1000F9CDC7FF4C3AE00229B4BDDE9A6
:10780000040155F0E1FEDDE9002356F063F904467A
:1078100000287FF4B5AE3E462546B4E0DDE90A34E3
:10782000CDE90034159B002B01DB0E2FD6DD089A25
:10783000012A36DC139A82B303F23343099CDDF844
:107840001880069A012158461A440692079A1A444B
:10785000079257F0D9FE054686E53E4653469A46BE
:1078600013F8012D392A06D1039A9A42F7D1302212
:10787000039901360A701A7801321A7038E700222B
:107880007B4B55F0A1FE0022002304460D4656F026
:1078900003F900283FF450AF82E7149BC3F136038D
:1078A000CCE709F1FF34099BA34208DBB9F1000FD3
:1078B000A3EB04040EDBDDF818804B46C1E7099BFF
:1078C000109AE31A0994DDF8188000241A444B46F4
:1078D0001092B6E7069BA3EB09080023B1E7029ECE
:1078E00071E5099A029970E5029672E5089B012BF1
:1078F00017DC009BABB9019BC3F313039BB9019B3E
:1079000023F00046360D360536B1069B01260133BD
:107910000693079B01330793109B002B7FF470ADF8
:107920001096012075E50026F6E73FF486AD1C337E
:10793000069A1A4498440692079A1A4407927CE5DC
:107940000346F4E7049B002B2BDC089B022B09DC8D
:1079500027E0B9F1000F1DDC089B022B1ADD3E4623
:10796000CDF81090049B002B7FF40CAE214605222D
:10797000584657F001FE014604460298ACF088FCD8
:1079800000287FF7FFADDDF80CA0312301360AF89F
:10799000013BFBE50D9B3E46CDF81090002B7FF49C
:1079A00083AD039F21460298ACF084FB039B00F15A
:1079B0003009049A07F8019BFB1A9A4240F3CB80E6
:1079C00000230A220299584657F0D6FD0290E9E7B3
:1079D0002A6905F10C010C3002329200ACF055FB23
:1079E00001223946584657F029FF039BA846054611
:1079F00003F1010ADDE9032313440793009B03F01D
:107A0000010309930AF1FF33214602980493ACF075
:107A100051FB4146069000F130090298ACF038FC69
:107A20002A4621460746584657F074FFC268014669
:107A300002B3584657F07EFD002F3ADA0122029930
:107A4000584657F0FBFE21460290ACF021FC00287E
:107A500003DC29D119F0010F26D0B9F1390F1DD15E
:107A600032E02846C1E700BF68480D080000144016
:107A7000000024400A900298ACF00AFC0A990C908D
:107A8000584657F057FD0C9A5ABB089B53B9099BAF
:107A900043B9B9F1390F17D0002F05DD069B03F16B
:107AA000310901E0002F2ADADDF810A00AF8019B65
:107AB0006EE5089B3B4304D1009B03F00103002BC0
:107AC000BCD0B9F1390F36D1049F392307F8013BF7
:107AD000BA46013F1AF8013C392B5AD001333B70AA
:107AE00056E5002F06DB089B3B4306D1009B03F0C5
:107AF000010313B9002AA1DCD6E7002AE1DC079BC9
:107B000057460AF8019C53452ED000230A220299B9
:107B1000584657F031FDA84502904FF000034FF052
:107B20000A02414658460BD157F026FD80460546CD
:107B30000AF1010A66E7DDF810A009F10109B5E7CD
:107B400057F01AFD2946804600230A22584657F06E
:107B500013FD0546ECE7049B4FF00008002BCCBF5B
:107B60001F460127039B1F4401220299584657F0E4
:107B700065FE21460290ACF08BFB0028A8DC02D108
:107B800019F0010FA4D1BA4617F8013D302BFAD0F5
:107B9000FEE4039BBB429BD13123039A0136137051
:107BA000F6E4219B002B7FF425AA014BFFF744BA92
:107BB00061470D0800000000002370B5404C0546E9
:107BC0008AB0E36318B1008823605CF0C7FC3D48CD
:107BD000B3F07AFF3C4E3D4B304633603C4B736014
:107BE00058F0B6F80021304667F044FB32A3D3E9E1
:107BF0000023A062C4E90623AFF01BF9D4E90623F1
:107C000019431043C4E90601CDE900014FF0FF33E9
:107C10004FF0FF32A06AB4F023F802224FF0FF3198
:107C2000A06AB4F037F801205CF01AFA4FF4007340
:107C300000222849A06AB4F064F9B0F5007F38D179
:107C400000239422CDE9073309933C23CDE9033285
:107C500005939623A06A03A9069367F021FF35B325
:107C6000287C5CF0F9FD0546F0B9A06AB4F002FB8F
:107C70005CF0A0FD5CF0D6F920B14FF480700021DB
:107C80005AF0B0F95CF0DEF920B14FF40060002149
:107C90005AF0A8F9AFF08FF90120B3F0ACFC0E4A0E
:107CA0000E49A06AAFF0B9F828460AB070BDFF20AF
:107CB000D7E70725F8E700BF0DD5015520000000E4
:107CC000B0270120690345EC50ED0120E53E060890
:107CD00060ED012050EB0120C36D0B08036E0B0813
:107CE0000348044B834202D0034B03B1184770474B
:107CF0000C2300200C23002000000000064B074945
:107D0000C91A891048BF0131491003D0044B0BB187
:107D100001481847704700BF0C2300200C230020A7
:107D20000000000010B5064C237843B9FFF7D8FFD8
:107D3000044B13B10448AFF300800123237010BD3E
:107D400068F6012000000000148F0D0808B5054BEF
:107D50001BB105490548AFF30080BDE80840FFF7B7
:107D6000CDBF00BF00000000282D0120148F0D089A
:107D7000A3F5803A704700BF174B002B08BF134B89
:107D80009D46FFF7F5FF00218B460F461348144A26
:107D9000121AACF0CFF80E4B002B00D098470D4BC9
:107DA000002B00D098470020002104000D000D4852
:107DB000002802D00C48AFF3008057F057FB20009A
:107DC000290002F0DDF856F0F5F800BF00000800C9
:107DD0000000000000000000001200200C23002022
:107DE00020C60220000000000000000000B587B09F
:107DF0004FF4E131404872F00CFE404871F0F3FC62
:107E00003F4800F097FD0121142073F097FB0121FA
:107E1000142071F0C4FB3B49374873F0FCF971F052
:107E200034FD034683F00103DBB2002B2FD036492B
:107E3000314873F0F0F935492F4873F0ECF96B468F
:107E4000184671F0EDFC6B46184671F0A1FB034635
:107E50001A462F49284872F087FE6B46184673F081
:107E600049FA03AB184600F0F3F803AB184671F07B
:107E70008FFB03461A4627491F4872F075FE03AB75
:107E8000184673F037FA02E0C82073F041FB71F036
:107E9000FCFC034683F00103DBB2002BF4D11E4946
:107EA000154873F0B8F902E0C82073F031FB71F0A7
:107EB000F6FC034683F00103DBB2002BF4D1174933
:107EC0000D4873F0A8F916490B4873F0A4F902E0C5
:107ED000C82073F01DFB0A4871F072FC034683F062
:107EE0000103DBB2002BF3D10E49034873F093F981
:107EF00000BF07B05DF804FBC02D01205C2D012000
:107F0000402D0120C4D50B08D8D50B08FCD50B0893
:107F100048D60B0864D60B0878D60B0898D60B0801
:107F2000B4D60B08DCD60B0800B583B01B4871F043
:107F30001CFF03468DF807309DF80730002B12D048
:107F4000174B1B7883F00103DBB2002B0BD0144AD4
:107F50009DF8073013700021142073F055FB114970
:107F6000114873F058F99DF8073083F00103DBB234
:107F7000002B0FD00A4B1B78002B0BD0084A9DF822
:107F8000073013700121142071F009FB07490648DE
:107F900073F041F900BF03B05DF804FB402D0120F0
:107FA00069F60120F8D60B08C02D012000D70B0878
:107FB00000B583B001900091019B012B0CD1009B77
:107FC0004FF6FF72934207D1054800F07FFC054A47
:107FD00005490348ABF0E4F900BF03B05DF804FBCA
:107FE000402D0120001200200D890008014B184689
:107FF000704700BF98EF0020014B1846704700BF44
:1080000040B20120014B1846704700BF78CE0020D7
:10801000014B1846704700BF6098002082B0019065
:10802000044A019B1A60019B00225A60019B18467A
:1080300002B0704760D70B0882B00190034A019BE1
:108040001A60019B184602B0704700BF60D70B084A
:1080500030B5BFB00190424B29AC1D460FCD0FC4C7
:108060000FCD0FC40FCD0FC495E8070003C42280C5
:108070000234130C23703B4A27AB92E803001860CC
:108080000433198002330A0C1A7006AA04AB114695
:10809000184671F0E6FB2BF08BF9024604AB19464B
:1080A00010462BF03BF90346039338AB00211846EA
:1080B00071F095FA03AA38AB1146184671F099FA97
:1080C0000346002B45D002AB184671F0E1FA04AB31
:1080D000184671F0D3FB024613465B00134441334C
:1080E0003D9302AB3D99184671F01EFC02AB184659
:1080F00071F02CFC044604AA3AAB1146184671F004
:1081000061FC3AAB1A463D9920463BF023FE0346FC
:1081100039933CAB0021184671F061FA3CAA39ABA7
:108120001146184671F065FA0346002B0AD002ABDF
:10813000184671F00BFC03461946019873F0C2F81B
:10814000002400E0012402AB184671F0ADFA012CC6
:1081500003D10549019873F0B5F801983FB030BDDF
:1081600014D70B0850D70B0810D70B0800B587B0F1
:10817000034602910192ADF80E3001AA02A90DF159
:108180000E03184671F041FC0590FFF73BFF059B7D
:108190001A46034971F0C6FA00BF07B05DF804FB48
:1081A000B398070810B58AB004910392029303466E
:1081B000ADF81630022071F0D8FC0346002B04D035
:1081C000214A02211F209FF011FFBDF816301846EA
:1081D0003DF07EFA0346ADF82630BDF8263018464D
:1081E00000F060FB0890089B002B01D1012327E0E1
:1081F000089B1B6808331C68039B5A68BDF8303025
:108200000093029B04990898A04703468DF81F30FD
:10821000089872F011F8034683F00103DBB2002BDB
:1082200005D09DF81F30002B01D1012300E0002371
:10823000002B03D00121089872F005F89DF81F303B
:1082400018460AB010BD00BF8CD70B0810B586B019
:108250000291019200930346ADF80E30022071F0B6
:1082600084FC0346002B04D0134A02211F209FF0F8
:10827000BDFEBDF80E3018463DF02AFA0346ADF8B3
:108280001630BDF81630184600F00CFB0490049B25
:10829000002B01D101230BE0049B1B680C331C68ED
:1082A000019B5A68009B02990498A047034600BFAF
:1082B000184606B010BD00BFB4D70B0800B589B092
:1082C000039002910192022071F04FFC0346002BB3
:1082D00004D0254A02211F209FF088FE029B1B88A4
:1082E00018463DF0F5F90346ADF81E30BDF81E30D6
:1082F000184600F0D7FA0690069B002B08D0069887
:1083000071F093FF034683F00103DBB2002B01D031
:10831000012300E00023002B07D000230122029953
:10832000039891F017FB00231AE0069800F04EF92D
:108330000346002B0DD0069B05930021059801F004
:10834000DBF8002300220299039891F003FB01233C
:1083500006E0002301220299039891F0FBFA002322
:10836000184609B05DF804FBDCD70B0800B589B0EE
:10837000039002910192022071F0F7FB0346002B5B
:1083800004D0264A02211F209FF030FE029B1B884A
:1083900018463DF09DF90346ADF81E30BDF81E307D
:1083A000184600F07FFA0690069B002B08D006982E
:1083B00071F03BFF034683F00103DBB2002B01D0D9
:1083C000012300E00023002B07D0002301220299A3
:1083D000039891F0BFFA00231BE0069800F0F6F82E
:1083E0000346002B0ED0069B059342F210710598B0
:1083F00001F082F8002300220299039891F0AAFA72
:10840000012306E0002301220299039891F0A2FAC9
:108410000023184609B05DF804FB00BF0CD80B0818
:1084200000B585B0039002910192022071F09DFB8E
:108430000346002B04D0084A02211F209FF0D6FDDE
:10844000002301220299039891F084FA0023184630
:1084500005B05DF804FB00BF3CD80B0800B585B043
:10846000039002910192022071F07FFB0346002BE2
:1084700004D0084A02211F209FF0B8FD00230122EA
:108480000299039891F066FA0023184605B05DF84A
:1084900004FB00BF6CD80B0800B589B003900291B3
:1084A0000192022071F061FB0346002B04D0284AA0
:1084B00002211F209FF09AFD019B1B88ADF81E3002
:1084C000029B1B8818463DF003F90346ADF81C30AB
:1084D000BDF81C30184600F0E5F90690069B002B0D
:1084E00008D0069871F0A1FE034683F00103DBB2C9
:1084F000002B01D0012300E00023002B07D0002334
:1085000001220299039891F025FA00231CE00698B5
:1085100000F05CF80346002B0FD0069B0593BDF8D6
:108520001E301946059800F0E7FF0023002202994B
:10853000039891F00FFA012306E00023012202992B
:10854000039891F007FA0023184609B05DF804FB80
:10855000A0D80B0800B585B00390029101920220CB
:1085600071F003FB0346002B04D0084A02211F20B0
:108570009FF03CFD002301220299039891F0EAF953
:108580000023184605B05DF804FB00BFD8D80B08DF
:1085900000B585B0039002910192022071F0E5FAD6
:1085A0000346002B04D0084A02211F209FF01EFD25
:1085B000002301220299039891F0CCF90023184678
:1085C00005B05DF804FB00BF0CD90B0800B583B003
:1085D00001900198002806D00023084A0849AAF013
:1085E0004FFF034600E00023002B14BF01230023AC
:1085F000DBB2184603B05DF804FB00BF88DF0B0850
:108600004CE10B0800B583B001900198002806D01A
:108610000023084A0849AAF033FF034600E000237C
:10862000002B14BF01230023DBB2184603B05DF812
:1086300004FB00BF58DB0B084CE10B0808B54422D3
:1086400000211148ABF076FC96F0D6FC0346013BC6
:108650009BB218463DF064FA034601339AB20B4BC5
:108660001A800A4B1A880A4B1A8096F0C5FC0346FA
:10867000013B9BB218463DF053FA034600211846D1
:108680003DF050FC00BF08BD602D0120BAF3012071
:10869000B8F3012070B58AB0079006910592049353
:1086A00000238DF8273089E09DF827304E4A52F894
:1086B0002330002B7DD19DF827304B49079A41F894
:1086C000232009AB184671F0D7FA484B1B8819468E
:1086D000079871F0EDFABDF838301946079871F037
:1086E000F4FA9DF827309CB2404B1E88BDF8383014
:1086F0000293059A6B4692E8030083E80300049B0B
:10870000069A314620463DF099FC03468DF8263006
:108710009DF82630002B1AD1022071F026FA03466C
:10872000002B10D0079871F0DDFA02462F4B1B8802
:1087300019469DF827300193009113462C4A0221D7
:108740001F209FF053FC9DF8275000242AE09DF83D
:1087500026308A2B10D0022071F007FA0346002B36
:1087600006D09DF82630234A02211F209FF03EFCB0
:108770004FF0FF35002415E01C4B1B8801339AB2E3
:108780001A4B1A80194B1A881B4B1B889A4234BF0C
:1087900001230023DBB2002B03D0174B1A88134BA5
:1087A0001A80012409AB184671F074FA012C17D114
:1087B00087E79DF8273001338DF827309DF8273063
:1087C0000F2B7FF671AF022071F0CFF90346002B1B
:1087D00004D00A4A02211F209FF008FC4FF0FF3509
:1087E0002B4618460AB070BD602D0120B8F3012059
:1087F00044D90B0878D90B08BAF30120A4D90B0887
:1088000010B586B0039000238DF817303CE09DF83A
:108810001730224A52F82330039A9A422FD104ABE0
:10882000184671F029FA9DF817309BB218463DF0B2
:1088300061FC0346ADF814309DF81730174A00214B
:1088400042F82310022071F090F90346002B0FD05C
:10885000039871F047FA0146BDF814309DF81720CF
:10886000019200930B460E4A02211F209FF0BEFB8F
:108870009DF8174004AB184671F00CFA0AE09DF819
:10888000173001338DF817309DF817300F2BBED9F4
:108890004FF0FF342346184606B010BD602D01206E
:1088A000DCD90B0882B00346ADF80630BDF80630BF
:1088B0000F2B01D9002304E0BDF80630024A52F81C
:1088C0002330184602B07047602D012000B583B0F8
:1088D0000190019B1846FFF7A1FB0B4A019B1A6010
:1088E000019B00229A60019B0022DA60019B00221A
:1088F0001A61019B00225A61019B00221A76019B9A
:10890000184603B05DF804FB98DA0B0800B583B095
:108910000190074A019B1A60019871F0F2F9019BDE
:108920001846FFF789FB019B184603B05DF804FB6E
:1089300098DA0B0800B583B001900523044A0021A2
:10894000019800F007F80346184603B05DF804FBF1
:108950008013002010B59AB0079005921A460B4676
:108960008DF81B3013468DF81A30079B1B7E002BA9
:1089700001D000232AE19749BC20AAF0E7FD034675
:108980001C46002C03D09449204600F085F9189429
:10899000189B002B01D1002318E1189B01211846D8
:1089A00000F038FE079B189A5A609DF81B30022B86
:1089B00012D0022B16DC002B02D0012B06D011E0C6
:1089C000189B8649184600F069FE0BE0189B844905
:1089D000184600F063FE05E0189B8249184600F037
:1089E0005DFE00BF082089F0A3FB03461793179B89
:1089F000002B09D1189B002B04D01A68043212688E
:108A0000184690470023E1E0179B059A1A60179BD0
:108A10009DF81A201A71179B0022DA809DF81A30EF
:108A20009B001693169889F083FB03461593159BBC
:108A3000002B0CD1189B002B04D01A68043212684A
:108A400018469047179889F075FB0023BEE04FF059
:108A5000FF3319939DF81B30002B14D108AB6249EA
:108A6000184671F05DF80AAB169A1599184671F020
:108A700064F80AAB08AA0121009117991898FFF72A
:108A800009FE199030E09DF81B30012B14D10CAB7E
:108A90005649184671F044F80EAB169A15991846C7
:108AA00071F04BF80EAB0CAA0121009117991898A0
:108AB000FFF7F0FD199017E09DF81B30022B13D142
:108AC00010AB4B49184671F02BF812AB169A15995A
:108AD000184671F032F812AB10AA012100911799D3
:108AE0001898FFF7D7FD1990199B002B0FDA189BE8
:108AF000002B04D01A680432126818469047179861
:108B000089F018FB159889F015FB00235EE03149C8
:108B10001C20AAF01BFD03461C46002C12D0189BFB
:108B2000184671F0E6F80346194600230393002324
:108B30000293304B0193012300932F4B2F4A204681
:108B40002FF0F6FE1494149B002B12D11898FFF707
:108B500057FE189B002B04D01A680432126818467E
:108B60009047179889F0E6FA159889F0E3FA002300
:108B70002CE0189B184671F0BCF8034618468DF09F
:108B800010FE9DF81B30012B03D09DF81B30022BEB
:108B90000CD1189B184671F0ACF80346184630F01B
:108BA0001FF8189B0021184671F04DFB079B189A7F
:108BB0009A60079B179ADA60079B159A1A61079BC0
:108BC000149A5A61079B01221A76012318461AB09B
:108BD00010BD00BF643C0D0818DA0B0824DA0B083E
:108BE00038DA0B084CDA0B085CDA0B0864DA0B088D
:108BF0006CDA0B08B79707087F97070847970708AD
:108C000000B583B00190064A019B1A60019B8C332A
:108C10001846AAF0D9FD019B184603B05DF804FB85
:108C20003CE10B0800B587B003900B468DF80B3084
:108C3000039B93F8AD309DF80B209A4214BF01239B
:108C400000238DF81730022070F08FFF0346002BB1
:108C50000BD0039B03F10C029DF80B3000931346DD
:108C60000C4A02211F209FF0C1F9039B9DF80B20A5
:108C700083F8AD209DF81730002B07D040210398D2
:108C800071F099F8039B184671F0E9FA00BF07B03C
:108C90005DF804FBC0DA0B0800B583B001900091C9
:108CA000019B0099184600F05DFC1C4A019B1A606C
:108CB000019B002283F8AE20019B012283F8AF20A4
:108CC000019B0022A3F8B020019B0022A3F8B22050
:108CD000019B002283F8B420019B002283F8B52079
:108CE000019B002283F8B620019BFF2283F8B72066
:108CF000019B002283F8B820019BFF2283F8B92052
:108D0000019BFE2283F8BA20019B002283F8BB203E
:108D1000019B184603B05DF804FB00BFCCDD0B08D7
:108D200000B587B003900B468DF80B30039B93F88A
:108D3000AE309DF80B209A4214BF012300238DF81A
:108D40001730039B9DF80B2083F8AE20022070F0B3
:108D50000CFF0346002B10D0039B03F10C029DF87F
:108D60000B30002B01D00D4B00E00D4B0093134650
:108D70000C4A02211F209FF039F99DF81730002B73
:108D800007D04021039871F066F9039B184671F0F3
:108D900066FA00BF07B05DF804FB00BF78DB0B0884
:108DA0007CDB0B0880DB0B0800B593B005900491C9
:108DB00003920293059B5B7983F00103DBB2002BE6
:108DC00001D0012354E2022070F0CFFE0346002BB5
:108DD00007D0039B0093049BA34A02211F209FF00E
:108DE00005F9049B392B0AD10598BDF85030009342
:108DF000029B039A049900F089FC034638E2049B25
:108E0000032B0AD10598BDF850300093029B039ABA
:108E1000049971F0A2FA03462AE2049B042B0AD1BA
:108E20000598BDF850300093029B039A049971F0A5
:108E300028FB03461CE2049B062B13D0049B082B43
:108E400010D0049BB3F5407F0CD0022070F08DFE53
:108E50000346002B04D0854A02211F209FF0C6F84C
:108E6000012305E2049B062B40F08E80039B002B20
:108E70000FD1BDF85030012B0BD1059870F0B4FF25
:108E80000346002B01D0012200E00022029B1A7051
:108E90007AE0039BB3F5804F0ED1BDF85030012B23
:108EA0000AD1059B93F8AF30002B01D0012200E0DE
:108EB0000022029B1A7067E0039B44F20102934276
:108EC0000DD1BDF85030022B09D1059BB3F8B0305D
:108ED000ADF84630BDF84620029B1A8054E0039B53
:108EE00044F2020293420DD1BDF85030022B09D159
:108EF000059BB3F8B230ADF84430BDF84420029B76
:108F00001A8041E0039B44F20302934209D1BDF869
:108F10005030012B05D1059B93F8B420029B1A70A9
:108F200032E0039B4FF6FD7293420ED1BDF85030F4
:108F3000022B0AD1059871F004F80346ADF84230CF
:108F4000BDF84220029B1A801EE0039B4FF6FC7284
:108F500093420CD1BDF85030042B08D1059870F025
:108F6000DEFF03460F930F9A029B1A600CE002206B
:108F700070F0FBFD0346002B04D03D4A02211F2068
:108F80009FF034F8012373E1049B082B40F0B88074
:108F9000039B002B0ED1BDF85030012B0AD1059850
:108FA00070F02AFF03468DF83B309DF83B20029B72
:108FB0001A70A5E0039B0F2B0ED1BDF85030012B8A
:108FC0000AD1059870F0DBFF03468DF83A309DF822
:108FD0003A20029B1A7093E0039B112B0ED1BDF82F
:108FE0005030012B0AD1059870F0DEFF03468DF852
:108FF00039309DF83920029B1A7081E0039B032BC6
:109000000ED1BDF85030012B0AD1059870F0ABFF9E
:1090100003468DF838309DF83820029B1A706FE0B7
:10902000039B022B0ED1BDF85030012B0AD10598BD
:1090300070F09FFF03468DF837309DF83720029B74
:109040001A705DE0039B012B14D1BDF85030022B48
:1090500010D1059870F0D2FF0346ADF83430BDF85A
:109060003420029B1A804BE098DB0B08D0DB0B0806
:1090700000DC0B08039BB3F5804F0ED1BDF85030D8
:10908000012B0AD1059870F0A4FF03468DF8333008
:109090009DF83320029B1A7032E0039B4FF6FC725E
:1090A00093420CD1BDF85030042B08D1059870F0D4
:1090B0003CFF03460B930B9A029B1A6020E0039B34
:1090C0004FF6FD7293420ED1BDF85030022B0AD1FB
:1090D000059870F03CFF0346ADF82A30BDF82A2011
:1090E000029B1A800CE0022070F03FFD0346002B2B
:1090F00004D0614A02211F209EF078FF0123B7E0CF
:10910000049BB3F5407F40F0B280039B002B0ED14F
:10911000BDF85030012B0AD1059870F0D0FE0346FF
:109120008DF829309DF82920029B1A709FE0039B3F
:10913000012B0ED1BDF85030012B0AD1059870F0EB
:10914000E6FE03468DF828309DF82820029B1A7011
:109150008DE0039B0F2B0ED1BDF85030012B0AD1AF
:10916000059870F051FF03468DF827309DF82720B1
:10917000029B1A707BE0039B082B0ED1BDF8503088
:10918000012B0AD1059870F054FF03468DF8263064
:109190009DF82620029B1A7069E0039B44F20102AD
:1091A00093420ED1BDF85030012B0AD1059870F0D2
:1091B00046FF03468DF825309DF82520029B1A7046
:1091C00055E0039B44F20A0293420ED1BDF85030A1
:1091D000022B0AD1059870F038FF0346ADF8223013
:1091E000BDF82220029B1A8041E0039B102B0BD17B
:1091F000BDF85030012B07D100238DF821309DF8A8
:109200002120029B1A7032E0039B4FF6FC729342BE
:109210000CD1BDF85030042B08D1059870F08BFEAE
:1092200003460793079A029B1A6020E0039B4FF6C0
:10923000FD7293420ED1BDF85030022B0AD1059831
:1092400070F08BFE0346ADF81A30BDF81A20029B71
:109250001A800CE0022070F088FC0346002B04D03A
:10926000064A02211F209EF0C1FE012300E00023D8
:10927000184613B05DF804FB34DC0B0870DC0B08F7
:1092800000B589B00590049103920293059B5B7928
:1092900083F00103DBB2002B01D001230BE102209C
:1092A00070F063FC0346002B07D0039B0093049BE4
:1092B000834A02211F209EF099FE049B032B07D1B5
:1092C0000598029B039A049971F090F80346F2E026
:1092D000049B042B07D10598029B039A049971F013
:1092E0000CF90346E7E0049B062B13D0049B082BE4
:1092F00010D0049BB3F5407F0CD0022070F035FCF9
:109300000346002B04D06F4A02211F209EF06EFE00
:109310000123D0E0049B062B5DD1039B002B0DD1D4
:10932000029B1B78002B04D001210598FFF7F8FC65
:1093300051E000210598FFF7F3FC4CE0039BB3F5E7
:10934000804F0AD1029B1B78002B14BF01230023FE
:10935000DAB2059B83F8AF203DE0039B44F20102A3
:10936000934206D1059BB033029A128892B21A80BA
:1093700031E0039B44F20202934206D1059BB233D3
:10938000029A128892B21A8025E0039B44F20302EB
:10939000934213D1029B1B788DF81F309DF81F302C
:1093A000022B05D99DF81F30FF2B01D0872382E0C7
:1093B000059B9DF81F2083F8B4200CE0022070F07C
:1093C000D4FB0346002B04D03F4A02211F209EF00D
:1093D0000DFE01236FE0049B082B3CD1039B002B67
:1093E0000DD1029B1B781946059870F00DFD0346C0
:1093F00083F00103DBB2002B2DD087235BE0039BBE
:109400000F2B06D1029B1B781946059870F0BFFD03
:1094100021E0039B112B06D1029B1B78194605986E
:1094200070F0CAFD17E0039BB3F5804F06D1029B95
:109430001B781946059870F0D4FD0CE0022070F0FE
:1094400094FB0346002B04D0204A02211F209EF0EB
:10945000CDFD01232FE0049BB3F5407F2AD1039B70
:10946000002B06D1029B1B781946059870F007FD6A
:1094700020E0039B012B06D1029B1B78194605981F
:1094800070F025FD16E0039B0F2B06D1029B1B7885
:109490001946059870F0C0FD0CE0022070F065FBE5
:1094A0000346002B04D00A4A02211F209EF09EFD95
:1094B000012300E00023184609B05DF804FB00BF5B
:1094C000ACDC0B08E4DC0B0814DD0B084CDD0B08EE
:1094D00088DD0B0800B583B00190064A019B1A6035
:1094E000019B1846FFF78CFB019B184603B05DF803
:1094F00004FB00BFCCDD0B0800B585B003900B4624
:10950000ADF80A30BDF80A3042F21072934203D926
:1095100042F21073ADF80A30022070F026FB0346C9
:10952000002B0BD0039B03F10C02BDF80A30009313
:1095300013460B4A02211F209EF058FD039BBDF8E5
:109540000A20A3F8B0204FF48071039870F0DFFD7B
:10955000039B184670F083FE00BF05B05DF804FB66
:10956000E0DE0B0810B584B001900091244A019B05
:109570001A60019B00225A71019B00229A71019B83
:109580000022DA71019B00221A81019B00229A724B
:10959000019B0022DA72019B03F18C0403AB184695
:1095A000AAF066F803AB1A461649204600F076F991
:1095B00003AB1846AAF05DF8019B0022A3F8A42093
:1095C000019B0022C3F8A820019B0C330099184688
:1095D00070F0CAFF019B2C330B49184670F0C4FF92
:1095E000019B4C330949184670F0BEFF019B6C3358
:1095F0000749184670F0B8FF019B184604B010BD2B
:109600003CE10B08ACDF0B08B0DF0B08C0DF0B0838
:10961000D0DF0B0800B585B001900B468DF8033004
:10962000019B5B799DF803209A4214BF012300231C
:109630008DF80F309DF80F30002B26D0019B9DF840
:1096400003205A719DF80330002B0DD0022070F0DA
:109650008CFA0346002B14D0019B0C330D4A0221D7
:109660001F209EF0C3FC0CE0022070F07EFA03463F
:10967000002B06D0019B0C33074A02211F209EF0CD
:10968000B5FC0121019870F018FE00BF05B05DF82F
:1096900004FB00BFDCDF0B08F0DF0B0800B587B070
:1096A00003900291039B4C33202202991846AAF0A2
:1096B00056FC0346002B14BF012300238DF81730FE
:1096C0009DF81730002B1AD0022070F04EFA034696
:1096D000002B0AD0039B03F10C02029B009313465C
:1096E000094A02211F209EF081FC039B4C33029902
:1096F000184670F039FF1021039870F0DEFD00BFAE
:1097000007B05DF804FB00BF44E00B0800B591B062
:109710000590049103920293059B5B7983F001030A
:10972000DBB2002B01D00123B1E0022070F01DFA62
:109730000346002B0AD0BDF848300193039B0093E9
:10974000049B554A02211F209EF050FC049B392B9C
:1097500001D001239BE0039B112B0FD1BDF84830B2
:10976000012B0BD1059870F060FD0346002B01D052
:10977000012200E00022029B1A7087E0039B052B68
:1097800014D1BDF84830202B10D1BDF848200EABC5
:109790000299184670F0F5FE059870F0A3FA02469B
:1097A0000EAB114618469EF076FD6FE0039B012B31
:1097B00014D1BDF84830202B10D1BDF848200CAB97
:1097C0000299184670F0DDFE059870F019FD02460A
:1097D0000CAB114618469EF05EFD57E0039B032B31
:1097E00014D1BDF84830202B10D1BDF848200AAB69
:1097F0000299184670F0C5FE059870F008FD024603
:109800000AAB114618469EF046FD3FE0039B0F2B26
:1098100014D1BDF84830202B10D1BDF8482008AB3A
:109820000299184670F0ADFE059870F0F7FC0246FC
:1098300008AB114618469EF02EFD27E0039B4FF61D
:10984000FD7293420ED1BDF84830022B0AD1059823
:1098500070F01BFD0346ADF81E30BDF81E20029BC4
:109860001A8013E0039B4FF6FC7293420CD1BDF8B3
:109870004830042B08D1059870F001FD034606938B
:10988000069A029B1A6001E0012300E000231846BB
:1098900011B05DF804FB00BFACE00B0830B587B039
:1098A000039002910192039C0398A9F00CFF0346D8
:1098B000019A19462046A9F08DFF029B002B02D188
:1098C0000948A9F0EBFE029870F06AFC0246029B80
:1098D000134405932B46059A0299039870F093FE62
:1098E000039B184607B030BD00E10B0800B583B0FC
:1098F00001900023019A0021034803F0FBF900BF07
:1099000003B05DF804FB00BF00C0055008B5134B61
:109910001B68184670F0DCFE114B0022C3F82027AC
:109920000F4B0022C3F838270D4B0022C3F8302715
:109930000B4B0022C3F82827094B0022C3F82C2721
:10994000002301220821002003F022F80023012235
:109950000921002003F01CF800BF08BDA82D01203C
:1099600000C0035000B583B00190019A0021034864
:1099700002F07EFE00BF03B05DF804FB00000A5059
:1099800008B5134B1B68184670F0A2FE114B00225D
:10999000C3F8B4240F4B0022C3F8CC240D4B002293
:1099A000C3F8C4240B4B0022C3F8BC24094B00228B
:1099B000C3F8C024002301220621022002F0E8FFA0
:1099C000002301220721022002F0E2FF00BF08BDB0
:1099D000B02D012000C0035082B001900091019B86
:1099E000012B14D1009B4FF6FF7293420FD1094B0C
:1099F0001B68094A1360094B1B68094A1360094B2D
:109A00001B68094A1360094B1B68094A136000BFB1
:109A100002B0704774150020A42D01208415002089
:109A2000A82D012060150020AC2D0120701500200C
:109A3000B02D012082B00190034A019B1A60019B66
:109A4000184602B0704700BF7CE10B0800B583B038
:109A50000190064A019B1A60019B1846FFF7EAFF36
:109A6000019B184603B05DF804FB00BF28320C08C8
:109A7000014B1846704700BFA8B3012000B585B060
:109A8000FFF7F6FF03461A6812681846904728F059
:109A900095FE0346184688F04DFF0346002B06D07E
:109AA00028F08CFE0346184628F024FD43E02448A5
:109AB00027F0DCFF0346019302AB002118466FF04C
:109AC0008EFD02AA01AB1146184670F025FE034632
:109AD000002B07D003ABAC2118466FF080FD039834
:109AE00089F04DF8FEF794FA0346184670F041FEEF
:109AF0000346194613489FF09EF8124845F05AFD58
:109B0000FEF780FA034618466FF0F2FF28F056FE83
:109B10000346184670F037FE0346002B01D0083389
:109B200000E0002318463FF087FDFEF76BFA03467E
:109B300018466FF0E9FF00BF05B05DF804FB00BFF9
:109B40005CE10B083414002000B583B00190009153
:109B5000019B012B09D1009B4FF6FF72934204D168
:109B6000044A05490548A9F01BFC00BF03B05DF895
:109B700004FB00BF001200204D9A0008341400209E
:109B800000B583B001900091019B012B0CD1009B8B
:109B90004FF6FF72934207D1054870F036FE054A32
:109BA00005490348A9F0FCFB00BF03B05DF804FBC6
:109BB000B42D012000120020B3A9070882B0019043
:109BC000044A019B1A60019B00225A60019B1846BF
:109BD00002B07047CCE30B0800B583B00190019B45
:109BE0001846FFF7EBFF064A019B1A60019B4FF4F2
:109BF0007A729A60019B184603B05DF804FB00BFBF
:109C000078E20B0800B583B00190019B1846FFF77E
:109C1000E3FF044A019B1A60019B184603B05DF8FC
:109C200004FB00BF44E20B0800B585B0039002912D
:109C300001920093039B1846FFF7E4FF264A039B1B
:109C40001A60039B1033184671F01FF8039B002223
:109C5000C3F89C20039B002283F80821039B4FF448
:109C6000E132C3F80C21039B002283F81021039BEF
:109C7000A0331946012074F00AFE0246039BC3F884
:109C80009C20039BD3F89C30002B08D174F054FD2A
:109C9000124A1349039870F067FF00BFFDE7039B6A
:109CA000009AC3F8F020039B069AC3F8F420039BA4
:109CB000079AC3F8F820039B029AC3F80021039B7C
:109CC000019AC3F80421039B089AC3F8FC20039B64
:109CD000184605B05DF804FB10E20B08D8E10B084C
:109CE000ECE10B0800B587B005900491059B012BB2
:109CF00020D1049B4FF6FF7293421BD10F4B196882
:109D00000F4B1A680F4B02930F4B01930F4B0093AD
:109D10000F4B1048FFF788FF0F4B19680F4B1A685D
:109D20000F4B02930F4B01930F4B00930F4B1048B7
:109D3000FFF77AFF00BF07B05DF804FBA42D0120F8
:109D4000A82D012083AC07080D990008F7A6070885
:109D5000ED980008C02D0120AC2D0120B02D012070
:109D600087AC07088199000801A7070865990008D2
:109D7000D42E012000B583B00190019B00221A70FF
:109D8000019B00225A70019B00229A70019B642261
:109D90005A60019B02221A72019B0C225A72019B8B
:109DA00000225A62019B00229A62019B2C331946C1
:109DB000012074F06CFD0246019B9A62019B9B6A34
:109DC000002B07D174F0B8FC0549064854F01CFF7D
:109DD00000BFFDE7019B184603B05DF804FB00BF20
:109DE00000E30B0810E30B0800B583B0019000916D
:109DF000019B012B07D1009B4FF6FF72934202D1CA
:109E00000348FFF7B7FF00BF03B05DF804FB00BFD6
:109E1000E82F012082B00190034A019B1A60019B48
:109E2000184602B0704700BF5CE30B0800B583B072
:109E300001900B468DF80330019B1846FFF7EAFFAF
:109E4000094A019B1A60019B9DF803201A75019B2A
:109E50000433102200211846AAF06CF8019B184622
:109E600003B05DF804FB00BF88E30B0800B583B0C6
:109E70000190084611461A4603468DF803300B46FA
:109E80008DF8023013468DF80130019B1846FFF71C
:109E9000C1FF114A019B1A60019B00221A75019BA8
:109EA0000433102200211846AAF044F8019B9DF8C3
:109EB00003201A74019B9DF802205A74019B9DF89F
:109EC00001209A74019B9DF81020DA74019B1846BA
:109ED00003B05DF804FB00BF88E30B0800B585B054
:109EE00003900291039B012B10D1029B4FF6FF724E
:109EF00093420BD101210748FFF798FF00230093FD
:109F00000023002200210448FFF7B0FF00BF05B086
:109F10005DF804FB643001207C30012000B583B083
:109F200001900449019871F0DCF80346184603B02B
:109F30005DF804FBB0E30B0800B583B0019000911D
:109F4000019B012B10D1009B4FF6FF7293420BD166
:109F5000432342220649074871F071FA45234422FF
:109F60000549064871F06BFA00BF03B05DF804FBC9
:109F7000004002599430012000800259BC30012079
:109F800000B585B002F07AFE0346264A1360FFF75B
:109F900075FD254B01221A7071F093FA234B029341
:109FA000234B01930123009300234FF400622149C6
:109FB00021480BF01BFE0346204A13601F4B1B6811
:109FC000002B27D11E4B1B681E49184673F0DEFA82
:109FD0001B4B1B681C49184673F0D8FA71F068FBDC
:109FE00071F067FB164B1868184B00933E23184A14
:109FF000184973F0CBFA124B1B68174A17491846D9
:10A0000073F0C4FA0E4B1B681549184673F0BEFA7C
:10A0100000BFFDE773F050FE0023184605B05DF861
:10A0200004FB00BF945101206AF60120E450012096
:10A03000E4300120F8E30B08A9B40708905101208F
:10A040003452012008E40B080CE40B0888E40B08E8
:10A0500014E40B087CE40B0890E40B08ACE40B0858
:10A06000C4E40B0808B5074870F0A3FD054870F07C
:10A07000EFFD054870F09DFD034870F0E9FD00BF5D
:10A0800008BD00BFC02D0120D42E0120014B1B783C
:10A09000184670476AF6012010B582B003468DF865
:10A0A00007309DF80730312B06D99DF80730722B09
:10A0B00002D89DF8073013E09DF8074070F06AFB66
:10A0C00003469C422CBF01230023DBB2002B02D0AD
:10A0D0004FF0FF3304E09DF80730034A52F8233075
:10A0E000184602B010BD00BF3C14002000B587B078
:10A0F0000190019B00221A72019B01225A72019B5E
:10A100000022DA60019B00221A66019B082283F874
:10A110006420019BFF229A66019B4FF47A721A60B9
:10A12000019B00221A71019B6C330493049B0593DD
:10A13000049B3033039316E0059B0293029B72222B
:10A140001A60029B174A9A60029B00221A73029BB4
:10A1500000225A73029B00229A73029B0022DA7338
:10A16000059B10330593059A039B9A42E4D1019B0A
:10A1700010331946012074F08AFB0246019BDA6015
:10A18000019BDB68002B07D174F0D6FA064907481B
:10A1900054F03AFD00BFFDE7019B184607B05DF89B
:10A1A00004FB00BF00800450E4E40B08F4E40B0857
:10A1B00000B583B001900091019B012B07D1009B5A
:10A1C0004FF6FF72934202D10348FFF78FFF00BFA3
:10A1D00003B05DF804FB00BF9851012082B0034634
:10A1E00000918DF8073008489DF807200121009B59
:10A1F000994013465B0013441B01034403F50153CC
:10A20000196000BF02B0704700C0035082B003461F
:10A2100000918DF8073008489DF807200121009B28
:10A22000994013465B0013441B01034403F582531A
:10A23000196000BF02B0704700C00350012208B58A
:10A24000074B1A700022074B1A700422064B1A7033
:10A250001F22064B1A7006F0A3FB054B186008BDC1
:10A26000441C00206BF60120431C0020421C0020EF
:10A27000345201202DE9F043434D89B001AC0FCD9C
:10A280000FC495E80700012584E8070001213A2062
:10A2900001F07CFA3D4F0121292001F077FA3C4B77
:10A2A000384601A903938DF8125002F0D3FD2B46D6
:10A2B00029460422022002F06BFB02212A460846AE
:10A2C000002302F065FB2B4604220321022002F04A
:10A2D0005FFB04222B461146022002F059FB2D4C55
:10A2E0002D4B1026C4F834374FF00213C4F8303722
:10A2F000A3F58033C4F838371C2304F50059C4F89B
:10A3000020374FF4487008F0F7F904F5805814200E
:10A31000C9F8A06008F0F0F92320C8F8A06008F0A0
:10A32000EBF9B9213846C9F8A06071F09AFC002316
:10A3300029461A460220C8F8A06002F029FB002333
:10A3400002211A46084602F023FB2B460022032175
:10A35000022002F01DFB2B4600220421022002F005
:10A3600017FB384602F0F6FC00212920C4F8341708
:10A37000C4F83017C4F83817C4F8201701F006FAEB
:10A3800009B0BDE8F08300BF10E50B0800C0055020
:10A3900000127A0000C0035002000300BFF34F8F89
:10A3A0000549064BCA6802F4E0621343CB60BFF371
:10A3B0004F8F00BFFDE700BF00ED00E00400FA058D
:10A3C0004FF000639A6A02F17841B1F5C04F03D2B1
:10A3D0001168074A914203D00023037083607047DD
:10A3E000012202709A6A926842609B6A9B69F5E753
:10A3F00007B0CD5E08B54FF00053024A1A60FFF770
:10A40000CDFF00BF02020FF073B54F4B04461A7820
:10A410001AB102221A7002B070BDCDE900220028E4
:10A42000F9D001261E7071F030FB484D484B186082
:10A430006AF06EFE2B785BB900F076FE40B94548B5
:10A440000823454A4549006864F0EAF900B92E70CE
:10A45000434B5A6E62619B6E424AA3614FF4804344
:10A460009366414B5968E16140499960196E2160DA
:10A47000596E6160D3F87011A160196CE160596C7C
:10A4800021613B49086C1864496C5964012151668B
:10A490001B6E9C0441D5374AD368D807FCD4364B91
:10A4A0001A68531C3ED04FF480139340334A13660E
:10A4B0004FF400730426314C2666236671F06FF961
:10A4C00001300DD071F06BF940F20113984207D0C2
:10A4D0004FF4005323664FF480432366C4F8706141
:10A4E0000823264C684623664FF4805323664FF0BA
:10A4F000006323664FF4002301A9636671F0F4F84A
:10A50000009B2366019B63662B78002B83D0124B44
:10A510001A6822665B6863667DE7194AD368D907C3
:10A52000FCD4BCE7174B1B78002BC1D14FF4007251
:10A530000C4B5A6603F5A6235B68002BB8D14FF489
:10A5400080120E4B1A66B3E76DF601206EF60120FD
:10A5500058520120E01400205C52012000710800D4
:10A5600000800050009000500080004455CEAC00A8
:10A5700000C0005400000440AC14002000900044CF
:10A58000000004506CF6012070B5224D04462E7870
:10A59000012E02D001232B7070BD0028FCD071F079
:10A5A000FEF801300BD071F0FAF840F20113984236
:10A5B00005D0194B194A5E66D368DE07FCD42268C1
:10A5C000174B1A6662685A66A268C3F87021E2687F
:10A5D0001A6422695A64E269D00744BF00229A6073
:10A5E000104B1A68013207D10F4A127822B90F496D
:10A5F0004968C90748BF1A6062690D4B5A66A2696B
:10A600009A666AF08DFD0B4B186871F044FA0023CE
:10A61000C1E700BF6DF6012000900040000004403B
:10A6200000800044AC1400206CF6012000C00550EE
:10A63000008000505852012070B54FF00064A36AAA
:10A6400003F17842B2F5C04F24D21A68134B9A42F4
:10A6500020D1134E337813F0FD0F02D00024204692
:10A6600070BD1048FFF7D0FE01254FF480330E4A2D
:10A670000E49C2F88051CB6015600D4A1361A36A80
:10A68000DB69984704460748FFF77EFF002CE6D1B8
:10A690003570E3E74FF48174E1E700BF07B0CD5EAA
:10A6A0006CF601203852012000E100E000A00044D7
:10A6B0000090004413B5204B1B7803B9FEE700233C
:10A6C0001E4CCDE900336A4608231D49206864F01A
:10A6D000A7F8F0B91B4AD2F84031D2F840211F2B1D
:10A6E0004FF0010310D9203A9340019A1A43019286
:10A6F00008236A461249206864F048F84FF0005376
:10A70000114A1A60FFF74AFE9340009A1A430092DA
:10A71000EEE70E4B9842F1D10A4AD2F84031D2F816
:10A7200040211F2B4FF0010385BF203A93409340F7
:10A73000019398BF0093DBE76DF60120E014002041
:10A7400000710800008000440B020FF00BE000F0E5
:10A7500038B54FF00065AB6A044603F17842B2F5B4
:10A76000C04F12D21B6B03F17843B3F5C04F0CD22C
:10A770000648FFF749FEAB6A20461B6B5B689847AB
:10A78000BDE838400148FFF7FFBE38BD64520120E4
:10A7900013B54FF000640190A36A03F17842B2F55B
:10A7A000C04F15D21B6B03F17843B3F5C04F0FD2E6
:10A7B0000948FFF729FEA36A01211B6B01A89B69C9
:10A7C000984704460448FFF7DFFE204602B010BD5C
:10A7D0004FF48174F9E700BF64520120F8B54FF0DF
:10A7E0000067BB6A164603F17842B2F5C04F0446D3
:10A7F0000D4611D21B6B7BB10948FFF705FEBB6A02
:10A8000020461B6B324629465B6A9847044604483B
:10A81000FFF7BAFE2046F8BD4FF40174FAE700BF17
:10A820006452012070B54FF00066B36A044603F12C
:10A830007842B2F5C04F0D4614D21B6B03F178433A
:10A84000B3F5C04F0ED20948FFF7DEFDB36A2046CC
:10A850001B6B29469B6A984704460448FFF794FE01
:10A86000204670BD4FF40174FAE700BF6452012026
:10A87000F8B54FF00067BB6A164603F17842B2F5AF
:10A88000C04F04460D4615D21B6B03F17843B3F558
:10A89000C04F0FD20948FFF7B7FDBB6A20461B6BBC
:10A8A000324629469B6B984704460448FFF76CFEE6
:10A8B0002046F8BD40F20114FAE700BF64520120BF
:10A8C00070B54FF00066B36A044603F17842B2F502
:10A8D000C04F0D4614D21B6B03F17843B3F5C04F44
:10A8E0000ED20948FFF790FDB36A20461B6B29463C
:10A8F000DB6B984704460448FFF746FE204670BDD0
:10A9000040F20114FAE700BF6452012040B1054A49
:10A910001378012B04D803700133002013707047A3
:10A92000012070476FF601200348044A0449121AB7
:10A93000921070F0EABF00BF34A00D0834A00D08DB
:10A9400020C6022008B500F02FF8FFF7EDFF124BEC
:10A9500012498B4212D30020114B12498B4218D35B
:10A96000FDF70AFA186850F82240586840F822406B
:10A97000013298688242F5D30C33EAE70022F8E707
:10A980001C6844F8220001325C68A242F8D3083304
:10A99000E4E70022F8E700BF1C8F0D08288F0D08A0
:10A9A000288F0D08288F0D084FF480414FF0FF309D
:10A9B00010B5114B114A9A60D3F8882042F4700206
:10A9C000C3F888200E4A91660E4901F500521066C0
:10A9D0000D4850660220C3F8D000BFF34F8FBFF37D
:10A9E0006F8F01244FF440330848C0F88041D36092
:10A9F00004600B6110BD00BF00ED00E000600008C6
:10AA00000090005000800044F7FF370000E100E0B4
:10AA1000014B1868704700BFB4140020014B186048
:10AA2000704700BFB4140020084B1B6F03F00703EE
:10AA3000022B04D0032B05D0012B05D0FEE7044BDD
:10AA400018687047034BFBE70348704700800050CD
:10AA5000B4140020BC140020002D310108B5FFF70C
:10AA6000E3FF054B1B6FC3F303330133B0FBF3F07C
:10AA7000024B186008BD00BF00800050B0140020D9
:10AA80000048704700B4C404014B1868704700BF09
:10AA9000BC140020054B1860054B1B6F03F0070327
:10AAA000032B01D1FFF7DABF704700BFBC140020B1
:10AAB0000080005000487047002D31014FF0B44332
:10AAC0009868C0F304400C280AD8DFE800F00B09AE
:10AAD00009090909072119091B1D1F000F487047A3
:10AAE000002070479B6803F04073B3F1807F11D062
:10AAF000B3F1007F10D00A4A002B08BF1046704700
:10AB00000848704708487047084870470848704729
:10AB1000084870470848704708487047405DC600BD
:10AB200000093D00C0EA210180BA8C010048E8011B
:10AB3000005A62020024F40080841E0040420F008C
:10AB4000014B1868704700BFB814002010B50122EF
:10AB500043780178847830209A40054B00FB01331C
:10AB60001CB903F501531A6010BD03F58253FAE7CF
:10AB700000C0035010B5012243780178847830205A
:10AB80009A40054B00FB01331CB903F582531A6050
:10AB900010BD03F50153FAE700C0035001224378CA
:10ABA00001789A4030235943014B5A50704700BFF7
:10ABB00040F00350102130230246007813FB0013AD
:10ABC00005495B585178CB4003F0010093780BB9ED
:10ABD00080F00100704700BF30C003502DE9F04FF6
:10ABE0009A46564B85B01B7806460F461546DDF84B
:10ABF0003C909DF844B0DDF85080002B00F0978029
:10AC0000072A00F296800E9B002B00F09280B9F18B
:10AC1000000F00F08E80129BB3F5006F00F3898067
:10AC2000012803D1109B002B00F08380444B03EBE1
:10AC300005131B7B002B7ED0424C1022002168465E
:10AC4000A9F078F904EB45141022A7BB3946204639
:10AC5000A9F070F943F210036380BBF1000F03D138
:10AC6000E37843F00303E370364A0E9B02EB451C86
:10AC7000CCE90193129BCDF800A0581E9DF84C30F2
:10AC8000690103F00303C0F30A009B0643EA001EB8
:10AC900053582D48012E00EA03004EEA000353509A
:10ACA00017D0B8F1000F2ED19CF8023068F30413CE
:10ACB0008CF8023027E000212046A9F03BF94FF440
:10ACC00044736380BBF1000FCED1E37843F03003CF
:10ACD000C9E713230CF1100ECCF80C309CE80F00E0
:10ACE0008EE80F006FF00301DCF81C20109B61F36D
:10ACF0009F02012FCCF81C20CCF8143003D1CCF8E3
:10AD00001890CCF8043000270D4A290102EB0513F6
:10AD100042F80180159A28465A60694622469F608B
:10AD20005E7301F0D3FE384605B0BDE8F08F0748EA
:10AD3000FAE70748F8E70748F6E700BF70F6012092
:10AD400084530120845201200F80FFF3028000F021
:10AD5000018000F0078000F038B5124B05461B78E3
:10AD6000DBB1E0B170F091FE0F4A00231146147B75
:10AD700054B92B6001251A0101EB03131D738C508C
:10AD800070F089FE204638BD0133082B02F1100215
:10AD9000EDD170F080FE0548F5E70548F3E705487A
:10ADA000F1E700BF70F6012084530120048000F019
:10ADB000028000F0018000F038B570F066FE0023DC
:10ADC00005460B4A147B6CB90133082B02F11002C3
:10ADD000F8D101F01DFE074B28461C7070F05BFE99
:10ADE000204603E0284670F056FE034838BD00BFF9
:10ADF0008453012070F60120058000F010B50D4B42
:10AE000004461B7893B1072812D870F03EFE0A4B17
:10AE100003EB04131A7B2AB100241C7370F03BFE71
:10AE2000204610BD70F037FE0448FAE70448F8E702
:10AE30000448F6E770F6012084530120068000F0F4
:10AE4000028000F0018000F0154B13B51868002354
:10AE500001908DF8043070F018FE124B1C7824B16C
:10AE600070F019FE104802B010BD01221A7070F087
:10AE700012FE0E4B01A81C731C7783F82C4083F83C
:10AE80003C4083F84C4083F85C4083F86C4083F886
:10AE90007C4008238DF8073001F0E6FD2046E2E70C
:10AEA0007CE50B0870F60120038000F0845301203C
:10AEB00008B50A4A12785AB107280BD8084A02EB9B
:10AEC00000131B7B43B1002101F0C0FD002008BD31
:10AED0000448FCE70448FAE70448F8E770F6012064
:10AEE00084530120028000F0018000F0078000F010
:10AEF00008B50A4A12785AB107280BD8084A02EB5B
:10AF000000131B7B43B1012101F0A0FD002008BD0F
:10AF10000448FCE70448FAE70448F8E770F6012023
:10AF200084530120028000F0018000F0078000F0CF
:10AF300008B50A4A127852B107280AD8084A02EB23
:10AF400000131B7B3BB101F009FE002008BD054842
:10AF5000FCE70548FAE70548F8E700BF70F601206E
:10AF600084530120028000F0018000F0078000F08F
:10AF70000D4B1B7893B1072812D889B10B4B03EB0B
:10AF800000131B7B73B10A4B1A6D012383401342DC
:10AF900014BF0123002300200B7070470548704741
:10AFA000054870470548704770F60120845301201A
:10AFB00000000450028000F0018000F0078000F0E3
:10AFC00010B50B4A0C46127862B107280CD859B15B
:10AFD000084A02EB00131B7B43B101F0D1FD207046
:10AFE000002010BD0448FCE70448FAE70448F8E7ED
:10AFF00070F6012084530120028000F0018000F0EF
:10B00000078000F02DE9F041174B1F6D5B6D1F406D
:10B0100000D5FEE701260025144CDFF858803742A2
:10B0200018D0C8F850602368A3B1A1682846013140
:10B030006268A1609847637B012B0BD150B90C4B20
:10B0400003EB45131A7B60F341021A731A7F60F316
:10B0500041021A770135082D4FEA460604F1100423
:10B06000DDD1BDE8F08100BF000004508453012011
:10B07000845201200020045070B5044601250B4E77
:10B0800004B970BD94FAA4F0B0FA80F005FA00F3A8
:10B0900006EB001224EA03045368002BF0D0117B66
:10B0A00011B191689847EBE79847E9E7045401200C
:10B0B00008B5192001F00EF928B14FF00072074BC6
:10B0C000C3F880211A601A2001F004F928B14FF06A
:10B0D0008062024BC3F880211A6008BD00E100E0E5
:10B0E000074BD3F82404D3F8202403F50053104071
:10B0F00000F0553020F05020C3F82004FFF7BCBF0B
:10B1000000C00350074BD3F82404D3F8202403F5E0
:10B110000053104000F0AA3020F0A020C3F8200413
:10B12000FFF7AABF00C00350024B1968024B186812
:10B1300063F052BAC0140020E014002070B59400EF
:10B14000224605460E46B2F017FA431C0AD058B9FB
:10B15000224631462846A8F0C3FE0028034808BF0F
:10B16000002070BD0248FCE70248FAE710E000F05A
:10B1700021E000F024E000F010B50446B2F000FA3F
:10B18000431C10D088B901F0ABFD234620F003002A
:10B190002044984201D1002010BD53F8042B013205
:10B1A000F7D00348F8E70348F6E70348F4E700BFA1
:10B1B0000EE000F021E000F024E000F0044BD3F8B2
:10B1C0008420D206FBD4D3F88400C0F381107047EA
:10B1D000004000502E4B98424AD022D82D4B984226
:10B1E00040D014D82C4B984239D00AD82B4B9842D7
:10B1F00032D02B4B98422FD02A4B98422CD0002093
:10B200007047294B9842FAD1284B186F7047284B4A
:10B2100098422AD0274B9842F1D1244BD3F8800092
:10B220007047254B98422BD009D8244B984223D005
:10B23000234B9842E3D11D4BD3F88C007047214B30
:10B24000984221D003F5740303F510539842D6D1E8
:10B25000164BD3F898007047144B986D7047134BFA
:10B26000586E7047114B586F7047104B986F70476E
:10B270000E4BD3F8840070470C4BD3F8880070470E
:10B280000A4BD3F890007047084BD3F894007047EE
:10B290000048E8010024F400C0CF6A0080841E004A
:10B2A00000093D0040420F00405DC6000080E00FF5
:10B2B000C0EA210180BA8C01007E560380D543028A
:10B2C000006CDC020090D00338B5104B0546D3F873
:10B2D00080300C4603F00303022B0BD0032B0DD060
:10B2E000012B0FD1FFF7A0FB0E2305B1286004B19D
:10B2F000236038BDFFF7E2FB0723F6E7FFF788FB83
:10B300000623F2E700231846EFE700BF0080005055
:10B3100038B5184B0546D3F820010C4600F007005D
:10B32000062823D8DFE800F0040A0E16121A1E00C1
:10B33000012305B1286004B1236038BDFFF768FB25
:10B340000523F6E7FFF7A0FB0323F2E7FFF7B6FBC1
:10B350000723EEE7FFF7AEFB0223EAE7FFF758FB10
:10B360000623E6E7FFF790FB0423E2E700231846F5
:10B37000DFE700BF0080005038B5174B0546D3F813
:10B3800028310C4603F00703013B052B20D8DFE8EA
:10B3900003F003131B0F0B17FFF73AFB052305B14F
:10B3A000286004B1236038BDFFF732FB0623F6E7BF
:10B3B000FFF784FB0723F2E7FFF766FB0323EEE7C3
:10B3C000FFF762FB0423EAE7FFF774FB0223E6E7DB
:10B3D00000231846E3E700BF0080005073B50D4618
:10B3E0000021114B0191D3F88041064604F003047B
:10B3F000022C13D0032C0CD0012C13D101A8FFF781
:10B4000087FF10240EB1019B336005B12C6002B0A0
:10B4100070BDFFF753FB07240190F3E7FFF74AFBEA
:10B420000190EFE70C46EDE700800050002337B5B0
:10B430000193164B0546D3F820320C4603F0070360
:10B44000042B21D8DFE803F0030B11161B000123A6
:10B450000DB1019A2A6004B1236003B030BD002110
:10B4600001A8FFF789FF1223F2E7FFF727FB072365
:10B470000190EDE770F056FA0A230190E8E7FFF734
:10B480005FFB09230190E3E70023E1E70080005020
:10B4900038B5104B0546D3F840310C4603F0030392
:10B4A000022B0BD0032B0DD0012B0FD170F03AFAE9
:10B4B0000A2305B1286004B1236038BDFFF740FBC3
:10B4C0000923F6E770F031FA0C23F2E7012300209C
:10B4D000EFE700BF00800050002337B50193164B03
:10B4E0000546D3F860320C4603F00703013B032BFB
:10B4F0001FD8DFE803F0020E1914002101A8FFF79E
:10B5000007FF10230DB1019A2A6004B1236003B034
:10B5100030BD002101A8FFF7BBFF1123F2E7FFF7C1
:10B52000CDFA07230190EDE7FFF7C4FA022301905B
:10B53000E8E70023E6E700BF00800050002337B5AE
:10B540000193164B0546D3F894320C4603F00703DB
:10B55000013B032B1FD8DFE803F0020E1914002172
:10B5600001A8FFF7D5FE10230DB1019A2A6004B19E
:10B57000236003B030BD002101A8FFF789FF11232C
:10B58000F2E7FFF79BFA07230190EDE7FFF792FA46
:10B5900002230190E8E70023E6E700BF00800050A7
:10B5A00038B5144B0546D3F800020C4600F00700EE
:10B5B00004281BD8DFE800F003090D111500012352
:10B5C00005B1286004B1236038BD70F0ABF90A23DF
:10B5D000F6E7FFF7B5FA0923F2E770F0A6F90C23B6
:10B5E000EEE7FFF73BFA0F23800AE9E7002318464E
:10B5F000E6E700BF0080005038B5144B0546D3F88D
:10B6000008020C4600F0070004281BD8DFE800F011
:10B6100003090D111500012305B1286004B1236051
:10B6200038BD70F07FF90A23F6E7FFF789FA09239E
:10B63000F2E770F07AF90C23EEE7FFF70FFA0F2329
:10B64000800AE9E700231846E6E700BF00800050C3
:10B6500038B5104B0546D3F840320C4603F00303CF
:10B66000022B0BD0032B0DD0012B0FD170F05AF908
:10B670000A2305B1286004B1236038BDFFF760FAE2
:10B680000923F6E770F051F90C23F2E701230020BB
:10B69000EFE700BF0080005038B5104B0546D3F8E7
:10B6A00060310C4603F00303022B0BD0032B0DD0AB
:10B6B000012B0FD170F036F90A2305B1286004B1CF
:10B6C000236038BDFFF73CFA0923F6E770F02DF947
:10B6D0000C23F2E701230020EFE700BF00800050B9
:10B6E000B0F5207F1FD009D8B0F5007F15D003D862
:10B6F00068B1B0F5C07F0AD000200CE0B0F5607FE3
:10B70000FAD10B4BD3F88000C0F3011003E0084BD3
:10B71000186FC0F3033001307047054BD3F8900029
:10B72000C0F30460F7E7024B186FC0F38020F2E724
:10B730000080005002464FF48030104B10B59866E0
:10B740000020FFF7CDFF504341F671320C4BDC690E
:10B75000DA635A6804F4803422F4401259B9094972
:10B76000884294BF00200120000502435A600CB1BA
:10B770000022DA6310BD0449F2E700BF00900050D8
:10B7800000000350005A6202002D3101430905D028
:10B79000012B0CD0022B084B18BF002300F01F0018
:10B7A00039B103F58053012282401A607047034B80
:10B7B000F4E703F50053F6E768800050648000501A
:10B7C0001FB5002180280446CDE9001100F0A580B6
:10B7D00035D85E2846D85E2844D8DFE800F0A2437A
:10B7E0004343434343434343434343434343434329
:10B7F0004343434343434343434343434343A2AA53
:10B80000A2AABABABABABAAAC44DDA714DAAAAAAF9
:10B810004343434343434343AAAAAA79E4AA434385
:10B820004343434343434343434343BAA2A2A2DFB8
:10B830004D4DE9885EBF434343434399A200B0F5B1
:10B84000B06F00F090802DD8B0F5207F71D00CD86B
:10B85000B0F5C07F65D0B0F5007F65D0B0F5807FD2
:10B8600000F08680009804B010BDB0F5607F6BD00A
:10B870000DD8B0F5407FF5D1FFF7F0F802464FF450
:10B880002070FFF72DFFB2FBF0F252085AE0B0F53E
:10B89000806F5ED0B0F5A06FE4D100216846FFF75D
:10B8A000C5FDDFE7B0F5106F78D016D8B0F5E06FC2
:10B8B00079D00AD8B0F5C06F6BD0B0F5D06FD1D1C8
:10B8C00000216846FFF76CFECCE7B0F5F06FC9D1F8
:10B8D00000216846FFF7E0FEC4E7B0F5406F3DD0B9
:10B8E00013D8B0F5206F63D0B0F5286FBAD100211E
:10B8F000324B0391D3F8703203F00303012B02D1D2
:10B9000003A8FFF7C5FD039B3CE0B0F5486FA9D144
:10B9100000216846FFF712FEA4E7FFF785F80090C4
:10B92000A0E7FFF79BF8FAE7FFF77EF8024620460C
:10B9300004E0FFF793F802464FF42070FFF7D0FEC3
:10B94000B2FBF0F200928DE701A8FFF7BDFC019A6F
:10B95000EDE700216846FFF7DBFC83E7002168463E
:10B96000FFF70AFD7EE700216846FFF737FD79E71C
:10B970004FF0E02302911B695B0705D5FFF76EF8D6
:10B980000290029B00936DE703A902A8FFF780FDD8
:10B99000F7E700216846FFF77BFD63E70021684673
:10B9A000FFF72AFE5EE700216846FFF751FE59E7E0
:10B9B00000216846FFF790FD54E700BF008000506B
:10B9C00008B58020FFF7FCFE034B98429EBF4FF462
:10B9D0008032024B1A6708BD005A620200A0005074
:10B9E0001FB503460020B3F5807F019000F0C180B1
:10B9F00064D85D2B55D84C2B07D82D2B48D8232B3A
:10BA00002CD8019805B05DF804FB4D3B102BF8D8FD
:10BA100001A252F823F000BF69BB000803BA000876
:10BA200003BA000803BA00081FBB000803BA0008E5
:10BA300003BA0008EDBB00083DBB0008E3BA0008EC
:10BA4000E3BB000803BA000803BA000803BA000801
:10BA500003BA000803BA0008F7BB0008243B092B0F
:10BA6000CFD801A252F823F069BB000869BB0008D7
:10BA700069BB000869BB000869BB000803BA00087D
:10BA80005FBB000803BA0008FFBA00089FBB0008AC
:10BA90003D2B7FD03E2BB4D1002001A9FFF7D8FD6C
:10BAA000AFE7802BADD1594B1B6F03F00703013B70
:10BAB000032BA6D8DFE803F0514E858DB3F5F06F68
:10BAC00068D021D8B3F5B06F49D00FD8B3F5607FF7
:10BAD00000F0838095D3B3F5806F45D0B3F5A06FA8
