:020000040800F2
:1060000008100020F16E0008F5DF0008F9DF000835
:1060100093100308FDDF000805E000089310030853
:1060200093100308931003089310030893100308B8
:1060300009E00008540704089310030893100308AC
:10604000C17200089310030893100308931003080B
:106050009310030893100308931003089310030888
:10606000931003089D6E0008B90F030893100308EE
:106070009310030893100308931003089310030868
:106080009310030893100308931003089310030858
:1060900093100308C17900089310030893100308B4
:1060A00093100308CD750008AD7500089310030820
:1060B00093100308F9C60108A5D101085377030816
:1060C0004F77030835C90108697703085777030834
:1060D00075D101085B770308E5D1010851D20108A9
:1060E00093100308931003089310030893100308F8
:1060F0005331030893100308931003089310030807
:1061000093100308931003089310030893100308D7
:1061100093100308931003089310030893100308C7
:1061200093100308931003089310030893100308B7
:1061300093100308931003089310030893100308A7
:10614000931003089310030893100308B3CA0308BD
:10615000CDB50108931003083F770308457703087E
:106160009310030893100308931003089310030877
:10617000F0B5114A114C124E00F00105E3695F07BA
:1061800013D40DB9334213D103EA00078F4207D16C
:106190000B4A1A40002A0CBF00206FF00100F0BD2E
:1061A000013AEBD16FF00200F9E74FF0FF30F6E76C
:1061B0006FF00100F3E700BF8096980000000350E5
:1061C000020001000B4B70B5D96911F480310DD17B
:1061D00001244FF48072084E084DF46020462C6470
:1061E0001A61FFF7C5FF3464EC6070BD6FF0010009
:1061F000FBE700BF000003500010035000200350D5
:106200004FF4803238B50E4B0E4C9A66E56941F674
:10621000713315400122E3630B4B0021DA60022346
:10622000606121202361FFF7A3FF10B92120FFF750
:106230009FFF0122054BDA600DB10023E36338BDF7
:106240000090005000000350001003500020035045
:1062500070B5134C6061E3695B071ED40E4656F8B7
:10626000043B8D18A361AE420BD1042300212120F1
:106270002361FFF77DFF58B9BDE870402120FFF78B
:1062800077BF08210846FFF773FF10B1042323618D
:1062900070BD56F8043BA361E5E74FF0FF30F7E728
:1062A000000003502DE9F84315464FF48032184B97
:1062B00089469A6603F51C33DF690646174041F6A6
:1062C0007132DA63012203F58053DFF84C80DA6023
:1062D00055B9284601220F4BDA601FB10022A3F501
:1062E0000053DA63BDE8F88306F5005404EA0804B5
:1062F000A41BAC4228BF2C46494622463046FFF735
:10630000A7FF0028E6D12644A1442D1BE0E700BFEB
:0C631000009000500020035000E0FFFF50
:106320002DE9F04F93B0CDE90A32DDE91C530E930D
:1063300053EC102BCDE90801104619468DED060BE4
:106340001E9E2AF001FA80B1DDE906014FF0FF320E
:10635000C54B2AF021FA40B9DDE906014FF0FF32C2
:106360006FF480132AF0FAF970B1DDE908019DEDB0
:10637000060B0E9B1E96CDE91C53DDE90A3213B0C5
:10638000BDE8F04F00F088B90022DDE906010023E6
:106390002AF0E4F9002800F03381DDE906A303F1D7
:1063A000004BCBF30A5016F48063A0F2FF3008BF15
:1063B00006250F9329F0F6FE9BA3D3E9002329F0CD
:1063C0005BFF9BA3D3E9002329F0A0FDCBF31304CB
:1063D000894644F07F5180460022A44B504641F448
:1063E000401129F091FD94A3D3E9002329F044FF43
:1063F00002460B464046494629F088FD2AF0D6F968
:10640000044629F0CFFE8EA3D3E9002380468946B7
:1064100029F032FF0022964B29F078FD2AF0C6F9C8
:1064200089A3D3E9002307464946404629F024FFC3
:1064300080463846894629F0B5FE85A3D3E9002376
:1064400029F01AFF02460B464046494629F05CFDFA
:1064500002460B46CDE90C2329F00EFFDDE90C23A3
:10646000804689461046194629F050FD0022CDE9A4
:106470001001804B404649462AF028F800227E4B06
:1064800029F044FD02460B46404649462AF01EF8D4
:1064900000227A4B29F03AFD02460B464046494617
:1064A0002AF014F8DDE90C238046894600204FF0DD
:1064B000804129F029FD02460B464046494629F015
:1064C00025FD02460B46DDE9100129F0FFFF07F22A
:1064D000FF3700226A4B29F019FD00223B0529F005
:1064E000CBFE52465B46804689462AF055F9002885
:1064F00040F08980CDE90C8904F16303C72B34BFD8
:106500000427052731051BD553A3D3E900235046A3
:1065100059462AF037F900287FD051A3D3E9002348
:10652000504659462AF01AF9002876D00027A5428D
:10653000C6BF2C1B04F1FF3500253C4646F480669F
:106540000E9B9F422CBF4FF00008A3EB070816F0EC
:10655000020903D0002F18BF4FF000083CB1DDE95D
:106560000C235046594629F0B1FF82468B46DDE99F
:106570000601002200232AF0F1F810B10BF10043CC
:106580009B46DDE9080126F40063CDE90183DDE9DE
:106590000A324BEC10AB009500F07EF802465FB378
:1065A000DDE9091316F0200F00F10105089E0CBF6C
:1065B00065204520B047DDE9080105230022059349
:1065C0000A23002CCDE9023207F1FF374FEAD473DA
:1065D000B8BF64422A46019304970A9B009430F0A6
:1065E000EAFB0246B9F1000F06D00B9BC41A0B9BC5
:1065F0001A190E9BA34245D8104613B0BDE8F08F80
:10660000DDE906ABCDE60022404649461A4B29F0AB
:106610005DFF013CCDE90C016EE7002D90D00F9B92
:10662000002B8DD0013D8BE7FB799F501344D33F66
:10663000B3C8608B288AC63F61436F63A787D23F88
:1066400071A379094F930A401655B5BBB16B02404F
:10665000EF39FAFE422EE63F2D431CEBE2361A3F9D
:106660000000000080842E41FFFFEF7F0000F83F14
:106670000000E03F00002C400000244000001840D3
:106680000000F03F2020DDE90913089DA8470134F0
:10669000ADE700BF000000002DE9F04F5BEC10AB50
:1066A00097B0CDE90501DDE92057CDE90723504634
:1066B00052465B465946229E2AF046F870B903239B
:1066C000CDE902760193B04B0093DDE90501DDE9E8
:1066D000072330F090FA17B0BDE8F08F4FF0FF328B
:1066E0006FF48013504659462AF038F828B1042335
:1066F000CDE902760193A54BE6E74FF0FF32504615
:106700005946A34B2AF048F868B1A24A06F00403A0
:10671000002B08BF0322A04B1CBF13460422CDE967
:1067200002760192D0E7504693A3D3E9002359465D
:106730002AF032F838B992A3D3E9002350465946DB
:106740002AF00CF868B1DDE90723DDE905014BEC1F
:1067500010ABCDE92176209517B0BDE8F04FFFF7DB
:10676000DFBD002200235046594629F0F7FF0028DC
:1067700000F09A805B4652460020002129F0C4FBBD
:10678000012382468B46099316F4806400F08E80C4
:10679000092D40F28E80002430210EABA5F10902B4
:1067A0000134202C03F8011BA5EB040901D094420D
:1067B000F6D15946504629F0F9FF784B054603EBD0
:1067C000C90393ED007B8DED0A7B29F0EBFC0246BB
:1067D0000B465046594629F097FBDDE90A2329F07C
:1067E0004BFD02460B46CDE90C232AF007F8804604
:1067F00029F0C8FC02460B46DDE90C0129F084FBB8
:1068000002460B46CDE90C230022654B29F0C4FF5C
:10681000002851D008F10108404629F0B3FC024697
:106820000B46DDE90A0129F0A3FF10B14FF0000883
:106830000135B9F1000F50D1284629F0B3FC0246CA
:106840000B465046594629F05FFB0022544B8046C8
:10685000894629F083FF30B1002240464946504B1B
:1068600029F09AFF10B1E80700D501350A210EABD7
:106870001A19202C0AD095FBF1F001FB1055303588
:1068800002F8015B013405460028F2D106F003024C
:10689000012A57D1002F55D0099A12B916F00C0FC2
:1068A00000D0013F302245E009906DE74FF0060926
:1068B0007FE7A94600247CE70022DDE90C01384B84
:1068C00029F04CFF0028B4D1B8F1000F02D018F025
:1068D000010FAED008F10108ABE70A210EAB23444B
:1068E000202C0ED0B8FBF1F001FB1082B8F1090F9B
:1068F00002F1300209F1FF3904F1010403F8012B20
:1069000011D83021A1440EAA202CAFD0A14504F10A
:1069100001030AD11C4609F158030DEB03092E238C
:1069200009F8203CA2E78046DAE7A1541C46EBE7D1
:106930001A550134A74205D9202CF9D1CDE90276A8
:106940000194C1E6202CF9D0099A3AB12D2104F125
:1069500058026A4402F8201C0134EFE7710704D59D
:1069600004F158022B216A44F4E73207E6D504F11A
:10697000580220216A44EDE70000000065CDCD41BA
:106980000000000065CDCDC1765104087A5104089D
:10699000FFFFEF7F6D510408725104088051040815
:1069A0000000E03F0000000070B58EB02C220021F6
:1069B00003A833F0F6FC64234FF002320893CDE9CC
:1069C00005230B2301218DF83430534B8DF8101023
:1069D0001B88D80700F19880084634F0C1FE0A22CF
:1069E0004E4B4F491A704FF428734E48ADF8123091
:1069F00016F0ECFC4C4C206020B94FF416714B485B
:106A000033F09EFE0521206830F05DFF20B14FF489
:106A10001A71464833F094FE206800F04BFA444B5C
:106A20002068196830F0BFFA0C2535F0CDFA6843BC
:106A3000099035F0C9FA68430DEB0501079020680D
:106A400010F08AFD20B140F27D21384833F078FE05
:106A5000256819F003FB00220146284630F016FB9A
:106A600020B140F27F21314833F06AFE40F20353F7
:106A7000304D314E2B80052396F90000AB707F28F6
:106A800001D117F03BF83378EB7035F09DFA00EB4D
:106A900080008000A88035F097FA0023C0004FF0F6
:106AA000FF31E880AB604FF0FF3019A3D3E900233A
:106AB00034F0A8FF2149206830F0A2FA206802A92A
:106AC00030F0B5FF20B14FF42E71184833F038FE86
:106AD000042220680DEB020130F03AFA042804D0B9
:106AE00040F2BB21114833F02BFE01A901202FF009
:106AF00013F807F0C3FA012017F09CFC2BF0B0F953
:106B000017F0C2FC16F092FF0EB070BDAFF300801C
:106B10000A0020FF42030000083A0020B33C002096
:106B200089B70308484100209C3000209491040854
:106B3000F43F0020903000208B440020FDB7030874
:106B40000348044B834202D0034B03B118477047FC
:106B5000C0440020C044002000000000064B07494C
:106B6000C91A891048BF0131491003D0044B0BB139
:106B700001481847704700BFC0440020C0440020AF
:106B80000000000010B5064C237843B9FFF7D8FF8A
:106B9000044B13B10448AFF300800123237010BDF0
:106BA000EE3A0020000000005095040808B5054B9F
:106BB0001BB105490548AFF30080BDE80840FFF769
:106BC000CDBF00BF00000000501300205095040806
:106BD000A3F5803A704700BF174B002B08BF134B3B
:106BE0009D46FFF7F5FF00218B460F461348144AD8
:106BF000121A33F0D6FB0E4B002B00D098470D4BEA
:106C0000002B00D098470020002104000D000D4803
:106C1000002802D00C48AFF300802AF061F9200070
:106C200029002AF083F929F099FF00BF000008002D
:106C300000000000000000000810002008100020E4
:106C40000C3D0020000000000000000007B5064BCE
:106C50000190009301210420044B054A0AF05CFDD9
:106C600003B05DF804FB00BF6A4B0408C8CD0308FD
:106C7000CDCD03081FB5094B094A1868094B01A976
:106C80001860094B1360094A0192094A1268CDE95C
:106C900002232BF0CBFE05B05DF804FB703F002013
:106CA000282100202C210020643F002079050408C1
:106CB00024160020014B18682BF0CCBE703F00203A
:106CC00038B506F06BFB0446064D2B68D3F8B002CE
:106CD00006F058FB28682BF0D0FE2046BDE838406F
:106CE00006F050BB703F002007B501A803F018FF65
:106CF0009DF80530012B14D19DF804308BB94FF469
:106D00008012134B1349586E03F580535A664B6B30
:106D100023F0E05343F040634B63C3025CBF0E4B70
:106D20005A6606F0D9FA2CF010FA06F093F92CF016
:106D300005FA2CF00CFA07F0FDF900F083FA06F0E2
:106D4000C9FD02F0BDFA03B05DF804EB07F088BCA2
:106D5000008000500040005A00A00050064B1B6805
:106D60001A7A022A04D812B11B68044A13607047C9
:106D7000032AF9D0704700BF743F0020241600207A
:106D800030B51B4D95B00DAC0FCD0FC495E8070085
:106D9000292384E80700174A0021CDE902230924AA
:106DA00008230E220DF12600CDE9041106918DF87D
:106DB00011308DF8134033F0F4FA4FF480210E4B6C
:106DC0000DAACDE907130A238DF825300B4B07A92F
:106DD0000A9320230B9301238DF83130084B094887
:106DE000009302AB8DF8244006F0A6FC15B030BD30
:106DF000A005040800C0055024C00550EF3A00204B
:106E00002816002094160020831E012B10B50C4676
:106E100019D801290DD8184B04221B6C0821002019
:106E2000C3F3002303F002FD24B1144B1868036878
:106E3000F3B910BD114B18680368002BF9D0BDE8F9
:106E4000104006F037BC8B1E012B0CD80128F0D85F
:106E5000BDE810400022084B08211B6C1046C3F30C
:106E6000002303F0E3BC0029E4D00129DDD0E0E7F2
:106E7000BDE810402CF0ADBB00C00350883F00209F
:106E800008B50449044807F0CDFBBDE80840FFF70A
:106E900077BF00BF8C3F0020B816002001482CF0BF
:106EA00012BC00BF94160020014B1A6A18681047E4
:106EB0009416002008B510F07DFB0022014B1A70DB
:106EC00008BD00BF0F3B002001482AF0A3B900BF56
:106ED000BC0504080348044A0449121A92102AF017
:106EE000D9B800BF706100081C630008AC3D0020E9
:106EF00008B500F02FF8FFF7EDFF124B12498B4257
:106F000012D30020114B12498B4218D3FFF764FEB5
:106F1000186850F82240586840F8224001329868BA
:106F20008242F5D30C33EAE70022F8E71C6844F804
:106F3000220001325C68A242F8D30833E4E7002261
:106F4000F8E700BF589504086495040864950408A0
:106F5000649504084FF48041124B134A70B59A604F
:106F6000D3F88820114D42F47002C3F88820104AEB
:106F700005F5005491664FF0FF3222660D4A6266B5
:106F80000222C3F8D020BFF34F8FBFF36F8F4FF4AF
:106F90004036002006F0E8F90020E66006F0C8F967
:106FA0002E6170BD00ED00E000600008008000442C
:106FB00000900050F7FF3700014B1860704700BF8A
:106FC000B43F0020054B1860054B1B6F03F007030F
:106FD000032B01D133F04ABA704700BFBC3F0020F9
:106FE000008000504FF000639B6A03F17842B2F5D5
:106FF000C04F03D21968064A914203D000230370A0
:1070000083607047012202709A689B694260F7E7CB
:1070100007B0CD5E73B54F4B04461A781AB1022201
:107020001A7002B070BDCDE900220028F9D0012607
:107030001E7035F00AFC484D484B186013F068F993
:107040002B785BB902F03CF940B945480823454A22
:107050004549006801F01AFF00B92E70434B5A6E83
:1070600062619B6E424AA3614FF480439366414B39
:107070005968E16140499960196E2160596E6160FB
:10708000D3F87011A160196CE160596C21613B4922
:10709000086C1864496C5964012151661B6E9C048C
:1070A00041D5374AD368D807FCD4364B1A68531CED
:1070B0003ED04FF480139340334A13664FF400736D
:1070C0000426314C266623662AF00DF801300DD0D7
:1070D0002AF009F840F20113984207D04FF4005308
:1070E00023664FF480432366C4F870610823264C5E
:1070F000684623664FF4805323664FF0006323668F
:107100004FF4002301A9636629F0D1FF009B236699
:10711000019B63662B78002B83D0124B1A68226682
:107120005B6863667DE7194AD368D907FCD4BCE77E
:10713000174B1B78002BC1D14FF400720C4B5A66D1
:1071400003F5A6235B68002BB8D14FF480120E4BD9
:107150001A66B3E7113B0020123B0020E016002026
:10716000E43F0020E4160020007108000080005079
:10717000009000500080004455CEAC0000C0005488
:1071800000000440C03F0020009000440000045074
:10719000103B002070B5224D04462E78012E02D0FF
:1071A00001232B7070BD0028FCD029F09CFF01301A
:1071B0000BD029F098FF40F20113984205D0194BEB
:1071C000194A5E66D368DE07FCD42268174B1A663C
:1071D00062685A66A268C3F87021E2681A6422697C
:1071E0005A64E269D00744BF00229A60104B1A68C3
:1071F000013207D10F4A127822B90F494968C907ED
:1072000048BF1A6062690D4B5A66A2699A6613F00C
:1072100087F80B4B186835F013FB0023C1E700BF5C
:10722000113B00200090004000000440008000441A
:10723000C03F0020103B002000C0055000800050DF
:10724000E0160020F8B54FF00066B36A03F178420B
:10725000B2F5C04F26D21A68144B9A4222D1144D6F
:107260002C7814F0FD0402D000242046F8BD4FF421
:1072700080371048FFF7CEFE204606F075F80E4B1B
:107280002046DF6006F054F80C4B1F61B36ADB69DF
:10729000984704460748FFF77DFF002CE5D10123FE
:1072A0002B70E1E74FF48174DFE700BF07B0CD5EDC
:1072B000103B0020C016002000A0004400900044B5
:1072C00013B5204B1B7803B9FEE700231E4CCDE914
:1072D00000336A4608231D49206801F0D7FDF8B93C
:1072E0001B4AD2F84031D2F840211F2B4FF0010346
:1072F00011D9203A9340019A1A43019208236A4611
:107300001249206801F07EFD124B134A1A602BF0DF
:1073100022FF02B010BD9340009A1A430092EDE79D
:107320002D28F1D10A4AD2F84031D2F840211F2B42
:107330004FF0010385BF203A93409340019398BFDB
:107340000093DBE7113B0020E43F002000710800C0
:1073500000800044000000200B020FF0BFF34F8FAD
:107360000549064BCA6802F4E0621343CB60BFF3E1
:107370004F8F00BFFDE700BF00ED00E00400FA05FD
:1073800070B5D0B1C9B10E4E431E013913F8014F8B
:107390002046325D02F00302012A11F8012F08BFD6
:1073A00004F12000B55C05F00305012D08BF203273
:1073B000801A01D1002CE9D170BD0120FCE700BF8B
:1073C0004D9404082DE9F04104460C254FF00108C6
:1073D000124E0CB314F001000BD0002024F0010475
:1073E00005FB00625768002FF3D09168C0B2B84720
:1073F000EFE72246013020284FEA520201D0D3079E
:10740000F8D508FA00F20F2824EA0204E8D9103867
:1074100005FB0062B432E5E7BDE8F081EC16002020
:1074200008B50C482BF08CFE192005F08FFF28B111
:10743000192005F099FF192005F07AFF1A2005F0B0
:1074400085FF28B11A2005F08FFF1A2005F070FF84
:10745000002008BD881004082DE9F0410E46904632
:10746000054618B30F2923D80378E3B1012B03D0C5
:10747000022B18D0032B1BD13F236A78D340DB07A4
:1074800016D50D4BD3F81043A4B935F0DEF90746F5
:1074900042462846314603F027FC384635F0D0F9FD
:1074A0002046BDE8F08140F2FF33E6E72224F7E70B
:1074B0002124F5E70224F3E700C0035010B5044689
:1074C000E8B10378C3B1012B03D0022B14D0032BF6
:1074D00017D13F236278D340DB0712D535F0B5F9D9
:1074E0000122637821789A4030235943064B5A5041
:1074F00035F0A6F9002010BD40F2FF33EAE7222064
:10750000F9E72120F7E700BF40D0035010B504464B
:10751000E8B10378C3B1012B03D0022B14D0032BA5
:1075200017D13F236278D340DB0712D535F08DF9B0
:107530000122637821789A4030235943064B5A50F0
:1075400035F07EF9002010BD40F2FF33EAE722203B
:10755000F9E72120F7E700BF40E0035010B50446EB
:10756000E8B10378C3B1012B03D0022B14D0032B55
:1075700017D13F236278D340DB0712D535F065F988
:107580000122637821789A4030235943064B5A50A0
:1075900035F056F9002010BD40F2FF33EAE7222013
:1075A000F9E72120F7E700BF40F0035008B503F0EA
:1075B00091FB054B00F0553020F05020C3F820041B
:1075C000BDE80840FFF7FEBE00E0035008B503F039
:1075D00081FB054B00F0AA3020F0A020C3F8200466
:1075E000BDE80840FFF7EEBE00E0035013B50446C7
:1075F0000A482BF0A5FDA2780421B2FA82F2237882
:1076000052098DF8043063780DEB01008DF80530D8
:10761000FFF722FF002002B010BD00BF8810040851
:107620002DE9F04F9A46564B85B01B7806460F461B
:107630001546DDF83C909DF844B0DDF85080002BF5
:1076400000F09780072A00F296800E9B002B00F036
:107650009280B9F1000F00F08E80129BB3F5006F9D
:1076600000F38980012803D1109B002B00F0838058
:10767000444B03EB05131B7B002B7ED0424C1022A6
:107680000021684632F08DFE04EB45141022A7BBA2
:107690003946204632F085FE43F210036380BBF189
:1076A000000F03D1E37843F00303E370364A0E9BE7
:1076B00002EB451CCCE90193129B6901581E9DF811
:1076C0004C30C0F30A0003F003039B0643EA001E9C
:1076D00053582E48012E00EA03004EEA0003CDF86D
:1076E00000A0535017D0B8F1000F2ED19CF80230F3
:1076F00068F304138CF8023027E00021204632F0B2
:1077000050FE4FF444736380BBF1000FCED1E37899
:1077100043F03003C9E713230CF1100ECCF80C3002
:107720009CE80F008EE80F006FF00301DCF81C20CE
:10773000109B61F39F02012FCCF81C20CCF8143071
:1077400003D1CCF81890CCF8043000270D4A290159
:1077500002EB051342F80180159A28465A606946E3
:1077600022469F605E7303F0F5F8384605B0BDE829
:10777000F08F0748FAE70748F8E70748F6E700BF41
:10778000133B002054190020541800200F80FFF3F1
:10779000028000F0018000F0078000F038B5124B45
:1077A00005461B78DBB1E0B135F04FF80F4A0023F6
:1077B0001146147B54B92B6001251A0101EB031308
:1077C0001D738C5035F03CF8204638BD0133082B32
:1077D00002F11002EDD135F033F80548F5E7054820
:1077E000F3E70548F1E700BF133B002054190020E0
:1077F000048000F0028000F0018000F038B535F020
:1078000024F8002305460B4A147B6CB90133082B7E
:1078100002F11002F8D103F049F8074B28461C701A
:1078200035F00EF8204603E0284635F009F8034805
:1078300038BD00BF54190020133B0020058000F024
:107840000D4B10B51B78044693B1072812D834F0BD
:10785000FCFF0A4B03EB04131A7B2AB100241C73B0
:1078600034F0EEFF204610BD34F0EAFF0448FAE79A
:107870000448F8E70448F6E7133B002054190020B9
:10788000068000F0028000F0018000F0154B13B577
:107890001868002301908DF8043034F0D6FF124BA5
:1078A0001C7824B134F0CCFF104802B010BD012286
:1078B0001A7034F0C5FF0E4B01A81C731C7783F8B7
:1078C0002C4083F83C4083F84C4083F85C4083F8BC
:1078D0006C4083F87C4008238DF8073003F00AF8E9
:1078E0002046E2E7A4070408133B0020038000F0D1
:1078F00054190020F8B50D4D2D7885B1072810DCFE
:107900000B4D060105EB0014277B67B1AB51002539
:10791000069BA560636003F01DF82846F8BD054886
:10792000FCE70548FAE70548F8E700BF133B0020ED
:1079300054190020028000F0018000F0078000F060
:107940000A4A08B512785AB107280BD8084A02EB40
:1079500000131B7B43B1002102F0BEFF002008BDD5
:107960000448FCE70448FAE70448F8E7133B002022
:1079700054190020028000F0018000F0078000F020
:107980000A4A08B512785AB107280BD8084A02EB00
:1079900000131B7B43B1012102F09EFF002008BDB4
:1079A0000448FCE70448FAE70448F8E7133B0020E2
:1079B00054190020028000F0018000F0078000F0E0
:1079C000184B2DE9F0411F6D5B6D1F4000D5FEE7A0
:1079D00001260025144CDFF85880374218D0236860
:1079E000C8F85060A3B1A168284601316268A1605F
:1079F0009847637B012B0BD150B90C4B03EB45131C
:107A00001A7B60F341021A731A7F60F341021A77FE
:107A10000135082D4FEA460604F11004DDD1BDE81A
:107A2000F08100BF000004505419002054180020B9
:107A3000002004502DE9F04F144606460D469B46A3
:107A4000C36B87B001225B6902A960689847F36B3A
:107A500001225B6903A92846984702A82AF02EF85C
:107A6000074648B10023A37563754FF0FF33A36049
:107A7000002007B0BDE8F08F03A82AF02CF80123FE
:107A8000A375237E04EBC303DD611F846368AB42EF
:107A90000ED1206003A82AF040F84FF0FF33207584
:107AA000A360237D043B022B26D80023A375DFE7C8
:107AB00023681A1A53425341A37503A82AF02DF8DC
:107AC000237D834218BFA77503A82AF008F807464C
:107AD00002A82AF004F8874218BF002303A818BFA1
:107AE000A3752AF004F8074602A82AF000F8874296
:107AF0001CBF0023A375D4E703A829F0F0FF80B1D1
:107B0000F36B022228465B6904A9984704A829F070
:107B1000F5FF0346207D032839D8DFE800F0383828
:107B2000040903A8F3E7CC22237E04EBC3031A84E1
:107B300001F03EFC109B187003A8277E29F0C3FFBC
:107B400004EBC70787F82200237E03A804EBC303D6
:107B5000B3F8209093F8227029F0C1FF804603A863
:107B600029F0C5FF8246B8F1000F15D0F36B022251
:107B700028465B6904A9984704A829F084FF60752A
:107B8000637D6BB90023A3754FF0000838E0227EB7
:107B900004EBC2021384CBE703A829F05FFFEEE7F2
:107BA00094F81680B8F1000FEED0B9F1000F09D1AA
:107BB000DFB10123627EE375002A44D19F4218D1D0
:107BC000677614E0736C05EB0A02594285EA0200FD
:107BD00008421CBF0021A175591E0A409B1A9945F5
:107BE000D0D8A37D002BE3D1CEE7E37D43B94FF09E
:107BF00000084B4652462946304629F0A1FCA060B9
:107C0000A27D12B123694B4423611449237E097874
:107C100099421ED901332376BBF1000F1BD0D2B19C
:107C2000E37DC3B1B8F1000F15D1032F13D0A168C4
:107C30004B1C10D0109B2246009330460123FFF7C7
:107C4000F9FEA07507E0012FDAD0032F08BFA37655
:107C5000CDE70023A375A07D0BE700BFC80704088C
:107C60002DE9F04F0E46984600238BB004464FF0A6
:107C7000FF31104617468DF8133001F083FBB6F53F
:107C8000801F3BD3B21C53D1E56A6B1C57D12046F1
:107C9000616A29F09BFB0546B31C18BF0123DFF87E
:107CA00010910193636A626C0293236805A902FB39
:107CB000053AE36B05225B695046984705A829F011
:107CC00098FF29F0BBFF504629F0C3FF4FF0000B8F
:107CD000824601464B1C05D0636C81EA0A025B4276
:107CE000134232D02946204629F070FB029BAB425A
:107CF0004DD0BBF1000F4DD10546D3E7314605AA63
:107D000004F1080029F02CFE0146481C10D038462A
:107D100001F038FB0122394620460DF1130329F00A
:107D200061FC28B19DF8133088F80030002003E092
:107D3000237C002BA8D12D200BB0BDE8F08F236849
:107D4000ED1A636CB5FBF3F5A6E7484601F01AFBA4
:107D50000DF1130349462046019A29F043FC0346DE
:107D600090B1B21C03D0D9F80020B2420CD19DF8DA
:107D7000132003930D4B88F8002049461A683846B3
:107D800032F033FB039B9B46D9F80810A2E7BBF106
:107D9000000FD0D0B6F5801FC8D2314698F8003019
:107DA0007A6804F1080001F01BFABFE7C407040871
:107DB000482000202DE9F3410446174698460E4618
:107DC000194D816AE36A8B422AD04B1C18E0284681
:107DD00001F0D8FA0122294620460DF1070329F0C7
:107DE00001FC30B14346294620469DF80720B8479C
:107DF000B0B1A9684A1C05D0012E0AD0E36A9942A5
:107E0000E5D10DE06968204629F06DFB012E0146A1
:107E1000D8D16B6881EA0302636C5B421A42D1D00D
:107E200002B0BDE8F08100BF1C2000202DE9F04128
:107E3000036B9046826B07689A4288BF8363426CEB
:107E4000436A90B002FB0377C36B0E46052201A97B
:107E50005B6904463846984701A829F0CAFE012804
:107E60000146307057D0656CE26B2368606AD2F8C7
:107E700014C005FB0030052206A9E04706A829F03A
:107E8000B8FE01284FF0000523D0D4E90A320121C1
:107E90009342CDE90B458DF834800E958DF83C105A
:107EA0002AD11946204629F01EFB236B626C14333D
:107EB0009B1AE06223630C9B53B99DF83C303BB1A5
:107EC000626A616C2368E06B01FB023129F049FEB4
:107ED0000C9DE36B05225B6901A93846984701A810
:107EE00029F087FE30702846236BA26B9A4288BF28
:107EF000A36310B0BDE8F081237C33B91C490BAA01
:107F000004F1080001F0BAF9D5E72046194A0BAB95
:107F1000FFF750FFCFE7237C23BB2246164904F12D
:107F2000080001F0ABF9616A204629F070FA616A35
:107F3000421C204629F039FA054620B9236B626CB1
:107F40001344143B23632046A16A29F0CCFA23682A
:107F5000A062C01A636CB0FBF3F06062204629F0A7
:107F600005FBB6E700232046044AFFF723FFDAE7C4
:107F7000118900088D8800086D160308091603088A
:107F800073B50D46D11E4A421C461B7E4A419A4299
:107F900026D129682368994222D3636899421FD861
:107FA000114E0DF107033246FFF75AFEC0B9726851
:107FB0006B689A4214D19DF80730DA1E5342534140
:107FC000227E93420CD1636901336361D4E90323B8
:107FD000934205D22968A26842F823100133236135
:107FE000012002B070BD00BF742000202DE9F04FC9
:107FF0009A468BB09DF85030DFF850B10293DBF811
:108000001030804653450D461646C0F09980D14643
:10801000DBF804300193B9F1000F00F08D80D8F83F
:108020003C3001225B6907A90198984707A829F00D
:1080300052FDDBF80030984240F0858007A829F017
:1080400056FD0428074614D107A829F057FD019BC7
:10805000029A04463B44002A3FD1864212D9144674
:10806000361A4046019929F03EFAA9EB040901901D
:10807000D1E7D8F83C3002225B69019808A99847FB
:1080800008A8E2E7841B544528BF5446032C03EBA1
:108090000607AAEB040A4FEA94021CD9D8F83C3030
:1080A000294638465B69984724F0030304F0030629
:1080B0001F441D44002ED4D0D8F83C3001225B6907
:1080C00008A9384698473246284608A9354432F070
:1080D0008CF90026C5E72646ECE7074600F00302C8
:1080E000039203442A1804920593049BDD1B059B0D
:1080F000D81B039B9F420FD1002FB2D0D8F83C3041
:10810000012208A95B6998473A46284608A932F037
:108110001EF978B93D44A4E7D8F83C30012208A9FB
:108120005B6998470422284608A932F010F908B97B
:10813000043FDAE74FF0360948460BB0BDE8F08F50
:108140004FF06309F8E74FF06F09F5E7A020002032
:108150002DE9F0410F4616469846044688B060B3B4
:1081600090F83450FDB1012129F0F5F800210E9B63
:10817000CDE90511CDE902379DF83C30CDF80480FA
:108180008DF81C30237C04968BB90D4901AA04F1AB
:10819000080001F073F8DDE90553E06B002E08BF1D
:1081A0001D4629F071FA284608B0BDE8F081204646
:1081B000044A01ABFFF7FEFDEDE70546F3E700BF1C
:1081C00037160308817F00087FB590F842600446A7
:1081D00001920DF10B030A463046124929F05CFA70
:1081E000012E0546E36B19D132465B6903A9984716
:1081F0009DF80B10039B019A59B19BB243EA0243CD
:10820000012228460393E36B03A99B69984704B0B6
:1082100070BD1B0C1B0492B21343F1E701229B6952
:1082200001A9F3E7A02000202DE9F04F99B00F46F7
:1082300009920A69416C0E931439D31DB3FBF1F313
:10824000013302EBC302036B04469342C0F00D827C
:108250000023DFF820940D93E36A484619460793FC
:1082600001F090F8D7E9033604930E9B022B4ED110
:10827000CC2E40F08A81099B002B42D03946204603
:1082800029F060FA656C079A6B1E13401490ED1A82
:10829000E36B01225B6916A97868984716A829F054
:1082A0001EFC00280CBF04230823782E06933DD91A
:1082B000012300254FF0080A05933B6805990E98A5
:1082C000C9F80030C9F8106029F02BFC4FEA9A0376
:1082D00010930023DDF81CB089F814000B930F9362
:1082E00008930C93616C4A1E0BEA02028B1A002E53
:1082F00038D05544AB4240D8236B5B1A13442363F8
:10830000ABE0049B1B68149308230693D0E7656CCD
:10831000079A6B1E1340782EA5EB030516D8FB7D3C
:108320007BB9099B002BB3D104230693331DAB42C9
:1083300010D9A6B1082DBBD804250023AA46059361
:10834000BBE7099B002BA3D10823EEE7099B002B79
:108350009ED1D9E7002505954FF0040AADE7042525
:108360000596F9E75345C7D3B0460BEB0A030393D1
:10837000089B002B18BF032313E0A3EB0A039E42C4
:10838000B0460BEB0A0228BF98469E420392EFD9F3
:108390000123D9F8102089F81730964271D1C9F815
:1083A00004B0089399F81730002B6CD099F8182076
:1083B0000899D31C09EBC3030132C3F804B0A3F836
:1083C0000880997289F81820B8F1000F14D00E9B1C
:1083D000022B5BD10B9B7BB90F9B4344032B0BD927
:1083E000E36B01229B69039814A99847054600286E
:1083F00040F03D8101230B93089B16A80193059B38
:10840000009399F814204346396800F071FFE36B3C
:1084100058469B69109A16A99847051E0D9B18BFD0
:108420005B4652460D9359464346204629F088F84C
:10843000236B08F10302A3EB0A0322F003029B1A49
:10844000C9F808002363002D40F011810F9BDDF86F
:108450000CB04344A6EB08060F935946204629F07A
:1084600042F800258346002E7FF43CAF814A3968EC
:10847000936804F10800E36252680E9B00F0B0FEBE
:10848000DEE002238DE7C9F804B09DE7099B002BCD
:1084900030D1049BB8F1030F43440A9327D9DDE997
:1084A0000301E36B4FEA98029B6998470546002851
:1084B00065D118F003025FD0049B28F003052B441C
:1084C0000493039B1D444FF0FF33049915A81593A3
:1084D00031F08BFFE36B28469B69012215A9984771
:1084E00005460A9B0493002D86D0039B99E74246DC
:1084F000039DE8E7039B0A9307F120031193FB7D9B
:1085000078689BB100233D7E0C9AD9B28D4211D977
:10851000119903F1010C31F83310914226D90699D3
:1085200007EBC303D8690A44104403E00C9B069A86
:1085300013441844E36B01225B6915A99847159B06
:10854000012213930C9B0A9804330C93E36B13A939
:108550009B699847039B0A9A43449B1A042B054640
:1085600007D978B9134604330A93C8E76346521A09
:10857000CBE70A9B0393B6E70A9B04933CE70A9B6D
:108580000493B2E70A9B0393AFE7702604F1080354
:1085900003932368079A606CA2EB030ABAFBF0FA14
:1085A00000FB0A3029F055FBE16A8046204628F09E
:1085B0009AFFA26A82424AD0626CD9F80830511EF2
:1085C0000B40216B2568891A0B4423630D9BE062E5
:1085D0005D1BB5FBF2F5AA4536D1079BB3EB080A44
:1085E00012D0E36B4FEA9A0241469B699847834653
:1085F000E36A079A5344E362236B03989B1A43444C
:10860000236329F07EF9DA462368616CE06B01FB95
:10861000053129F093FA204628F0A8FE204628F0DC
:10862000A5FF2063BAF1000F11D03A69616CD31D28
:108630001439B3FBF1F3013302EBC3029042A8D229
:10864000304619B0BDE8F08F4FF0000ADCE73A6918
:10865000616CD31D1439B3FBF1F3013302EBC30298
:10866000236B9342BFF4F8ADEAE71C26E8E72E46F9
:108670008CE700BF482000202DE9F3471E464369E0
:108680000446B342884617469DF828903DD30025FE
:108690008DF80750204628F035FED4F830A08245EA
:1086A0000AD2236AB5EB430F06D2002220460DF111
:1086B0000701FFF7BBFB30B39DF80730012B05D155
:1086C000002220460DF10701FFF7B0FBB9F1030FBF
:1086D00006D03146204628F000FE256B854218D38F
:1086E0000D4D4FF0FF31284600F04CFE4B46002266
:1086F00029462046C5E90376C5F8008002B0BDE8EA
:10870000F047FFF791BD0135C4E7622002B0BDE834
:10871000F0871C20FAE700BF742000202DE9F04705
:1087200090F8426086B0012E05460391A1EB020746
:1087300015D1B7F5807F28BF03264FF064080024C9
:108740004FF6FF79DFF840A195F84230012B14BFB6
:10875000322364239C420AD35FFA88F415E0B7F50C
:10876000803F34BF012602264FF03208E7E705AB11
:1087700022465146284628F0C3FF95F84230012B87
:10878000059B34D14B452DD1E4B295F84230012BF5
:108790000CBF64223222121BB24217D3012E39D1F0
:1087A0000022012B05978DF8132027D1082205A957
:1087B0000DF1130029F069FA9DF81330059A42EA89
:1087C000032221462846FFF7FFFC40B102232E4931
:1087D00000932846CC23096803AAFFF74DFF06B093
:1087E000BDE8F087DBB203B902340134ACE7591CB1
:1087F000CAD09BB2002BF8D10134F6E7102205A9AC
:108800000DF1130029F041FA9DF81330059A42EA60
:108810000342D6E7039A012B059223D10823202295
:1088200005A90DF113008DF8133029F02EFA9DF8EB
:108830001320120221462846FFF7C6FC95F8423065
:10884000611C012BC9B21AD10028BFD12846BDF83E
:108850001420FFF7B9FC0028B8D10234BDF8162067
:10886000E1B2AFE71023202205A90DF113008DF826
:10887000133029F00AFA9DF813201204DAE70028D1
:10888000A4D1059A9EE700BFA0200020032A2DE96D
:10889000F34106460D4617461C4606D1237A012BA6
:1088A00023D0012002B0BDE8F081DFF860800968C4
:1088B00042460DF10703FFF7D3F960600028EDD1C0
:1088C0009DF80720237A032AE8D0D8F804106A68B4
:1088D0009142E3D1012B2969D4F80CC007D1726908
:1088E0000CEB0103934202D92074207CDAE70831B3
:1088F0006144E1603B46012229463046FFF794FC83
:1089000060600028CAD00020CCE700BF742000209F
:108910002DE9F341089C032A1746266806D1237ADD
:10892000012B24D0012002B0BDE8F081DFF8908057
:10893000304642460DF10703FFF792F960600028C8
:10894000EDD12568D8F80400A96AD5F844C048409C
:10895000CCF100031840227AE1D1012A09D1E26862
:10896000D8F8103013447269934202D92074207CE5
:10897000D9E72868EB6A1B1A081AB3FBFCF3B0FBB3
:10898000FCF083420BD1706CF36A421E1340326BD1
:10899000121A13442846336328F0A5FDE862D8F87C
:1089A0001020E36808321344E36001223B46044987
:1089B0002068FFF739FC60600028B0D00020B2E7E3
:1089C000742000202DE9F04F4FF0FF334FF6FF7277
:1089D0000025044600F10806C0E909238BB0C362F4
:1089E0000562056330460F4628F08BFF204628F0CD
:1089F000BDFC20BB2046394628F038FD204628F033
:108A0000B5FC20BB5E200BB0BDE8F08FE26B2368A5
:108A1000606CD2F814C000FB0530052205A9E047C0
:108A200005A829F0E6F8012828D12946204628F093
:108A3000EEFC421C2946204628F0B7FC0135E369CC
:108A40009D42E3D3204628F091FC0028D2D0002597
:108A50004FF0FF394FF6FF73CA46A846C4E90853E2
:108A6000E369984514D3A5EB0905012D36D84FF6D7
:108A7000FF72636A934246D16720C4E729F0E3F8A6
:108A80000028DBD02946204628F0C1FC0246D1E769
:108A90002368E26B606C576900FB0830052205A96A
:108AA000B84705A829F0A5F8834605A829F078F865
:108AB0000746584629F0C2F868B1574538BFC4F890
:108AC0002480B94528BFB946BD4238BF3D46BA46A5
:108AD000236A0133236208F10108C1E74FF6FF73EF
:108AE00000256362E3699D42C1D2676C2068E36B35
:108AF000052207FB05005B6905A9984705A829F031
:108B00004FF80135EEE7E26B676C2068694607FBBA
:108B1000030055690522A847684629F041F8626AB2
:108B20002368606C504D00FB023029F092F84FF042
:108B3000FF33A062E3622A466FF00101204605ABD5
:108B4000FFF78EF800284FD1AD6829462046E56230
:108B500028F0E8FB206320B92046E16A28F0C3FC36
:108B6000E0622946204628F0BEFC0546A36A9D42E5
:108B70003CD16569626CE91C143AB1FBF2F14FF02B
:108B8000000805EBC1050335B5FBF2F5C14602351A
:108B9000E36999453CD3A8455AD22046616A28F03A
:108BA00015FC0027064604F1400AB84512D8626C4D
:108BB0002368694602FB0639E36B05225B69484678
:108BC0009847684628F0ECFF534602464946E06B5A
:108BD00029F041F83146204628F0F8FB0137AF4232
:108BE0000646E2D364200EE7A56AAEE72946204692
:108BF00028F098FB236B294603440746236320464D
:108C000028F071FC0546002FB0D1C4E90B07ADE791
:108C1000636C2768052203FB0977E36B05A95B6991
:108C20003846984705A828F0E4FF29F007F860B116
:108C3000384629F00EF80146204628F073FB636C95
:108C4000143B984208BF08F1010809F101099FE7A8
:108C5000304628F056FE002320461946034AFFF707
:108C6000A9F80020CFE600BF74200020D315030828
:108C70000023624A2DE9F04117680E46044613604E
:108C800018B921252846BDE8F08190F834500DB37D
:108C900009680268914240F0A98071684268914277
:108CA00040F0A480B1688268914240F09F80F168F2
:108CB000C268914240F09A8031694269914240F025
:108CC0009580B169C26B914240F0908072691D46F7
:108CD0008261D7E750222946D0F8388031F061FB15
:108CE000D6E90212336804F1080023607368C4F8FF
:108CF00038806360336963617369A36128F013FE90
:108D0000B36904F14000E3639B68984794F84320FB
:108D100020B1E561002AB4D05B25B3E7656C002D76
:108D2000F7D06668B6FBF5F3E361002AA9D0B54237
:108D3000F2D82268B2FBF5F105FB1122002A57D1C7
:108D400005FB1363002B53D1204628F0DBFAA369FF
:108D5000043303449E424DD340F634726369CC3BE6
:108D6000934249D8B5F5805FD6D30321204628F039
:108D7000F2FAD4E90001E36B1B6898470546E36B00
:108D80000220DB6898471DB1002384F834301DE0D1
:108D900039462046FFF716FE6428054604D13946B9
:108DA0002046FFF70FFE0546636C143B002DEBD108
:108DB000226A204602FB03F628F0A4FAA3690433D2
:108DC00003449E4206D284F834505A25E06B28F0C2
:108DD0005BFC57E70123D4E90001094A84F83430E9
:108DE00013680133136028F038FEEFE75D2549E78B
:108DF000592547E75A2545E75F2543E7D81900205D
:108E0000D41900202DE9FF410F4690461E46054625
:108E100098B390F8343093B3B1F5801F31D21A4C27
:108E2000022128F098FA2246394628460DF10F0310
:108E3000FEF716FF024678B10123424600933946F9
:108E400033462846FFF718FC0446E86B28F01CFC64
:108E5000204604B0BDE8F0819DF80F30012BEBD126
:108E60002169B142E8D10093414633462846FFF7D5
:108E7000BDF804460028DFD1E7E72124E8E7112404
:108E8000E6E72924E4E700BFA02000202DE9FF4108
:108E90000C4616461F46054680B390F834307BB327
:108EA000B1F5801F2ED2DFF86080012128F053FA3F
:108EB0002146424628460DF10F03FEF7D1FE044637
:108EC00070B99DF80F30012B11D1D8F81030BB428A
:108ED00012D10246009031462846FFF787F8044633
:108EE000E86B28F0D1FB204604B0BDE8F081022BEE
:108EF00014BF2D246024F3E76324F1E72124F2E773
:108F00001124F0E72924EEE7A02000202DE9F0430A
:108F100085B00C4617461E460546DDF8308098B3EE
:108F200090F8343093B3B1F5801F31D2DFF86490FC
:108F3000012128F010FA21464A4628460DF10F0378
:108F4000FEF78EFE044688B99DF80F30012B14D130
:108F5000D9F8102006EB08039A4213D30090434639
:108F6000324639462846FFF741F80446E86B28F0B8
:108F70008BFB204605B0BDE8F083022B14BF2D24E7
:108F80006024F3E76324F1E72124F2E71124F0E7FA
:108F90002924EEE7A020002070B586B00E460546D5
:108FA0000392A0B390F834309BB3B1F5801F32D256
:108FB000022128F0D0F931462846184A0DF117034E
:108FC000FEF74EFE044618B99DF81730032B0ED15C
:108FD0000223314600932846CC2303AAFFF74CFB1B
:108FE0000446E86B28F050FB204606B070BD022B0B
:108FF0000BD10A49284628F0A5FB03990246814275
:10900000EFD02846FFF78AFBEAE76124E9E721244D
:10901000EAE71124E8E72924E6E700BFA0200020C2
:1090200073B50C461646054630B390F834302BB372
:10903000B1F5801F24D2012128F08DF92146284660
:10904000104A0DF10703FEF70BFE044680B99DF8A8
:109050000730032B0CD0022B0CD12846094928F0ED
:1090600071FB3060E86B28F00FFB204602B070BD4A
:109070002D24F7E76124F5E72124F6E71124F4E72E
:109080002924F2E7A0200020F7B50C461646054635
:1090900068B390F8343063B3B1F5801F2BD202214E
:1090A00028F059F921462846144A0DF10703FEF726
:1090B000D7FDC0B99DF80730032B14D0022B14D173
:1090C0000E49284628F03EFB471C024639462846F2
:1090D000FFF724FB044606B13760E86B28F0D4FAAA
:1090E000204603B0F0BD2D24F7E76124F5E72124E5
:1090F000F6E71124F4E72924F2E700BFA0200020BE
:109100002DE9F3411F4600230C46164605463B60F9
:1091100050B390F834304BB3B1F5801F28D2DFF84C
:109120005480012128F017F92146424628460DF1C6
:109130000703FEF795FD0446A0B99DF80730032B01
:1091400010D0022B0AD10123336004233B60E86B6B
:1091500028F09AFA204602B0BDE8F081D8F8103025
:109160003060F3E72D24F2E72124F3E71124F1E73F
:109170002924EFE7A020002030B50C46054685B035
:1091800028B390F8343023B3B1F5801F23D20221E5
:1091900028F0E1F80DF10F03214628460F4AFEF7AB
:1091A0005FFD034688B99DF80F20032A0DD00322E6
:1091B0002146009202462846FFF75EFA0446E86B15
:1091C00028F062FA204605B030BD2D24F7E72124AF
:1091D000F8E71124F6E72924F4E700BFA0200020D7
:1091E0002DE9F043466886B3056898464FF0000CB9
:1091F000A946AE4655F83C400CF1010CC4F31307E8
:10920000013401D0B94217D066450EF1080EF1D1F4
:109210002F46002403E0A64207F1080712D055F8B4
:10922000343001340133F6D1C1F3130141EA08515E
:10923000C7E90012BDE8F08341EA0851CEE9001207
:10924000BDE8F083B8F1030F03D101230372BDE839
:10925000F083002303E09E4209F10809F5D055F898
:1092600033400133C4F30754032CF4D1C1F3130387
:1092700043EA0853C9E90032BDE8F0832DE9F04123
:109280000646406882B0C0B10F469046002433685D
:1092900053F8345003EBC403C5F30752C5F313016D
:1092A000013504F1010406D05B683046CDF800803A
:1092B000B84710B170688442E9D302B0BDE8F081CC
:1092C000024B1968024B1868FFF7D2BCC43F00205C
:1092D000E43F002008B533F0ABFA014B186008BD3D
:1092E000CC200020014B186833F09DBACC20002020
:1092F00073B504462248012A00EAC1119DF81850AE
:1093000023F07C4007D9961E012E28D9073303F09D
:109310007F03194308E09DF81C300A43DB0603F085
:10932000C053134343F060410023C4E900108DF89B
:109330000730B5B1202221460DF1070028F0A5FC29
:109340001A220DF10700211D28F09FFC08206368F8
:109350009DF8072043EA8263636002B070BD114349
:10936000E2E71B220DF10700214628F08EFC23685E
:109370009DF80720042043EAC2632360EDE700BFA5
:1093800080FFFF0738B5094B0D461A6800210446D7
:1093900031F007F800234FF0FF322383C4E90025A2
:1093A0002361A260E382A37638BD00BFC40704082E
:1093B0000138C0B205289ABF014B185C01207047E4
:1093C000C90704082DE9F0410746154600240E465A
:1093D000596888B0490A012922464FEA510104F12F
:1093E0000104F8D8DC78997824031B88C90201F4B9
:1093F000006104F480540C43C3F30A035203234472
:1094000092B24FF000089C18274B6FEA0444039374
:1094100025F07843ED4302A90DF107001B220293CA
:109420008DF8078028F031FC9DF80720029B02A9E7
:1094300043EAC2630DF107001B2225F0784504932F
:1094400002958DF8078028F020FC9DF80720029BEC
:109450006FEA144443EAC26305934FF0FF33079465
:10946000069307A9BB69012206F110009847BB6962
:1094700005A90446012206F108009847BB6940454A
:1094800018BF044604A90122301D98470122404517
:1094900018BF0446BB69304603A99847404508BF3A
:1094A000204608B0BDE8F08101009AB2044BD3F821
:1094B0008420D206FBD4D3F88400C0F38110704717
:1094C0000040005038B5174B0546D3F828310C46FC
:1094D00003F00703013B052B20D8DFE803F003135B
:1094E0001B0F0B1730F09CFF052305B1286004B15A
:1094F000236038BD30F094FF0623F6E730F0DAFF42
:109500000723F2E730F0CCFF0323EEE730F0C8FF8B
:109510000423EAE730F0C0FF0223E6E70023184601
:10952000E3E700BF00800050002337B50193164BDE
:109530000546D3F820320C4603F00703042B21D84C
:10954000DFE803F0030B11161B0001230DB1019A94
:109550002A6004B1236003B030BD002101A8FFF7E9
:10956000B1FF1223F2E730F0A5FF07230190EDE7EA
:1095700033F053F90A230190E8E730F0E3FF0923C1
:109580000190E3E70023E1E70080005038B5104B7D
:109590000546D3F880300C4603F00303022B0BD0B2
:1095A000032B0DD0012B0FD130F040FF0E2305B15E
:1095B000286004B1236038BD30F07CFF0723F6E754
:1095C00030F02EFF0623F2E700231846EFE700BF36
:1095D0000080005038B5104B0546D3F800310C46DA
:1095E00003F00303022B0BD0032B0DD0012B0FD163
:1095F00030F056FF032305B1286004B1236038BD65
:1096000030F0A0FF0923F6E730F050FF0823F2E71F
:1096100001230020EFE700BF0080005038B5184B51
:109620000546D3F820010C4600F00700062823D891
:10963000DFE800F0040A0E16121A1E00012305B11D
:10964000286004B1236038BD30F0EAFE0523F6E758
:1096500030F026FF0323F2E730F02CFF0723EEE77C
:1096600030F01AFF0223EAE730F0DAFE0623E6E7DD
:1096700030F016FF0423E2E700231846DFE700BFBF
:109680000080005038B5104B0546D3F840310C46E9
:1096900003F00303022B0BD0032B0DD0012B0FD1B2
:1096A00033F0BBF80A2305B1286004B1236038BD4C
:1096B00030F048FF0923F6E733F0B2F80C23F2E765
:1096C00001230020EFE700BF00800050002337B5E2
:1096D0000193164B0546D3F860320C4603F007039E
:1096E000013B032B1FD8DFE803F0020E1914002101
:1096F00001A8FFF793FF10230DB1019A2A6004B16E
:10970000236003B030BD002101A8FFF7BBFF112388
:10971000F2E730F0CFFE07230190EDE730F0BCFE1A
:1097200002230190E8E70023E6E700BF0080005035
:10973000002337B50193164B0546D3F894320C46F7
:1097400003F00703013B032B1FD8DFE803F0020EF1
:109750001914002101A8FFF761FF10230DB1019A30
:109760002A6004B1236003B030BD002101A8FFF7D7
:1097700089FF1123F2E730F09DFE07230190EDE70A
:1097800030F08AFE02230190E8E70023E6E700BFFD
:109790000080005038B5104B0546D3F860310C46B8
:1097A00003F00303022B0BD0032B0DD0012B0FD1A1
:1097B00033F033F80A2305B1286004B1236038BDC3
:1097C00030F0C0FE0923F6E733F02AF80C23F2E765
:1097D00001230020EFE700BF008000502E4B98428D
:1097E0004AD022D82D4B984240D014D82C4B9842C6
:1097F00039D00AD82B4B984232D02B4B98422FD0DD
:109800002A4B98422CD000207047294B9842FAD11D
:10981000284B186F7047284B98422AD0274B984204
:10982000F1D1244BD3F880007047254B98422BD0C0
:1098300009D8244B984223D0234B9842E3D11D4BA7
:10984000D3F88C007047214B984221D003F5740364
:1098500003F510539842D6D1164BD3F898007047B1
:10986000144B986D7047134B586E7047114B586FDF
:109870007047104B986F70470E4BD3F884007047B9
:109880000C4BD3F8880070470A4BD3F89000704710
:10989000084BD3F8940070470048E8010024F40016
:1098A000C0CF6A0080841E0000093D0040420F00C6
:1098B000405DC6000080E00FC0EA210180BA8C0143
:1098C000007E560380D54302006CDC020090D0037A
:1098D00073B50D460021114B0191D3F88041064626
:1098E00004F00304022C13D0032C0CD0012C13D150
:1098F00001A8FFF793FE10240EB1019B336005B160
:109900002C6002B070BD30F0D5FD07240190F3E764
:1099100030F0C2FD0190EFE70C46EDE7008000500B
:1099200038B5104B0546D3F840320C4603F003031C
:10993000022B0BD0032B0DD0012B0FD132F06DFF7A
:109940000A2305B1286004B1236038BD30F0FAFD68
:109950000923F6E732F064FF0C23F2E7012300202D
:10996000EFE700BF0080005038B5144B0546D3F830
:1099700000020C4600F0070004281BD8DFE800F0C6
:1099800003090D111500012305B1286004B12360FE
:1099900038BD32F042FF0A23F6E730F0D3FD092349
:1099A000F2E732F03DFF0C23EEE730F05FFD0F23CE
:1099B000800AE9E700231846E6E700BF0080005070
:1099C00038B5144B0546D3F808020C4600F00700E2
:1099D00004281BD8DFE800F003090D11150001234E
:1099E00005B1286004B1236038BD32F016FF0A23A8
:1099F000F6E730F0A7FD0923F2E732F011FF0C2360
:109A0000EEE730F033FD0F23800AE9E70023184624
:109A1000E6E700BF00800050B0F5207F1FD009D8D6
:109A2000B0F5007F15D003D868B1B0F5C07F0AD07B
:109A300000200CE0B0F5607FFAD10B4BD3F880002A
:109A4000C0F3011003E0084B186FC0F3033001307E
:109A50007047054BD3F89000C0F30460F7E7024B62
:109A6000186FC0F38020F2E70080005002464FF4E8
:109A70008030104B10B598660020FFF7CDFF5043A3
:109A800041F671320C4BDC69DA635A6804F48034B5
:109A900022F4401259B90949884294BF002001209C
:109AA000000502435A600CB10022DA6310BD04497C
:109AB000F2E700BF0090005000000350005A62021D
:109AC000002D3101430905D0012B0CD0022B084B8E
:109AD00018BF002300F01F0039B103F580530122A5
:109AE00082401A607047034BF4E703F50053F6E732
:109AF00068800050648000501FB50021B0F5807F61
:109B00000446CDE9001100F0D2803AD85E2833D85F
:109B10005E2833D8DFE800F045323232323232325A
:109B20003232323232323232323232323232323215
:109B3000323232323232323245AC45ACBCBCBCBCC3
:109B4000BCACC64E6BDC4EACACAC323232323232D4
:109B50003232ACACAC7EE6AC3232323232323232FD
:109B60003232323232BC454545E14E4EEB8D63C157
:109B700032323232329E4500802870D0009804B0D4
:109B800010BDB0F5D06F00F0A38035D8B0F5607F80
:109B900079D01AD8B0F5007F65D005D8B0F5C07F70
:109BA000ECD130F063FC5CE0B0F5207F60D0B0F524
:109BB000407FE3D130F05AFC02464FF42070FFF7AB
:109BC0002BFFB2FBF0F252085BE0B0F5B06F69D04A
:109BD0000AD8B0F5806F5BD0B0F5A06FCED1002170
:109BE0006846FFF7A1FCC9E7B0F5C06FC6D10021F8
:109BF0006846FFF747FDC1E7B0F5106F6DD00ED88E
:109C0000B0F5086F78D0B9D8B0F5E06F6AD0B0F58C
:109C1000F06FB3D100216846FFF7BCFDAEE7B0F5A9
:109C2000406F3AD013D8B0F5206F60D0B0F5286FF0
:109C3000A4D10021324B0391D3F8703203F0030317
:109C4000012B02D103A8FFF71DFD039B39E0B0F5FE
:109C5000486F93D100216846FFF76AFD8EE730F028
:109C6000E5FB00908AE730F0E1FB0246204604E085
:109C700030F0FCFB02464FF42070FFF7CDFEB2FB44
:109C8000F0F200927AE701A8FFF780FC019AEDE775
:109C900000216846FFF7C2FC70E700216846FFF725
:109CA00011FC6BE700216846FFF712FE66E74FF0F4
:109CB000E02302911B695B0705D530F0D7FB0290CA
:109CC000029B00935AE703A902A8FFF7DBFCF7E722
:109CD00000216846FFF748FE50E700216846FFF77D
:109CE0006FFE4BE700216846FFF71AFE46E70021AA
:109CF0006846FFF7EBFC41E76846FFF76BFC3DE782
:109D00000080005008B58020FFF7F6FE034B984214
:109D10009EBF4FF48032024B1A6708BD005A6202A0
:109D200000A000501FB503460020B3F5807F0190CE
:109D300000F0C58065D85D2B56D84C2B07D82D2B4D
:109D400048D8232B2CD8019805B05DF804FB4D3B77
:109D5000102BF8D801A252F823F000BFB59E0008DE
:109D6000479D0008479D0008479D0008639E000826
:109D7000479D0008479D00080F9F0008819E00082E
:109D8000279E0008059F0008479D0008479D000882
:109D9000479D0008479D0008479D0008199F00083F
:109DA000243B092BCFD801A252F823F0B59E00081E
:109DB000B59E0008B59E0008B59E0008B59E000837
:109DC000479D0008AB9E0008479D0008439E000881
:109DD000EB9E00083D2B00F083803E2BB3D100208A
:109DE00001A9FFF79DFDAEE7802BACD1504B1B6F57
:109DF00003F00703013B032BA5D8DFE803F0544D24
:109E00005052B3F5F06F6BD020D8B3F5B06F4CD093
:109E10000ED8B3F5607F71D095D3B3F5806F49D07C
:109E2000B3F5A06F8FD1002001A9FFF77DFB8AE772
:109E3000B3F5D06F59D0B3F5E06FD0D0B3F5C06FA4
:109E400081D1002001A9FFF71DFC7CE7B3F5206F4D
:109E50005DD00BD8B3F5086F4CD0B3F5106F7FF41D
:109E600072AF002001A9FFF7ABFD6CE7B3F5406FBF
:109E700048D0B3F5486F4FD0B3F5286F7FF463AF88
:109E80002B4BD3F8703203F00303012B49D0022B84
:109E90000CBF1523002300E00523019353E70323A0
:109EA000FBE70823F9E70223F7E7002001A9FFF702
:109EB0000FFD48E7002001A9FFF7B0FB43E74FF093
:109EC000E02302901B695B0705D530F0CFFA0D2324
:109ED0000393039BE1E703A902A8FFF7D3FBF8E78D
:109EE000002001A9FFF756FC2DE7002001A9FFF78C
:109EF0003BFD28E701A9FFF76DFB24E701A9FFF768
:109F000045FB20E7002001A9FFF7DCFA1BE7002052
:109F100001A9FFF7DBFB16E7002001A9FFF708FC0A
:109F200011E7002103A8FFF7ADFB1123B5E700BF40
:109F3000008000504FF48032074B0849586E03F5FB
:109F400080535A664B6A23F001034B62C3035CBF24
:109F5000034B5A66704700BF0080005000C0075096
:109F600000A0005038B504468020FFF7DBFE032830
:109F700000F083804FF48012524B4FF0A0615A667C
:109F800045F60E02504BC3F88020504A91624FF4C0
:109F9000803102F5805291629A6DD203FCD4996DA2
:109FA00011F08041FBD1D4E90002120542EA0062BF
:109FB000E07B0243207B42EA0042607B42EA0032BF
:109FC000A07B42EA80121A619869D4E90452120611
:109FD00042EA856200F000400243A07EE57E024333
:109FE000207E42EA0042607E42EA00229A611A6ABA
:109FF000E06922F00F0242EA8502354D00283DD18A
:10A000001A6294F82420996A94F82000D20029401A
:10A0100042EA40120A4394F8211042EA011242F443
:10A0200080329A622B49284A936D31EA0303FBD1AF
:10A030004FF08071254881621369A56823F470038D
:10A0400043EA055313614FF00043836194F82230D3
:10A050000BB9214B996294F823303BB94FF480320D
:10A060001D4B9A62184A936D5B00FCD494F825301E
:10A070001BB1154B194AC3F8802038BD024342F08A
:10A08000080202281A6208D119614FF40852996136
:10A0900013484FF47F4127F016FE0B4994F8223005
:10A0A0008A6A94F820001B062A4043EA40131343AF
:10A0B00094F8242043EAC20394F8232043EA02439D
:10A0C0008B62D3E7009000500040005A0050005AC5
:10A0D000C7FFFEFE030001000060005AF1A7FFFF6A
:10A0E0003440005A014B93F900007047354400207A
:10A0F000014B1880704700BFF44300204FF48002EA
:10A1000008B5184B5A660223174A5360936813F434
:10A110008033FBD1012822D130F0C2F9134B984291
:10A1200015D003F5122303F5F863984213D0104BB2
:10A1300000EB8002400AB3FBF0F3520A0A49CA62FC
:10A140000B6301234B620022074B5A6008BD45F6A2
:10A150007A13084AF2E745F61A03074AEEE7536214
:10A16000F1E700BF009000500040025000F04902AB
:10A1700064666666D8B80500BBCF0500B0F5207FE1
:10A1800010B50C465DD008D8B0F5007F4ED003D88E
:10A19000C0B1B0F5C07F15D010BDB0F5607FFBD168
:10A1A0002C4B4C1ED3F8FC202B4912F0807F4FEA39
:10A1B000041427D1D1F8803023F030032343C1F8B1
:10A1C0008030E9E727F08EFD27F09AFD4FF48031CB
:10A1D000224B214A1967136F013C23F4704343EA71
:10A1E0000433136730F042F90446FFF75FF9C0F11A
:10A1F0000201204627F07EFD00F04AF8BDE810403D
:10A20000FFF780BDD3F8FC2022F08072C3F8FC2059
:10A21000D1F8802022F030022243C1F88020D3F808
:10A22000FC2042F08072C3F8FC20B5E70A4A4C1EBD
:10A23000D2F8903023F0F85343EA0463C2F8903028
:10A24000AAE7054A4C1E136F23F4806343EA842374
:10A250001367A1E700ED00E000800050009000507F
:10A2600008B50121022000F095F94FF42070FFF7A6
:10A27000D3FB054B187027F035FD27F041FD4FF457
:10A280008032024B1A6708BD143B0020009000503A
:10A2900008B54FF4C070FFF72FFCBDE80840044933
:10A2A000884294BF012102214FF42070FFF766BF5E
:10A2B00080F0FA0238B5044630F0D8F80546FFF7CA
:10A2C000F5F8C0F10201284627F014FD0121002015
:10A2D00000F0A0F92CB1FFF7DBFFBDE83840FFF735
:10A2E00011BD034B4FF420701978FFF747FFF4E7D7
:10A2F000143B00204FF4C02270B50546FFF76EFAFC
:10A30000314B04465A6603F598335A68012A04D142
:10A310002E494A605A689207FCD48020FFF702FD5C
:10A32000052807D127F0DEFC27F0EAFC4FF4803245
:10A33000254B1A67264B24F040749D4230D0254BA4
:10A340009D4230D030F06CF88542064603D9012199
:10A35000284600F05FF9204BDA6812F0060FFBD1B7
:10A3600099689C609A68624012F4F81F1ED12846D2
:10A37000FCF722FE8020FFF7D5FC05280DD130F038
:10A3800075F80446FFF792F8C0F10201204627F065
:10A39000B1FCFFF77DFFFFF7B5FCAE420CD270BDFC
:10A3A00044F00074CEE744F08074CBE780209960DD
:10A3B000FFF7B8FC052805D0BDE87040012100205A
:10A3C00000F028B93546DAE70090005000E001506F
:10A3D00040420F0080841E0000000150304B314A83
:10A3E000984251D020D8A3F5B703A3F558639842FB
:10A3F00046D00DD82C4B984231D02C4B984239D0B6
:10A400002B4B4FF4002198421DD00023516622E0CF
:10A41000284B4FF400219842F7D1274BD3F8BC309A
:10A42000516623F0407316E0244B984230D0244B01
:10A43000984231D0234B4FF400219842E5D11E4B76
:10A44000D3F8C830ECE71C4BD3F8A030516623F0AA
:10A45000407343F000734FF0B442936070474FF481
:10A460000021154BD3F8A030516623F0407343F020
:10A470008073F0E7104BD3F8A0304FF40021CFE702
:10A480000D4BD3F8B830F8E70B4BD3F8C030F4E7F6
:10A49000094BD3F8CC30F0E7074BD3F8D030ECE7DA
:10A4A000C0EA21010090005080841E0000093D0098
:10A4B00040420F000024F4000080E00F0048E80153
:10A4C000005A620280BA8C01024A536B0342FCD1EB
:10A4D000704700BF00400950044A4178536F23F48D
:10A4E000407343EA01235367704700BF00400050A8
:10A4F0000E4A10B51369044643F00403136130F0AB
:10A500004BFC27F002FC0A4B5B6E5B0142BF094B20
:10A51000094AC3F8202430BF27F0F8FB04F0F4F90F
:10A520001CB9BDE810402FF0A1BF10BD00ED00E048
:10A530000080005000E003500000FF0F0C4A10B5EF
:10A540001369044643F0040313610A4B5B6E5B011D
:10A5500042BF094B094AC3F8202430F01DFC30BF2C
:10A5600004F0D2F91CB9BDE810402FF07FBF10BD38
:10A5700000ED00E00080005000E003500000FF0FFD
:10A58000034A0179D36E23F030030B43D36670473F
:10A5900000400050F8B504461C4BD3F88420D10687
:10A5A000FBD4D3F88430C3F381139C422CD02FF01A
:10A5B0003DFF012C064602D1214627F09BFB32F0DD
:10A5C00037F94FF00072124B07465A66204627F0C3
:10A5D000A0FB4FF480630D4D621E93402B676B6EA2
:10A5E0009A0103D4D5F884309B060AD5384632F058
:10A5F0001AF9022C08D13046BDE8F840002127F0B6
:10A6000079BBD5F88430EAE7F8BD00BF00400050C0
:10A610000060005010B50C4608B92FF007FF074B3B
:10A6200021461B783BB1064B984204D80120BDE877
:10A630001040FFF7AFBF0220F9E700BF153B002035
:10A64000005A62020278034B012100201A70FFF7C2
:10A65000E1BF00BF153B00204FF0004238B5244B4E
:10A66000244C5A664AF6CD33656C014605F0010567
:10A67000236428BB0120FFF727FF6368DB0715D59C
:10A680001D4B586008461D4B226BD2070CD49842D4
:10A6900008D1072415B1174B194A1A642CF04FFC46
:10A6A000204638BD0130EFE79842F2D00024F1E7B0
:10A6B0000132236B13F0080305D08A42F8D1E8E792
:10A6C00000220E49F5E78A42E3D020210A4A91622E
:10A6D0000121A2F5805251600649084A886A800625
:10A6E00003D49342D5D00133F8E79342DDE700BFAE
:10A6F00000900050004009500060095040420F0097
:10A700003254FFFF4FF0004238B5164B01465A66EF
:10A710004AF6CD33144C154A656C236443780B20FC
:10A720005B0043F00103D363FFF7CEFE63688A78D2
:10A7300023F4F87343EA02136360CA784B7943EA5F
:10A740000223A3600A798B7943EA02232361087804
:10A75000FFF782FFEB0744BF054B23642CF0EFFBB0
:10A76000012038BD009000500040095000400050CA
:10A770003254FFFF4FF00042124B70B55D6E03F58F
:10A7800080535A664AF6CD3304460F4980204E6CFA
:10A790000B64FFF799FE0B6A23F00F030F2C94BF95
:10A7A000234343F00F030B62F30744BF074B0B64D3
:10A7B000002DA2BF4FF00042054B5A662CF0BFFBA4
:10A7C00070BD00BF00800050004009503254FFFFB0
:10A7D00000A000504FF00042104B70B55D6E03F5C5
:10A7E00080535A664AF6CD3304460D4980204E6C9C
:10A7F0000B64FFF769FE0B6A23F4F85343EA042362
:10A800000B62F30744BF074B0B64002DA2BF4FF050
:10A810000042054B5A662CF092FB70BD0080005040
:10A82000004009503254FFFF00A000502DE9F041D4
:10A8300005460F461E4690464AB101233022194C68
:10A840008B4002FB004436B304F5825423600F2191
:10A85000072F05EB450388BFA7F108044FEA031350
:10A86000114895BFBC00A40004330C3308FA04F26D
:10A87000A140184427F04EFAB8F1000F09D1012386
:10A880003021084ABB4001FB05223EB102F582524D
:10A890001360BDE8F08104F50154D7E702F50152D9
:10A8A000F6E700BF00C0035030C0035010B51520BC
:10A8B00002F02CFD0024FF22064B21465C6520207F
:10A8C0009A625C60FFF7FEF82146BDE81040212047
:10A8D000FFF7F8B800000450044A054B002908BFF0
:10A8E0001346012282401A60704700BF4010045096
:10A8F0004020045010B5012104462020FFF7E2F863
:10A9000001212120FFF7DEF80122114B15205A60AA
:10A91000227812069A606178A27842EA01429A612E
:10A92000FF229A6200229A631A644FF000425A652D
:10A930004FF0FF3203F500531A6502F015FD1520A4
:10A94000E17828F00AFCBDE81040152002F0F0BCC8
:10A9500000000450F8B50125C3B2D1F800E091F829
:10A960000AC00F7B0C469D40CB7A1D491D4E0D65DC
:10A97000810001F1A04101F58821C1F804E04FF008
:10A98000300E0EFB00601B05617B43EA0C4343EA7B
:10A99000475322F003020166C365026731F055FF99
:10A9A000114B5D65237A13B1336C2B433364637AA7
:10A9B00013B1B36B2B43B3632279A37943EA024308
:10A9C000074A93616179E37943EA014306498B6160
:10A9D000044B55639D64BDE8F84031F031BF00BFC2
:10A9E00000200450000004500010045010B5012451
:10A9F000C0B2844031F029FF044B5A6D22EA0402B0
:10AA00005A659C62BDE8104031F01ABF0000045046
:10AA100010B50124C0B2844031F017FF074BDA6A49
:10AA2000224208D15B6B9C430CBF0124002431F00F
:10AA300007FF204610BD0024F9E700BF00000450C6
:10AA400070B5054631F001FF3022084B5E6B02FB0A
:10AA500005335C6E31F0F4FE0123EDB2AB403342BE
:10AA60000ABFC4F30A100020013070BD000004507A
:10AA70004FF48032054B9A6641F6713203F51C3370
:10AA8000DA63012203F50053DA607047009000504A
:10AA900041F671320121064BDA6303F50052D160B1
:10AAA0000022DA634FF48032A3F518339A667047B8
:10AAB00000000350013831289ABF024B185C002077
:10AAC000704700BFCF07040838B5C2F30625044617
:10AAD00002F0070241B942EA052242F4402206345C
:10AAE000074B43F8242038BD1146284627F021F9AA
:10AAF00002462846FFF7DEFF163442EA0022EFE75F
:10AB000000800350044B1868421C02BF034AD2F86D
:10AB100094001860704700BFE83F002000400050DC
:10AB20004FF48032064B5A6603F5E6239B69C3F364
:10AB30008512827003F03F021B0B42700370704756
:10AB4000009000500120034B9B680A3303F01F0361
:10AB5000984070470080E00F70B5054616461C46C9
:10AB600021B94FF42070FEF7C7FF0146402C1BD0DF
:10AB700003D8DCB1202C1BD070BD602CFCD1042389
:10AB800003FB06F2530803EB4113B3FBF2F3094A4C
:10AB9000203B02EAC303AA6822F06002AA60AA6806
:10ABA0001443AC60EB61E7E70623E9E71023E7E72E
:10ABB0000823E5E7F8FF7F00012100F5805310B579
:10ABC000596040F6AA6341F2050243610023094C33
:10ABD0008360C365C26000F500520361C361C36452
:10ABE0009464054C8365A04204BF036543655160CE
:10ABF00010BD00BFFFFF010000C0055070B50D463D
:10AC0000FFF7DAFF012300F580567360AB7C044642
:10AC10001BB1836843F080438360EB7C5BB1244BC2
:10AC20009C4202BF2A7DA3F51033C3F8C821E36D0F
:10AC300043F08003E3652A8A6B7B20461343EA894D
:10AC40001343E3602B7BD5E90112FFF785FF6B7D92
:10AC50001BB1A36843F48033A360AB7D1BB1A36831
:10AC600043F40043A360EB7D2A7E1B07120502F428
:10AC7000E00203F0E0431343A3656B7E9A1E012AB2
:10AC80004FF0020209D80B49032BC1F8202709D144
:10AC90000423F3652B78636170BD0749012BC1F86C
:10ACA0002027F4E7042204F50053DA65F2E700BF39
:10ACB00000C0055000D0035000E00350012243784B
:10ACC00001789A4030235943014B5A50704700BFD6
:10ACD00040E00350034BD3F82424D3F82004104061
:10ACE000704700BF00C003502DE9F8431F4B0546D5
:10ACF000D3F810334B1E0E2B0E461746047890F8EF
:10AD0000018026D951B34FF0000928461FB32FF018
:10AD10008DFC0F21B8F1070F04EB440488BFA8F1A4
:10AD200008084FEA0414124895BF4FEA88084FEA12
:10AD3000880804340C3409FA08F201FA08F12044B6
:10AD400027F07DF886B9284657B1BDE8F8432FF0C3
:10AD50006DBC8946D9E7FFF7B1FFDAE78946D8E746
:10AD6000BDE8F843FFF7AABFBDE8F88300C0035071
:10AD700030C00350054B9A689107FCD45A6892077B
:10AD8000F9D4DA69002AF6D1704700BF00800A5072
:10AD900008B52FF057FC0222014B1A6108BD00BF15
:10ADA00000800A5008B5FFF7E5FF0122024B03F5CA
:10ADB00080514A601A6108BD00800A5008B5044BF2
:10ADC0005968012903D1FFF7E3FF024B596008BD21
:10ADD00000800A5000A00A5010B5064CFFF7CAFFC9
:10ADE0006368012B03D1FFF7E9FFFFF7C3FF037887
:10ADF000E36010BD00800A50B8B94A680B7812B100
:10AE0000127843EAC2034A7843EA42038A6812B1DD
:10AE1000127843EA82138A7843EA8203CA6812B13D
:10AE2000127843EA4223014A9364704700800A5033
:10AE300070B504462CF0C8F8064630B90FCC044D66
:10AE40000FC594E8030085E80300304670BD00BFDD
:10AE5000D020002047F6FF739A42F0B56FD0022948
:10AE60006FD8394B5B5C012B6BD8384DDF0005EB9D
:10AE7000C30415F83330A178012B13D10025E078F5
:10AE8000401AA84202D80844C0B2F0BD431B66680D
:10AE9000A0EB530336F913609642D4BF1D4603F16D
:10AEA000FF30EEE760680028EFD0B0F90040944230
:10AEB00004DBB0F902409442B8BF144683883D4495
:10AEC000FF2B19BFC8224FF0280CB0F90620B0F9AB
:10AED00008C0A2EB04030CBF0126002693FBFCF381
:10AEE00033446E781BB29E4201DD002B01DA731EE3
:10AEF0001BB24FF47A7C01339BB2071D5D1E2DB24D
:10AF00004FEAC50E00EBC505EA88AD689E4214FB0A
:10AF1000025222EAE27202F15C02B2FBFCF204DDB0
:10AF200037F8335001339542E8D200EB0E0398888E
:10AF3000904228BF1046884238BF0846A4E7FF2049
:10AF4000A3E70020A1E700BF01080408D0200020EB
:10AF50000229F0B555D82C4B585C012851D82B4C00
:10AF600004EBC00114F830004B6801280FD1C878F9
:10AF70008C78904294BFC4EB0001C4EB0201001B2B
:10AF8000CAB28242C8BF002233F91200F0BD002BC2
:10AF900037D08878904202D3B3F90200F6E7CC7834
:10AFA000B3F900009442F1D94C789988013CA1F1A1
:10AFB000FF06714203F10405E4B2714103F10C078D
:10AFC000CEB2B44216D805EBC1014FF47A756A438C
:10AFD000B1F902404968521A04EBD47102EB6102E4
:10AFE00092FBF4F29042D1DBB3F902009042CDDC47
:10AFF00010B2CBE737F831C04E1C9445E3D331464D
:10B00000DEE70348C2E700BF01080408D0200020A3
:10B010000080FFFF08B50448FFF70AFFBDE80840BD
:10B0200001202BF0D7BF00BF040804087FB514220D
:10B03000002101A82FF0B5F9044B01A94FF0FF3012
:10B0400002932CF00AF807B05DF804FB006A1800C0
:10B050002DE9F0418CB08846DDE912761D460446A4
:10B06000002847D0002945D0002F43D0002E41D0E2
:10B0700013F00F033ED120482049A360002A08BFE7
:10B080000146E361C4E90013404609A926F0F6FF32
:10B0900068BB2046099931F0DEFB2946204631F095
:10B0A000DAFB6946404600F0F7FA00BB69462046E5
:10B0B00027F09DF9404603A927F0DFF8B8B92046EC
:10B0C00003A927F094F906970127204645F000557B
:10B0D00006A90797089527F08AF9204609A9099635
:10B0E0000A970B9527F08DF920462FF0F5FA0CB052
:10B0F000BDE8F0812120FAE700010004000101040D
:10B100002DE9F04F97B0894690461F460546DDF879
:10B1100080A0002800F0BB80002900F0B8803AB180
:10B12000229B002B00F0B380239B002B00F0AF800C
:10B13000BAF1000F00F0AB80219B002B00F0A7803C
:10B1400067B13C680026229B43440293464507D3DF
:10B1500007B13C60002017B0BDE8F08F3C46F1E736
:10B160005CB1229B219A9B5D125D01345340239A6E
:10B1700004F00F0493550136E8E7A8EB060BBBF18A
:10B180000F0F58D9434B4846C5E90034AC60EC6119
:10B1900013A926F073FF0028DDD1284613992BF060
:10B1A0000F0B31F058FB5946284631F054FB484606
:10B1B00004A900F071FA0028CDD1284604A927F08F
:10B1C00016F9484607A927F058F80028C3D12846A1
:10B1D00007A927F00CF9012322992F4ACDF828A0BE
:10B1E0000B930C928A190D9228464BF000520AA933
:10B1F0000E9303920F9227F0FAF828460DA927F034
:10B20000F6F8239B039A9919012310911193129236
:10B21000214A284610A9CDF84CA01493159227F086
:10B22000F0F8284613A927F0ECF828462FF054FA36
:10B230005E4400288FD1229B03EB060B239B1E4408
:10B24000029B5B4501D1464680E7ACB9219B224673
:10B25000CDE900A3494610232846FFF7F9FE002850
:10B260007FF479AF0AF1100212F8013D0133DBB22D
:10B2700013700BB95245F7D1219A1BF8013B125DAF
:10B280000134534006F8013B04F00F04D8E72120B5
:10B2900061E700BF03030004100000202DE9F04F18
:10B2A00097B0894615469A460446209FDDF8888067
:10B2B000DDF890B0269E002800F09D80002900F067
:10B2C0009A80002E40F08A80002B00F09480B8F124
:10B2D000000F0AD0219B002B00F08D80002A40F047
:10B2E0009F80F10700F1878002E0002A40F085800E
:10B2F000FB1F062B7FD8524B0BEB05029A427AD8E4
:10B300000023504A4846C4E90023A360E36113A91F
:10B3100026F0B4FE00285ED12046139931F09BFA46
:10B32000204646EA074131F096FA4146204631F080
:10B3300092FA2946204631F08EFA484601A900F0DB
:10B34000ABF9002847D1204601A927F050F848461C
:10B3500004A926F092FF00283DD14FF001092046B4
:10B3600004A927F044F8239B45F000550793219B3F
:10B37000CDF82090204609950DA90A9347F0005773
:10B3800048F00053CDF82C900C93CDF834A0CDF8B4
:10B3900038900F9727F02BF820460AA927F027F8B6
:10B3A000204607A927F023F8259B204610A946F040
:10B3B0000056CDF840B0CDF8449012951393CDF8D7
:10B3C0005090159627F01DF8204613A927F019F87C
:10B3D00020462FF081F917B0BDE8F08F259B53B1BF
:10B3E000BAF1000F07D0B8F1000F01D0219B13B1C3
:10B3F000B5B9022E20D12120EDE7239B002BFAD0F6
:10B40000BBF1000FF7D0C7F10F03DBB2032B3FF600
:10B4100068AF0122DB0002FA03F3AB42EBD9E8E7A5
:10B42000239B002BE7D0BBF1000FE4D0C7F10F0343
:10B43000DBB2032BDDD8ECE7102E7FF652AFDAE754
:10B4400000000420000005042DE9F04F99B0884663
:10B4500015469B460446229FDDF89890289E60B1D1
:10B4600059B1279B4BB1BBF1000F06D0249B0BB108
:10B47000239B13B11DB9022E13D121239AE0259BE2
:10B48000002BFAD0B9F1000FF7D0C7F10F03DBB2F0
:10B49000032BF0D80122DB0002FA03F3AB42ECD914
:10B4A000E9E7731E0F2BE8D816F0010AE5D1FB1F60
:10B4B000062BE2D8414B09EB05029A42DDD8404BFE
:10B4C0004046C4E9003AC4F808A0C4F81CA015A975
:10B4D00026F0D4FD034600286CD12046159931F0A2
:10B4E000BAF9204646EA074131F0B5F920462499D9
:10B4F00031F0B1F92946204631F0ADF9404603A9B3
:10B5000000F0CAF80346002854D1204603A926F0CB
:10B510006EFF404606A926F0B0FE0346002849D13A
:10B520004FF00108204606A926F061FF259B204622
:10B53000099345F00053CDF8288001930B93239B8A
:10B540000FA90C93249B47F0005743F00052CDF80D
:10B5500034800E92CDF83CB0CDF84080119726F0A3
:10B5600046FF20460CA926F042FF204609A926F0F6
:10B570003EFF019B204612A9CDF84890CDF84C80A3
:10B58000149326F03EFF279B204615A946F000564F
:10B590001593CDF85880179626F029FF20462FF0F6
:10B5A0009BF8034630B101902A46514648462EF09A
:10B5B000F8FE019B184619B0BDE8F08F000004208A
:10B5C000000006042DE9FF474FF000080E4617461D
:10B5D0000446CDF80080002859D022B9002528461D
:10B5E00004B0BDE8F087002951D032F0030902F021
:10B5F000030A1FD04FF0E063C0E900380123019136
:10B60000C0F808800293C0F81C8049F0005301A9DB
:10B61000039326F0F6FE4946204631F01CF92046F9
:10B620002FF05AF8054628B14A46414630462EF0DA
:10B63000B8FED4E7BAF1000FD0D04FF000084FF0B9
:10B64000E063C4E900380123CDF804D00293114B24
:10B65000204601A9C4F80880C4F81C80039326F092
:10B66000D0FE0421204631F0F6F820462FF034F8C1
:10B67000054608B13A46D8E7009A4E44EB0001353A
:10B6800022FA03F3AA4506F8013BF7D1A6E72125E4
:10B69000A5E700BF0400002090B189B101234B60F1
:10B6A000C368013B012B08D88269064B1AB10A60B6
:10B6B00000208B607047044AF9E74FF00053F7E72A
:10B6C0002120704708000020580E0408012300F0D4
:10B6D0001F02A0F506200949A0F5506040099340DB
:10B6E00051F820201A4341F82020054951F8202024
:10B6F00022EA030241F82020704700BF0821002001
:10B70000E82000200122A0F506230D49A3F550638F
:10B710005B0900F01F00824051F82300024341F80A
:10B72000232000231946074A52F8040B0133082B43
:10B730000144F9D119B9202201482EF032BE7047D8
:10B74000E8200020082100202DE9F04FA9B0039245
:10B750001E4604460822339FCDE90401414021FAE8
:10B7600002F34B40980702F1080218BF9B00202A01
:10B770001C44F4D1734BE4B21B7804F5062404F5A1
:10B780005064002B3ED1FDF79BFD054620B16FF0C4
:10B79000910029B0BDE8F08F0146402208A82EF0A4
:10B7A00000FE4022294618A82EF0FBFDDFF8AC81F0
:10B7B000DFF8AC91C3460BF10F0ACDF800A05B4651
:10B7C0001022D9F8000008A926F089F800230246C3
:10B7D00008F1100808AD9A423DD1CDF800A05B46B3
:10B7E0001022D9F8000018A926F082F84FF0000ABC
:10B7F000834618ADD34538D1534B9845DAD1012251
:10B80000504B1A704FF480780025DFF858B1A4F53A
:10B810000623A3F5506252095BF8221004F01F00C2
:10B82000C140C90734D4494951F82220C240D20747
:10B8300022D5A3F6FF43DBB2002D08BF254603F552
:10B840000624B8F1010804F55064E0D1039BABB1C4
:10B85000A5B12C4618E055F8040BCDE90623FFF7F7
:10B8600035FF079B069A0133B5E755F8040BFFF740
:10B8700049FF0AF1010ABDE7039B13B96FF08B0082
:10B8800087E7002D18BF2C46349B00201C6080E702
:10B89000329B13B10023329A13600FB100233B6037
:10B8A0004FF0100ADFF8B890CDF800A00023324620
:10B8B0002146D9F80000FDF729FB58BB32993268C0
:10B8C000234BC1B99A4206D02146D9F80000FDF7B2
:10B8D00053FC0028D2D1D6E90223DDE904108342CB
:10B8E00008BF8A4225D0A4F50624A4F6FF44E4B29A
:10B8F00004F50624A5E732999A42C1F800A0E3D1E5
:10B90000002FE8D03B462146D9F8000018AAFDF7E1
:10B91000F7FB40B10F4B9842D6D06328D4D00E4BE2
:10B920009842D8D033E7329A3B6812689B1A3B6042
:10B93000D1E7039B002BA7D07368012BA4D16FF034
:10B94000840026E7163B002000710800E820002054
:10B95000105D175EFFDF00F0FEDF00F0006D0800F5
:10B96000E43F0020082100202DE9F04F87B08246F7
:10B97000894698461646DDF840B02AB1002B4FD0D4
:10B9800040F26C739A424ED8BBF1010F4ED800249E
:10B9900006F1100739460120059427F04EFF0546B1
:10B9A000002846D021463A462EF0FBFC05ABCDE9F7
:10B9B000014300942B46012250464946FFF7C4FE3E
:10B9C000044680B110F18C0F08BF6FF08D043A4629
:10B9D000002128462EF0E5FC284627F010FF2046DF
:10B9E00007B0BDE8F08F144BC5E902A92B60C5F87C
:10B9F00004B02EB13246414605F110002EF0F5FCA0
:10BA0000059E0E483B462A4631460068FDF7FAF986
:10BA100018B93046FFF75AFED9E76FF09104D6E720
:10BA20006FF08604DBE76FF09104D8E76FF08504D0
:10BA3000D5E76FF08C04D2E7105D175EE43F00207D
:10BA40002DE9F0438DB08146DDE914780E461546A8
:10BA50001C469BB1B8F1000F05D16FF08606304649
:10BA60000DB0BDE8F083002FF7D0B7F1005FF4D33D
:10BA7000C3F1005303F580239F42EED8102200212A
:10BA800008A82EF08EFC002207AB029305AB0193B1
:10BA900006AB31460093484608ABCDE90522FFF7D7
:10BAA00053FE06460028DAD1059BA4B1AB4215D857
:10BAB00053EA0504D1D1069B0B48C8F80040009416
:10BAC0003A46079900682B44FDF720FA002818BF72
:10BAD0006FF09106C3E7AB42EDD2BEE75B1B9C4221
