:020000040800F2
:10600000081000206973000885ED000889ED00087C
:10601000FD4103088DED000895ED0008FD410308E2
:10602000FD410308FD410308FD410308FD4103084C
:1060300099ED0008886A0408FD410308FD41030842
:10604000AD770008FD410308FD410308FD41030849
:10605000FD410308FD410308FD410308FD4103081C
:10606000FD41030809730008F9720008FD410308A7
:10607000FD410308BD710008AD710008FD41030832
:10608000FD410308FD410308FD410308FD410308EC
:10609000FD410308957F0008FD410308FD41030809
:1060A000FD410308397B0008117B0008FD4103080E
:1060B000FD410308F5F60108A1010208D7D2030843
:1060C000D3D2030831F90108EDD20308DBD203086B
:1060D00071010208DFD20308E10102084D02020843
:1060E000FD410308FD410308FD410308FD4103088C
:1060F000E37A0308FD410308FD410308FD4103085D
:10610000FD410308FD410308FD410308FD4103086B
:10611000FD410308FD410308FD410308FD4103085B
:10612000FD410308FD410308FD410308FD4103084B
:10613000FD410308FD410308FD410308FD4103083B
:10614000FD410308FD410308FD410308392304080C
:10615000C9E50108FD410308C3D20308C9D20308F9
:10616000FD410308FD410308FD410308FD4103080B
:10617000194A5AB3194BDB6913F0040F29D110B433
:106180000AE003EA00048C4210D0013AB2B1134B8A
:10619000DB6913F0040F14D110F0010FF1D1104C92
:1061A0001C40002CEDD06FF001000CE00C4A1A40AE
:1061B0000AB9002007E06FF0010004E06FF0020070
:1061C00001E04FF0FF305DF8044B70476FF00200C4
:1061D00070474FF0FF3070478096980000000350E2
:1061E000020001000D4BDB6913F4803F12D170B542
:1061F0000A4B03F580560124F46003F500552C6426
:106200004FF480721A6100212046FFF7B1FF346419
:10621000EC6070BD6FF00100704700BF00000350DC
:1062200010B5124B4FF480329A6603F51C33DC69CB
:10623000144041F67132DA6303F580520121D160D6
:10624000586102221A6100212120FFF791FF40B11D
:10625000074B0122DA601CB1A3F500530022DA6378
:1062600010BD00212120FFF783FFF1E700900050CF
:106270000020035038B51A4B5861DB6913F0040F46
:106280002AD10C4654F8041B154B9961151F06E0E2
:10629000214651F8042B124B9A61043D0C465DB126
:1062A00008210846FFF764FF03460028F0D00C4A97
:1062B00004211161184638BD094B04221A610021DE
:1062C0002120FFF755FF03460028F3D100212120AC
:1062D000FFF74EFF0346EDE74FF0FF33EAE700BF5D
:1062E000000003502DE9F0410F46164605461A4BB3
:1062F0004FF480329A6603F51C33DA6902F4803871
:1063000041F67132DA6303F580530122DA6000232B
:1063100002E025442744361B8EB105F5005424F4D1
:10632000FF5424F01F04641BB44228BF34462246A5
:1063300039462846FFF79EFF03460028E9D0074A62
:106340000121D160B8F1000F03D0A2F50052002165
:10635000D1631846BDE8F081009000500020035042
:106360002DE9F04F99B004460D4617461E469DF89C
:10637000909003890DF11B0203924122029207AA19
:106380000192009383798288418840780FF07CFBEA
:106390008046002834D19DF81B0032F0F8FF002819
:1063A00039D1412207A99DF81B0032F0A6FF824691
:1063B00000285FD0229B1BB1BDF88C3098425CD87E
:1063C000002305935FFA8AFC9DF81BB0ABF14103F3
:1063D000DBB2012B28D907A9B9F1000F30D1BCF1EC
:1063E000080F35D90FB187F800B00EB1A6F800A09C
:1063F000229B63B1524607A9184639F0BEFD06E05C
:106400000090A38862882049002033F03FFB40467B
:1064100019B0BDE8F08FA38862881C49002033F0D2
:1064200035FB4FF08D08F2E70CF1FF31C9B20DF1E9
:106430001D000CF0CBFF05904FF0040C05A9CBE735
:10644000009523465A46614607A80DF04DFADEE74F
:106450000F4805EB450300EBC3039FED097B83ED7C
:10646000027B05EB4505ED0008356246284439F00E
:1064700033FDB7E74FF00108C9E74FF00108C6E761
:106480000000000000000000FCA0040834A1040883
:1064900058100020000000002DE9F04F2DED028B78
:1064A00093B082460C4693461D4657EC106B8DED1B
:1064B000080B32463B46304639462DF015F9002888
:1064C00000F009814FF0FF32B14B304639462DF0D4
:1064D00033F9002840F0FF804FF0FF326FF4801353
:1064E000304639462DF00AF9002840F0F4800022A9
:1064F0000023DDE90867304639462DF0FFF8002813
:1065000040F0FC809DED087B8DED067B209B13F415
:106510008063119301D106231E93DDE90601024633
:10652000C1F30A50C1F31303904643F07F5949F475
:106530004019A0F2FF302CF005FE83A3D3E900231D
:106540002CF06AFE82A3D3E900232CF0AFFC0646B0
:106550000F4600228F4B404649462CF0A5FC7EA3F7
:10656000D3E900232CF058FE02460B46304639464C
:106570002CF09CFC2DF0EAF806462CF0E3FD80465A
:10658000894677A3D3E900232CF046FE0022824BF4
:106590002CF08CFC2DF0DAF8074673A3D3E9002326
:1065A000404649462CF038FE8046894638462CF055
:1065B000C9FD6FA3D3E900232CF02EFE02460B4643
:1065C000404649462CF070FC8046894602460B4600
:1065D0002CF022FECDE90C0107F2FF37002100224A
:1065E000CDE90A123B050B9300230A9342464B4622
:1065F000404649462CF05AFCCDE90E0142464B4636
:1066000000204FF080412CF04FFC8046894600224C
:10661000624BDDE90C012CF029FF0022604B2CF0CD
:1066200045FC02460B46DDE90C012CF01FFF002261
:106630005C4B2CF03BFC02460B46DDE90C012CF0D8
:1066400015FF02460B46404649462CF02FFC0246F9
:106650000B46DDE90E012CF009FF0022524B2CF015
:1066600025FCDDE90A232CF0D7FD8046894649EC5C
:10667000188BDDE906232DF05FF840B1013E0022C2
:10668000474B404649462CF0F1FE41EC180B06F111
:106690006303C62B3BD80427209B13F4006F40D024
:1066A00035A3D3E90023DDE90689404649462DF0AC
:1066B00039F800283BD032A3D3E9002340464946AD
:1066C0002DF01CF8002832D01E9BB34221DD9E1B0A
:1066D000731E1E931FE0209B02931F9B01931E9B22
:1066E00000939DED080B2B465A462146504600F07C
:1066F000CBF813B0BDEC028BBDE8F08F9FED227B91
:106700008DED067B069607F100430793FEE605270D
:10671000C2E700231E93209B43F48063209300274D
:106720003E461F9B9F4241D2A3EB070840E01E9BC1
:10673000002BF6D0119B002BF3D01E9B013B1E9328
:10674000EFE700BFAFF30080FB799F501344D33FC6
:10675000B3C8608B288AC63F61436F63A787D23F67
:1067600071A379094F930A401655B5BBB16B02402E
:10677000EF39FAFE422EE63F2D431CEBE2361A3F7C
:106780000000000080842E41000000000000000096
:10679000FFFFEF7F0000F83F0000E03F00002C40CB
:1067A00000002440000018400000F03F4FF00008B7
:1067B000209B13F0020902D00FB14FF000083EB148
:1067C00053EC182BDDE906012CF050FECDE9060153
:1067D00000220023DDE908012CF090FF00283BD1C6
:1067E000209B23F400630293CDF804801E9B00934A
:1067F0009DED060B2B465A462146504600F044F8C4
:10680000002F3FF476AF209B13F0200F2CD04FF0D9
:10681000450C00F101082B46024621466046D04750
:1068200086EAE672A2EBE67205230593013F049720
:10683000002303930A230293F30F019300922B4644
:1068400042462146504636F059F8B9F1000F3FF460
:1068500050AF02461F9F10E0DDE90601024601F13C
:106860000043CDE90623BBE74FF0650CD1E7561C8A
:106870002B4621462020D0473246A2EB0B03BB42D9
:10688000F5D3104635E700BF2DE9F04F2DED028B13
:1068900093B00590089192469B4659EC108B1E9D33
:1068A00042464B46404649462CF01EFF002840D049
:1068B0004FF0FF326FF48013404649462CF01EFF24
:1068C000002845D14FF0FF32B14B404649462CF0ED
:1068D00033FF00284BD1AAA3D3E900234046494601
:1068E0002CF02AFF00285AD1A7A3D3E90023404661
:1068F00049462CF003FF002851D1002200234046D6
:1069000049462CF0FBFE002857D100230993209B19
:1069100013F4806F5CD000241F2C5BD8092D59D94B
:1069200004F148036B44302203F8202C013D01346C
:10693000F2E7209B03931F9B029303230193954B44
:1069400000935B4652460899059835F0FDFE10E12C
:10695000209B03931F9B0293042301938E4B009370
:106960005B4652460899059835F0EEFE01E1209B02
:1069700013F004030FD0894A7BB1042320990391BB
:106980001F990291019300925B465246089905981F
:1069900035F0DAFEEDE0824AEEE70323EEE7209BD6
:1069A00002931F9B0193009549EC108B5B46524666
:1069B00008990598FFF770FDDBE042464B46002042
:1069C00000212CF071FA80468946012309939EE745
:1069D0000625A0E7404649462CF0B8FE06462CF0B6
:1069E000B1FB02460B46404649462CF05DFA6D4B22
:1069F00003EBC50393ED008B53EC182B2CF00CFC30
:106A000002460B46CDE906232CF0C8FE07462CF0C3
:106A100089FB02460B46DDE906012CF045FA0246E9
:106A20000B46CDE9062300225F4B2CF085FE50B3C8
:106A3000013738462CF076FB02460B4651EC180B1A
:106A40002CF066FE08B10136002755BB30462CF00D
:106A500079FB02460B46404649462CF025FA804613
:106A600089460022504B2CF049FE38B100224E4B93
:106A7000404649462CF060FE002842D016F0010F37
:106A80003FD001363DE00022474BDDE906012CF006
:106A900035FE0028D9D117B117F0010FD5D0013735
:106AA000D3E71F2C17D8013D404BA3FB0723DB087E
:106AB000194603EB8303A7EB4303621C303304F155
:106AC00048000DEB000404F8203C092F02D90F46C2
:106AD0001446E6E714461F2C0AD86B1E45B104F194
:106AE00048026A44302102F8201C1D460134F2E7B6
:106AF0001F2C06D804F148036B442E2203F8202CE7
:106B000001341F2C17D82A4A82FB0632F317C3EB35
:106B1000A2031A4603EB8303A6EB4303611C303345
:106B200004F148000DEB000404F8203C16460AB1BD
:106B30000C46E6E70C46209B03F00303012B39D0FB
:106B40001F2C09D8099B002B51D004F148036B443A
:106B50002D2203F8202C0134209B03931F9B0293CA
:106B600001940AAB00935B4652460899059835F0AC
:106B7000EBFD13B0BDEC028BBDE8F08FAFF30080EE
:106B80000000000065CDCD410000000065CDCDC105
:106B9000FFFFEF7F48BE04084CBE04083CBE04085B
:106BA00044BE040858BE04080000E03FCDCCCCCC65
:106BB000676666661F9BB3B1099B1BB9209B13F0E8
:106BC0000C0F12D01F9B013B1F93194606E004F1E6
:106BD00048036B44302203F8202C01348C42AFD29E
:106BE0001F2CF4D9ACE71F99F8E71F99F6E7209B13
:106BF00013F0040F07D004F148036B442B2203F871
:106C0000202C0134A8E7209B13F0080FA4D004F136
:106C100048036B44202203F8202C01349CE700BF7A
:106C200070B58EB02C22002103A839F06FF96423CF
:106C30004FF002320893CDE905230B2301218DF893
:106C40003430534B8DF810101B88D80700F1988012
:106C500008463AF047F90A224E4B4F491A704FF452
:106C600028734E48ADF8123019F0AEFB4C4C206042
:106C700020B94FF416714B4839F00CFB0521206800
:106C800036F0E3FB20B14FF41A71464839F002FBAD
:106C9000206800F041FB444B2068196835F048FF3C
:106CA0000C253AF053FD684309903AF04FFD6843D4
:106CB0000DEB05010790206813F0AAFC20B140F20B
:106CC0007D21384839F0E6FA25681CF09FF900224A
:106CD0000146284635F09CFF20B140F27F21314823
:106CE00039F0D8FA40F20353304D314E2B80052352
:106CF00096F90000AB707F2801D119F0FDFE3378C2
:106D0000EB703AF023FD00EB80008000A8803AF0A1
:106D10001DFD0023C0004FF0FF31E880AB604FF055
:106D2000FF3019A3D3E900233AF02EFA2149206855
:106D300035F02BFF206802A936F03BFC20B14FF460
:106D40002E71184839F0A6FA042220680DEB0201D2
:106D500035F0C3FE042804D040F2BB21114839F0BD
:106D600099FA01A9012034F018F908F04FF8012030
:106D70001AF05EFB2FF02CFA1AF084FB19F054FE87
:106D80000EB070BDAFF300800A0020FF4203000088
:106D9000F8410020684300200D0F0408CC48002073
:106DA000BC3E00200801050828470020B03E002016
:106DB000EA4B0020810F04080348044B834202D0B1
:106DC000034B03B1184770471C4C00201C4C00209B
:106DD00000000000064B0749C91A891048BF01315D
:106DE000491003D0044B0BB101481847704700BF4E
:106DF0001C4C00201C4C00200000000010B5064C6C
:106E0000237843B9FFF7D8FF044B13B10448AFF31D
:106E100000800123237010BDDE420020000000002E
:106E2000D004050808B5054B1BB105490548AFF36B
:106E30000080BDE80840FFF7CDBF00BF00000000A4
:106E4000C0150020D0040508A3F5803A704700BFA4
:106E5000174B002B08BF134B9D46FFF7F5FF002192
:106E60008B460F461348144A121A39F04FF80E4B4E
:106E7000002B00D098470D4B002B00D098470020E6
:106E8000002104000D000D48002802D00C48AFF38B
:106E900000802CF0F5FF200029002DF025F82CF0C3
:106EA0002DFE00BF000008000000000000000000F0
:106EB0000810002008100020C4430020000000003B
:106EC0000000000070B513F0E7F913F005F9002396
:106ED00004221146012003F02FFD0F4C04F500554C
:106EE00010232B67012304220521184603F024FDFB
:106EF00004F5805420262667002304220521032060
:106F000003F01AFDC5F8D06013F038FA034A0121E6
:106F100004200BF043FB70BD00C00350682604083A
:106F200008B50346024A012104200BF037FB08BDD7
:106F30007826040800B585B08DF80F00182300935B
:106F40000DF10F03002240F206411048007832F0A4
:106F5000ABFC9DF80F308BB10D4B88B90D4A0092F8
:106F60000D4A012104200BF019FB9DF80F304BB1A5
:106F70000A482DF043FA05B05DF804FB084BECE736
:106F8000084AECE705482DF03EFAF4E78429002092
:106F90008C260408942604089C260408DC64040853
:106FA000902604089826040800B585B0094B186897
:106FB000094B1860094B0A4A13600A4A01920A4AAF
:106FC00012680292039301A930F0E1F805B05DF870
:106FD00004FB00BF7046002084240020644600208B
:106FE0008024002080640408B046002038B506F0F4
:106FF0009FFD0446064D2B68D3F8B00206F08CFDC9
:10700000286830F0D8F8204606F086FD38BD00BF6D
:107010007046002000B583B001A803F01BFE9DF868
:107020000530012B02D003B05DF804FB9DF804305D
:10703000002BF8D10A4B596E03F580534FF48012A0
:107040005A66084A536B23F0E05343F0406353639E
:1070500011F4801FE7D1044B4FF480125A66E2E727
:10706000008000500040005A00A0005000234FF064
:10707000060C02E050B2A0B90133012B19D80D4A19
:1070800052F823100A7A022AF4D9032AF4D10CF117
:10709000FF30C0B20128EFD908680749086094465C
:1070A000EAE7BCF1020FE7D008680349086094469C
:1070B000E2E77047744600209418002010B590B0A5
:1070C0002024224600210DEB040038F01FFF204B46
:1070D000089301228DF824204FF47A330A93022377
:1070E0008DF82D308DF82F201A490C918DF8342011
:1070F0008DF8353003228DF836208DF837308DF835
:107100003830154B06AA93E8030082E80300EC46EA
:1071100000230093CCF80430CCF80830CCF80C30C5
:10712000CCF81030CCF814308CE803000D238DF827
:1071300008300E238DF80930084B03930494084B54
:107140000DEB04026146074806F07EFD10B010BD4D
:107150008C7304087C730408A86404089818002041
:10716000B81800202819002008B531B9084B186854
:1071700003680BB107F0E4F808BD0229FCD8044B02
:1071800018680368002BF7D030F0EFFEF4E700BF7B
:107190008C46002008B50349034808F041F9FFF781
:1071A0008DFF08BD944600204C19002008B5024808
:1071B00030F02FFD08BD00BF2819002008B5024897
:1071C00030F027FD08BD00BF2819002010B596B08B
:1071D000214C0DF13C0CA646BEE80F00ACE80F00B8
:1071E0009EE807008CE8070000230A930B930C939A
:1071F0000D930E93194A0A9229220B9208228DF8B8
:1072000031204FF0090E8DF833E008AA1C3494E8C1
:10721000030082E803000DF1080C0293039304932A
:107220000593069307938CE803008DF810E00A237A
:107230008DF811300A4B05932023069301238DF816
:107240001D30084B00930AAB0FAA6146064807F0B1
:10725000ADF816B010BD00BFB864040800C00550FA
:107260005419002074190020E019002010B50C46B4
:10727000831EDBB2012B0BD9A31EDBB2012B13D96A
:10728000F4B9154B18680368E3B107F059F819E031
:107290000129F1D8114B1B6CC3F3002304220821F0
:1072A000002003F049FBEBE70128E9D80B4B1B6CEE
:1072B000C3F3002300220821104603F03DFBDFE763
:1072C000012C00D910BD044B18680368002BF9D0BD
:1072D00030F04BFEF6E700BFAC46002000C0035084
:1072E00008B50349034808F09BF8FFF76FFF08BD96
:1072F000B4460020041A002008B5024830F0AEFE63
:1073000008BD00BFE019002008B5024830F0A6FE15
:1073100008BD00BFE019002038B504462CF041FE3E
:10732000054618B10220034B1D7038BD204613F0EE
:107330009DF9F8E7DF42002008B502482DF059F822
:1073400008BD00BFDC64040808B50448044A121AEA
:10735000921004492CF053FF08BD00BF7061000873
:10736000606300086444002008B500F02FF8FFF7C0
:10737000EBFF124A0AE01068516850F8230041F808
:107380002300013391688B42F5D30C320C4B9A42A7
:1073900001D20023F6E70B4A08E01168002041F80B
:1073A0002300013351688B42F7D30832064B9A42CF
:1073B00001D20023F6E7FFF74BFD00BFD804050814
:1073C000E4040508E4040508E404050870B5134B5B
:1073D000134A9A60D3F8882042F47002C3F88820D8
:1073E000104A4FF4804191660F4D05F500544FF05F
:1073F000FF3222660D4A62660222C3F8D020BFF334
:107400004F8FBFF36F8F002006F05CFB4FF44036C8
:10741000E660002030F071FB2E6170BD00ED00E0F1
:10742000006000080090005000800044F7FF370023
:10743000014B1860704700BFE046002008B5064BBE
:107440001860064B1B6F03F00703032B00D008BD29
:1074500038F0D4FDFBE700BFE84600200080005074
:107460000D4B1B68B3F1FF3F06D04FF4801202FAB8
:1074700003F30A4A13667047094B1B785BB9094B43
:107480004FF400725A6603F5A6235B681BB9034BE1
:107490004FF480121A667047EC46002000900044BA
:1074A000E042002000900050084B1B68B3F1FF3F02
:1074B0000AD1074B1B783BB9064B5B6813F0010FF1
:1074C00002D0024B00221A60704700BFEC46002039
:1074D000E042002000C005504FF000639B6A03F1BA
:1074E0007842B2F5C04F07D21A680B4B9A4207D0C8
:1074F000002303708360704700230370836070472C
:10750000012303704FF000639A6A926842609B6A9D
:107510009B698360704700BF07B0CD5E4C4B1B7802
:10752000002B69D110B582B004460023019300936B
:1075300000285FD0464B01221A703AF0F8FC454B08
:10754000186015F041FF444B1B78002B58D0434B7B
:107550005A6E62619A6EA26103F580524FF48043C5
:1075600093663F4B5968E1613E499960196E21600D
:10757000596E6160D3F87011A160196CE160596CAB
:1075800021613949086C1864496C596401215166BC
:107590001B6E13F4005F44D0344BDB6813F0010F13
:1075A000FAD1FFF75DFF324B04221A664FF40072E6
:1075B0001A662CF051FEB0F1FF3F38D12C4C082355
:1075C00023664FF4805323664FF0006323664FF425
:1075D00000236366694601A82CF01BFE019B23660D
:1075E000009B63661C4B1B7823B1224A11682166FD
:1075F0005268626602B010BD154B02221A707047C5
:1076000001F0ECFD0028A2D108231A4A1A491B48B0
:10761000006801F02FFB002899D10F4B01221A704E
:1076200095E7174BDB6813F0010FFAD1B9E72CF09F
:1076300013FE40F201139842C0D00D4B4FF400529C
:107640001A664FF480421A660422C3F87021B5E727
:10765000E14200202C1A0020E2420020008000506D
:107660000080004455CEAC0000C00054000004402F
:1076700000900044301A00200071080010470020DC
:1076800000000450214B1B78012B03D01F4B01221B
:107690001A70704710B5044638B32CF0DDFDB0F118
:1076A000FF3F23D122681A4B1A6662685A66A268A5
:1076B000C3F87021E2681A6422695A64E36913F01E
:1076C000010F02D0124B00229A60FFF7EDFE6269B3
:1076D000104B5A66A2699A6615F07EFE0E4B18682A
:1076E0003AF020FC094B00221A7010BD2CF0B4FDBA
:1076F00040F201139842D5D0084B01225A66084B3C
:10770000DB6813F0010FFAD1CCE700BFE1420020A3
:1077100000800044008000502C1A0020009000409F
:107720000000044070B54FF000639B6A03F178429B
:10773000B2F5C04F2BD21A68184B9A422BD1184B76
:107740001B781BB1022B01D0002422E0154D2846E6
:10775000FFF7E4FE002006F0B5F9134C04F50053E2
:107760004FF48036DE60002030F0C7F904F5805415
:1077700026614FF000639B6ADB6998470446284600
:10778000FFF780FF2CB9064B01221A7001E04FF47D
:107790008174204670BD4FF48174FAE707B0CD5E66
:1077A000E04200200C1A0020008000442B4B1B7884
:1077B00003B9FEE700B583B00023009301930823CB
:1077C0006A4627492748006801F054FA48BB264B0F
:1077D000D3F840311F2B1BD9234BD3F84031203B2A
:1077E00001229A40019B1343019308236A461C49D6
:1077F0001C48006801F0F6F91C4B40F20B221A807D
:107800004FF20F025A8030F070F903B05DF804FBBC
:10781000154BD3F8403101229A40009B134300934B
:10782000E3E72D28E8D1104BD3F840311F2B0ED9B8
:107830000D4BD3F84021203A0123934001930823B4
:107840006A4607490748006801F0CCF9D4E7064BBF
:10785000D3F84021012393400093F0E7E142002058
:107860000071080010470020008000440000002044
:10787000BFF34F8F0549CA6802F4E062044B13431B
:10788000CB60BFF34F8F00BFFDE700BF00ED00E00E
:107890000400FA05F0B18446F1B110B409E004F136
:1078A00020000FE02033C01A18D1BCB10CF1010C3C
:1078B00001319CF800400B4B1B5D03F00303012BCF
:1078C000EDD020460B78074AD25C02F00302012A71
:1078D000E9D1E7E701207047012070475DF8044BCC
:1078E000704700BFCD03050810B504460FE0012323
:1078F000834024EA03040F2814D800EB40020E4B07
:1079000003EB82035A6812B19968C0B2904794B1F0
:10791000234600201F28EAD813F0010FE7D10130D9
:107920005B08F7E7103800EB40039B00B033024AD6
:1079300013440433E6E710BD381A002008B50D489B
:1079400030F0AAF8192006F0ADF828B91A2006F090
:10795000A9F840B9002008BD192006F0B3F8192095
:1079600030F0CBF8F2E71A2006F0ACF81A2030F02D
:10797000C4F8EFE7787304082DE9F04170B30C46C2
:10798000174605460F292BD803784BB1022B20D080
:10799000032B21D0012B01D0002303E03F2301E082
:1079A00040F2FF336A78D34013F0010F1AD00F4B27
:1079B000D3F81063C6B93AF0BAFA80463A4621467F
:1079C000284603F025FA40463AF0ACFA3046BDE8C6
:1079D000F08140F2FF33E5E73F23E3E72226F5E7B6
:1079E0002126F3E72126F1E70226EFE700C0035046
:1079F00040B310B5044603784BB1022B1DD0032BC6
:107A00001ED0012B01D0002303E03F2301E040F210
:107A1000FF336278D34013F0010F15D03AF087FAA4
:107A2000237862780121914003EB43031B01074A4D
:107A3000D1503AF077FA002010BD40F2FF33E8E76A
:107A40003F23E6E7222070472120F5E740D003508E
:107A500040B310B5044603784BB1022B1DD0032B65
:107A60001ED0012B01D0002303E03F2301E040F2B0
:107A7000FF336278D34013F0010F15D03AF057FA74
:107A8000237862780121914003EB43031B01074AED
:107A9000D1503AF047FA002010BD40F2FF33E8E73A
:107AA0003F23E6E7222070472120F5E740E003501E
:107AB00040B310B5044603784BB1022B1DD0032B05
:107AC0001ED0012B01D0002303E03F2301E040F250
:107AD000FF336278D34013F0010F15D03AF027FA44
:107AE000237862780121914003EB43031B01074A8D
:107AF000D1503AF017FA002010BD40F2FF33E8E70A
:107B00003F23E6E7222070472120F5E740F00350AD
:107B100008B5084BD3F82404D3F82024104000F013
:107B2000553020F0502003F50053C3F82004FFF730
:107B3000DBFE08BD00C0035008B5084BD3F8240491
:107B4000D3F82024104000F0AA3020F0A02003F544
:107B50000053C3F82004FFF7C7FE08BD00C0035060
:107B600010B582B004460A482FF096FF23788DF8AE
:107B7000043063788DF80530A278B2FA82F25209A7
:107B800004210DEB0100FFF7F7FE002002B010BD4D
:107B900078730408F0B585B00C4694469DF834100F
:107BA000664A1278002A00F0BD800546BCF1070F36
:107BB00000F2BA800A9A002A00F0B8800B9A002AD4
:107BC00000F0B6800E9AB2F5006F00F3B380012882
:107BD0005BD05B4A02EB0C12127B002A00F0AC80F7
:107BE00000220092019202920392564A02EB4C1E2E
:107BF000002C4FD14FEA4C1600209051CEF80400D3
:107C0000CEF80800CEF80C009EF8020040F01000FC
:107C10008EF802009EF8030040F030008EF803005A
:107C200021B9C1B241F003018EF8031000930E9BFD
:107C3000013B444A4FEA4C1002EB4C11165A63F3D5
:107C40000E1616520A9B8B600B9B4B60CB789DF8EF
:107C50003C2062F38303CB70012D36D0109B002BA8
:107C600056D0374A4FEA0C1102EB0C1310985050C3
:107C7000119A5A6000249C605D73724669466046A2
:107C800002F0FEFE204605B0F0BD0C9A002AA0D1FD
:107C90002D48F8E72B4F4FEA4C1607EB4C1200200B
:107CA000B85150609060D060907840F010009070B3
:107CB000D07840F00300D0700029B7D107EB4C1208
:107CC000C1B241F03001D170B0E70E460A7B42F0FC
:107CD00001020A73D2B242F002020A73CA68042196
:107CE00061F39F02F26006F1100796E80F0087E843
:107CF0000F00F2696FF0030161F39F02F2610C9BC8
:107D00007361012CAAD10B9AB2610C9A7260A5E73B
:107D1000002DA6D10B4B03EB4C139A786FF3041292
:107D20009A709EE70948AEE70748ACE70648AAE71D
:107D30000548A8E70448A6E70548A4E7E342002071
:107D4000A01C0020A01B0020018000F0028000F099
:107D5000078000F0134B1B78FBB110B50446F0B15F
:107D60003AF0E5F80023072B13D80F4A02EB031271
:107D7000127B0AB10133F6E723600B4A190102EBCB
:107D8000031301241C73002454503AF0CBF820460E
:107D900002E03AF0C7F8054810BD054870470548AD
:107DA000FAE700BFE3420020A01C0020048000F09E
:107DB000028000F0018000F038B53AF0B8F80446CF
:107DC0000023072B06DC0C4A02EB0312127B12B9CC
:107DD0000133F6E7002222B120463AF0A3F8074823
:107DE00038BD02F0F9FD0025054B1D7020463AF024
:107DF00099F82846F4E700BFA01C0020058000F099
:107E0000E34200200F4B1B78BBB110B50446072896
:107E100015D83AF08CF80C4B03EB04131B7B1BB901
:107E20003AF080F809480BE0074B03EB04130024F9
:107E30001C733AF077F8204602E005487047054881
:107E400010BD00BFE3420020A01C0020068000F00F
:107E5000028000F0018000F000B583B0134B1B6876
:107E6000019300238DF804303AF061F8104B1B7831
:107E700033B90F4B01221A703AF054F8002309E08D
:107E80003AF050F80B480EE00B4A02EB03120021C7
:107E900011730133072BF7DD08238DF8073001A894
:107EA00002F0BEFD002003B05DF804FBD86A0408B0
:107EB000E3420020038000F0A01C002010B5104C0D
:107EC0002478BCB1072817DC0E4C04EB0014247B8B
:107ED000A4B10C4C4FEA001E04EB001C44F80E3019
:107EE000029BCCF804300024CCF8084002F0C8FD16
:107EF000204610BD0448FCE70448FAE70448F8E7C8
:107F0000E3420020A01C0020028000F0018000F06D
:107F1000078000F008B50A4B1B785BB107280BD827
:107F2000084B03EB00131B7B43B1002102F06AFDF9
:107F3000002008BD0448FCE70448FAE70448F8E7D5
:107F4000E3420020A01C0020028000F0018000F02D
:107F5000078000F008B50A4B1B785BB107280BD8E7
:107F6000084B03EB00131B7B43B1012102F04AFDD8
:107F7000002008BD0448FCE70448FAE70448F8E795
:107F8000E3420020A01C0020028000F0018000F0ED
:107F9000078000F0F8B5194B1F6D5B6D1F4002D4D0
:107FA0000125002402E0FEE701346D00072C24D8EF
:107FB0003D42F9D0124B1D652301124AD358002BC4
:107FC000F2D002EB0416B1680131B160726820464C
:107FD000984780F00100C0B2737B012BE4D10028E8
:107FE000E2D0094B03EB44131A7B6FF341021A737F
:107FF0001A7F6FF341021A77D6E7F8BD00000450EC
:1080000000200450A01C0020A01B00202DE9F04FF0
:1080100089B005460E4614469846C36B5B6901223B
:1080200007A960689847EB6B5B69012206A9304697
:10803000984707A82DF0FAFB48B10027A775677588
:108040004FF0FF33A360384609B0BDE8F08F074614
:1080500006A82DF0FBFB0123A375237E033304EB5D
:10806000C3035E6000221A816368B3422AD023688A
:10807000834201D00023A37506A82DF00CFC237DBC
:10808000984201D00023A37506A82DF0E3FB81469A
:1080900007A82DF0DFFB814501D00023A37506A8BA
:1080A0002DF0E0FB814607A82DF0DCFB814501D0D7
:1080B0000023A375237D043BDBB2022B0BD80023E6
:1080C000A375C0E7206006A82DF0E5FB20754FF0F2
:1080D000FF33A360EEE706A82DF0BCFB80B1EB6B8D
:1080E0005B69022204A93046984704A82DF0C5FB1D
:1080F0000346207D032867D8DFE800F0605A070DAB
:1081000006A82DF0BAFB0346F3E7237E033304EB06
:10811000C303CC221A812DF0CEFB129B187094F869
:10812000189006A82DF089FB09F1030904EBC90991
:1081300089F80A00237E033304EBC303B3F808A0D5
:1081400093F80AB006A82DF085FB814606A82DF00D
:1081500089FB0390B9F1000F3CD0EB6B5B69022205
:1081600004A93046984704A82DF043FB6075637D51
:1081700003B9A375A37DA3B1BAF1000F11D0039B7E
:10818000F1186B6C5B4286EA01021A4201D00023AF
:10819000A3756B6C5A1E0A409B1A9A4501D900239D
:1081A000A375A37D8BB3BBF1000F18D1E77D2DE044
:1081B000227E033204EBC2021381ACE7227E03323B
:1081C00004EBC2021381A6E7227E033204EBC20253
:1081D0001381A0E706A82DF0F5FA6075C7E7012224
:1081E000E275627E42B9BBF1010F01D01F460DE07E
:1081F00001216176174609E0BBF1010F37D0BBF1D1
:10820000030F03D10122A27600E01F4653B117B13C
:10821000BBF1010F06D95346039A314628462CF08C
:108220007BFCA060A37D13B1236953442361237EAB
:10823000114A127893421CD201332376B8F1000F11
:1082400013D0A37D8BB1E37D7BB177B9BBF1030F75
:108250000BD0A168B1F1FF3F07D0129B009301231F
:1082600022462846FFF7D2FEA075A77DEBE617460B
:10827000CCE70023A375E1E7FC6A04082DE9F04F81
:1082800089B005460F4692469B4600238DF80B3079
:108290004FF0FF31104600F0BDFFB7F5801F1DD332
:1082A0000023009317F1020F07D0009B002B40F032
:1082B0009E802B7C002B00F08C80EB6AB3F1FF3F9B
:1082C0002CD02A689B1A6A6CB3FBF2F917F10208EA
:1082D00018BF4FF00108002301935DE00DF10A0281
:1082E000394605F1080000F0E5FE0146B0F1FF3F18
:1082F00011D0504600F08EFF0DF10B0301225146C4
:1083000028462CF088FC00900028CBD09DF80B303C
:108310008BF80030C6E700230093C3E7696A28465C
:108320002CF01BFB8146D1E70123019337E09DF838
:108330000B308BF80030324B1A683249504637F018
:108340001CFE00942F4B9968B1F1FF3F1BD06B6C62
:108350005B4281EA06021A4215D12A4C204600F0FF
:1083600059FF0DF10B034246214628462CF053FCE1
:1083700004460028E6D017F1020FD8D0214B1B6825
:10838000BB42DFD1D3E7494628462CF0E6FA8146C6
:10839000019BCBB9009BBBB96B6A4B45C4D02C6821
:1083A0006B6C03FB0944EB6B5B69052203A9204658
:1083B000984703A82DF016FB2DF03BFB20462DF02F
:1083C00044FB06460146BFE7009BA3B1B7F5801FFB
:1083D00003D3009B8BB100200AE09BF80030DAF851
:1083E0000420394605F1080000F082FEF1E7002084
:1083F00009B0BDE8F08F2D20FAE72D20F8E700BF87
:10840000F86A04089423002070B582B004464FF047
:10841000FF33C3620DF107031A4A6FF00101FFF742
:108420002DFF20BB174B9B68E362E56A2946204677
:108430002CF084F82063E8B1294620462CF05CFB40
:108440000546A36AAB421BD0294620462CF076F89D
:108450000646236B03442363294620462CF04CFB3D
:108460000546002EEDD100232363E062E9E7A36A0D
:10847000E362DAE7E16A20462CF03EFBE062DBE7EC
:1084800002B070BDC023002030B583B01C46032A63
:1084900014BF002201221B7E9A4202D0012003B0A9
:1084A00030BD0D46096823689942F7D36368994245
:1084B000F4D80DF10703114AFFF7E0FE0028EDD1D3
:1084C0000E4B5A686B689A42E8D19DF80730032B2F
:1084D00014BF00230123227E9342DFD1636901335D
:1084E00063612369E2689342D8D2A268296842F89E
:1084F0002310236901332361D0E700BFC02300208C
:108500002DE9F04182B004460E4690461F46816A2E
:1085100006E01A4B9968B1F1FF3F1FD0012E23D01E
:10852000E06A884217D0B1F1FF3F14D0134D2846BE
:1085300000F070FE0DF107030122294620462CF0C1
:108540006AFB0028E5D03B469DF8072029462046D7
:10855000C0470028DDD102B0BDE8F081596820464F
:108560002CF0CAFA0146D9E7044B5A68636C5B42A7
:108570004A401A42D4D04FF0FF31D1E7682300209F
:1085800010B50446083000F05BFD0023024A19468E
:108590002046FFF7B5FF10BD054C030838B504466B
:1085A000037C0BBB02461349083000F0EBFD616A07
:1085B00020462CF0F4F9421C616A20462CF045F963
:1085C000054620B9236B626C1344143B2363A16AF4
:1085D00020462CF091FAA0622368C01A636CB0FBAD
:1085E000F3F06062284638BD0023034A0121FFF7FB
:1085F00087FFDCE79D4F03086B4F0308F0B589B098
:1086000080B30F4616461D46044690F834301BB919
:108610000025284609B0F0BD01212CF0EBF80195AA
:108620000E9B0293039704960023059306939DF8EF
:108630003C308DF81C30237C5BB901AA0A4904F157
:10864000080000F09FFD5EB9069D20462CF074FBEB
:10865000DFE701AB054A00212046FFF751FFF2E7B3
:10866000059DF2E70025D4E7B9470308898400088F
:10867000F0B58BB004460D46406AE36B5B6905229A
:1086800005A92668676C07FB0060984705A82DF0D0
:10869000A9F9012836D00094002301938DF80850E1
:1086A000039301238DF81030A16AE36A99420FD039
:1086B000237CBBB96A46144904F1080000F062FD4E
:1086C000019B13B99DF810309BB901980BB0F0BD18
:1086D00020462CF011FAE062236B626C9B1A143373
:1086E0002363EDE76B46094A01212046FFF708FFA7
:1086F000E6E7626A2368616C01FB0231E06B2DF0F2
:1087000023F9E2E70020E1E76D890008ED88000821
:108710002DE9F04F89B004468A4691461D46002354
:1087200007930969026BCB1D406C1438B3FBF0F35F
:10873000013301EBC301914200F2A4804E4674E084
:108740000490BB4605961EE04FF000092368616C5B
:1087500001FB0631E06B2DF0E3F820462CF054F8D5
:1087600020462CF0F0F92063B9F1000F76D0DAF84A
:108770001020D31D616C1439B3FBF1F3013302EB0C
:10878000C30290423AD32368ABEB0309606CB9FB98
:10879000F0F909FB00302DF058F98046E16A2046D7
:1087A0002CF0AAF9A36A83422CD0E062364B9A6877
:1087B000616C4B1E1340226B5B1A13442363ABEBBB
:1087C00008072368079EF61AB6FBF1F6B145BBD140
:1087D00097B1E36B9B69BA08414698478146E36AC3
:1087E0003B44E362236BA8EB0B084344236304F18F
:1087F000080000F025FCA9E7B946A7E7DDF810B0AE
:10880000059E02E0DDF810B0059EBBF1000F29D0F7
:10881000DAF81000226BC31D616C1439B3FBF1F35D
:10882000013300EBC30082421CD3E76ADFF85880B3
:108830003946404600F0EEFC07AB029301950096E6
:108840003B464246514620462CF0A1FC8346002878
:108850007FF476AFD8F80830E362D6E7DDF810B0E1
:10886000059ED2E75F461FB1384609B0BDE8F08FDC
:108870002B46054A5268DAF8001004F1080000F0AF
:1088800037FCF1E71C27EFE7942300202DE9F8439C
:108890001D469DF820704369AB4220D304468846AC
:1088A00091462CF037FB032F06D0266B2946204635
:1088B0002BF024FE864214D30B4E4FF0FF3130468E
:1088C00000F0A8FCC6F800803561C6F80C903B4665
:1088D000002231462046FFF71BFFBDE8F8836220E7
:1088E000FBE71C20F9E700BFC0230020F0B583B0F0
:1088F0001C46032A05D1237A012B33D0012003B073
:10890000F0BD06460F4615460DF10703164A0968E5
:10891000FFF7B4FC60600028EDD19DF80730032B11
:10892000E9D0114B5A687B689A42E4D1237A012B33
:1089300008D13B69E26813447269934202D900236B
:108940002374D8E7E3683A6913440833E3602B469D
:10895000012239463046FFF7DBFE60600028CAD0AE
:108960000020CCE7207CCAE7C0230020F0B583B00C
:10897000089C2668032A05D1237A012B4DD00120BB
:1089800003B0F0BD15460DF10703254A3046FFF749
:1089900075FC60600028EFD12168214B5A688B6A12
:1089A000486CC0F1000C5A4012EA0C0FE4D1227A54
:1089B000012A19D00F68DB1BB3FBF0F3CA6AD21B84
:1089C000B2FBF0F29A4219D0E36815490A691344E0
:1089D0000833E3602B4601222068FFF799FE6060B0
:1089E0000028C9D00020CBE70D4A1269E7683A4455
:1089F0007769BA42DED900232374BDE7726CF16A4D
:108A0000531E0B40316B9B1A0B4433632668B16ACB
:108A100030462CF071F8F062D6E7207CB0E700BF5A
:108A2000C0230020F8B56D4B1E6800221A60002894
:108A300000F0B4800D46044690F8343013B30A6851
:108A400003689A4240F0AC804A6843689A4240F01A
:108A5000AA808A6883689A4240F0A780CA68C3687F
:108A60009A4240F0A4800A6943699A4240F0A1808A
:108A70008A69C36B9A4201D05D2592E04B6983619C
:108A800000258EE0876B5022002137F03FFAA76364
:108A90002B6823606B6863602B6963616B69A361FA
:108AA000EA68A96804F1080000F0DCFAAB69E36346
:108AB0009B6804F14000984730B9636C23B1626849
:108AC000B2FBF3F2E26101E00023E36194F843308A
:108AD000002B70D0656C002D6FD0E369002B6ED039
:108AE0002368B3FBF5F205FB1233002B69D16768ED
:108AF000B7FBF5F305FB1373002B64D120462BF075
:108B00000DFDA369034404339F425ED36369B3F54B
:108B1000805F5CD8CB2B5CD9B5F5805F5BD303213C
:108B200020462BF067FEE36B1B686168206898475E
:108B30000546E36BDB6802209847EDB1636C143B9C
:108B40005DB9266A03FB06F620462BF0E7FCA36915
:108B5000034404339E4200D25A25B5FA85F35B09DB
:108B600084F834301BB11E4A13680133136085B199
:108B700020462CF0E1F814E0314620462CF05FF856
:108B800005466428DAD1314620462CF058F80546CF
:108B9000D4E7616820682CF0BEFDE9E7212500E0FC
:108BA0005D252846F8BD5D25FBE75D25F9E75D25D8
:108BB000F7E75D25F5E72125F3E75B25F1E75B2581
:108BC000EFE75925EDE75925EBE75A25E9E75F255A
:108BD000E7E75F25E5E75B25E3E700BF241D00200D
:108BE000201D00202DE9F04184B000283AD00C4629
:108BF00090461F46054690F83430ABB3B1F5801F60
:108C000034D202212BF0F6FD0DF10F03184A214654
:108C10002846FFF733FB18B99DF80F30012B0FD012
:108C2000012300933B46424621462846FFF72EFE8D
:108C3000064628462CF080F8304604B0BDE8F081A6
:108C40000B4B1B69BB42EBD101230193084B0093F3
:108C50003B460022414628462CF076F8064600287E
:108C6000E7D0DDE72126E7E71126E5E72926E3E758
:108C7000EC230020F0B585B0A8B30C4617461E467D
:108C8000054690F8343083B3B1F5801F2FD201210F
:108C90002BF0B0FD0DF10F03164A21462846FFF7D1
:108CA000EDFA044630B99DF80F30012B08D0022BA5
:108CB00017D02D2428462CF03FF8204605B0F0BDF3
:108CC0000C4B1B69B34201D06324F3E700220192ED
:108CD000084B00933346394628462CF035F80446B5
:108CE000E8E76024E6E72124E7E71124E5E7292403
:108CF000E3E700BFEC230020F0B585B0002838D0B2
:108D00000C4617461E46054690F834309BB3B1F525
:108D1000801F32D201212BF06DFD0DF10F03184A97
:108D200021462846FFF7AAFA044630B99DF80F30CD
:108D3000012B08D0022B1AD02D2428462BF0FCFF43
:108D4000204605B0F0BD0E4B1A690A9BF3189A42F3
:108D500001D26324F1E700230193094B00930A9B9E
:108D60003246394628462BF0EFFF0446E5E76024FB
:108D7000E3E72124E4E71124E2E72924E0E700BF48
:108D8000EC23002070B586B00392C0B30C460546B4
:108D900090F83430ABB3B1F5801F34D202212BF000
:108DA00029FD0DF11703194A21462846FFF766FAF7
:108DB000064638B99DF81730032B03D0022B10D08C
:108DC000612608E002230093CC2303AA214628460B
:108DD000FFF75CFD064628462BF0AEFF304606B096
:108DE00070BD0A4928462CF096F9039A8242F2D0C7
:108DF0000346064928462CF0BFFB0646EBE7212632
:108E0000ECE71126EAE72926E8E700BFEC2300207B
:108E100070B582B058B30C461646054690F834300B
:108E20003BB3B1F5801F26D201212BF0E3FC0DF1FD
:108E30000703124A21462846FFF720FA044668B97C
:108E40009DF80730032B10D0022B01D0612406E0DF
:108E50000A4928462CF05FF9306000E02D242846AE
:108E60002BF06AFF204602B070BD2D24F7E72124C5
:108E7000F8E71124F6E72924F4E700BFEC230020EB
:108E8000F0B583B0A0B30C461646054690F83430D2
:108E900083B3B1F5801F2FD202212BF0ABFC0DF173
:108EA0000703164A21462846FFF7E8F9B8B99DF8A6
:108EB0000730032B1AD0022B01D0612410E00F4C95
:108EC000214628462CF027F90346471C3A462146FE
:108ED00028462CF051FB044616B1376000E02D24E3
:108EE00028462BF029FF204603B0F0BD2D24F7E7DC
:108EF0002124F8E71124F6E72924F4E7EC230020E5
:108F0000F0B583B01C460023236070B30E461746AD
:108F1000054690F8343053B3B1F5801F29D20121B2
:108F20002BF068FC0DF10703134A31462846FFF782
:108F3000A5F9064680B99DF80730032B13D0022B04
:108F400005D000233B600C4B1B69236005E0012327
:108F50003B600423236000E02D2628462BF0ECFE26
:108F6000304603B0F0BD2D26F7E72126F8E711269D
:108F7000F6E72926F4E700BFEC23002030B585B0E2
:108F800048B30C46054690F8343033B3B1F5801F32
:108F900025D202212BF02EFC0DF10F03114A2146A0
:108FA0002846FFF76BF978B99DF80F30032B01D1F4
:108FB0002D240AE00323009300231A462146284665
:108FC000FFF764FC044600E02D2428462BF0B4FE95
:108FD000204605B030BD2124FAE71124F8E7292402
:108FE000F6E700BFEC230020036853F83100C0F31C
:108FF00013007047036853F83100C0F307507047FF
:10900000036803EBC1035868704700BF006850F85D
:1090100031301B0D1B05134340F83130704700BF42
:10902000006850F83130C3F3130343EA025340F8A9
:1090300031307047036803EBC1035A60704700BFCB
:10904000002309E002684FF0FF3142F83310026854
:1090500002EBC3025160013342689A42F2D8002306
:109060000372704708B501604260FFF7E9FF08BD71
:10907000002342689A421BD910B403E001334268CE
:109080009A4212D904684FEAC30C54F83320B2F163
:10909000FF3FF3D0C2F313029142EFD14FF0FF3202
:1090A00044F80C20036863445A605DF8044B704731
:1090B000704700BF10B5002300E0013344689C42B4
:1090C00012D904684FEAC30E54F83340B4F1FF3F9D
:1090D000F3D0C4F3130C6145EFD1C4F307541470FB
:1090E00003687344586801E04FF0FF3010BD00BFC3
:1090F0002DE9F047456806467DB30F4691469846F0
:109100000024D0F800A05AF83430013305D02146AD
:109110003046FFF769FFB84210D00134A542F2D1C2
:10912000002402E00134A54214D05AF8343001334F
:10913000F8D13A4621463046FFF768FF42462146BD
:109140003046FFF76DFF4A4621463046BDE8F047FE
:10915000FFF770BFB8F1030F03D101233372BDE8ED
:10916000F087002402E00134A542F6D021463046C3
:10917000FFF740FF0328F6D13A4621463046FFF775
:1091800045FFDBE72DE9F0439146426883B00AB31F
:109190000546884600242B6853F83430013316D036
:1091A00021462846FFF720FF214607462846FFF7BD
:1091B00021FF214606462846FFF722FF394603468F
:1091C00032462846CDF80090C04718B16A6801348D
:1091D0009442E0D303B0BDE8F08300BF08B5034B71
:1091E0001968034B1868FFF71DFC08BDF046002006
:1091F0001047002008B538F08DFE014B186008BDFF
:109200001824002008B5024B186838F07EFE08BD0F
:109210001824002038B504460D46094B1A68002171
:1092200036F074FE4FF0FF32226065600023A375B4
:109230002361A260E3756376A376237638BD00BF11
:10924000F86A04082DE9F04186B006460D46174637
:10925000984658682CF03DFB4403A4B298F80330BC
:109260001B0303F480531C4498F80230DB0203F420
:1092700000631C44B8F80030C3F30A031C441B4BC2
:109280000193002138462CF02EFB02900121384634
:109290002CF029FB03904FF0FF3304936FEA044452
:1092A0006FEA14440594B369012205A905F1100081
:1092B00098470446B369012203A905F108009847BD
:1092C000074600B92746B369012202A9281D98471D
:1092D000044600B93C46B369012201A928469847D3
:1092E00000B9204606B0BDE8F08100BF01009AB287
:1092F00038B505460C46164BD3F8283103F0070362
:10930000013B052B20D8DFE803F003131B0F0B17DD
:1093100036F04EFE052305B1286004B1236038BD48
:1093200036F046FE0623F6E736F08CFE0723F2E71A
:1093300036F07EFE0323EEE736F07AFE0423EAE7FA
:1093400036F072FE0223E6E700231846E3E700BF8B
:109350000080005030B583B005460C4600230193D1
:10936000154BD3F8203203F00703042B21D8DFE894
:1093700003F0030B11161B0001230DB1019A2A60A3
:1093800004B1236003B030BD002101A8FFF7B0FF96
:109390001223F2E736F056FE01900723EDE738F08E
:1093A000AEFD01900A23E8E736F096FE019009230E
:1093B000E3E70023E1E700BF00800050024B4FF4D9
:1093C00080321A67704700BF00900050204B9842CF
:1093D00036D009D91F4B984236D01F4B984222D124
:1093E0001E4BD3F8D0007047A3F5B703A3F558631D
:1093F000984221D006D91A4B984212D1174BD3F874
:10940000BC007047174B984202D0174B984203D1CB
:10941000124BD3F8A0007047144B9842F8D00020AC
:10942000704700207047124B984203D10B4BD3F882
:10943000C800704700207047084BD3F8B800704749
:10944000064BD3F8C0007047044BD3F8CC007047EC
:10945000C0EA21010048E801005A62020080E00FE2
:109460000024F40080841E0000093D0040420F00EB
:1094700080BA8C0138B505460C460F4BD3F88030C6
:1094800003F00303022B0ED0032B10D0012B06D0C8
:109490000023184605B1286004B1236038BD36F0BA
:1094A0008DFD0E23F6E736F0CDFD0723F2E736F00B
:1094B0007FFD0623EEE700BF0080005038B505466B
:1094C0000C46104BD3F8000100F00300032815D818
:1094D000DFE800F002080C10012305B1286004B198
:1094E000236038BD36F0A4FD0323F6E736F0F4FD23
:1094F0000923F2E736F0A2FD0823EEE70023184621
:10950000EBE700BF0080005038B505460C46174B0E
:10951000D3F8200100F00700062823D8DFE800F088
:10952000040A0E16121A1E00012305B1286004B1A8
:10953000236038BD36F03CFD0523F6E736F078FDB4
:109540000323F2E736F07EFD0723EEE736F06CFDED
:109550000223EAE736F02CFD0623E6E736F068FD45
:109560000423E2E700231846DFE700BF0080005035
:1095700038B505460C46104BD3F8400100F0030007
:10958000032815D8DFE800F002080C10012305B10C
:10959000286004B1236038BD38F0B1FC0A23F6E737
:1095A00036F09AFD0923F2E738F0ACFC0C23EEE725
:1095B00000231846EBE700BF0080005030B583B0B1
:1095C00005460C4600230193144BD3F8603203F098
:1095D0000703013B032B1FD8DFE803F0020E191429
:1095E000002101A8FFF790FF10230DB1019A2A6016
:1095F00004B1236003B030BD002101A8FFF7B8FF1C
:109600001123F2E736F01EFD01900723EDE736F057
:109610000BFD01900223E8E70023E6E700800050FD
:1096200030B583B005460C4600230193144BD3F8A4
:10963000943203F00703013B032B1FD8DFE803F04C
:10964000020E1914002101A8FFF75EFF10230DB1CF
:10965000019A2A6004B1236003B030BD002101A843
:10966000FFF786FF1123F2E736F0ECFC01900723A9
:10967000EDE736F0D9FC01900223E8E70023E6E7A6
:109680000080005030B583B005460C46002301939E
:109690000C4BD3F8703203F00303012B09D0022BDB
:1096A0000DD115230DB1019A2A6004B1236003B0D6
:1096B00030BD002101A8FFF75BFF1123F2E7002373
:1096C000F0E700BF0080005038B505460C46104B4F
:1096D000D3F8600100F00300032815D8DFE800F09C
:1096E00002080C10012305B1286004B1236038BDC5
:1096F00038F005FC0A23F6E736F0EEFC0923F2E722
:1097000038F000FC0C23EEE700231846EBE700BF1F
:1097100000800050324B984252D029D8314B9842A9
:1097200048D009D9304B984247D0304B98421DD190
:109730002F4BD3F8800070472E4B984237D005D975
:109740002D4B984210D12A4B186F70472B4B9842E3
:1097500002D02B4B984202D1254B986D7047294B74
:109760009842F9D0002070470020704700207047D1
:10977000254B98422CD00CD9244B98422CD003F581
:10978000740303F5105398420FD1194BD3F8980086
:1097900070471F4B984217D01E4B984203D1144B71
:1097A000D3F88C0070470020704700207047104BA2
:1097B000586E70470E4B586F70470D4B986F70473F
:1097C0000B4BD3F884007047094BD3F888007047DF
:1097D000074BD3F890007047054BD3F894007047BF
:1097E0000048E8010024F400C0EA210180BA8C019D
:1097F0000080E00FC0CF6A00405DC60080841E007C
:1098000000093D0040420F00007E56030090D00347
:1098100080D54302006CDC0270B582B006460D466E
:1098200000230193104BD3F8804104F00304022C71
:1098300016D0032C0FD0012C07D000240EB1019BB1
:10984000336005B12C6002B070BD002101A8FFF7A4
:109850005BFE1024F2E736F0F5FB01900724EDE7FC
:1098600036F0E2FB0190E9E70080005038B505468C
:109870000C46104BD3F8400200F00300032815D823
:10988000DFE800F002080C10012305B1286004B1E4
:10989000236038BD38F033FB0A23F6E736F01CFCB2
:1098A0000923F2E738F02EFB0C23EEE700231846DD
:1098B000EBE700BF0080005038B505460C46134B5F
:1098C000D3F8000200F0070004281BD8DFE800F0FE
:1098D00003090D111500012305B1286004B12360AF
:1098E00038BD38F00CFB0A23F6E736F0F5FB092308
:1098F000F2E738F007FB0C23EEE736F07FFB800A37
:109900000F23E9E700231846E6E700BF0080005078
:1099100038B505460C46134BD3F8080200F0070093
:1099200004281BD8DFE800F003090D1115000123FE
:1099300005B1286004B1236038BD38F0E0FA0A238D
:10994000F6E736F0C9FB0923F2E738F0DBFA0C231F
:10995000EEE736F053FB800A0F23E9E700231846B1
:10996000E6E700BF00800050B0F5207F20D00ED881
:10997000B0F5007F16D020D810B1B0F5C07F04D16B
:109980000F4B186FC0F3033018E0002016E0B0F55D
:10999000607F05D10A4BD3F88000C0F301100DE0C1
:1099A00000200BE0064BD3F89000C0F3046005E004
:1099B000034B186FC0F3802000E000200130704797
:1099C0000080005038B505460C46174B4FF48032E6
:1099D0009A660020FFF7C8FF05FB00F0134BDA6919
:1099E00002F4803241F67131D9635B6823F440138D
:1099F0006CB90F49884207D800210B430B494B60D3
:109A00000AB10022CA6338BD4FF48011F5E7002C7B
:109A100007DD0849884201D80021EEE74FF48011A4
:109A2000EBE74FF44011E8E70090005000000350CE
:109A3000005A6202002D3101430905D0012B0DD0DF
:109A4000022B0DD0002200E0002200F01F0049B1DF
:109A500002F580520123834013607047034AF4E704
:109A6000034AF2E702F50052F4E700BF64800050B9
:109A70006880005008B580202CF05CF8034B9842B9
:109A800003D8034B4FF480321A6708BD005A6202B4
:109A900000A0005000B583B000230193B0F5807F93
:109AA00000F04A8118D9B0F5F06F00F04A8140F219
:109AB000DB80B0F5206F00F0538140F20481B0F5F7
:109AC000406F00F04881B0F5486F40F00C8101A96B
:109AD0000020FFF7A5FDDFE0802800F2DD802428CC
:109AE000C0F0DA8024385C2800F2D68001A353F855
:109AF00020F000BF2F9D00082F9D00082F9D00081B
:109B00002F9D00082F9D0008999C0008259D0008A6
:109B1000999C0008BD9C00084D9D0008999C000878
:109B2000999C0008999C0008999C0008999C000841
:109B3000999C0008999C0008999C0008999C000831
:109B4000999C0008999C0008999C0008999C000821
:109B5000999C0008999C0008439D00087D9C000882
:109B6000999C0008999C0008999C0008999C000801
:109B7000999C0008999C0008999C0008999C0008F1
:109B8000999C0008999C0008999C0008999C0008E1
:109B9000999C0008999C00082F9D0008999C00083A
:109BA000999C0008999C0008DD9C0008999C00087D
:109BB000999C0008619D0008ED9C0008AD9C000880
:109BC000579D0008999C0008999C0008999C0008E2
:109BD000999C0008999C0008CF9A0008999C00085D
:109BE000999C0008999C0008999C0008999C000881
:109BF000999C0008999C0008999C0008999C000871
:109C0000999C0008999C0008999C0008999C000860
:109C1000999C0008999C0008999C0008999C000850
:109C2000999C0008999C0008999C0008999C000840
:109C3000999C0008999C0008999C0008999C000830
:109C4000999C0008999C0008999C0008999C000820
:109C5000999C0008999C0008999C0008999C000810
:109C6000999C0008F79C0008B0F5B06F5AD00AD94B
:109C7000B0F5D06F6AD0B0F5E06F1CD101A900201B
:109C8000FFF7F4FD08E0B0F5607F04D101A90020E2
:109C9000FFF7F0FB00E003D2019803B05DF804FB8E
:109CA000B0F5806F43D0B0F5A06FF5D101A90020C9
:109CB000FFF750FBF0E7B0F5C06FEDD101A9002030
:109CC000FFF756FCE8E7B0F5086F04D101A90020C2
:109CD000FFF7F4FBE0E7B0F5106FDDD101A900203C
:109CE000FFF716FED8E7B0F5286FD5D101A90020FF
:109CF000FFF7C8FCD0E71D4B1B6F03F00703013BC8
:109D0000032BC9D8DFE803F00B02050805230193F4
:109D1000C2E703230193BFE708230193BCE70223B3
:109D20000193B9E701A90020FFF776FDB4E701A987
:109D30000020FFF7E9FBAFE701A900202BF0D5FEDB
:109D4000AAE701A90020FFF7BFFCA5E701A90020B1
:109D5000FFF7B2FDA0E701A90020FFF7C9FA9BE7D2
:109D600001A90020FFF72AFC96E700BF0080005001
:109D7000094B596E03F580534FF480325A66074AF7
:109D8000536A23F00103536211F4803F03D1044B63
:109D90004FF480325A6670470080005000C0075070
:109DA00000A0005010B504468020FFF773FE032882
:109DB00000F0AE805D4B4FF480125A665C4B45F666
:109DC0000E02C3F8802003F580524FF0A06191622B
:109DD00003F500534FF480329A62554B9B6D13F498
:109DE000803FFAD1524B9B6D13F0804FFAD122681D
:109DF00063681B0543EA0263227B43EA0243627BFA
:109E000043EA0233A27B43EA8213E27B1343484ACC
:109E10001361936903F00043216943EA8163616937
:109E200043EA0163217E43EA0143617E43EA012361
:109E3000A17E0B439361136A23F00F03E269002AAA
:109E400046D111460B43E17E43EA81031A43384B66
:109E50001A62E369002B3DD1354A916A354B0B40BC
:109E600094F8201043EA411394F8211043EA0113B7
:109E700094F8241043EAC10343F4803393622C4BDB
:109E80009A6D2D4B9343FAD1294A02F580514FF038
:109E900080738B62136923F47003A06843EA005354
:109EA00013614FF000438B6194F822301BB9234BB0
:109EB0004FF080729A6294F8233013BB1F4B4FF41B
:109EC00080329A621A4B9B6D13F0804FFAD118E0E2
:109ED0000821B7E7022B1CD0154A916A154B0B409D
:109EE00094F8201043EA411394F8221043EA0163E6
:109EF00094F8241043EAC10394F8231043EA014381
:109F0000936294F825301BB1094B0D4AC3F88020A9
:109F100010BD074B00221A619A614FF408524FF4AA
:109F20007F4108482BF0D3FDD6E700BF00900050DA
:109F30000040005AC7FFFEFE030001000060005A07
:109F4000F1A7FFFF3440005A014B93F9000070471E
:109F5000BA4B002010B443784F2B28BF4F231A462A
:109F60001C4B4FF40001596603F5B8334FF4D1513F
:109F7000596203F5805102244C6003F5005301211E
:109F80005960154B1B6913F4803FFAD1037842EAFC
:109F90000323114A5361416883681B0143EA01238B
:109FA000017B43EA4103417B0B439360817BC37B8D
:109FB0001B0143EA4113017C43EA4103417C0B430B
:109FC0005360837C1BB113466FF4D1525A625DF823
:109FD000044B70470090005000000250014B188065
:109FE000704700BF7A4B0020014B1880704700BFBC
:109FF000784B002008B51B4B4FF480025A6603F5DE
:10A00000D83302225A60184B9B6813F4803FFAD170
:10A01000012806D0144B00225A62134B00225A60CA
:10A0200008BD36F005F8114B984212D003F5122303
:10A0300003F5F863984210D000EB8001490A400A0A
:10A040000B4AB2FBF0F2084BD9621A6301225A6242
:10A05000E3E745F67A120749F5E745F61A0206499D
:10A06000F1E700BF009000500040025000F04902AC
:10A0700064666666D8B80500BBCF0500B0F5207FE2
:10A080005DD02DD8B0F5007F4ED061D810B1B0F5BD
:10A09000C07F24D110B54C1E2BF045FD2BF025FFC1
:10A0A000FFF78CF92B4A136F23F4704343EA043310
:10A0B000136735F0A3FF284BD3F8843013F0100F4B
:10A0C000F9D1254BD3F88410C1F38111C1F10201FC
:10A0D0002BF000FF00F058F8FFF7CCFC10BD7047E4
:10A0E000B0F5607F1FD11D4BD3F8FC2012F08072B9
:10A0F00006D01846D3F8FC3023F08073C0F8FC304B
:10A1000001391448D0F8803023F0300343EA0113BA
:10A11000C0F88030E2B1114AD2F8FC3043F08073CD
:10A12000C2F8FC307047704701390A4AD2F89030C3
:10A1300023F0F85343EA0163C2F8903070470139C5
:10A14000044A136F23F4806343EA81231367704743
:10A15000704700BF008000500040005000ED00E05C
:10A1600008B50121022000F0FFF84FF42070FFF73E
:10A17000FBFB044B18702BF0D6FC2BF0B6FEFFF760
:10A180001DF908BDE442002008B54FF4C0702BF063
:10A19000D1FC054B984205D902214FF42070FFF7FE
:10A1A0006DFF08BD0121F8E780F0FA0210B5044602
:10A1B00035F024FF0F4BD3F8843013F0100FF9D192
:10A1C0000C4BD3F88410C1F38111C1F102012BF0C3
:10A1D00081FE0121002000F00DF924B1FFF7D4FF2A
:10A1E000FFF748FC10BD044B19784FF42070FFF7BF
:10A1F00045FFF5E700400050E442002070B50446FA
:10A20000FFF788FA0546364B4FF4C0225A6603F52D
:10A2100098335B68012B29D08020FFF73BFC052891
:10A220002DD025F040752F4B9C422FD02E4B9C42B9
:10A230002FD035F0BDFE064684422DD82B4BDB686F
:10A2400013F0060FFAD1294B9A689D609B686B400A
:10A2500013F4F81F25D0254B9A6034468020FFF771
:10A2600019FC052821D0B44235D970BD204B0122FC
:10A270005A60204B5B6813F0020FFAD1CCE72BF049
:10A2800052FC2BF032FEFFF799F8CAE745F0007553
:10A29000CFE745F08075CCE70121204600F0AAF811
:10A2A000CCE72046FDF7C4F8D8E735F0A7FE124BFF
:10A2B000D3F8843013F0100FF9D10F4BD3F884107A
:10A2C000C1F38111C1F102012BF004FEFFF75CFF25
:10A2D000FFF7D0FBC7E70121002000F08BF8C4E7AF
:10A2E0000090005040420F0080841E00000001508A
:10A2F00000E0015000C001500040005010B504467D
:10A30000FFF764F80A4B4FF400225A6620F04070C1
:10A31000084A944206D0084A944206D04FF0B4420C
:10A32000906010BD40F00070F8E740F08070F5E7F5
:10A330000090005040420F0080841E00044A536F7A
:10A3400023F44073417843EA01235367704700BF09
:10A3500000400050034AD36E23F0300301790B43D1
:10A36000D366704700400050F8B50446204BD3F840
:10A37000843013F0100FF9D11D4BD3F88430C3F3A0
:10A3800081139C422DD035F019FE0646012C11D0C8
:10A3900037F0C0FD0546164F07F500534FF0007229
:10A3A0005A6620462BF0A9FD621E4FF4806393404D
:10A3B0003B6706E001212BF08DFDE9E70C4BD3F85C
:10A3C00084300B4B5B6E13F0007F05D1084BD3F844
:10A3D000843013F0200FF1D0284637F096FD022C80
:10A3E00000D0F8BD002130462BF074FDF9E700BF26
:10A3F0000040005010B50C46034650B1094A12788F
:10A4000012B1094A934208D921460220FFF7ACFF56
:10A4100010BD35F0D3FD0346F0E721460120FFF7DC
:10A42000A3FFF5E71C240020005A620208B5027859
:10A43000034B1A7001210020FFF7DCFF08BD00BFAD
:10A440001C24002038B52F4B4FF000425A6603F50C
:10A450000B235C6C04F001044AF6CD321A64E8B9AF
:10A46000294B5B6B13F00103FAD1274A556815F0AD
:10A47000010539D002F50052012151601A462249E6
:10A48000096B11F0010F04D120498A4201D8013231
:10A49000F5E71E498A422FD81D4625E000231A4AB7
:10A4A000126B12F0080F04D0184A934201D80133FE
:10A4B000F5E7164A934221D8134B03F500522021A9
:10A4C000916203F5805301225A60002300E00133BA
:10A4D0000D4A926A12F0200F02D10C4A9342F6D92B
:10A4E0000A4A93420CD8002514B1074B084A1A6453
:10A4F00032F0EAFA284638BD0725F5E70725F3E7E5
:10A500000725F1E700900050004009503F420F003E
:10A510003254FFFF10B5134B5C6E03F580534FF0C0
:10A5200000425A6603F50B235A6C02F001024AF608
:10A53000CD3119640C4B5B6B13F0800FFAD10A49D3
:10A540000B6A23F4F85343EA00230B620AB1074A6B
:10A550000A64002C03DB064B4FF000425A6632F0CF
:10A56000B3FA10BD00800050004009503254FFFF84
:10A5700000A00050054B984206D0054B984201D0F0
:10A580000020704757207047562070470000015B3D
:10A5900000000A5010B504462BF0B6FC042307E077
:10A5A00004F5805304221A6104F500531A610B4626
:10A5B000591E002BF4D1202323610023E360A36004
:10A5C00041F202026261A361A3654FF4A0226262BC
:10A5D000E3612362A362E3626363236504F50052CF
:10A5E0000149D164236310BDFF3F0D03F8B5044654
:10A5F00015460846E1B1A36813F0010F34D0666830
:10A60000B0FBF5F0451E16F001062BD0636D13F07C
:10A61000280FFBD1A36C13F0030F0FD1A36C13F021
:10A62000010F1BD1A36C13F0020F19D1002706E014
:10A630002046FFF79FFF2BF07DFADCE70527204639
:10A640002BF062FC236923F07F4343EA0563236117
:10A650006EB3394620462BF076FC28E00927EEE75A
:10A660000627ECE70027EDE76368A36D13F0010F01
:10A6700000D06D00A36803F0E003402B1DD017D974
:10A68000602B1ED0802B12D10123400105FB03F368
:10A69000B0FBF3F020380C4A02EAC002636D13F0FD
:10A6A000010FFBD12263636D13F0010FFBD1F8BDE5
:10A6B0002BB1202BFBD10823E7E70623E5E7102386
:10A6C000E3E70423E1E700BFF8FF7F00F8B50446A5
:10A6D0000D4617461E46436823B1616DC1F30B0159
:10A6E0000029FAD12046FFF755FF636923F44C5344
:10A6F00023F00F036A7B1343EA8913432A8A134327
:10A700006361A36823F0804323F0E2032A7B1343B1
:10A710002A7E13436A691343A360AB681BB9A3681D
:10A7200043F00043A360EB69002B69D0A2687B492A
:10A7300011401A7A41EA82519A7A41EA42419A8852
:10A7400002F4C04211435A7841EA82015A7B41EA3D
:10A75000C2019A7B41EA02119B7841EA8321A16000
:10A76000E2686F4B1340EA6911690B4351690B436F
:10A77000917943EA8123D27943EA4223E360EB698A
:10A780001B78012B01D0032B03D1E36843F00403B2
:10A79000E360EB691B78023BDBB2012B67D9614BAD
:10A7A0009C427CD0604B9C4277D04FF0FF335B01E2
:10A7B00003F1A04303F5703342F294420221995011
:10A7C000EB695A7A04F580539A62EB695B7A1BB1A4
:10A7D000E36843F40063E360EB69DB7A4BB1E36861
:10A7E00043F40043E3604F4B9C425AD04E4B9C4293
:10A7F0005ED0636A23F00303EA69D27B134363628A
:10A800003FB197F82030002B5AD004F58053012235
:10A810001A62DEB12B7E23B104F580534FF400425F
:10A820009A65404B9C425CD03F4B9C4257D0A36DF5
:10A8300023F4F95323F01E0396F821201343728C5E
:10A840001343A36504F5805301229A650521204630
:10A850002BF079FBAA68002A5BD1297820462BF0DF
:10A8600072FBA36CDB4313F4405FFAD1F8BD2D4BB0
:10A870009C4210D02C4B9C420BD04FF0FF335B011D
:10A8800003F1A04303F5703341F294420221995041
:10A8900096E70123F3E70023F1E7012387E700238D
:10A8A00085E7EB691B7B03F00F03204A53679DE7A5
:10A8B000EB691B7B03F00F031C4AC2F8803098E75A
:10A8C000E36923F0090397F82220134397F8212026
:10A8D000134343F0010304F58052D36199E7012348
:10A8E00000E0002396F82120102A0AD8104A0121FE
:10A8F000D154728CB2F5006F07D80E4A0121D154A1
:10A9000095E70B4A0221D154F3E70A4A0221D154B8
:10A910008DE769682046FFF769FE9EE7E39BBDFF70
:10A92000FFF9F0870000015B00000A50009003501F
:10A930002424002020240020F8B504460D461E469D
:10A9400017463AB1FBB101228A4000EB40010901F0
:10A950001D4B5A50072D1ED8A90004EB44031B01C0
:10A9600007FA01F20F2000FA01F1184818442BF001
:10A9700021FB3FB9FEB10122AA4004EB44042401AB
:10A98000114B1A51F8BD01228A4000EB4001090128
:10A990000F4B5A50DEE7A5F108039B0004EB440C73
:10A9A0004FEA0C1C07FA03F20F2199400948604452
:10A9B0002BF000FBDDE70122AA4004EB4404240154
:10A9C000034B1A51DEE700BF40D0035034C00350A0
:10A9D00040E003503CC0035010B515202DF089F81D
:10A9E000074B00245C65FF229A625C6021462020B0
:10A9F000FFF722F821462120FFF71EF810BD00BF07
:10AA00000000045029B9044A012303FA00F0106041
:10AA10007047024AF8E700BF40100450402004503D
:10AA200010B5044601212020FFF706F8012121205E
:10AA3000FFF702F8114B01225A60227812069A6041
:10AA40006178A27842EA01429A61FF229A6200226A
:10AA50009A631A644FF000425A6503F500534FF0B1
:10AA6000FF321A65152003F02DF8E17815202DF03E
:10AA700048F815202DF041F810BD00BF000004502B
:10AA800070B50C46C3B201259D40234901F5005322
:10AA90001D65830003F1A04303F5882326685E60EB
:10AAA000637B00EB400C01EB0C1CCCF8603094F89D
:10AAB0000AE0E37A1B0543EA0E4394F80CE043EA0C
:10AAC0004E53CCF85C3022F00302CCF8702037F003
:10AAD0002EFA124B5D65237A1BB10F4A136C2B4380
:10AAE0001364637A1BB10C4A936B2B4393632379F2
:10AAF000A27942EA0342084B03F500518A6194F8B7
:10AB000005C0E27942EA0C4203F58054A2614D632C
:10AB10009D6437F007FA70BD000004500010045027
:10AB200010B5C0B20124844037F001FA044B5A6DCD
:10AB300022EA04025A659C6237F0F4F910BD00BFA6
:10AB40000000045010B5C0B20124844037F0EFF982
:10AB5000084BDB6A234205D1064B5B6B9C4306D056
:10AB6000002400E0002437F0DDF9204610BD012468
:10AB7000F9E700BF0000045070B50446C3B20125D8
:10AB80009D4037F0D4F9084B5E6B04EB440403EBB3
:10AB900004135C6E37F0C6F9354203D1C4F30A10D2
:10ABA000013070BD0020FCE700000450064B4FF45C
:10ABB00080329A6603F51C3341F67132DA6303F58D
:10ABC00000530122DA60704700900050074B41F6B5
:10ABD0007132DA6303F500520121D1600022DA6399
:10ABE000A3F518334FF480329A6670470000035083
:10ABF00070B50446C2F3062602F0070241B942EAE4
:10AC0000062242F440220634094B43F8242070BD4A
:10AC1000114630462BF00CFA054630462BF0D8F999
:10AC200045EA00251634024B43F82450EFE700BFF5
:10AC300000800350054B1868B0F1FF3F04D1044B6E
:10AC4000D3F89400014B1860704700BF14470020F0
:10AC500000400050074B4FF480325A6603F5E6235C
:10AC60009B69C3F38512827003F03F0242701B0B95
:10AC70000370704700900050034B9B680A3303F049
:10AC80001F030120984070470080E00F064B984258
:10AC900004D0C36D43F08003C3657047A3F5103340
:10ACA000C3F8C811F5E700BF00C0055070B50546F0
:10ACB00016461C460846D1B1402C21D01CD80CB3F6
:10ACC000202C13D1082306FB03F2530803EB401397
:10ACD000B3FBF2F3203B0C4A02EAC303AA6822F05A
:10ACE0006002AA60AA681443AC60EB6170BD4FF4C7
:10ACF00020702AF01FFFDFE7602CF7D10423E2E782
:10AD00000623E0E71023DEE7F8FF7F0000F580531D
:10AD100001225A6040F6AA63436100238360C36541
:10AD200041F20502C2600361C361C36400F50052D1
:10AD3000074991648365074B984204D000F50050A1
:10AD4000012343607047002303654365F6E700BFB6
:10AD5000FFFF010000C0055038B505460C46FFF75F
:10AD6000D5FF05F5805301225A60A37C1BB1AB6867
:10AD700043F08043AB60E37C002B34D1637B228AB9
:10AD80001343E2891343EB60237BA2686168284682
:10AD9000FFF78CFF637D1BB1AB6843F48033AB607E
:10ADA000A37D1BB1AB6843F40043AB60E37D1B079D
:10ADB00003F0E043227E120502F4E0021343AB6588
:10ADC000637E023BDBB2012B12D90F4B0222C3F888
:10ADD0002027637E012B10D0032B0ED005F50053E6
:10ADE0000422DA650DE0217D2846FFF74FFFC5E715
:10ADF000064B0222C3F82027EBE705F58053042217
:10AE0000DA6523786B6138BD00E0035000D0035051
:10AE100070B504460D461646037841782C4AD2F8A0
:10AE200010236A1E0E2A09D8DFE802F00A0A0A0A6D
:10AE30000A0A0A0A0A0A0A0A0A0A0A00002200E0A2
:10AE40002A463DB116B30120884003EB43031B01A2
:10AE50002049C8506178072920D82378890003EB5E
:10AE600043031B018A400F2000FA01F11A481844DD
:10AE70002BF09EF94DB906B32378627801219140F9
:10AE800003EB43031B01134AD15070BD01208840DE
:10AE900003EB43031B011149C850DBE72378083952
:10AEA000890003EB43031B018A400F2000FA01F1E4
:10AEB0000B4818442BF07CF9DCE7237862780121F9
:10AEC000914003EB43031B01044AD150DDE700BF6F
:10AED00000C0035040D0035034C0035040E0035042
:10AEE0003CC00350074B9B6813F0020FFAD1054B8F
:10AEF0005B6813F0020FF5D1024BDB69002BF1D137
:10AF0000704700BF00800A50064B5B6813F0010FCA
:10AF100003D0044BDB69002BF6D1024B02221A61ED
:10AF2000704700BF00800A5008B5FFF7DBFF034BF6
:10AF300003F5805101224A601A6108BD00800A5061
:10AF400008B5054B5B68012B00D008BDFFF7DCFF9F
:10AF5000024B01225A60F8E700800A5000A00A5014
:10AF600010B50446FFF7BEFF084B5B68012B05D008
:10AF7000237843B10122054BDA6010BDFFF7E0FFF3
:10AF8000FFF7B0FFF4E70022F5E700BF00800A50AA
:10AF9000D8B90B78D3B101234A6812B1127843EAC9
:10AFA000C2034A78A2B1022213438A6812B112780E
:10AFB00043EA82138A786AB104221343CA6812B141
:10AFC000127843EA4223044A936470470023E3E77C
:10AFD0000022E9E70022F0E700800A5038B5044675
:10AFE00031F0B7FD864640B9054DA446BCE80F00D8
:10AFF0000FC59CE8030085E80300704638BD00BF1C
:10B000002824002047F6FF739A427FD002297FD878
:10B0100070B5414B13F801E0BEF1010F01D90020DA
:10B0200070BD3E4B03EBCE0191F802C0604613F8B1
:10B030003E30012B26D0394B03EBCE035C68002C4D
:10B0400068D0B4F90030934204DBB4F90230934283
:10B0500000DC1346A288FF2A2CD000212826C82213
:10B060001D46D21A92FBF6F20A4412B22B4B03EBA6
:10B07000CE0393F801E0964501DD002A2FDA0EF1A8
:10B08000FF322CE0CB78A3EB0C0300249C420ED2C1
:10B09000191BA3EB5101214800EBCE00406830F9A9
:10B0A0001100904201DC0C46F0E74B1EEEE76344D2
:10B0B000D8B2B5E7B4F90620B4F908600121CFE7AA
:10B0C0005C331749A1FB03139B09013212B21646E8
:10B0D00096450FDD04EBC201898899420AD304EB3F
:10B0E000C2018B68B1F9061001FB0533002BE7DACA
:10B0F0000023E5E7013E04EBC604A2889A4200D390
:10B100001A46624500D31046C0B289E7FF20704757
:10B1100000207047002083E7006B040828240020EB
:10B12000D34D621002296FD83A4B5B5C012B6DD86E
:10B13000394911F8331001292AD010B4364901EBEE
:10B14000C3014C68002C63D0201D334901EBC301BF
:10B150008978914234D2304901EBC301C9789142D8
:10B1600033D92D4901EBC30393F801C00CF1FF3C27
:10B170005FFA8CFCA388FF2B2AD00023634529D2D9
:10B18000591C30F83110914224D30133DBB2F5E77A
:10B19000214901EBC301C978914200D20A461E48F9
:10B1A00000EBC3008078121AD2B2091A8A4200DD7D
:10B1B0000022194901EBC3035B6833F912007047A1
:10B1C000B4F902005DF8044B7047B4F90000F9E7E8
:10B1D0000123D3E74FF47A7101FB02F200EBC300C5
:10B1E0004368D31AB0F9022002EBD27103EB61037A
:10B1F00093FBF2F3B4F900009842E3DBB4F90200E8
:10B200009842DFDC18B2DDE7044870470348704716
:10B210000248D7E7006B0408282400200080FFFFC5
:10B2200008B50348FFF7DAFE012031F098FC08BDAD
:10B23000046B040886B000230193029303930493E4
:10B240000593024B029306B0704700BF006A1800D6
:10B25000002852D0F0B58FB00C461D460646002996
:10B260004DD0149B002B4CD0159B002B4BD015F0D0
:10B270000F0F4AD162B9264B336000237360B3606D
:10B28000F36101A920462BF004F918B10FB0F0BD0D
:10B29000204BF1E70199304636F06EFE29463046E4
:10B2A00036F06AFE0BA9204600F056FB0028EDD1CF
:10B2B0000BA930462BF0DBFA08A920462BF0F8F951
:10B2C0000028E3D108A930462BF0D1FA149B05934E
:10B2D0000127069745F00055079505A930462BF044
:10B2E000C6FA159B02930397049502A930462BF0EA
:10B2F000C8FA304636F021FEC8E7212070472120E9
:10B30000C4E72120C2E72120C0E72120BEE700BF1B
:10B3100000010004000101042DE9F04F99B00391F0
:10B320000593DDF88890239EDDF89080DDF894A0E9
:10B33000002800F0BC8017468346002900F0BD803D
:10B340003AB1B8F1000F00F0BB80BAF1000F00F085
:10B35000BA80B9F1000F00F0B980002E00F0B9807A
:10B36000059B002B00F09D801C68002302931D4666
:10B37000BD4280F0988054B118F80530325D5340DA
:10B380000AF80530013404F00F040135F0E77B1BA7
:10B3900004930F2B70D9504BCBF800300023CBF81F
:10B3A0000430CBF80830CBF81C3015A903982BF0EB
:10B3B00070F8029000287CD11599584636F0DCFDD3
:10B3C000049B23F00F0204921146584636F0D4FD38
:10B3D00006A9039800F0C0FA0290002869D106A9D6
:10B3E00058462BF044FA09A903982BF061F9029012
:10B3F00000285ED109A958462BF039FACDF83090D3
:10B4000001230D93354B0E9308EB05030F93012099
:10B410001090049A42F00051029111910CA95846E3
:10B420002BF025FA0FA958462BF021FA0AEB050359
:10B4300012930120139002991491CDF85490169014
:10B44000264B179312A958462BF01BFA15A95846FC
:10B450002BF017FA584636F070FD049A1544029006
:10B4600050B126E018F80530325D53400AF8053037
:10B47000013404F00F040135BD423FF479AF002CD4
:10B48000F0D10196CDF80090102300220399584680
:10B49000FFF7DEFE029060B949460F202AF006FF52
:10B4A000E0E7002461E7059B1BB11C6001E021235C
:10B4B0000293029819B0BDE8F08F21230293F8E7B8
:10B4C00021230293F5E721230293F2E7212302933C
:10B4D000EFE721230293ECE70303000410000020B0
:10B4E0002DE9F04196B0229F002800F0B2800D4671
:10B4F00014461E468046002900F0AF801FB1219BF4
:10B50000002B00F0AC80002E00F0AB801E9B1BB126
:10B510001D9B002B00F0A7803CB11F9B002B00F06F
:10B52000A480209B002B00F0A2801C9B5FFA83FC70
:10B53000CCF10F0C5FFA8CFCBCF1030F07D84FEA7B
:10B54000CC0C012303FA0CF3A34240F29280022FA9
:10B5500000F09180102F00F2908017F0010F40F062
:10B560008E801C9B073B062B00F28B80209B1A19B8
:10B57000464B9A4200F28780454BC8F800300023C2
:10B58000C8F80430C8F80830C8F81C3069462846A6
:10B590002AF07FFF00285DD10099404636F0ECFC90
:10B5A000B9B21C9B41EA0341404636F0E5FC1E99C6
:10B5B000404636F0E1FC2146404636F0DDFC13A95A
:10B5C000284600F0C9F9002844D113A940462BF0C1
:10B5D0004EF910A928462BF06BF800283AD110A993
:10B5E00040462BF044F91F9B0D9301250E9544F026
:10B5F00000540F941D9B0A930B951E9B43F0005320
:10B600000C93079608951C9B43F00053099307A9D8
:10B6100040462BF02CF90AA940462BF028F90DA939
:10B6200040462BF024F9209B049305950694219B1A
:10B630000193029547F00057039704A940462BF069
:10B6400020F901A940462BF01CF9404636F075FC64
:10B6500000E0212016B0BDE8F0812120FAE721208A
:10B66000F8E72120F6E72120F4E72120F2E7212066
:10B67000F0E72120EEE72120ECE72120EAE7212076
:10B68000E8E72120E6E72120E4E700BF00000420EE
:10B69000000005042DE9F04397B0249F002800F036
:10B6A000BB800D4614461E468046002900F0BA8035
:10B6B000239B002B00F0B980002E00F0B980209B66
:10B6C0001BB11F9B002B00F0B6803CB1219B002BCF
:10B6D00000F0B480229B002B00F0B3801E9BDAB2F6
:10B6E000C2F10F02D2B2032A05D8D200012393403F
:10B6F000A34240F2A980022F00F0A980002F00F0A1
:10B70000A980102F00F2A98017F0010F40F0A88047
:10B710001E9B073B062B00F2A680229B1A19554B55
:10B720009A4200F2A380544BC8F800300023C8F8B6
:10B730000430C8F80830C8F81C30694628462AF09A
:10B74000A8FE8146002869D10099404636F014FCD5
:10B75000B9B21E9B41EA0341404636F00DFC2099E8
:10B76000404636F009FC2146404636F005FC13A958
:10B77000284600F0F1F8814600284FD113A9404631
:10B780002BF075F810A928462AF092FF8146002870
:10B7900044D110A940462BF06AF8219B0D93012556
:10B7A0000E9544F00059CDF83C901F9B0A930B95E1
:10B7B000209B43F000530C93079608951E9B43F083
:10B7C0000053099307A940462BF051F80AA94046B7
:10B7D0002BF04DF80DA940462BF049F8229B04931D
:10B7E0000595CDF8189004A940462BF04AF8239B04
:10B7F0000193029547F00057039701A940462BF0AB
:10B8000036F8404636F099FB814638B12246002191
:10B81000229834F07BFB01E04FF02109484617B035
:10B82000BDE8F0834FF02109F8E74FF02109F5E773
:10B830004FF02109F2E74FF02109EFE74FF021091E
:10B84000ECE74FF02109E9E74FF02109E6E74FF077
:10B850002109E3E74FF02109E0E74FF02109DDE797
:10B860004FF02109DAE74FF02109D7E74FF021091E
:10B87000D4E700BF00000420000006042DE9F043D7
:10B8800085B00023039300285FD00D461446074679
:10B890000AB100295BD004F0030634F0030804D198
:10B8A0002EBB304605B0BDE8F0834FF0E0633B604F
:10B8B00000237B60BB60FB6100950123019348F08E
:10B8C00000530293694638462AF0DBFF414638466A
:10B8D00036F052FB384636F030FB81460028DFD088
:10B8E00042460021284634F011FB4E46D9E74FF07E
:10B8F000E0633B6000237B60BB60FB6103AB0093B4
:10B9000001230193134B0293694638462AF0B9FF8D
:10B910000421384636F030FB384636F00EFB074639
:10B9200008B903460DE022460021284634F0EEFA1D
:10B930003E46B6E7D900039ACA4003EB08016A54B1
:10B940000133B342F6D33E46ABE72126A9E72126D1
:10B95000A7E700BF04000020C0B1C9B101234B60BC
:10B96000C368013B012B04D94FF000538B600020CA
:10B970007047836923B10B60064B8B6000207047D2
:10B98000054B0B60034B8B600020704721207047F4
:10B9900021207047080000205C71040800F01F029D
:10B9A00001239340A0F50620A0F550604009074907
:10B9B00051F820201A4341F82020054951F8202051
:10B9C00022EA030241F82020704700BF60240020D3
:10B9D0004024002000F01F0CA0F50620A0F55060C8
:10B9E00040090F4951F82030012202FA0CF21343AA
:10B9F00041F8203000231A4604E00A4951F8231088
:10BA00000A440133072BF8D902B17047072A05D839
:10BA1000034B002143F822100132F7E7704700BFC3
:10BA2000402400206024002000F01F0CA0F5062018
:10BA3000A0F550604009054951F82030012202FA72
:10BA40000CF2534041F82030704700BF60240020C2
:10BA50002DE9F041A2B040242246002112A834F082
:10BA600055FA2246002102A834F050FA214F23E073
:10BA7000DFF88C8029E022AB03EB840353F8400C01
:10BA8000FFF78CFF0134AC42F5D3CDF800803B4684
:10BA9000102202A91848006829F0BEFD05460024BE
:10BAA00007E022AB03EB840353F8800CFFF792FF0F
:10BAB0000134AC42F5D33746104B9F4213D807F1FF
:10BAC00010060F4B9E42D3D8B04608F1FF38CDF890
:10BAD00000803B46102212A90748006829F092FD19
